:020000040000FA
:060000003FEF16F01200B4
:020006001200E6
:06000800CFEF11F0120021
:02000E00C250DE
:08001000020B01E0010E1200D9
:060018002CEF12F01200B3
:02001E000200DE
:10002000F82C0000600000009C000000F62C00008E
:08003000460000000200000080
:0800380090DB86E9015001068E
:1000400000090CE002EBE6FF03EBE6FF00EBE6FF46
:1000500069DBF4E1381DF2E1010E01D0000E41E947
:10006000E5CFDAFFE7CFD9FF120077DB89E97BE83C
:100070000A6A0B6A02EBF6FF03EBF7FF04EBF8FFEB
:100080000800F550096E095001E12DD3250E095CD9
:1000900001E01BD30C6A0D6A0E6A0F6A106A2DDB31
:1000A0002D0E095C0CE02B0E095C09E0200E095CAA
:1000B00006E0230E095C03E0300E095C15E10950EF
:1000C000300A10E0130A0CE0030A08E00B0A04E00F
:1000D000060AE5E10C80E3D70C82E1D70C84DFD778
:1000E0000C86DDD70C88DBD72A0E095C13E1A5DB73
:1000F0000DE30C801CEB37F01DEB38F00001376D81
:10010000381F000E382337510D6E02D09CEB0DF0D6
:10011000F4DA07D0126A3FDB02E06BDBFCD792EB2C
:100120000DF00CB00C982E0E095C15E1E6DA2A0EE3
:10013000095C08E182DB04E29CEB0EF0010E0F6E1D
:10014000DCDA09D0126A27DB02E053DBFCD792EB42
:100150000EF0010E0F6E680E095C07E1CEDA680E34
:10016000095C1DE1030E106E19D0740E095C16E0D7
:100170007A0E095C13E0480E095C06E0540E095C37
:1001800003E05A0E095C02E1020E07D06C0E095C16
:1001900003E06A0E095C03E1010E106EAEDA09504D
:1001A0006E0A01E16ED21E0A01E128D1200A01E1A6
:1001B00025D13F0A01E1FDD01A0A01E1FAD00D0A6A
:1001C00001E1F7D0200A01E1F4D03A0A01E1F1D0CF
:1001D000200A01E1EED0260A01E1EAD00D0A01E190
:1001E000E7D01A0A01E19ED0200A3BE0300A1AE06B
:1001F000460A0EE0250A01E072D2D950020FE96EDC
:10020000000EDA20EA6E010EEE5E000EEE5AEE5A95
:100210000FDB250EE66E86DA03E1381D01E159D2C7
:100220000A2A5BD2116A0D50010803E20D04116E17
:10023000F5DA115007E0010E0C1404E16DDA01E06B
:1002400048D2116AD3DAEF50096ECBDA03E1381DD8
:1002500001E13FD20A2A000E0B225EDA01E13FD211
:1002600038D2020E105C08E1030E4EDAEE50176E23
:10027000EE50186EEF5007D0E7DA396B3751176E32
:100280003851186E3951196E17EBE6FF18EBE6FF7F
:1002900019EBE6FF37EC13F043E9FCC037F0FDC083
:1002A00038F0FEC039F0000137511C6E38511D6E18
:1002B0000F5006E01C500E5C03E20E501C6E1D6ACF
:1002C0001C500D5C02E29CEB0DF050DA05E00D5085
:1002D0000E5C02E28EEB0DF00CB004D01DDA01E0F2
:1002E000F8D1116A126A17EBF6FF18EBF7FF19EB5A
:1002F000F8FF0800F550096E095010E00D50125C2F
:100300000DE26FDA03E1381D01E1E3D10A2A000EA4
:100310000B22122AD950170F55DAEBD7FDD901E17C
:10032000DED1D7D163DAEE501A6EED501B6E1AEBA8
:10033000E6FF1BEBE6FF29EC13F042E9F3501C6EDD
:10034000F4501D6E0F5006E01C500E5C03E20E5080
:100350001C6E1D6A1C500D5C02E29CEB0DF006DA6F
:1003600005E00D500E5C02E28EEB0DF00CB004D0F7
:10037000D3D901E0AED1116A126A1AEBE9FF1BEB87
:10038000EAFFEF50096E09500FE00D50125C0CE2CD
:1003900028DA03E1381D01E19CD10A2A000E0B2264
:1003A000122A1A2A1B22E9D7B7D901E198D191D193
:1003B0000C8E10040AE1040EA7D9EE50136EEE5015
:1003C000146EEE50156EEF5032D0030E105C16E135
:1003D0000CAE0CD00BDAEFCF37F00001386B396B75
:1003E0003A6B37AF23D0386939691FD0FFD9EFCFC7
:1003F00037F000013751136E146A20D0020E105CE2
:100400000CE10CAE06D0030E7FD9B6D939AF0ED0B1
:100410000CD0030E79D9B0D909D00CAE0AD014DAB9
:10042000396B3A6B38AF02D039693A69BCD9166E6C
:1004300007D00ADA3751136E3851146E156A166AEE
:100440000F5002E1010E0E6E1E6A1F6AD950400F56
:10045000E66E000EDA20E66EE552E550436EE75098
:10046000426E416A116A0A0E106E0950780A12E053
:10047000200A10E0280A0CE0200A0AE03F0A06E001
:100480000D0A02E0200A08E1020E05D0080E03D092
:10049000080E0926100E106E0CBE02D00C920C94A1
:1004A000800E0C1417E0163415E3E668E668E6687B
:1004B000E66842D922EC11F0E552E5CF3AF0E5CFFB
:1004C00039F0E5CF38F0E7CF37F000016CD9166E80
:1004D0002D0E07D00CA202D02B0E03D00CA404D0FA
:1004E000200E206E1E2A01D0206A0E5005E1135006
:1004F00014101510161061E00001DE0E376F2C0E7F
:10050000386F000E396F83D9DFEC10F0E552E5CF7C
:100510003DF0E5CF3CF0E5CF3BF0E7CF3AF000010E
:1005200037513A25F36E38513B21F46E39513C2155
:10053000F86EF4CFF7FFF3CFF6FF0800F550126E18
:10054000580E095C05E1610E125C02E3200E125E9A
:100550005ED9DCEC10F0E552E550166EE550156EF4
:10056000E550146EE750136E42EBE9FF43EBEAFFF0
:100570004206000E435A12EBEFFF1E2A13501410CE
:1005800015101610B9E10CA619D06F0E095C06E122
:100590000E501E5C13E31E280E6E10D0780E095C00
:1005A00009E0580E095C06E0620E095C03E0420EA9
:1005B000095C04E1020E1F6E01D01E6A100E0C14BD
:1005C00007E00D500E5C04E20F5002E18DEB0EF0DF
:1005D0000E501E5C03E21E500E5E01D00E6A0E50DD
:1005E0001E241F24D8800D5407E20E500D5CD880C5
:1005F0001E54D8801F54116E010E0C1406E11150C8
:1006000004E08AD866E10AD9116A205007E010D9BF
:1006100020EBE6FF87D802E1381D5BE01F500BE0BE
:1006200007D9300EE66E7ED802E1381D52E0D9D8E7
:1006300002E1381D4EE00E501F5C02E21F500E5EBC
:10064000300EE66E0EEBE6FFDCD843E1422A000EE8
:10065000432242EBE9FF43EBEAFFEF50126E1250E8
:1006600008E0E6D812EBE6FF5DD8F0E1381DEEE1D8
:1006700030D052D82EE10E501E2411241F240A26F9
:100680002CD01050030A1CE0010A14E0030A07E012
:10069000ADD8C9D80AEBEEFF0BEBEDFF20D08BD81D
:1006A0003A6B38AF02D039693A69A0D84ED83AC00F
:1006B000EEFF15D080D838BF396998D846D80FD00A
:1006C00095D8B1D80AEBEFFF0AD08BD805E1381DD9
:1006D00003E1F368F4680BD00A2A000E0B22D9500C
:1006E000020F70D8CDD40AEBF3FF0BEBF4FF7CE9DB
:1006F000E5CFDAFFE7CFD9FF1200D950020F62D859
:100700000800F550096E1200005E000E015A00EB61
:10071000E9FF01EBEAFF1200200EE66E11EBE6FFA7
:1007200001EF04F043EC14F043E9F3CF37F0F4CFDA
:1007300038F00001F31C120013EBE6FF14EBE6FFA8
:1007400015EBE6FF16EBE6FF12006DD837C0EEFFA3
:1007500038C0EEFF39C0EEFF1200D9CFE6FFDACF86
:10076000E6FFE1CFD9FFE2CFDAFF12001C500D5CAB
:10077000116E54D80F501200EECF37F0EECF38F094
:10078000EFCF39F000013A6B1200EECF37F0EFCF28
:1007900038F0000112000950E66EE66AFFEC15F031
:1007A00042E9F35012003751136E3851146E39512B
:1007B000156E3A5112000AEB37F00BEB38F00001DE
:1007C000396B1200E96E000EDA20EA6EEF2AEECFE6
:1007D000F6FF000EEF22EECFF7FFEF22EECFF8FF8D
:1007E000120026D809EBE6FF92EF03F0020E84EF29
:1007F00003F00A0E1202F3500924D00F126E7DEF9F
:1008000003F016D81CEC00F044E90009120010EBCC
:10081000E6FFE66AE66AE66A9CEF03F011500A26F4
:10082000000E0B221200EE50EFCFEAFFE96E12002D
:1008300005EBE6FF06EBE6FF1200D8DFEE501C6E7C
:0E084000ED501D6E1D341200D1DFC5EF03F028
:02084E00D9CF00
:10085000E6FFE1CFD9FF82E941E9E7CFD9FF1200F6
:10086000D9CFE6FFE1CFD9FF84E941E9E7CFD9FF4E
:100870001200D9CFE6FFE1CFD9FF82E941E9E7CF06
:10088000D9FF1200D9CFE6FFE1CFD9FF84E940C0FC
:10089000E9FF41C0EAFF190EE926000EEA22EF6ADD
:1008A00040C0E9FF41C0EAFF190EEB50D880025466
:1008B00032E240C0E9FF41C0EAFF190EEB500024CC
:1008C000E96E000E0120EA6EEF50E66E40C0E9FFCF
:1008D00041C0EAFF0F0EE926000EEA22E9CF37F009
:1008E000EACF38F040C0E9FF41C0EAFF190EEB50F3
:1008F0000001EA6A3725E96E3851EA22E552E750ED
:10090000EF6E40C0E9FF41C0EAFF190EE926000E74
:10091000EA22EF2AC5D740C0E9FF41C0EAFF190E1D
:10092000E926000EEA2202EBEFFF40C0E9FF41C0DA
:10093000EAFF1A0EE926000EEA22010EEF6E40C011
:10094000E9FF41C0EAFF0F0EEB50C96EC68841E9CE
:10095000E7CFD9FF1200D9CFE6FFE1CFD9FF82E977
:1009600040C0E9FF41C0EAFF0B0EE926000EEA2273
:10097000010EEF6E40C0E9FF41C0EAFF0A0EE92612
:10098000000EEA22EF6A005038E0C7AA1ED040C02D
:10099000E9FF41C0EAFF0C0EE926000EEA22050E2F
:1009A000EF6E40C0E9FF41C0EAFF0E0EE926000EDF
:1009B000EA22EF2A40C0E9FF41C0EAFF0D0EE92616
:1009C000000EEA22050EEF6E17D0C7A40BD040C070
:1009D000E9FF41C0EAFF0C0EE926000EEA22080EEC
:1009E000EF6E0AD040C0E9FF41C0EAFF0C0EE926D5
:1009F000000EEA22070EEF6E0AD040C0E9FF41C0A8
:100A0000EAFF0C0EE926000EEA22060EEF6E41E91F
:100A1000E7CFD9FF1200D9CFE6FFE1CFD9FF81E9B7
:100A200049E8026A036A046A056A066AC6AC20D00D
:100A3000C69C40C0E9FF41C0EAFF0C0EE926000E4B
:100A4000EA22050EEF6E010E066E40C0E9FF41C0BE
:100A5000EAFF0E0EE926000EEA22EF2A40C0E9FF67
:100A600041C0EAFF0D0EE926000EEA22040EEF6EE9
:100A7000C7A004D0C950016E010E026E065001E0FD
:100A800094D140C0E9FF41C0EAFF0C0EEB50070AC9
:100A900001E1D2D00F0A01E18DD00E0A15E0030A60
:100AA00001E083D1C7A60FD002EBE6FF54DF41E996
:100AB00040C0E9FF41C0EAFF0C0EEB50080803E11B
:100AC000026A010E056E71D1C7A82ED040C0E9FFA1
:100AD00041C0EAFF0B0EE926000EEA22EF2A02507F
:100AE00018E0C7BA03D0010E046E13D040C0E9FF6E
:100AF00041C0EAFF0E0EE926000EEA22EF2A40C0AE
:100B0000E9FF41C0EAFF0D0EE926000EEA22060EBB
:100B1000EF6E40C0E9FF41C0EAFF0C0EE926000E6F
:100B2000EA22050EEF6E45D0025043E040C0E9FFD7
:100B300041C0EAFF0B0EE926000EEA22EF2AC7BAEF
:100B40001BD0C7B40BD040C0E9FF41C0EAFF0C0E78
:100B5000E926000EEA22070EEF6E0DD040C0E9FF35
:100B600041C0EAFF0C0EE926000EEA22080EEF6EE5
:100B7000010E056E026A1DD040C0E9FF41C0EAFFC8
:100B80000E0EE926000EEA22EF2A40C0E9FF41C01E
:100B9000EAFF0C0EE926000EEA22050EEF6E40C0B9
:100BA000E9FF41C0EAFF0D0EE926000EEA22060E1B
:100BB000EF6EFBD040C0E9FF41C0EAFF1A0EEB50D8
:100BC0000001376F40C0E9FF41C0EAFF190EEB504A
:100BD0000001375D26E240C0E9FF41C0EAFF0F0E89
:100BE000E926000EEA22E9CF37F0EACF38F040C01C
:100BF000E9FF41C0EAFF1A0EEB500001EA6A37250F
:100C0000E96E3851EA22EF50C96E40C0E9FF41C099
:100C1000EAFF1A0EE926000EEA22EF2A010E036E01
:100C20000AD040C0E9FF41C0EAFF0C0EE926000EE1
:100C3000EA22050EEF6EB9D0C7A85AD040C0E9FF2E
:100C400041C0EAFF0B0EE926000EEA22EF2A02500D
:100C500042E0C7AA22D040C0E9FF41C0EAFFE9CF85
:100C600037F0EACF38F040C0E9FF41C0EAFF0A0E92
:100C7000EB500001EA6A3725E96E3851EA2201EBB0
:100C8000EFFF40C0E9FF41C0EAFF0A0EE926000E6F
:100C9000EA22EF2A010E046E1DD040C0E9FF41C0D8
:100CA000EAFF0E0EE926000EEA22EF2A40C0E9FF15
:100CB00041C0EAFF0D0EE926000EEA22060EEF6E95
:100CC00040C0E9FF41C0EAFF0C0EE926000EEA220F
:100CD000050EEF6E02D0010E046E40C0E9FF41C068
:100CE000EAFF0C0EE926000EEA22050EEF6E5CD03C
:100CF00002505AE040C0E9FF41C0EAFF0B0EE9266E
:100D0000000EEA22EF2AC7AA20D040C0E9FF41C066
:100D1000EAFFE9CF37F0EACF38F040C0E9FF41C041
:100D2000EAFF0A0EEB500001EA6A3725E96E3851F6
:100D3000EA2201EBEFFF40C0E9FF41C0EAFF0A0EE3
:100D4000E926000EEA22EF2A2FD0C7A410D040C017
:100D5000E9FF41C0EAFF0C0EE926000EEA22080E68
:100D6000EF6E010E046E010E056E026A1DD040C0CA
:100D7000E9FF41C0EAFF0E0EE926000EEA22EF2A43
:100D800040C0E9FF41C0EAFF0D0EE926000EEA224D
:100D9000060EEF6E40C0E9FF41C0EAFF0C0EE926E7
:100DA000000EEA22050EEF6E00D0025002E1035061
:100DB00002E0C6A8C68840C0E9FF41C0EAFF0A0EAB
:100DC000EB5008081FE204501DE140C0E9FF41C09C
:100DD000EAFF0C0EE926000EEA22050EEF6E40C077
:100DE000E9FF41C0EAFF0E0EE926000EEA22EF2AD3
:100DF00040C0E9FF41C0EAFF0D0EE926000EEA22DD
:100E0000070EEF6E045041E040C0E9FF41C0EAFF29
:100E10000B0EEB50E66E40C0E9FF41C0EAFFE9CFA0
:100E200037F0EACF38F040C0E9FF41C0EAFF0A0ED0
:100E3000EB500001EA6A3725E96E3851EA22E552A3
:100E4000E750EF6E40C0E9FF41C0EAFFE9CF37F05D
:100E5000EACF38F037C0E6FF38C0E6FF280EE66E6E
:100E600040C0E9FF41C0EAFF0A0EEB50010FE66EF9
:100E700075EC0CF044E940C0E9FF41C0EAFF0A0EFE
:100E8000E926000EEA22EF6A36D040C0E9FF41C0F1
:100E9000EAFF0E0EEB500001376F010E0001375DC7
:100EA0002AE340C0E9FF41C0EAFF0E0EEB50076E97
:100EB00040C0E9FF41C0EAFF0D0EEB50086E40C094
:100EC000E9FF41C0EAFF0B0EEB50096ED950070F46
:100ED000E66EDACFE6FF290EE66E030EE66E75ECDF
:100EE0000CF044E940C0E9FF41C0EAFF0E0EE926DC
:100EF000000EEA22EF6A055013E040C0E9FF41C04E
:100F0000EAFFE9CF37F0EACF38F037C0E6FF38C064
:100F1000E6FF2A0EE66EE66A75EC0CF044E9056A17
:100F20004AE9E7CFD9FF1200D9CFE6FFE1CFD9FFD9
:100F300083E900EB40F001EB41F040C0E9FF41C024
:100F4000EAFF0A0EE926000EEA22EF6A40C0E9FF36
:100F500041C0EAFF0B0EE926000EEA22EF6A40C00C
:100F6000E9FF41C0EAFF0C0EE926000EEA22050E59
:100F7000EF6E40C0E9FF41C0EAFF0E0EE926000E09
:100F8000EA22EF6A41E9E7CFD9FF1200D9CFE6FFA5
:100F9000E1CFD9FF82E99486948800EBC8FFC76A45
:100FA000C66AC56A0E0EC612C78EC580C68A41E9DA
:060FB000E7CFD9FF12009B
:0A0FB6008B9E320EE66E64EC16F01E
:100FC00041E98B8E4CEC16F08A98420EE66E21ECCD
:100FD00015F041E90A0EE66E21EC15F041E9280E04
:100FE000E66E21EC15F041E98A888A98400EE66E9B
:100FF00021EC15F041E9010EE66E21EC15F041E916
:10100000E66A21EC15F041E98A888A98400EE66E7E
:1010100021EC15F041E9E66A21EC15F041E9E66AB8
:1010200021EC15F041E98A881200D9CFE6FFE1CF23
:10103000D9FF83E98A98400EE66E21EC15F041E96C
:1010400001EBE6FF21EC15F041E900EBE6FF21ECB6
:1010500015F041E98A8841E9E7CFD9FF1200D9CFDD
:10106000E6FFE1CFD9FF81E970E8016A026A480E24
:10107000036E450E046E4C0E056E4C0E066E4F0E42
:10108000076E200E086E570E096E4F0E0A6E520E36
:101090000B6E4C0E0C6E440E0D6E0E6A4F0E0F6EE4
:1010A000560E106E450E116E520E126E570E136EC6
:1010B000520E146E490E156E540E166E450E176EB6
:1010C000186A410E196E500E1A6E500E1B6E4C0EA1
:1010D0001C6E450E1D6E200E1E6E530E1F6E550E9D
:1010E000206E430E216E4B0E226E530E236E246A29
:1010F000410E256E440E266E440E276E410E286E5C
:10110000440E296E460E2A6E410E2B6E530E2C6E27
:10111000440E2D6E460E2E6E530E2F6E306A4BDF30
:101120000000030EE66E120EE66E7FDF42E9030E4C
:10113000E66E87D841E9230EE66E120EE66E75DF85
:1011400042E9230EE66E29D941E93F0EE66E130E01
:10115000E66E6BDF42E9030EE66E73D841E9E6689E
:10116000130EE66E62DF42E9E66A17D941E9BCD8A0
:10117000010EE66E0B0EE66ED950190FE66EDACF51
:10118000E6FFB9D944E9020EE66E0B0EE66ED950C1
:10119000030FE66EDACFE6FFAED944E9030EE66E42
:1011A000090EE66ED9500F0FE66EDACFE6FFA3D92F
:1011B00044E9040EE66E0B0EE66ED950250FE66E7E
:1011C000DACFE6FF98D944E971E9E7CFD9FF1200F9
:1011D000D9CFE6FFE1CFD9FF83E941E8030E001440
:1011E000036E200E0310E66E120EE66E1EDF42E95D
:1011F000400E0110E66E130EE66E17DF42E903EBB8
:10120000E6FF1FD841E942E9E7CFD9FF1200D9CF65
:10121000E6FFE1CFD9FF82E9230EE66E120EE66EFD
:1012200004DF42E9B80E0010E66E130EE66EFDDE36
:1012300042E9030EE66E05D841E941E9E7CFD9FF5F
:101240001200D9CFE6FFE1CFD9FF82E9300E0010BE
:10125000E66E120EE66EE9DE42E9050EE66E64EC1D
:1012600016F041E9200E0010E66E120EE66EDDDE8D
:1012700042E941E9E7CFD9FF1200010EC96EC7A0CC
:10128000FED7C95000D01200D9CFE6FFE1CFD9FF79
:1012900083E941E8036A00EBE6FFB9DF41E9400E6C
:1012A000015C0EE2020E036E020EE66E01EBE6FF3B
:1012B0008FDF42E9010EE66EE66A8ADF42E90ED070
:1012C000010E036E020EE66EE66A82DF42E9010E4F
:1012D000E66E400E015CE66E7BDF42E9035000D013
:1012E00042E9E7CFD9FF1200D9CFE6FFE1CFD9FF1E
:1012F00081E944E8016A026A046A080E045C25E296
:1013000004EBE6FFE66AC0DF42E9036A035000012E
:10131000376F386B800E0001D89038BF03D0375D2F
:10132000000E385910E2400E035C06E2020EE66E33
:10133000E66A13D842E905D0010EE66EE66A0DD8DA
:1013400042E9032AE3D7042AD8D7E66AE66A9CDF93
:1013500042E945E9E7CFD9FF1200D9CFE6FFE1CF57
:10136000D9FF83E941E8030E0014036E240E031035
:10137000E66E120EE66E59DE42E901EBE6FF130E51
:10138000E66E53DE42E9200E03100409E66E59DFD3
:1013900041E942E9E7CFD9FF1200D9CFE6FFE1CF1B
:1013A000D9FF82E9230EE66E120EE66E3EDE42E9BA
:1013B000C00E0010E66E130EE66E37DE42E9030E35
:1013C000E66E3FDF41E941E9E7CFD9FF1200D9CF0F
:1013D000E6FFE1CFD9FF81E941E8016A8A98400E32
:1013E000E66E21EC15F041E9010EE66E21EC15F0F8
:1013F00041E9E66821EC15F041E98A88280EE66E9D
:10140000120EE66E12DE42E90B0EE66E1ADF41E9BD
:101410000B0EE66E16DF41E90A0EE66E64EC16F07E
:1014200041E98A98410EE66E21EC15F041E9130E70
:10143000E66E21EC15F041E9C7A0FED7D1EC15F01E
:10144000016E8A88E66A010EE66EEFDD42E9015020
:1014500000D042E9E7CFD9FF1200D9CFE6FFE1CFB4
:10146000D9FF84E943E80150F80BE842E842E8423A
:10147000046E0150070B056E010E001405EBF3FF1F
:10148000055204E0D890E836F306FCE1066E01EB65
:10149000E6FF02EBE6FFF8DE42E9E66E06EBE6FF6A
:1014A0005CDF42E944E9E7CFD9FF1200D9CFE6FF7C
:1014B000E1CFD9FF85E942E8056A066A0350015C7D
:1014C000D89006BE03D0055C000E065810E2010E4F
:1014D000E66E0250F36EF46AF3500524E66E03EBF9
:1014E000E6FFBBDF43E9052A000E0622E7D743E902
:1014F000E7CFD9FF1200D9CFE6FFE1CFD9FF85E9C9
:1015000042E8056A020E066E005009E00050040829
:1015100006E30004E824E66EE66AB6DE42E9056A00
:10152000100E055C24E2080E055C03E2020E066E56
:1015300002D0010E066E0150055C0FE206EBE6FFDD
:10154000010EE66E05500224E96E000E0320EA6EDD
:10155000EFCFE6FF10D843E908D006EBE6FF010E17
:10156000E66E200EE66E07D843E9052AD9D743E98F
:10157000E7CFD9FF1200D9CFE6FFE1CFD9FF84E949
:1015800042E8046A056A410E025C30E302505A08E0
:101590002DE3410E025C056E00EBE6FFE66ADDDE40
:1015A00042E9046A060E045C1BE200EBE6FF05500C
:1015B000060DF3CF37F0F4CF38F0600E0001372777
:1015C000000E0001382304500001EA6A3725E96E55
:1015D0003851EA22EFCFE6FFC0DE42E9042AE2D723
:1015E00000EBE6FFE66AB9DE42E90FD0200E026E9C
:1015F00002500BE0046A080E045C07E200EBE6FF11
:10160000E66AABDE42E9042AF6D743E9E7CFD9FF21
:021610001200C6
:0E161200D9CFE6FFE1CFD9FF83E941E800EB35
:10162000E9FF01EBEAFF340EE926000EEA22EF6A39
:1016300000EBE9FF01EBEAFF350EE926000EEA2296
:10164000EF6A036A040E035C17E200EBE9FF01EBAB
:10165000EAFFE9CF37F0EACF38F003500D0D000173
:1016600000013751F324E96E000100013851F420E4
:10167000EA6EEF6A032AE6D742E9E7CFD9FF120004
:10168000D9CFE6FFE1CFD9FF87E945E803500A6EDD
:101690000B6A04EBE9FF05EBEAFF340EE926000EC6
:1016A000EA22EF50076E04EBE9FF05EBEAFFE9CF12
:1016B00037F0EACF38F007500D0D0001F350372511
:1016C000086EF4503821096E08EBE9FF09EBEAFFD8
:1016D000EF5002E0FF0E4AD008EBE9FF09EBEAFF0A
:1016E000EE5203EBEFFF08EBE9FF09EBEAFF020E16
:1016F000E926000EEA2202EBEFFF0AEBE6FF0BEB16
:10170000E6FF00EBE6FF01EBE6FF08EBE9FF09EB84
:10171000EAFF030EE926000EEA22E9CF37F0EACF0E
:1017200038F037C0E6FF38C0E6FFFEEC12F046E9BD
:1017300004EBE9FF05EBEAFF340EE926000EEA228E
:10174000EF28030BE66E04EBE9FF05EBEAFF340E2E
:10175000E926000EEA22E552E750EF6E08EBE9FFBA
:1017600009EBEAFF010EEF6E010E00D046E9E7CF6C
:10177000D9FF1200D9CFE6FFE1CFD9FF88E945E8CC
:1017800005EBE9FF06EBEAFF350EE926000EEA223B
:10179000EF50086E05EBE9FF06EBEAFFE9CF37F003
:1017A000EACF38F008500D0D0001F3503725096ECF
:1017B000F45038210A6E09EBE9FF0AEBEAFFEF0467
:1017C0005CE109EBE9FF0AEBEAFFEE52EF50045C43
:1017D00002E2FD0E54D009EBE9FF0AEBEAFFEE52FC
:1017E000EF500B6E0C6A0BEBE6FF0CEBE6FF09EB20
:1017F000E9FF0AEBEAFF030EE926000EEA22E9CF31
:1018000037F0EACF38F037C0E6FF38C0E6FF00EB2C
:10181000E6FF01EBE6FFFEEC12F046E905EBE9FF1F
:1018200006EBEAFF350EE926000EEA22EF28030B4D
:10183000E66E05EBE9FF06EBEAFF350EE926000E42
:10184000EA22E552E750EF6E09EBE9FF0AEBEAFF07
:10185000020EE926000EEA22EF50E66E02EBE9FFE7
:1018600003EBEAFFE552E750EF6E09EBE9FF0AEB05
:10187000EAFFEF6A0B5003D002D0FC0E00D046E91D
:10188000E7CFD9FF1200D9CFE6FFE1CFD9FF85E935
:1018900000EBE6FF01EBE6FF02EBE6FF03EBE6FF02
:1018A0006C0EE66E0E0EE66EEBDE46E900D041E908
:1018B000E7CFD9FF1200D9CFE6FFE1CFD9FF86E904
:1018C00000EBE6FF01EBE6FF02EBE6FF03EBE6FFD2
:1018D00004EBE6FF6C0EE66E0E0EE66E4BDF47E99C
:1018E00000D041E9E7CFD9FF1200D9CFE6FFE1CF21
:1018F000D9FF85E900EBE6FF01EBE6FF02EBE6FF2F
:1019000003EBE6FF360EE66E0E0EE66EB9DE46E936
:1019100000D041E9E7CFD9FF1200D9CFE6FFE1CFF0
:10192000D9FF86E900EBE6FF01EBE6FF02EBE6FFFD
:1019300003EBE6FF04EBE6FF360EE66E0E0EE66EF8
:1019400019DF47E900D041E9E7CFD9FF1200D9CF2D
:10195000E6FFE1CFD9FF85E900EBE6FF01EBE6FF0B
:1019600002EBE6FF03EBE6FF000EE66E0E0EE66E00
:1019700087DE46E900D041E9E7CFD9FF1200D9CF91
:10198000E6FFE1CFD9FF86E900EBE6FF01EBE6FFDA
:1019900002EBE6FF03EBE6FF04EBE6FF000EE66E6C
:1019A0000E0EE66EE7DE47E900D041E9E7CFD9FF4A
:1019B0001200D9CFE6FFE1CFD9FF85E900EBE6FFC2
:1019C00001EBE6FF02EBE6FF03EBE6FF000EE66E3F
:1019D000000EE66E55DE46E900D041E9E7CFD9FFBB
:1019E0001200D9CFE6FFE1CFD9FF86E900EBE6FF91
:1019F00001EBE6FF02EBE6FF03EBE6FF04EBE6FF9D
:101A0000000EE66E000EE66EB5DE47E900D041E955
:101A1000E7CFD9FF12000001366B6C0EE66E0E0E9A
:101A2000E66EF7DD42E9360EE66E0E0EE66EF1DD8D
:101A300042E9000EE66E0E0EE66EEBDD42E9000EA8
:101A4000E66E000EE66EE5DD42E91200D38E03007D
:101A50001200D9CFE6FFE1CFD9FF83E900EBE9FF20
:101A600001EBEAFFE9CF37F0EACF38F000EBE9FF0E
:101A700001EBEAFF350EE926000EEA22EF500D0DCC
:101A8000000100013751F324E96E000100013851D3
:101A9000F420EA6EEF5000D041E9E7CFD9FF120001
:101AA0000001365101E129D099EC11F0F3CF37F064
:101AB000F4CF38F000013751381101E01ED077EC37
:101AC00011F0F3CF37F0F4CF38F00001375138116F
:101AD00001E113D0360EE66E0E0EE66EBADF42E975
:101AE000000901E00AD06C0EE66E0E0EE66EB1DF64
:101AF00042E9000901E001D0A9DF1200B3EC11F0C6
:101B0000F3CF37F0F4CF38F000013751381101E14D
:101B10001FD00001010E366F360EE66E0E0EE66E19
:101B200098DF42E9000903E00001366B11D06C0E2A
:101B3000E66E0E0EE66E8DDF42E9000903E000015D
:101B4000366B06D00A0EE66E11EC16F041E9E4D7CA
:021B5000120081
:0E1B5200D9CFE6FFE1CFD9FF81E97FE84AE86D
:101B6000016A026A036A046A4D0E0D6E410E0E6E22
:101B7000520E0F6E410E106E500E116E500E126E00
:101B8000500E136E410E146E550E156E030E936EAD
:101B9000926A100E946E8A8A2FEC08F06C0ED36E47
:101BA0009B8CD950450FE66EDACFE6FF59EC15F065
:101BB00042E90BEC0DF0910EE66E3EEC15F041E9BA
:101BC00073EC11F09F909F9A9F869D867EEC0DF09E
:101BD000D950370FE66EDACFE6FFD950080FE66E20
:101BE000DACFE6FF0A0EE66E8DEC0CF045E9066EE4
:101BF000063416E3FC0E065C12E006EB37F000013B
:101C0000386B37BF386937C0E6FF38C0E6FFAB0E28
:101C1000E66E250EE66EE66A76EC14F045E999D09C
:101C20000850370A01E185D0050A01E17ED0040A97
:101C300001E177D0030A71E0010A6BE0070A65E071
:101C4000190A4EE0020A20E0010A1EE0230A01E020
:101C500074D0D950370FE66EDACFE6FF06EB37F0D7
:101C60000001386B37BF386937C0E6FF38C0E6FF80
:101C70000850E66EE66AD950470FE66EDACFE6FF07
:101C8000D7EC14F048E965D00850E66EE66A8F0E8E
:101C9000E66E250EE66EE66A76EC14F045E9426AD9
:101CA0000650425C1AE20001D950370F376FDACF85
:101CB00038F042500001EA6A3725E96E3851EA22CD
:101CC000EF50E66EE66A8B0EE66E250EE66EE66A6D
:101CD00076EC14F045E9422AE3D739EB8AFF39D094
:101CE0007B0EE66E250EE66EE66A76EC14F043E9AE
:101CF000020E066ED950370FE66EDACFE6FF06EB1E
:101D0000E6FF42EC04F043E924D08B808B928B9465
:101D100020D08B908B828B941CD08B808B828B9469
:101D200018D08B908B928B8414D08B908B928B9449
:101D300010D08B908B928B940CD00850E66EE66A94
:101D40004F0EE66E250EE66EE66A76EC14F045E977
:101D500000D0D950370FE66EDACFE6FFD950080F22
:101D6000E66EDACFE6FF0A0EE66E5BEC0CF045E9B4
:101D7000066E063416E3FC0E065C12E006EB37F046
:101D80000001386B37BF386937C0E6FF38C0E6FF5F
:101D9000220EE66E250EE66EE66A76EC14F045E954
:101DA0004AD008501E0A20E0010A1EE0140A01E091
:101DB00036D0D950370FE66EDACFE6FF06EB37F0B4
:101DC0000001386B37BF386937C0E6FF38C0E6FF1F
:101DD0000850E66EE66AD950450FE66EDACFE6FFA8
:101DE00068EC15F048E927D0D950370FE66EDACF06
:101DF000E6FF06EB37F00001386B37BF386937C0B4
:101E0000E6FF38C0E6FF0850E66EE66AD950430F99
:101E1000E66EDACFE6FFA8EC14F048E90CD00850E3
:101E2000E66EE66A4F0EE66E250EE66EE66A76EC24
:101E300014F045E900D0CAD67FE94BE9E7CFD9FFD6
:021E400012008E
:0E1E42001200D9CFE6FFE1CFD9FF83E978EC9B
:101E500016F007EC00F0000901E0FBD758EC16F093
:101E6000F3CF37F0F4CF38F000EBE9FF01EBEAFFF6
:101E700037C0EEFF38C0EDFF010EE66E11EC16F034
:101E800041E941E9E7CFD9FF1200D9CFE6FFE1CF21
:101E9000D9FF84E9FC0EE66EE6683F0EE66E7F0E23
:101EA0000014FC0BE66ED10EE66EFEEC13F045E975
:101EB00000EBE6FFB9EC15F041E978EC16F007EC21
:101EC00000F0000901E0FBD758EC16F0F3CF37F033
:101ED000F4CF38F001EBE9FF02EBEAFF37C0EEFF89
:101EE00038C0EDFF010EE66E11EC16F041E941E954
:101EF000E7CFD9FF1200D9CFE6FFE1CFD9FF83E9C1
:101F0000D70EE66E00EBE6FF01EBE6FFBEDF43E92E
:101F100041E9E7CFD9FF1200D9CFE6FFE1CFD9FFE2
:101F200081E946E80E01AD3504E2AC510008000E2F
:101F3000AD554DE25CEC13F0040A2EE0070A1FE0F9
:101F4000010A10E0030A01E034D0D950010FE66E17
:101F5000DACFE6FF330EE66E020EE66E75EC0CF09D
:101F600044E934D0D950010FE66EDACFE6FF340EE3
:101F7000E66E020EE66E75EC0CF044E927D0D950FF
:101F8000010FE66EDACFE6FF350EE66E020EE66E64
:101F900075EC0CF044E91AD0D950010FE66EDACF97
:101FA000E6FF360EE66E020EE66E75EC0CF044E9C6
:101FB0000DD0D950010FE66EDACFE6FF320EE66E95
:101FC000020EE66E75EC0CF044E900D00CD0D9504E
:101FD000010FE66EDACFE6FF370EE66E020EE66E12
:101FE00075EC0CF044E98AEC13F0000905E0010EF1
:101FF0000E01AC6FAD6B03D00E01AC6BAD6B000E80
:10200000E66EE66AA1EC15F042E9D950010FE66EE2
:10201000DACFE6FFD950050FE66EDACFE6FF020E03
:10202000E66EF1EC0CF045E9036E046AE8BE046864
:10203000020E031801E104500CE1D950010FE66EC5
:10204000DACFE6FF0A0EE66E020EE66E75EC0CF0D5
:1020500044E947E9E7CFD9FF1200D9CFE6FFE1CF46
:10206000D9FF81E944E889EC15F0F350016EF45092
:10207000026E000EE66EE66A0B0EE66EE66A43EC52
:102080000CF044E9000EE66EE66A71EC15F042E9E8
:0820900045E9E7CFD9FF12007A
:0820980043E8D9CFE6FFDACFDF
:1020A000E6FFE1CFD9FFE2CFDAFF89E9066A120045
:1020B000F3DF068001D0F0DF01AE65EF10F0006CB9
:1020C000011EE86A012206B0067E03AE6DEF10F035
:1020D000026C031EE86A0322067EA5EC10F003BE24
:1020E0008FEF10F006AE08D0026C031EE86A0322E0
:1020F000046C051EE86A052206B006D084EB00F0E9
:1021000085EB01F006A004D082EB00F083EB01F038
:10211000E552E5CFDAFFE7CFD9FF45E9000C06BE6F
:1021200074EF10F0E9DFFF0C43E8D9CFE6FFDACF18
:10213000E6FFE1CFD9FFE2CFDAFF89E9066A1200B4
:10214000F3DF068003D0F0DF01D00682056A046A5F
:10215000100EE76ED890023603360436053600506E
:10216000045C0150055805E30050045E0150055A17
:10217000022AE72EF0D706B2120006B006D084EB92
:1021800000F085EB01F006A004D082EB00F083EBB9
:1021900001F0E552E5CFDAFFE7CFD9FF45E91200BC
:1021A00045E8D9CFE6FFDACFE6FFE1CFD9FFE2CFAE
:1021B000DAFF8FE90C6A1200F3DF0C8003D0F0DF46
:1021C00001D00C820B6A0A6A096A086A200EE76E5F
:1021D000D8900436053606360736083609360A36EC
:1021E0000B360050085C0150095802500A58035041
:1021F0000B5809E30050085E0150095A02500A5A70
:1022000003500B5A042AE72EE4D70CB212000CB08C
:102210000AD088EB00F089EB01F08AEB02F08BEB3F
:1022200003F00CA008D084EB00F085EB01F086EB06
:1022300002F087EB03F0E552E5CFDAFFE7CFD9FFF5
:1022400049E9120044E8D9CFE6FFDACFE6FFE1CF53
:10225000D9FFE2CFDAFF8EE980EB08F081EB09F0DD
:1022600082EB0AF083EB0BF004500802F350006E8F
:10227000F450016E04500902F3500126000EF420C0
:10228000026E04500A02F3500226000EF420036E80
:1022900004500B02F350032605500802F3500126A8
:1022A000F4500222000E032205500902F3500226C8
:1022B000F450032205500A02F35003260650080288
:1022C000F3500226F450032206500902F35003266D
:1022D00007500802F3500326E552E5CFDAFFE7CFB7
:0622E000D9FF48E9000CE3
:0A22E600D08EF28EF28C1200F2503E
:1022F000800B800A01E0010E0001376F386B800B04
:1023000001E0386937C0F3FF38C0F4FF00D0120095
:10231000F250400B400A01E0010E0001376F386BAC
:10232000800B01E0386937C0F3FF38C0F4FF00D0FC
:102330001200F2AC05D0000EF36EF46A13D012D086
:10234000D6DFF3CF37F0F4CF38F000013751381132
:1023500005E0000EF36EF46A05D004D0010EF36EB2
:10236000F46A00D01200E5DFF3CF37F0F4CF38F095
:102370000001375138110EE1BADFF3CF39F0F4CF55
:102380003AF0000139513A1105E1010EF36EF46A99
:1023900005D004D0000EF36EF46A00D01200DACF3C
:1023A000E4FFE2CFDAFFE9CFE4FFEACFE4FFD9CFE1
:1023B000E4FFDACFE4FFFCC0E4FFFDC0E4FFFEC0B1
:1023C000E4FFFFC0E4FFF6CFE4FFF7CFE4FFF5CF73
:1023D000E4FFF3CFE4FFF4CFE4FFFACFE4FF00EE35
:1023E00037F0070EE80403E3EECFE4FFFBD7E65235
:1023F0009EA603D09E960BEC05F0F2A403D0F294B7
:102400008CEC0FF050EC0DF0E55200EE3DF0070EB5
:10241000E80403E3E5CFEDFFFBD7E5CFFAFFE5CF17
:10242000F4FFE5CFF3FFE5CFF5FFE5CFF7FFE5CF0D
:10243000F6FFE5CFFFF0E5CFFEF0E5CFFDF0E5CF0D
:10244000FCF0E5CFDAFFE5CFD9FFE5CFEAFFE5CF36
:10245000E9FFE5CFDAFF1100D8CFE4FFE0CFE4FFDA
:10246000E46EDACFE4FFE2CFDAFFE9CFE4FFEACFB0
:10247000E4FFD9CFE4FFDACFE4FFFCC0E4FFFDC006
:10248000E4FFFEC0E4FFFFC0E4FFF6CFE4FFF7CFB8
:10249000E4FFF5CFE4FFF3CFE4FFF4CFE4FFFACF9E
:1024A000E4FF00EE37F0070EE80403E3EECFE4FFAD
:1024B000FBD7E6529EA003D09E902DEC10F09EAA72
:1024C00003D09E9AE8EC15F0E55200EE3DF0070EC1
:1024D000E80403E3E5CFEDFFFBD7E5CFFAFFE5CF57
:1024E000F4FFE5CFF3FFE5CFF5FFE5CFF7FFE5CF4D
:1024F000F6FFE5CFFFF0E5CFFEF0E5CFFDF0E5CF4D
:10250000FCF0E5CFDAFFE5CFD9FFE5CFEAFFE5CF75
:10251000E9FFE5CFDAFFE550E5CFE0FFE5CFD8FFF3
:022520001000A9
:0E2522004572726F723A20426164206C6F77CE
:10253000207072696F72697479207265636569765B
:10254000652C20636F6465203D2025780D0A0045C9
:1025500072726F723A20556E657870656374656447
:10256000206D736720696E2071756575652C207408
:10257000797065203D2025780D0A004932432053AB
:102580006C617665205265710D0A0020257800493E
:10259000324320496E74657272757074207265637F
:1025A00065697665642025783A20004572726F72FD
:1025B0003A204261642068696768207072696F72AE
:1025C00069747920726563656976652C20636F6430
:1025D00065203D2025780D0A004D53473A2025649B
:1025E0002025642025730D0A0054494D4552313A87
:0C25F0002025642025642025640D0A00CD
:0425FC00D9CFE6FF4E
:10260000DACFE6FFFA0EE3CFD9FFFB0EE3CFDAFF16
:10261000FC0EE3CFE9FFFD0EE3CFEAFFE9CFF3FFC6
:10262000EACFF4FFF80EE35003E1F90EE35008E0BF
:10263000F80EE30602E2F90EE306DECFEEFFF2D774
:10264000FF0EE3CFDAFFE552FF0EE3CFD9FFE552ED
:102650001200FE0EE3CFE9FFFF0EE3CFEAFFF36ABD
:10266000F46AEE5203E0F34AF42AFBD71200FF0E9D
:10267000E3CFF8FFE552FF0EE3CFF7FFE552FF0E81
:10268000E3CFF6FFE552E66AE66AE66A0900F5522C
:1026900009E0FD0EE32A05E1FE0EE32A02E1FF0E4A
:1026A000E32AF4D7FD0EE3CFFCF0FE0EE3CFFDF0FE
:0826B000FF0EE3CFFEF0120063
:0826B800D9CFE6FFE1CFD9FF05
:1026C00081E943E8016A026A036A8A848A96D70E1E
:1026D000E66ED950020FE66EDACFE6FF45EC0FF05A
:1026E00043E9F00EE66EE66A02EBE6FF03EBE6FF77
:1026F00058EC10F0E552E5CF38F0E7CF37F00001A5
:10270000372B000E38230001375100D044E9E7CFC2
:10271000D9FF1200D9CFE6FFE1CFD9FF81E942E826
:10272000016A026A8A848A868A90D70EE66ED95038
:10273000010FE66EDACFE6FF45EC0FF043E9023415
:1027400004E201500008030E025403E2010E03D01C
:0E27500002D0000E00D043E9E7CFD9FF1200FF
:02275E001E0E4D
:10276000F66E000EF76E000EF86E0E010900F550C1
:10277000A76F0900F550A86F03E1A76701D03DD00E
:102780000900F550A26F0900F550A36F0900F5503C
:10279000A46F09000900F550E96E0900F550EA6ED2
:1027A000090009000900F550A56F0900F550A66F52
:1027B00009000900F6CFA9FEF7CFAAFEF8CFABFEBD
:1027C000A2CEF6FFA3CEF7FFA4CEF8FF0E01A553CD
:1027D00002E1A65307E00900F550EE6EA507F8E206
:1027E000A607F9D7A9CEF6FFAACEF7FFABCEF8FF22
:0C27F0000E01A707000EA85BBFD7120067
:0427FC00D9CFE6FF4C
:10280000DACFE6FFE1CFD9FFE2CFDAFF87E9C26A8C
:10281000C16A0350400DF350C00B0001376F0340F5
:102820007F0B3C0B3711C26E0450040DF350380B74
:10283000386F04380F0B070B376F800E04143711F5
:102840003811C16E01EB37F0386B37C048FF00EB31
:1028500049FF060E376FC00E021437C0E7FFE7527C
:1028600004E0E8427F0BE706FCE10E01B86F03AE1F
:1028700003D09E9C9D8CF28CC28041E9E5CFDAFFAB
:06288000E7CFD9FF1200B2
:0A288600D9CFE6FFDACFE6FFE1CF7D
:10289000D9FFE2CFDAFF85E9013415E200EBE9FF69
:1028A00001EBEAFFEECFF3FFEDCFF4FFEE2A000ECF
:1028B000EF22F3CFE9FFF4CFEAFF02EBEFFFEF5097
:1028C000F36EF46A0DD0FE0E005C05E102EBE6FF4C
:1028D00031EC16F004D002EBE6FF03EC00F041E926
:0C28E00041E9E5CFDAFFE7CFD9FF120095
:0428EC00D9CFE6FF5B
:1028F000DACFE6FFE1CFD9FFE2CFDAFF85E944E89E
:10290000D9CFE6FFDACFE6FFE552E550066EE75095
:10291000056E05EBE6FF06EBE6FF00EBE6FF01EBDD
:10292000E6FF02EBE6FF46C0E6FF47C0E6FF35ECF8
:1029300000F047E9F350076EF450086E07EBF3FF21
:1029400008EBF4FF45E9E5CFDAFFE7CFD9FF120046
:10295000D9CFE6FFE1CFD9FF89E91E0E041801E1C6
:10296000055001E120D01F0E041801E105501BE1C4
:1029700000500224E96E01500320EA6EEF6A00EB7A
:10298000E6FF01EBE6FF02EBE6FF03EBE6FF04EBFD
:10299000E6FF05EBE6FFD90EE66E250EE66EE66A6B
:0E29A00076EC14F049E941E9E7CFD9FF1200C7
:0229AE00D9CF7F
:1029B000E6FFE1CFD9FF89E942E880EB09F081EB3E
:1029C0000AF009EBE9FF0AEBEAFFEECFE6FFEECFF4
:1029D000E6FF02EBE6FF03EBE6FF04EBE6FF05EBA9
:1029E000E6FFE90EE66E250EE66EE66A76EC14F07A
:0A29F00049E943E9E7CFD9FF1200DF
:0629FA00D9CFE6FFDACFA1
:102A0000E6FFE1CFD9FFE2CFDAFF85E93F0EC71637
:102A1000C66A0250C6120050C7120150030A09E0EC
:102A2000010A04E0020A06E1C78C04D0C78CC688FC
:102A300001D0C688C68A41E9E5CFDAFFE7CFD9FFE2
:022A4000120082
:0E2A4200D9CFE6FFDACFE6FFE1CFD9FFE2CF32
:102A5000DAFF83E941E8C950036E9E96C69E00EBFB
:102A6000C9FFC6AE02D0FF0E03D09EA6FED7000E51
:0C2A700042E9E5CFDAFFE7CFD9FF120002
:042A7C00D9CFE6FFC9
:102A8000DACFE6FFE1CFD9FFE2CFDAFF83E97F0EAD
:102A90000014D56ED76AD66AF29400AE02D0F28ADC
:102AA00001D0F29AD58E41E9E5CFDAFFE7CFD9FF21
:022AB000120012
:0E2AB200D9CFE6FFE1CFD9FF83E900EBE9FFC2
:102AC00001EBEAFFEE6AED6A41E9E7CFD9FF1200B8
:102AD000D9CFE6FFE1CFD9FF89E941E9E7CFD9FFB7
:022AE0001200E2
:0E2AE200D9CFE6FFDACFE6FFE1CFD9FFE2CF92
:102AF000DAFF84E942E880EB04F081EB05F005EBB6
:102B0000CFFF04EBCEFF43E9E5CFDAFFE7CFD9FFF4
:022B10001200B1
:0E2B1200D9CFE6FFDACFE6FFE1CFD9FFE2CF61
:102B2000DAFF82E942E8CE50026ECF50036E02EB2C
:102B3000F3FF03EBF4FF43E9E5CFDAFFE7CFD9FF7B
:022B4000120081
:0E2B4200D9CFE6FFDACFE6FFE1CFD9FFE2CF31
:102B5000DAFF84E942E880EB04F081EB05F005EB55
:102B6000D7FF04EBD6FF43E9E5CFDAFFE7CFD9FF84
:022B7000120051
:0E2B7200D9CFE6FFDACFE6FFE1CFD9FFE2CF01
:102B8000DAFF83E9C30EC2140001376F00407F0BE8
:102B90003C0B3711C26E41E9E5CFDAFFE7CFD9FF31
:022BA000120021
:0E2BA200D9CFE6FFDACFE6FFE1CFD9FFE2CFD1
:102BB000DAFF82E941E8C950026E9E96C96A9EA674
:102BC000FED7C95042E9E5CFDAFFE7CFD9FF1200BF
:102BD0001200D9CFE6FFE1CFD9FF83E900EBAEFECB
:102BE00001EBAFFEAECEE9FFAFCEEAFF040EE92661
:0E2BF000000EEA22EF6A41E9E7CFD9FF12009A
:022BFE00F36A78
:102C0000F46AFF0EE124E96EFF0EE220EA6EED6643
:102C100007D02F0EEF6404D03A0EEF6001D0F32AF4
:022C20001200A0
:0E2C2200FF0EE3500001486F480E01D04C0E2B
:102C3000E76EE72EFED7E76AE72EFED7482FF7D7D5
:022C4000120080
:0E2C4200B00EF36E00EE00F00E0E01D8120080
:102C5000EA6002D0EE6AFCD7F350E9601200EE6A37
:022C6000FCD79F
:0E2C6200FF0EE350ADBA04D0B06AAC8EAD8A5E
:0E2C7000949CADA2FED7AE6EF36EF46A120015
:022C7E001DEE49
:102C800000F02DEE00F0F86AAFEC13F07AEC16F0DD
:082C9000A9EC0DF0FBD71200C6
:082C9800100E946E8B9E8B8ED2
:102CA000E66AE66A010EE66EFDEC14F043E91200F6
:102CB000C4CF39F039C03AF00001396BC350391133
:082CC000F36E3AC0F4FF1200AC
:082CC800FF0EE350E84E12007C
:0E2CD000000000D000D000D0E82EFAD712008D
:022CDE00303193
:0F2CE000323334353637383961626364656600E4
:042CF000C28212008A
:022CF4001200CC
:022CF600FEFFDF
:082CF8007C1211127C007F49DF
:102D0000494936003E41414122007F4141413E0058
:102D10007F49494941007F09090901003E4141516C
:102D200073007F0808087F0000417F4100002040B9
:102D3000413F01007F08142241007F404040400095
:102D40007F021C027F007F0408107F003E4141414A
:102D50003E007F09090906003E4151215E007F09BE
:102D60001929460026494949320003017F01030021
:102D70003F4040403F001F2040201F003F40384060
:102D80003F006314081463000304780403006159CE
:042D9000494D430066
:00000001FF
