:020000040000FA
:0600000079EF19F0120077
:020006001200E6
:0600080068EF14F0120085
:02000E00C250DE
:08001000020B01E0010E1200D9
:06001800C0EF14F012001D
:02001E000500DB
:10002000F5330000000E0000800000007033000077
:1000300060000000850000006E3300003B000000FF
:10004000020000006C3300003900000002000000D4
:0C0050006A3300003700000002000000CE
:04005C0090DB86E9C6
:100060000150010600090CE002EBE6FF03EBE6FF9E
:1000700000EBE6FF69DBF4E1F01DF2E1010E01D0D7
:10008000000E41E9E5CFDAFFE7CFD9FF120077DBB9
:1000900089E97BE80A6A0B6A02EBF6FF03EBF7FFDC
:1000A00004EBF8FF0800F550096E095001E12DD36B
:1000B000250E095C01E01BD30C6A0D6A0E6A0F6AFB
:1000C000106A2DDB2D0E095C0CE02B0E095C09E09B
:1000D000200E095C06E0230E095C03E0300E095C8B
:1000E00015E10950300A10E0130A0CE0030A08E099
:1000F0000B0A04E0060AE5E10C80E3D70C82E1D7A5
:100100000C84DFD70C86DDD70C88DBD72A0E095C80
:1001100013E1A5DB0DE30C801CEBEFF01DEBF0F021
:100120000001EF6DF01F000EF023EF510D6E02D0B5
:100130009CEB0DF0F4DA07D0126A3FDB02E06BDBD8
:10014000FCD792EB0DF00CB00C982E0E095C15E16B
:10015000E6DA2A0E095C08E182DB04E29CEB0EF091
:10016000010E0F6EDCDA09D0126A27DB02E053DBE6
:10017000FCD792EB0EF0010E0F6E680E095C07E1E2
:10018000CEDA680E095C1DE1030E106E19D0740EF4
:10019000095C16E07A0E095C13E0480E095C06E083
:1001A000540E095C03E05A0E095C02E1020E07D00E
:1001B0006C0E095C03E06A0E095C03E1010E106E2F
:1001C000AEDA09506E0A01E16ED21E0A01E128D1B1
:1001D000200A01E125D13F0A01E1FDD01A0A01E11F
:1001E000FAD00D0A01E1F7D0200A01E1F4D03A0A71
:1001F00001E1F1D0200A01E1EED0260A01E1EAD0C6
:100200000D0A01E1E7D01A0A01E19ED0200A3BE085
:10021000300A1AE0460A0EE0250A01E072D2D950EF
:10022000020FE96E000EDA20EA6E010EEE5E000E9D
:10023000EE5AEE5A0FDB250EE66E86DA03E1F01D6C
:1002400001E159D20A2A5BD2116A0D50010803E27A
:100250000D04116EF5DA115007E0010E0C1404E1E3
:100260006DDA01E048D2116AD3DAEF50096ECBDAC9
:1002700003E1F01D01E13FD20A2A000E0B225EDAF3
:1002800001E13FD238D2020E105C08E1030E4EDAD3
:10029000EE50176EEE50186EEF5007D0E7DAF16BA4
:1002A000EF51176EF051186EF151196E17EBE6FF12
:1002B00018EBE6FF19EBE6FF1BEC16F043E9F6C07E
:1002C000EFF0F7C0F0F0F8C0F1F00001EF511C6E54
:1002D000F0511D6E0F5006E01C500E5C03E20E50F4
:1002E0001C6E1D6A1C500D5C02E29CEB0DF050DA96
:1002F00005E00D500E5C02E28EEB0DF00CB004D068
:100300001DDA01E0F8D1116A126A17EBF6FF18EB5B
:10031000F7FF19EBF8FF0800F550096E095010E0DF
:100320000D50125C0DE26FDA03E1F01D01E1E3D143
:100330000A2A000E0B22122AD950170F55DAEBD7D2
:10034000FDD901E1DED1D7D163DAEE501A6EED505E
:100350001B6E1AEBE6FF1BEBE6FF0DEC16F042E915
:10036000F3501C6EF4501D6E0F5006E01C500E5CD6
:1003700003E20E501C6E1D6A1C500D5C02E29CEBE9
:100380000DF006DA05E00D500E5C02E28EEB0DF08A
:100390000CB004D0D3D901E0AED1116A126A1AEBC5
:1003A000E9FF1BEBEAFFEF50096E09500FE00D501B
:1003B000125C0CE228DA03E1F01D01E19CD10A2A6B
:1003C000000E0B22122A1A2A1B22E9D7B7D901E103
:1003D00098D191D10C8E10040AE1040EA7D9EE50E9
:1003E000136EEE50146EEE50156EEF5032D0030EB9
:1003F000105C16E10CAE0CD00BDAEFCFEFF0000181
:10040000F06BF16BF26BEFAF23D0F069F1691FD0A5
:10041000FFD9EFCFEFF00001EF51136E146A20D037
:10042000020E105C0CE10CAE06D0030E7FD9B6D9DB
:10043000F1AF0ED00CD0030E79D9B0D909D00CAEE3
:100440000AD014DAF16BF26BF0AF02D0F169F26905
:10045000BCD9166E07D00ADAEF51136EF051146E44
:10046000156A166A0F5002E1010E0E6E1E6A1F6AAF
:10047000D950400FE66E000EDA20E66EE552E550E8
:10048000436EE750426E416A116A0A0E106E0950BF
:10049000780A12E0200A10E0280A0CE0200A0AE09C
:1004A0003F0A06E00D0A02E0200A08E1020E05D02C
:1004B000080E03D0080E0926100E106E0CBE02D0D6
:1004C0000C920C94800E0C1417E0163415E3E668B9
:1004D000E668E668E66842D9BBEC13F0E552E5CF82
:1004E000F2F0E5CFF1F0E5CFF0F0E7CFEFF000016B
:1004F0006CD9166E2D0E07D00CA202D02B0E03D095
:100500000CA404D0200E206E1E2A01D0206A0E50AA
:1005100005E1135014101510161061E00001520E81
:10052000EF6F330EF06F000EF16F83D978EC13F09C
:10053000E552E5CFF5F0E5CFF4F0E5CFF3F0E7CF06
:10054000F2F00001EF51F225F36EF051F321F46E59
:10055000F151F421F86EF4CFF7FFF3CFF6FF080066
:10056000F550126E580E095C05E1610E125C02E353
:10057000200E125E5ED975EC13F0E552E550166E52
:10058000E550156EE550146EE750136E42EBE9FF2F
:1005900043EBEAFF4206000E435A12EBEFFF1E2A1E
:1005A0001350141015101610B9E10CA619D06F0EC7
:1005B000095C06E10E501E5C13E31E280E6E10D07F
:1005C000780E095C09E0580E095C06E0620E095CD1
:1005D00003E0420E095C04E1020E1F6E01D01E6AA8
:1005E000100E0C1407E00D500E5C04E20F5002E1F7
:1005F0008DEB0EF00E501E5C03E21E500E5E01D01D
:100600000E6A0E501E241F24D8800D5407E20E508F
:100610000D5CD8801E54D8801F54116E010E0C142E
:1006200006E1115004E08AD866E10AD9116A205027
:1006300007E010D920EBE6FF87D802E1F01D5BE070
:100640001F500BE007D9300EE66E7ED802E1F01D98
:1006500052E0D9D802E1F01D4EE00E501F5C02E2DC
:100660001F500E5E300EE66E0EEBE6FFDCD843E167
:10067000422A000E432242EBE9FF43EBEAFFEF5030
:10068000126E125008E0E6D812EBE6FF5DD8F0E1FA
:10069000F01DEEE130D052D82EE10E501E24112470
:1006A0001F240A262CD01050030A1CE0010A14E073
:1006B000030A07E0ADD8C9D80AEBEEFF0BEBEDFF5C
:1006C00020D08BD8F26BF0AF02D0F169F269A0D8DC
:1006D0004ED8F2C0EEFF15D080D8F0BFF16998D89F
:1006E00046D80FD095D8B1D80AEBEFFF0AD08BD8F7
:1006F00005E1F01D03E1F368F4680BD00A2A000E4F
:100700000B22D950020F70D8CDD40AEBF3FF0BEBBC
:10071000F4FF7CE9E5CFDAFFE7CFD9FF1200D9502B
:10072000020F62D80800F550096E1200005E000E3C
:10073000015A00EBE9FF01EBEAFF1200200EE66E22
:1007400011EBE6FF13EF04F095EC17F043E9F3CF5C
:10075000EFF0F4CFF0F00001F31C120013EBE6FF12
:1007600014EBE6FF15EBE6FF16EBE6FF12006DD883
:10077000EFC0EEFFF0C0EEFFF1C0EEFF1200D9CFE8
:10078000E6FFDACFE6FFE1CFD9FFE2CFDAFF1200D2
:100790001C500D5C116E54D80F501200EECFEFF0CC
:1007A000EECFF0F0EFCFF1F00001F26B1200EECFE0
:1007B000EFF0EFCFF0F0000112000950E66EE66AAC
:1007C0002BEC19F042E9F3501200EF51136EF05187
:1007D000146EF151156EF25112000AEBEFF00BEBB3
:1007E000F0F00001F16B1200E96E000EDA20EA6E03
:1007F000EF2AEECFF6FF000EEF22EECFF7FFEF224B
:10080000EECFF8FF120026D809EBE6FFA4EF03F0C5
:10081000020E96EF03F00A0E1202F3500924D00FD5
:10082000126E8FEF03F016D82EEC00F044E90009A9
:10083000120010EBE6FFE66AE66AE66AAEEF03F046
:1008400011500A26000E0B221200EE50EFCFEAFFE5
:10085000E96E120005EBE6FF06EBE6FF1200D8DFBB
:10086000EE501C6EED501D6E1D341200D1DFD7EF1F
:0208700003F093
:0E087200D9CFE6FFE1CFD9FF82E941E9E7CF18
:10088000D9FF1200D9CFE6FFE1CFD9FF84E941E9D2
:10089000E7CFD9FF1200D9CFE6FFE1CFD9FF82E938
:1008A00041E9E7CFD9FF1200D9CFE6FFE1CFD9FF69
:1008B00084E9FCC0E9FFFDC0EAFF190EE926000E3D
:1008C000EA22EF6AFCC0E9FFFDC0EAFF190EEB5017
:1008D000D880025432E2FCC0E9FFFDC0EAFF190EE5
:1008E000EB500024E96E000E0120EA6EEF50E66E38
:1008F000FCC0E9FFFDC0EAFF0F0EE926000EEA2268
:10090000E9CFEFF0EACFF0F0FCC0E9FFFDC0EAFF6D
:10091000190EEB500001EA6AEF25E96EF051EA2268
:10092000E552E750EF6EFCC0E9FFFDC0EAFF190E8B
:10093000E926000EEA22EF2AC5D7FCC0E9FFFDC078
:10094000EAFF190EE926000EEA2202EBEFFFFCC0D7
:10095000E9FFFDC0EAFF1A0EE926000EEA22010EA9
:10096000EF6EFCC0E9FFFDC0EAFF0F0EEB50C96E51
:10097000C68841E9E7CFD9FF1200D9CFE6FFE1CF22
:10098000D9FF82E9FCC0E9FFFDC0EAFF0B0EE926B2
:10099000000EEA22010EEF6EFCC0E9FFFDC0EAFF87
:1009A0000A0EE926000EEA22EF6A005038E0C7AAD4
:1009B0001ED0FCC0E9FFFDC0EAFF0C0EE926000EC8
:1009C000EA22050EEF6EFCC0E9FFFDC0EAFF0E0E45
:1009D000E926000EEA22EF2AFCC0E9FFFDC0EAFF8B
:1009E0000D0EE926000EEA22050EEF6E17D0C7A401
:1009F0000BD0FCC0E9FFFDC0EAFF0C0EE926000E9B
:100A0000EA22080EEF6E0AD0FCC0E9FFFDC0EAFF43
:100A10000C0EE926000EEA22070EEF6E0AD0FCC08B
:100A2000E9FFFDC0EAFF0C0EE926000EEA22060EE1
:100A3000EF6E41E9E7CFD9FF1200D9CFE6FFE1CF52
:100A4000D9FF81E949E8026A036A046A056A066A0D
:100A5000C6AC20D0C69CFCC0E9FFFDC0EAFF0C0E6E
:100A6000E926000EEA22050EEF6E010E066EFCC0AE
:100A7000E9FFFDC0EAFF0E0EE926000EEA22EF2A8A
:100A8000FCC0E9FFFDC0EAFF0D0EE926000EEA22D8
:100A9000040EEF6EC7A004D0C950016E010E026EA5
:100AA000065001E094D1FCC0E9FFFDC0EAFF0C0E46
:100AB000EB50070A01E1D2D00F0A01E18DD00E0AF6
:100AC00015E0030A01E083D1C7A60FD002EBE6FFD1
:100AD00054DF41E9FCC0E9FFFDC0EAFF0C0EEB501A
:100AE000080803E1026A010E056E71D1C7A82ED075
:100AF000FCC0E9FFFDC0EAFF0B0EE926000EEA226A
:100B0000EF2A025018E0C7BA03D0010E046E13D0CA
:100B1000FCC0E9FFFDC0EAFF0E0EE926000EEA2246
:100B2000EF2AFCC0E9FFFDC0EAFF0D0EE926000E2A
:100B3000EA22060EEF6EFCC0E9FFFDC0EAFF0C0ED4
:100B4000E926000EEA22050EEF6E45D0025043E082
:100B5000FCC0E9FFFDC0EAFF0B0EE926000EEA2209
:100B6000EF2AC7BA1BD0C7B40BD0FCC0E9FFFDC049
:100B7000EAFF0C0EE926000EEA22070EEF6E0DD0FA
:100B8000FCC0E9FFFDC0EAFF0C0EE926000EEA22D8
:100B9000080EEF6E010E056E026A1DD0FCC0E9FF63
:100BA000FDC0EAFF0E0EE926000EEA22EF2AFCC085
:100BB000E9FFFDC0EAFF0C0EE926000EEA22050E51
:100BC000EF6EFCC0E9FFFDC0EAFF0D0EE926000E46
:100BD000EA22060EEF6EFBD0FCC0E9FFFDC0EAFF83
:100BE0001A0EEB500001EF6FFCC0E9FFFDC0EAFFF9
:100BF000190EEB500001EF5D26E2FCC0E9FFFDC0DD
:100C0000EAFF0F0EE926000EEA22E9CFEFF0EACF65
:100C1000F0F0FCC0E9FFFDC0EAFF1A0EEB50000146
:100C2000EA6AEF25E96EF051EA22EF50C96EFCC086
:100C3000E9FFFDC0EAFF1A0EE926000EEA22EF2ABC
:100C4000010E036E0AD0FCC0E9FFFDC0EAFF0C0EE6
:100C5000E926000EEA22050EEF6EB9D0C7A85AD0D9
:100C6000FCC0E9FFFDC0EAFF0B0EE926000EEA22F8
:100C7000EF2A025042E0C7AA22D0FCC0E9FFFDC023
:100C8000EAFFE9CFEFF0EACFF0F0FCC0E9FFFDC0EA
:100C9000EAFF0A0EEB500001EA6AEF25E96EF05117
:100CA000EA2201EBEFFFFCC0E9FFFDC0EAFF0A0EFC
:100CB000E926000EEA22EF2A010E046E1DD0FCC0C8
:100CC000E9FFFDC0EAFF0E0EE926000EEA22EF2A38
:100CD000FCC0E9FFFDC0EAFF0D0EE926000EEA2286
:100CE000060EEF6EFCC0E9FFFDC0EAFF0C0EE92620
:100CF000000EEA22050EEF6E02D0010E046EFCC05B
:100D0000E9FFFDC0EAFF0C0EE926000EEA22050EFF
:100D1000EF6E5CD002505AE0FCC0E9FFFDC0EAFF74
:100D20000B0EE926000EEA22EF2AC7AA20D0FCC04B
:100D3000E9FFFDC0EAFFE9CFEFF0EACFF0F0FCC039
:100D4000E9FFFDC0EAFF0A0EEB500001EA6AEF2559
:100D5000E96EF051EA2201EBEFFFFCC0E9FFFDC0B4
:100D6000EAFF0A0EE926000EEA22EF2A2FD0C7A4D6
:100D700010D0FCC0E9FFFDC0EAFF0C0EE926000E12
:100D8000EA22080EEF6E010E046E010E056E026A75
:100D90001DD0FCC0E9FFFDC0EAFF0E0EE926000EE3
:100DA000EA22EF2AFCC0E9FFFDC0EAFF0D0EE926AA
:100DB000000EEA22060EEF6EFCC0E9FFFDC0EAFF5E
:100DC0000C0EE926000EEA22050EEF6E00D002504E
:100DD00002E1035002E0C6A8C688FCC0E9FFFDC0DE
:100DE000EAFF0A0EEB5008081FE204501DE1FCC0A8
:100DF000E9FFFDC0EAFF0C0EE926000EEA22050E0F
:100E0000EF6EFCC0E9FFFDC0EAFF0E0EE926000E02
:100E1000EA22EF2AFCC0E9FFFDC0EAFF0D0EE92639
:100E2000000EEA22070EEF6E045041E0FCC0E9FF1D
:100E3000FDC0EAFF0B0EEB50E66EFCC0E9FFFDC003
:100E4000EAFFE9CFEFF0EACFF0F0FCC0E9FFFDC028
:100E5000EAFF0A0EEB500001EA6AEF25E96EF05155
:100E6000EA22E552E750EF6EFCC0E9FFFDC0EAFF61
:100E7000E9CFEFF0EACFF0F0EFC0E6FFF0C0E6FF19
:100E8000280EE66EFCC0E9FFFDC0EAFF0A0EEB503B
:100E9000010FE66E6AEC0CF044E9FCC0E9FFFDC00E
:100EA000EAFF0A0EE926000EEA22EF6A36D0FCC0FD
:100EB000E9FFFDC0EAFF0E0EEB500001EF6F010EDF
:100EC0000001EF5D2AE3FCC0E9FFFDC0EAFF0E0E62
:100ED000EB50076EFCC0E9FFFDC0EAFF0D0EEB50C2
:100EE000086EFCC0E9FFFDC0EAFF0B0EEB50096E77
:100EF000D950070FE66EDACFE6FF290EE66E030E35
:100F0000E66E6AEC0CF044E9FCC0E9FFFDC0EAFFC4
:100F10000E0EE926000EEA22EF6A055013E0FCC02F
:100F2000E9FFFDC0EAFFE9CFEFF0EACFF0F0EFC054
:100F3000E6FFF0C0E6FF2A0EE66EE66A6AEC0CF009
:100F400044E9056A4AE9E7CFD9FF1200D9CFE6FFA5
:100F5000E1CFD9FF83E900EBFCF001EBFDF0FCC031
:100F6000E9FFFDC0EAFF0A0EE926000EEA22EF6A59
:100F7000FCC0E9FFFDC0EAFF0B0EE926000EEA22E5
:100F8000EF6AFCC0E9FFFDC0EAFF0C0EE926000E87
:100F9000EA22050EEF6EFCC0E9FFFDC0EAFF0E0E6F
:100FA000E926000EEA22EF6A41E9E7CFD9FF1200F5
:100FB000D9CFE6FFE1CFD9FF82E99486948800EB90
:100FC000C8FFC76AC66AC56A0E0EC612C78EC5803C
:0A0FD000C68A41E9E7CFD9FF1200FD
:060FDA008B9E050EE66E81
:100FE0009EEC19F041E98B8E86EC19F08A98420E3E
:100FF000E66E4DEC18F041E90A0EE66E4DEC18F085
:1010000041E9280EE66E4DEC18F041E98A888A988D
:10101000400EE66E4DEC18F041E9010EE66E4DEC27
:1010200018F041E9E66A4DEC18F041E98A888A989F
:10103000400EE66E4DEC18F041E9E66A4DEC18F012
:1010400041E9E66A4DEC18F041E98A881200D9CFEF
:10105000E6FFE1CFD9FF83E9050EE66E9EEC19F0BD
:1010600041E98A98400EE66E4DEC18F041E901EB3B
:10107000E6FF4DEC18F041E900EBE6FF4DEC18F00F
:1010800041E98A8841E9E7CFD9FF1200D9CFE6FFCD
:10109000E1CFD9FF81E942E8016A026A9EDF0000E0
:1010A000030EE66E120EE66ED2DF42E9030EE66E26
:1010B00056D841E9230EE66E120EE66EC8DF42E90D
:1010C000230EE66E03D941E93F0EE66E130EE66E7F
:1010D000BEDF42E9030EE66E42D841E9E66AF6D881
:1010E00041E990D843E9E7CFD9FF1200D9CFE6FF15
:1010F000E1CFD9FF83E941E8030E0014036E200E0F
:101100000310E66E120EE66EA2DF42E9400E0110F9
:10111000E66E130EE66E9BDF42E903EBE6FF1FD897
:1011200041E942E9E7CFD9FF1200D9CFE6FFE1CF8D
:10113000D9FF82E9230EE66E120EE66E88DF42E9E1
:10114000B80E0010E66E130EE66E81DF42E9030E64
:10115000E66E05D841E941E9E7CFD9FF1200D9CFC2
:10116000E6FFE1CFD9FF82E9300E0010E66E120EE5
:10117000E66E6DDF42E9020EE66E9EEC19F041E983
:10118000200E0010E66E120EE66E61DF42E941E9C4
:10119000E7CFD9FF1200010EC96EC7A0FED7C95014
:1011A00000D01200D9CFE6FFE1CFD9FF83E941E8B3
:1011B000036A00EBE6FFB9DF41E9400E015C0EE295
:1011C000020E036E020EE66E01EBE6FF8FDF42E9D0
:1011D000010EE66EE66A8ADF42E90ED0010E036E6A
:1011E000020EE66EE66A82DF42E9010EE66E400E0E
:1011F000015CE66E7BDF42E9035000D042E9E7CFB5
:10120000D9FF1200D9CFE6FFE1CFD9FF81E944E849
:10121000016A026A046A080E045C25E204EBE6FF38
:10122000E66AC0DF42E9036A03500001EF6FF06B2A
:10123000800E0001D890F0BF03D0EF5D000EF05992
:1012400010E2400E035C06E2020EE66EE66A13D878
:1012500042E905D0010EE66EE66A0DD842E9032A9E
:10126000E3D7042AD8D7E66AE66A9CDF42E945E973
:10127000E7CFD9FF1200D9CFE6FFE1CFD9FF83E94D
:1012800042E8030E0014036E240E0310E66E120EE5
:10129000E66EDDDE42E900013B51000807E2011C79
:1012A000E66E130EE66ED3DE42E906D001EBE6FFF2
:1012B000130EE66ECCDE42E9200E03100409E66E42
:1012C0004EDF41E943E9E7CFD9FF1200D9CFE6FF6E
:1012D000E1CFD9FF82E9230EE66E120EE66EB7DE8D
:1012E00042E9C00E0010E66E130EE66EB0DE42E973
:1012F000030EE66E34DF41E941E9E7CFD9FF120082
:10130000D9CFE6FFE1CFD9FF81E941E8016AE6687C
:10131000010EE66E9CDE42E9280EE66E120EE66EC7
:1013200096DE42E92B0EE66E1ADF41E98A98410EFD
:10133000E66E4DEC18F041E9130EE66E4DEC18F038
:1013400041E9C7A0FED7FDEC18F0016E8A88E66A75
:10135000010EE66E7CDE42E9015000D042E9E7CFA3
:10136000D9FF1200D9CFE6FFE1CFD9FF84E943E8E6
:101370000150F80BE842E842E842046E0150070BC6
:10138000056E010E001405EBF3FF055204E0D89042
:10139000E836F306FCE1066E01EBE6FF02EBE6FF42
:1013A00001DF42E9E66E06EBE6FF65DF42E944E96C
:1013B000E7CFD9FF1200D9CFE6FFE1CFD9FF85E90A
:1013C00042E8056A066A0350015CD89006BE03D065
:1013D000055C000E065810E2010EE66E0250F36E38
:1013E000F46AF3500524E66E03EBE6FFBBDF43E946
:1013F000052A000E0622E7D743E9E7CFD9FF1200FE
:10140000D9CFE6FFE1CFD9FF84E943E8046A020EB1
:10141000056E010E066E0001010E3C6F005009E0E2
:101420000050040806E30004E824E66EE66ABADE2B
:1014300042E9046A046A100E045C57E2080E045C78
:1014400003E2020E056E02D0010E056E0450012467
:10145000E96E000E0220EA6EEFCFEFF0410E0001C0
:10146000EF5D1EE304500124E96E000E0220EA6ED7
:10147000EF505A080CE204500124E96E000E0220DD
:10148000EA6EEFCFF0F0610E0001F05D09E3045069
:101490000124E96E000E0220EA6EEF507A080AE29B
:1014A00004500124E96E000E0220EA6EEF5020087D
:1014B00001E0066A06500FE005EBE6FF010EE66E5E
:1014C00004500124E96E000E0220EA6EEFCFE6FF21
:1014D00012D843E908D005EBE6FF010EE66E200EB8
:1014E000E66E09D843E9042AA6D700013C6B44E91B
:1014F000E7CFD9FF1200D9CFE6FFE1CFD9FF84E9CA
:1015000043E8046A056A410E025C31E302505A085E
:101510002EE3410E025C056E00EBE6FFE66AABDEF1
:1015200042E9046A060E045C1CE200EBE6FF05508B
:10153000060DF3CFEFF0F4CFF0F04A0E0001EF27E5
:101540002A0E0001F02304500001F76AEF25F66E21
:10155000F051F7220800F5CFE6FF8DDE42E9042ABC
:10156000E1D700EBE6FFE66A86DE42E943D0610E92
:10157000025C31E302507A082EE3610E025C056ED4
:1015800000EBE6FFE66A77DE42E9046A060E045CD9
:101590001CE200EBE6FF0550060DF3CFEFF0F4CFB1
:1015A000F0F0E60E0001EF272A0E0001F0230450B0
:1015B0000001F76AEF25F66EF051F7220800F5CF2B
:1015C000E6FF59DE42E9042AE1D700EBE6FFE66ACE
:1015D00052DE42E90FD0200E026E02500BE0046A88
:1015E000080E045C07E200EBE6FFE66A44DE42E92F
:0C15F000042AF6D744E9E7CFD9FF120027
:0415FC00D9CFE6FF5E
:10160000E1CFD9FF83E941E800EBE9FF01EBEAFF15
:10161000340EE926000EEA22EF6A00EBE9FF01EB47
:10162000EAFF350EE926000EEA22EF6A036A040E8D
:10163000035C17E200EBE9FF01EBEAFFE9CFEFF013
:10164000EACFF0F003500D0D00010001EF51F3243B
:10165000E96E00010001F051F420EA6EEF6A032AFE
:10166000E6D742E9E7CFD9FF1200D9CFE6FFE1CFB5
:10167000D9FF87E945E803500A6E0B6A04EBE9FFDE
:1016800005EBEAFF340EE926000EEA22EF50076E62
:1016900004EBE9FF05EBEAFFE9CFEFF0EACFF0F06A
:1016A00007500D0D0001F350EF25086EF450F021A6
:1016B000096E08EBE9FF09EBEAFFEF5002E0FF0ECD
:1016C0004AD008EBE9FF09EBEAFFEE5203EBEFFF2C
:1016D00008EBE9FF09EBEAFF020EE926000EEA2219
:1016E00002EBEFFF0AEBE6FF0BEBE6FF00EBE6FF9A
:1016F00001EBE6FF08EBE9FF09EBEAFF030EE92641
:10170000000EEA22E9CFEFF0EACFF0F0EFC0E6FFFB
:10171000F0C0E6FFC1EC15F046E904EBE9FF05EB8C
:10172000EAFF340EE926000EEA22EF28030BE66EEC
:1017300004EBE9FF05EBEAFF340EE926000EEA228E
:10174000E552E750EF6E08EBE9FF09EBEAFF010E07
:10175000EF6E010E00D046E9E7CFD9FF1200D9CFD6
:10176000E6FFE1CFD9FF88E945E805EBE9FF06EBA5
:10177000EAFF350EE926000EEA22EF50086E05EB6F
:10178000E9FF06EBEAFFE9CFEFF0EACFF0F008500F
:101790000D0D0001F350EF25096EF450F0210A6E93
:1017A00009EBE9FF0AEBEAFFEF045CE109EBE9FF73
:1017B0000AEBEAFFEE52EF50045C02E2FD0E54D059
:1017C00009EBE9FF0AEBEAFFEE52EF500B6E0C6AF1
:1017D0000BEBE6FF0CEBE6FF09EBE9FF0AEBEAFF98
:1017E000030EE926000EEA22E9CFEFF0EACFF0F08F
:1017F000EFC0E6FFF0C0E6FF00EBE6FF01EBE6FF1F
:10180000C1EC15F046E905EBE9FF06EBEAFF350E02
:10181000E926000EEA22EF28030BE66E05EBE9FF4E
:1018200006EBEAFF350EE926000EEA22E552E75004
:10183000EF6E09EBE9FF0AEBEAFF020EE926000E64
:10184000EA22EF50E66E02EBE9FF03EBEAFFE55216
:10185000E750EF6E09EBE9FF0AEBEAFFEF6A0B5086
:1018600003D002D0FC0E00D046E9E7CFD9FF12002A
:10187000D9CFE6FFE1CFD9FF85E900EBE6FF01EB29
:10188000E6FF02EBE6FF03EBE6FF6C0EE66E010EF1
:10189000E66EEBDE46E900D041E9E7CFD9FF120062
:1018A000D9CFE6FFE1CFD9FF86E900EBE6FF01EBF8
:1018B000E6FF02EBE6FF03EBE6FF04EBE6FF6C0E50
:1018C000E66E010EE66E4BDF47E900D041E9E7CF57
:1018D000D9FF1200D9CFE6FFE1CFD9FF85E900EBB0
:1018E000E6FF01EBE6FF02EBE6FF03EBE6FF360E59
:1018F000E66E010EE66EB9DE46E900D041E9E7CFBB
:10190000D9FF1200D9CFE6FFE1CFD9FF86E900EB7E
:10191000E6FF01EBE6FF02EBE6FF03EBE6FF04EB7D
:10192000E6FF360EE66E010EE66E19DF47E900D0DF
:1019300041E9E7CFD9FF1200D9CFE6FFE1CFD9FFC8
:1019400085E900EBE6FF01EBE6FF02EBE6FF03EBC8
:10195000E6FF000EE66E010EE66E87DE46E900D079
:1019600041E9E7CFD9FF1200D9CFE6FFE1CFD9FF98
:1019700086E900EBE6FF01EBE6FF02EBE6FF03EB97
:10198000E6FF04EBE6FF000EE66E010EE66EE7DE14
:1019900047E900D041E9E7CFD9FF1200D9CFE6FFF0
:1019A000E1CFD9FF85E900EBE6FF01EBE6FF02EBB3
:1019B000E6FF03EBE6FF000EE66E000EE66E55DE78
:1019C00046E900D041E9E7CFD9FF1200D9CFE6FFC1
:1019D000E1CFD9FF86E900EBE6FF01EBE6FF02EB82
:1019E000E6FF03EBE6FF04EBE6FF000EE66E000EFB
:1019F000E66EB5DE47E900D041E9E7CFD9FF120036
:101A00000001366B6C0EE66E010EE66EF7DD42E904
:101A1000360EE66E010EE66EF1DD42E9000EE66E70
:101A2000010EE66EEBDD42E9000EE66E000EE66E9C
:101A3000E5DD42E91200D38E03001200D9CFE6FFA4
:101A4000E1CFD9FF83E900EBE9FF01EBEAFFE9CF42
:101A5000EFF0EACFF0F000EBE9FF01EBEAFF350E23
:101A6000E926000EEA22EF500D0D00010001EF51B2
:101A7000F324E96E00010001F051F420EA6EEF500A
:101A800000D041E9E7CFD9FF12000001365101E152
:101A900029D032EC14F0F3CFEFF0F4CFF0F00001E6
:101AA000EF51F01101E01ED010EC14F0F3CFEFF085
:101AB000F4CFF0F00001EF51F01101E113D0360E38
:101AC000E66E010EE66EBADF42E9000901E00AD0D7
:101AD0006C0EE66E010EE66EB1DF42E9000901E030
:101AE00001D0A9DF12004CEC14F0F3CFEFF0F4CFEB
:101AF000F0F00001EF51F01101E11FD00001010EE3
:101B0000366F360EE66E010EE66E98DF42E900098A
:101B100003E00001366B11D06C0EE66E010EE66E2E
:101B20008DDF42E9000903E00001366B06D00A0EA2
:0C1B3000E66E3DEC19F041E9E4D712002C
:041B3C00D9CFE6FF18
:101B4000E1CFD9FF81E94EE8490E016E6E0E026EBB
:101B5000690E036E740E046E690E056E610E066EDC
:101B60006C0E076E690E086E7A0E096E690E0A6EAB
:101B70006E0E0B6E670E0C6E0D6A0E6A00013B6BEB
:101B8000010EE66ED950010FE66EDACFE6FF00ECEB
:101B90000AF043E94FE9E7CFD9FF1200D9CFE6FFBA
:101BA000E1CFD9FF84E950E8E66AE66AD2EC08F0B2
:101BB00042E9E66A66EC09F041E901EBFEF002EB6E
:101BC000FFF001EBE9FF02EBEAFFE9CFEFF0EACF2C
:101BD000F0F0EFC0E6FFF0C0E6FFD950040FE66E6C
:101BE000DACFE6FFECEC15F044E9010EE66ED950D1
:101BF000040FE66EDACFE6FF00EC0AF043E901EBF2
:101C0000E9FF02EBEAFFE9CFEFF0EACFF0F0100EC8
:101C10000001EF27000E0001F023EFC0E6FFF0C047
:101C2000E6FFD950040FE66EDACFE6FFECEC15F0D4
:101C300044E9020EE66ED950040FE66EDACFE6FFF5
:101C400000EC0AF043E901EBE9FF02EBEAFFE9CF20
:101C5000EFF0EACFF0F0200E0001EF27000E0001B8
:101C6000F023EFC0E6FFF0C0E6FFD950040FE66EA8
:101C7000DACFE6FFECEC15F044E9030EE66ED9503E
:101C8000040FE66EDACFE6FF00EC0AF043E901EB61
:101C9000E9FF02EBEAFFE9CFEFF0EACFF0F0300E18
:101CA0000001EF27000E0001F023EFC0E6FFF0C0B7
:101CB000E6FFD950040FE66EDACFE6FFECEC15F044
:101CC00044E9040EE66ED950040FE66EDACFE6FF63
:101CD00000EC0AF043E9005034E00050040831E31E
:101CE0000001010E3B6F01EBE9FF02EBEAFFE9CFD8
:101CF000F1F0EACFF2F00004100D00010001F15103
:101D0000F3240001EF6F00010001F251F420000103
:101D1000F06FEFC0E6FFF0C0E6FFD950040FE66EAB
:101D2000DACFE6FFECEC15F044E900EBE6FFD95022
:101D3000040FE66EDACFE6FF00EC0AF043E900019B
:101D40003B6B51E9E7CFD9FF1200D9CFE6FFE1CFD6
:101D5000D9FF82E9E66AE66AD2EC08F042E9E66A6F
:101D600066EC09F041E9010EE66EA00EE66E000E8B
:101D7000E66E00EC0AF043E9020EE66EB00EE66E87
:101D8000000EE66E00EC0AF043E9030EE66EC00EAC
:101D9000E66E000EE66E00EC0AF043E9040EE66E15
:101DA000D00EE66E000EE66E00EC0AF043E900503D
:101DB0001DE0005004081AE30001010E3B6F00EB28
:101DC000E6FF0004100DF3CFEFF0F4CFF0F0A00E1B
:101DD0000001EF27000E0001F023EFC0E6FFF0C086
:101DE000E6FF00EC0AF043E900013B6B41E9E7CF75
:101DF000D9FF1200D9CFE6FFE1CFD9FF81E953E83F
:101E0000550E016E730E026E650E036E720E046E39
:101E1000200E056E200E066E076A4F0E086E700EBD
:101E2000096E740E0A6E200E0B6E200E0C6E200EC4
:101E30000D6E0E6A200E0F6E106A460E116E0001B6
:101E4000E351126E0001E451136ED950110FE66E8A
:101E5000DACFE6FF460EE66E030EE66E6AEC0CF095
:101E600044E9E66AE66AD2EC08F042E9E66A66EC22
:101E700009F041E9400E0001E325066E400E000125
:101E8000E4250D6E010EE66ED950010FE66EDACF35
:101E9000E6FF00EC0AF043E9020EE66ED950080FA7
:101EA000E66EDACFE6FF00EC0AF043E9030EE66ED9
:101EB000D9500F0FE66EDACFE6FF00EC0AF043E9E7
:101EC000040EE66ED9500F0FE66EDACFE6FF00EC97
:101ED0000AF043E954E9E7CFD9FF1200D9CFE6FF72
:101EE000E1CFD9FF82E941E9E7CFD9FF1200D9CF8D
:101EF000E6FFE1CFD9FF82E950E8230EE66E120E2D
:101F0000E66E27EC08F042E93F0EE66E130EE66E31
:101F100027EC08F042E9030EE66EAFEC08F041E969
:101F200000506BE00001E051005C1EE00001E15157
:101F30000DE10001E251000809E200EBE6FFFEC0FE
:101F4000E6FFFFC0E6FF2ADE43E90BD00001E10512
:101F500008E10001E251000804E200EBE6FFF5DED3
:101F600041E900EBE0F048D00001E051000844E214
:101F7000005042E00001E151020A2CE0030A18E09F
:101F8000010A01E02FD00001E25100080DE200EB50
:101F9000E3F0E66ADADE41E90001010EE16F0001DB
:101FA000E06B0001E26B03D00001010EE26F24D070
:101FB0000001E25100080AE200EBE4F00001020E29
:101FC000E16F0001E06B0001E26B03D00001010E44
:101FD000E26F12D00FDF0001E16B0001E06B000146
:101FE000E26B0AD0E66AFEC0E6FFFFC0E6FFD6DD80
:101FF00043E90001E16B00D019D00001E06B000162
:10200000E15108E1E66AFEC0E6FFFFC0E6FFC6DD7B
:1020100043E90CD00001E10504E1E66A96DE41E9FE
:1020200005D0020E0001E15D01E1E4DE51E9E7CFF8
:04203000D9FF1200C2
:0C203400D9CFE6FFE1CFD9FF81E95FE8DA
:10204000016A026A036A046A030E936E200E926E9E
:10205000100E946E8A8A000EE66E0E0EE66E0DEB82
:10206000E9FF0EEBEAFFE9CFEFF0EACFF0F0EFC0C7
:10207000E6FFF0C0E6FFECEC15F044E9100EE66E6A
:102080000E0EE66E0DEBE9FF0EEBEAFFE9CFEFF087
:10209000EACFF0F0100E0001EF27000E0001F02350
:1020A000EFC0E6FFF0C0E6FFECEC15F044E9200ECF
:1020B000E66E0E0EE66E0DEBE9FF0EEBEAFFE9CFE2
:1020C000EFF0EACFF0F0200E0001EF27000E000144
:1020D000F023EFC0E6FFF0C0E6FFECEC15F044E9BA
:1020E000300EE66E0E0EE66E0DEBE9FF0EEBEAFF2C
:1020F000E9CFEFF0EACFF0F0300E0001EF27000E4D
:102100000001F023EFC0E6FFF0C0E6FFECEC15F0B5
:1021100044E946EC08F09EEC0DF0E66A0DEBE6FFB4
:102120000EEBE6FFCEEC0DF043E96C0ED36E9B8C0C
:1021300000EC0DF0910EE66E6AEC18F041E90CEC43
:1021400014F073EC0DF0D9500F0FE66EDACFE6FF06
:10215000D950080FE66EDACFE6FF0A0EE66E82EC83
:102160000CF045E9066E063416E3FC0E065C12E040
:1021700006EBEFF00001F06BEFBFF069EFC0E6FF98
:10218000F0C0E6FF090EE66E2D0EE66EE66AC8ECBC
:1021900017F045E99ED00850460A01E18DD07B0A30
:1021A00001E189D0010A01E185D00B0A01E17DD06E
:1021B000050A01E179D0040A71E0030A69E0010A25
:1021C00061E0070A59E0190A4CE0020A20E0010A1E
:1021D0001EE0230A01E071D0D9500F0FE66EDACF6E
:1021E000E6FF06EBEFF00001F06BEFBFF069EFC028
:1021F000E6FFF0C0E6FF0850E66EE66AD9501D0F14
:10220000E66EDACFE6FF6BEC19F048E962D00850D1
:10221000E66EE66AED0EE66E2C0EE66EE66AC8EC39
:1022200017F045E91A6A06501A5C1AE20001D95003
:102230000F0FEF6FDACFF0F01A500001EA6AEF25C6
:10224000E96EF051EA22EF50E66EE66AE90EE66EBC
:102250002C0EE66EE66AC8EC17F045E91A2AE3D7B9
:1022600038D0D90EE66E2C0EE66EE66AC8EC17F092
:1022700043E9020E066E2DD0010EE66E77EC0FF0EC
:1022800041E927D0020EE66E77EC0FF041E921D04C
:10229000030EE66E77EC0FF041E91BD0040EE66EFC
:1022A00077EC0FF041E915D014D0E66A77EC0FF027
:1022B00041E90FD00ED00DD00CD00850E66EE66A82
:1022C000AD0EE66E2C0EE66EE66AC8EC17F045E938
:1022D00000D0D9500F0FE66EDACFE6FFD950080FC5
:1022E000E66EDACFE6FF0A0EE66E50EC0CF045E93A
:1022F000066E063416E3FC0E065C12E006EBEFF009
:102300000001F06BEFBFF069EFC0E6FFF0C0E6FF41
:10231000800EE66E2C0EE66EE66AC8EC17F045E914
:1023200022D008501E0A1EE0150A01E01BD0D95029
:102330000F0FE66EDACFE6FF06EBEFF00001F06B71
:10234000EFBFF069EFC0E6FFF0C0E6FF0850E66EB1
:10235000E66AD9501B0FE66EDACFE6FF94EC18F070
:1023600048E901D000D0EDD660E9E7CFD9FF1200EF
:102370001200D9CFE6FFE1CFD9FF83E9B2EC19F023
:1023800007EC00F0000901E0FBD792EC19F0F3CF65
:10239000EFF0F4CFF0F000EBE9FF01EBEAFFEFC064
:1023A000EEFFF0C0EDFF010EE66E3DEC19F041E9E5
:1023B00041E9E7CFD9FF1200D9CFE6FFE1CFD9FF3E
:1023C00084E9FC0EE66EE6683F0EE66E7F0E0014B2
:1023D000FC0BE66ED10EE66E50EC17F045E900EB13
:1023E000E6FFE5EC18F041E9B2EC19F007EC00F07B
:1023F000000901E0FBD792EC19F0F3CFEFF0F4CF36
:10240000F0F001EBE9FF02EBEAFFEFC0EEFFF0C0F6
:10241000EDFF010EE66E3DEC19F041E941E9E7CF31
:10242000D9FF1200D9CFE6FFE1CFD9FF83E9D70E5C
:10243000E66E00EBE6FF01EBE6FFBEDF43E941E9B4
:10244000E7CFD9FF1200D9CFE6FFE1CFD9FF81E96D
:1024500048E800013751000850E200013C514DE1CD
:10246000A4EC16F0040A2EE0070A1FE0010A10E0AF
:10247000030A01E034D0D950030FE66EDACFE6FF4D
:10248000330EE66E020EE66E6AEC0CF044E934D0D0
:10249000D950030FE66EDACFE6FF340EE66E020E79
:1024A000E66E6AEC0CF044E927D0D950030FE66ED3
:1024B000DACFE6FF350EE66E020EE66E6AEC0CF041
:1024C00044E91AD0D950030FE66EDACFE6FF360E94
:1024D000E66E020EE66E6AEC0CF044E90DD0D950BF
:1024E000030FE66EDACFE6FF370EE66E020EE66EFB
:1024F0006AEC0CF044E900D015D000013C5112E127
:10250000030E0001385D0EE3D950030FE66EDACFFB
:10251000E6FF370EE66E020EE66E6AEC0CF044E95A
:102520000001386B0001382BDCEC16F00001376F2E
:10253000000EE66EE66ACDEC18F042E9D950010FC4
:10254000E66EDACFE6FFD950070FE66EDACFE6FF88
:10255000020EE66EE6EC0CF045E9056E066AE8BE92
:102560000668020E051801E106500CE1D950010F72
:10257000E66EDACFE6FF0A0EE66E020EE66E6AEC53
:102580000CF044E949E9E7CFD9FF1200D9CFE6FFC3
:10259000E1CFD9FF81E944E8B5EC18F0F350016EC2
:1025A000F450026E000EE66EE66A0B0EE66EE66A08
:1025B00038EC0CF044E9000EE66EE66A9DEC18F08B
:0A25C00042E945E9E7CFD9FF120018
:0625CA0043E8D9CFE6FF53
:1025D000DACFE6FFE1CFD9FFE2CFDAFF89E9066A79
:1025E0001200F3DF068001D0F0DF01AEFEEF12F043
:1025F000006C011EE86A012206B0067E03AE06EFFB
:1026000013F0026C031EE86A0322067E3EEC13F010
:1026100003BE28EF13F006AE08D0026C031EE86A72
:102620000322046C051EE86A052206B006D084EB7E
:1026300000F085EB01F006A004D082EB00F083EB04
:1026400001F0E552E5CFDAFFE7CFD9FF45E9000C0D
:1026500006BE0DEF13F0E9DFFF0C43E8D9CFE6FF2C
:10266000DACFE6FFE1CFD9FFE2CFDAFF89E9066AE8
:102670001200F3DF068003D0F0DF01D00682056A86
:10268000046A100EE76ED89002360336043605361B
:102690000050045C0150055805E30050045E0150F1
:1026A000055A022AE72EF0D706B2120006B006D06D
:1026B00084EB00F085EB01F006A004D082EB00F083
:1026C00083EB01F0E552E5CFDAFFE7CFD9FF45E92B
:1026D000120045E8D9CFE6FFDACFE6FFE1CFD9FF18
:1026E000E2CFDAFF8FE90C6A1200F3DF0C8003D02F
:1026F000F0DF01D00C820B6A0A6A096A086A200EB0
:10270000E76ED890043605360636073608360936A1
:102710000A360B360050085C0150095802500A581E
:1027200003500B5809E30050085E0150095A02504B
:102730000A5A03500B5A042AE72EE4D70CB21200AF
:102740000CB00AD088EB00F089EB01F08AEB02F0C4
:102750008BEB03F00CA008D084EB00F085EB01F0CC
:1027600086EB02F087EB03F0E552E5CFDAFFE7CF27
:10277000D9FF49E9120044E8D9CFE6FFDACFE6FFF6
:10278000E1CFD9FFE2CFDAFF8EE980EB08F081EBF1
:1027900009F082EB0AF083EB0BF004500802F350CF
:1027A000006EF450016E04500902F3500126000E31
:1027B000F420026E04500A02F3500226000EF420A8
:1027C000036E04500B02F350032605500802F35029
:1027D0000126F4500222000E032205500902F35094
:1027E0000226F450032205500A02F3500326065035
:1027F0000802F3500226F450032206500902F35057
:10280000032607500802F3500326E552E5CFDAFF0E
:08281000E7CFD9FF48E9000CF5
:08281800D08EF28EF28C12004A
:10282000F250800B800A01E0010E0001EF6FF06BA7
:10283000800B01E0F069EFC0F3FFF0C0F4FF00D0BF
:102840001200F250400B400A01E0010E0001EF6F50
:10285000F06B800B01E0F069EFC0F3FFF0C0F4FF14
:1028600000D01200F2AC05D0000EF36EF46A13D063
:1028700012D0D6DFF3CFEFF0F4CFF0F00001EF513C
:10288000F01105E0000EF36EF46A05D004D0010EDD
:10289000F36EF46A00D01200E5DFF3CFEFF0F4CF6F
:1028A000F0F00001EF51F0110EE1BADFF3CFF1F0DB
:1028B000F4CFF2F00001F151F21105E1010EF36ED7
:1028C000F46A05D004D0000EF36EF46A00D0120052
:1028D000DACFE4FFE2CFDAFFE9CFE4FFEACFE4FFAB
:1028E000D9CFE4FFDACFE4FFF6C0E4FFF7C0E4FF9E
:1028F000F8C0E4FFF9C0E4FFF6CFE4FFF7CFE4FF50
:10290000F5CFE4FFF3CFE4FFF4CFE4FFFACFE4FF29
:1029100000EEEFF0070EE80403E3EECFE4FFFBD791
:10292000E652F2A403D0F29423EC12F045EC0DF041
:10293000E55200EEF5F0070EE80403E3E5CFEDFF06
:10294000FBD7E5CFFAFFE5CFF4FFE5CFF3FFE5CF07
:10295000F5FFE5CFF7FFE5CFF6FFE5CFF9F0E5CFDF
:10296000F8F0E5CFF7F0E5CFF6F0E5CFDAFFE5CF09
:10297000D9FFE5CFEAFFE5CFE9FFE5CFDAFF1100A8
:10298000D8CFE4FFE0CFE4FFE46EDACFE4FFE2CF9C
:10299000DAFFE9CFE4FFEACFE4FFD9CFE4FFDACFF3
:1029A000E4FFF6C0E4FFF7C0E4FFF8C0E4FFF9C0BD
:1029B000E4FFF6CFE4FFF7CFE4FFF5CFE4FFF3CF7A
:1029C000E4FFF4CFE4FFFACFE4FF00EEEFF0070EF0
:1029D000E80403E3EECFE4FFFBD7E6529EA003D06A
:1029E0009E90C6EC12F09EAA03D09E9A14EC19F0A9
:1029F000E55200EEF5F0070EE80403E3E5CFEDFF46
:102A0000FBD7E5CFFAFFE5CFF4FFE5CFF3FFE5CF46
:102A1000F5FFE5CFF7FFE5CFF6FFE5CFF9F0E5CF1E
:102A2000F8F0E5CFF7F0E5CFF6F0E5CFDAFFE5CF48
:102A3000D9FFE5CFEAFFE5CFE9FFE5CFDAFFE550C3
:0A2A4000E5CFE0FFE5CFD8FF10005E
:062A4A007C1211127C0059
:102A50007F49494936003E41414122007F41414181
:102A60003E007F49494941007F09090901003E4173
:102A7000415173007F0808087F0000417F4100003A
:102A80002040413F01007F08142241007F40404028
:102A900040007F021C027F007F0408107F003E413F
:102AA00041413E007F09090906003E4151215E0077
:102AB0007F091929460026494949320003017F014F
:102AC00003003F4040403F001F2040201F003F4088
:102AD00038403F00631408146300030478040300C3
:102AE0006159494D43002054547840007F284444A4
:102AF0003800384444442800384444287F0038547F
:102B00005454180000087E09020018A4A49C780000
:102B10007F080404780000447D4000002040403DD0
:102B200000007F102844000000417F4000007C042A
:102B3000780478007C080404780038444444380061
:102B4000FC182424180018242418FC007C08040411
:102B5000080048545454240004043F4424003C40DA
:102B600040207C001C2040201C003C4030403C00A9
:102B70004428102844004C9090907C004464544CAD
:022B800044000F
:0E2B8200D9CFE6FFDACFE6FFFA0EE3CFD9FF98
:102B9000FB0EE3CFDAFFFC0EE3CFE9FFFD0EE3CF40
:102BA000EAFFE9CFF3FFEACFF4FFF80EE35003E1C9
:102BB000F90EE35008E0F80EE30602E2F90EE30630
:102BC000DECFEEFFF2D7FF0EE3CFDAFFE552FF0EC6
:102BD000E3CFD9FFE5521200D9CFE6FFDACFE6FF07
:102BE000FA0EE3CFD9FFFB0EE3CFDAFFFC0EE3CF03
:102BF000E9FFFD0EE3CFEAFFE9CFF3FFEACFF4FFF1
:102C0000DECFEFFFEE66FCD7FF0EE3CFDAFFE55233
:102C1000FF0EE3CFD9FFE5521200FE0EE3CFE9FF2E
:102C2000FF0EE3CFEAFFF36AF46AEE5203E0F34AE1
:102C3000F42AFBD71200FF0EE3CFF8FFE552FF0E98
:102C4000E3CFF7FFE552FF0EE3CFF6FFE552E66A6A
:102C5000E66AE66A0900F55209E0FD0EE32A05E19D
:102C6000FE0EE32A02E1FF0EE32AF4D7FD0EE3CFC6
:102C7000F6F0FE0EE3CFF7F0FF0EE3CFF8F0120010
:102C80004572726F723A20426164206C6F772070D7
:102C900072696F7269747920726563656976652CF3
:102CA00020636F6465203D2025780D0A004572720F
:102CB0006F723A20556E6578706563746564206D37
:102CC000736720696E2071756575652C2074797045
:102CD00065203D2025780D0A0049324320536C6160
:102CE0007665205265710D0A00202578004932432F
:102CF00020496E74657272757074207265636569BF
:102D00007665642025783A20004572726F723A2009
:102D10004261642068696768207072696F726974C3
:102D20007920726563656976652C20636F64652020
:102D30003D2025780D0A004D53473A202564202573
:072D4000642025730D0A0059
:082D4800D9CFE6FFE1CFD9FF6E
:102D500081E943E8016A026A036A8A848A96D70E87
:102D6000E66ED950020FE66EDACFE6FFDCEC11F02A
:102D700043E9033404E202500F08000E035416E244
:102D8000FF0EE66EE66A02EBE6FF03EBE6FFF1EC10
:102D900012F0E552E5CFF0F0E7CFEFF00001EF2BB6
:102DA000000EF0230001EF5103D002D0000E00D03E
:102DB00044E9E7CFD9FF1200D9CFE6FFE1CFD9FF31
:102DC00081E942E8016A026A8A848A86899AD70E72
:102DD000E66ED950010FE66EDACFE6FFDCEC11F0BB
:102DE00043E9023404E201500008030E025403E2F6
:102DF000010E03D002D0000E00D043E9E7CFD9FF87
:022E00001200BE
:0E2E02001E0EF66E000EF76E000EF86E00014A
:102E10000900F550EA6F0900F550EB6F03E1EA672E
:102E200001D03DD00900F550E56F0900F550E66F7F
:102E30000900F550E76F09000900F550E96E090037
:102E4000F550EA6E090009000900F550E86F090025
:102E5000F550E96F09000900F6CFECF0F7CFEDF07F
:102E6000F8CFEEF0E5C0F6FFE6C0F7FFE7C0F8FFE9
:102E70000001E85302E1E95307E00900F550EE6E66
:102E8000E807F8E2E907F9D7ECC0F6FFEDC0F7FF75
:102E9000EEC0F8FF0001EA07000EEB5BBFD712009F
:102EA000D9CFE6FFDACFE6FFE1CFD9FFE2CFDAFFF5
:102EB00087E9C26AC16A0350400DF350C00B00019C
:102EC000EF6F03407F0B3C0BEF11C26E0450040DFB
:102ED000F350380BF06F04380F0B070BEF6F800EB9
:102EE0000414EF11F011C16E01EBEFF0F06BEFC0C5
:102EF00048FF00EB49FF060EEF6FC00E0214EFC053
:102F0000E7FFE75204E0E8427F0BE706FCE10E0131
:102F1000B86F03AE03D09E9C9D8CF28CC28041E9B9
:0A2F2000E5CFDAFFE7CFD9FF12007A
:062F2A00D9CFE6FFDACF6B
:102F3000E6FFE1CFD9FFE2CFDAFF85E9013415E200
:102F400000EBE9FF01EBEAFFEECFF3FFEDCFF4FF7B
:102F5000EE2A000EEF22F3CFE9FFF4CFEAFF02EBF7
:102F6000EFFFEF50F36EF46A0DD0FE0E005C05E14A
:102F700002EBE6FF5DEC19F004D002EBE6FF03EC98
:102F800000F041E941E9E5CFDAFFE7CFD9FF1200D0
:102F9000D9CFE6FFDACFE6FFE1CFD9FFE2CFDAFF04
:102FA00085E944E8D9CFE6FFDACFE6FFE552E55000
:102FB000066EE750056E05EBE6FF06EBE6FF00EB5D
:102FC000E6FF01EBE6FF02EBE6FF39C0E6FF3AC0A1
:102FD000E6FF47EC00F047E9F350076EF450086E47
:102FE00007EBF3FF08EBF4FF45E9E5CFDAFFE7CFA6
:042FF000D9FF1200F3
:0C2FF400D9CFE6FFE1CFD9FF89E91E0E1E
:10300000041801E1055001E120D01F0E041801E170
:1030100005501BE100500224E96E01500320EA6EC6
:10302000EF6A00EBE6FF01EBE6FF02EBE6FF03EBE6
:10303000E6FF04EBE6FF05EBE6FF370EE66E2D0E2E
:10304000E66EE66AC8EC17F049E941E9E7CFD9FF37
:0230500012006C
:0E305200D9CFE6FFDACFE6FFE1CFD9FFE2CF1C
:10306000DAFF85E93F0EC716C66A0250C612005045
:10307000C7120150030A09E0010A04E0020A06E14E
:10308000C78C04D0C78CC68801D0C688C68A41E9DF
:0A309000E5CFDAFFE7CFD9FF120009
:06309A00D9CFE6FFDACFFA
:1030A000E6FFE1CFD9FFE2CFDAFF83E941E8C9507B
:1030B000036E9E96C69E00EBC9FFC6AE02D0FF0E01
:1030C00003D09EA6FED7000E42E9E5CFDAFFE7CF98
:0430D000D9FF120012
:0C30D400D9CFE6FFDACFE6FFE1CFD9FF4D
:1030E000E2CFDAFF83E97F0E0014D56ED76AD66A85
:1030F000F29400AE02D0F28A01D0F29AD58E41E964
:0A310000E5CFDAFFE7CFD9FF120098
:06310A00D9CFE6FFE1CF82
:10311000D9FF83E900EBE9FF01EBEAFFEE6AED6A14
:1031200041E9E7CFD9FF1200D9CFE6FFE1CFD9FFC0
:0A31300089E941E9E7CFD9FF120059
:06313A00D9CFE6FFDACF59
:10314000E6FFE1CFD9FFE2CFDAFF84E942E880EB86
:1031500004F081EB05F005EBCFFF04EBCEFF43E974
:0A316000E5CFDAFFE7CFD9FF120038
:06316A00D9CFE6FFDACF29
:10317000E6FFE1CFD9FFE2CFDAFF82E942E8CE50A5
:10318000026ECF50036E02EBF3FF03EBF4FF43E953
:0A319000E5CFDAFFE7CFD9FF120008
:06319A00D9CFE6FFDACFF9
:1031A000E6FFE1CFD9FFE2CFDAFF84E942E880EB26
:1031B00004F081EB05F005EBD7FF04EBD6FF43E904
:0A31C000E5CFDAFFE7CFD9FF1200D8
:0631CA00D9CFE6FFDACFC9
:1031D000E6FFE1CFD9FFE2CFDAFF83E9C30EC214E5
:1031E0000001EF6F00407F0B3C0BEF11C26E41E915
:0A31F000E5CFDAFFE7CFD9FF1200A8
:0631FA00D9CFE6FFDACF99
:10320000E6FFE1CFD9FFE2CFDAFF82E941E8C9501A
:10321000026E9E96C96A9EA6FED7C95042E9E5CFC6
:08322000DAFFE7CFD9FF12002D
:083228001200D9CFE6FFE1CF4F
:10323000D9FF83E900EBFAF001EBFBF0FAC0E9FFFC
:10324000FBC0EAFF040EE926000EEA22EF6A41E91C
:06325000E7CFD9FF1200D8
:0A325600F36AF46AFF0EE124E96E4A
:10326000FF0EE220EA6EED6607D02F0EEF6404D069
:0A3270003A0EEF6001D0F32A1200BD
:06327A00FF0EE35000010D
:103280003D6F480E01D04C0EE76EE72EFED7E76A81
:0A329000E72EFED73D2FF7D71200FE
:06329A00B00EF36E00EE21
:1032A00000F00E0E01D81200EA6002D0EE6AFCD7E0
:0A32B000F350E9601200EE6AFCD74B
:0632BA00FF0EE350ADBA67
:1032C00004D0B06AAC8EAD8A949CADA2FED7AE6E2F
:0632D000F36EF46A120027
:0A32D600D9CFE6FFE1CFD9FF89E967
:1032E00042E880EB09F081EB0AF043E9E7CFD9FF30
:0232F0001200CA
:0E32F2001DEE00F02DEE00F0F86A01EC17F072
:0C330000B4EC19F01AEC10F0FBD712002E
:04330C00100E946E9D
:103310008B9E8B8EE66AE66A010EE66E29EC18F04B
:0433200043E912006B
:0C332400C4CFF1F0F1C0F2F00001F16B39
:0C333000C350F111F36EF2C0F4FF120064
:04333C00FF0EE3504D
:10334000E84E1200000000D000D000D0E82EFAD7DE
:02335000120069
:0E3352003031323334353637383961626364D6
:033360006566009F
:04336400C28212000F
:02336800120051
:02336A00000061
:02336C00FEFF62
:02336E0000005D
:1033700042656E0000000000000000000000000038
:1033800044616E000000000000000000000000002A
:103390005479000000000000000000000000000060
:1033A00052696C6579000000000000000000000018
:1033B00052656164696E67206C696768740000001B
:1033C000536C656570696E67206C6967687400008E
:1033D0005456206C6967687400000000000000000B
:1033E0004D4158206C6967687400000000000000BF
:0533F0000000000000D8
:0B33F50042656E0000000000000000B8
:10340000000000000044616E0000000000000000A9
:1034100000000000005479000000000000000000DF
:10342000000000000052696C657900000000000097
:10343000000000000052656164696E67206C696776
:103440006874000000536C656570696E67206C6974
:1034500067687400005456206C6967687400000047
:1034600000000000004D4158206C6967687400003E
:05347000000000000057
:00000001FF
