:020000040000FA
:0600000078EF19F0120078
:020006001200E6
:0600080050EF14F012009D
:02000E00C250DE
:08001000020B01E0010E1200D9
:06001800A8EF14F0120035
:02001E000400DC
:10002000EE330000000E0000800000006A33000084
:100030006000000084000000613300004100000007
:1000400001000000683300003F00000002000000D3
:1000500090DB86E90150010600090CE002EBE6FFA7
:1000600003EBE6FF00EBE6FF69DBF4E1EF1DF2E1F5
:10007000010E01D0000E41E9E5CFDAFFE7CFD9FF4D
:10008000120077DB89E97BE80A6A0B6A02EBF6FF6C
:1000900003EBF7FF04EBF8FF0800F550096E095079
:1000A00001E12DD3250E095C01E01BD30C6A0D6A1A
:1000B0000E6A0F6A106A2DDB2D0E095C0CE02B0E08
:1000C000095C09E0200E095C06E0230E095C03E0F0
:1000D000300E095C15E10950300A10E0130A0CE0FB
:1000E000030A08E00B0A04E0060AE5E10C80E3D706
:1000F0000C82E1D70C84DFD70C86DDD70C88DBD7E8
:100100002A0E095C13E1A5DB0DE30C801CEBEEF07D
:100110001DEBEFF00001EE6DEF1F000EEF23EE512F
:100120000D6E02D09CEB0DF0F4DA07D0126A3FDBC3
:1001300002E06BDBFCD792EB0DF00CB00C982E0EAE
:10014000095C15E1E6DA2A0E095C08E182DB04E2CB
:100150009CEB0EF0010E0F6EDCDA09D0126A27DB81
:1001600002E053DBFCD792EB0EF0010E0F6E680E2F
:10017000095C07E1CEDA680E095C1DE1030E106E22
:1001800019D0740E095C16E07A0E095C13E0480E73
:10019000095C06E0540E095C03E05A0E095C02E1BA
:1001A000020E07D06C0E095C03E06A0E095C03E1E5
:1001B000010E106EAEDA09506E0A01E16ED21E0A0F
:1001C00001E128D1200A01E125D13F0A01E1FDD05A
:1001D0001A0A01E1FAD00D0A01E1F7D0200A01E183
:1001E000F4D03A0A01E1F1D0200A01E1EED0260A6A
:1001F00001E1EAD00D0A01E1E7D01A0A01E19ED03F
:10020000200A3BE0300A1AE0460A0EE0250A01E027
:1002100072D2D950020FE96E000EDA20EA6E010E9A
:10022000EE5E000EEE5AEE5A0FDB250EE66E86DA13
:1002300003E1EF1D01E159D20A2A5BD2116A0D5088
:10024000010803E20D04116EF5DA115007E0010E0A
:100250000C1404E16DDA01E048D2116AD3DAEF50F0
:10026000096ECBDA03E1EF1D01E13FD20A2A000E4D
:100270000B225EDA01E13FD238D2020E105C08E1B7
:10028000030E4EDAEE50176EEE50186EEF5007D098
:10029000E7DAF06BEE51176EEF51186EF051196EF0
:1002A00017EBE6FF18EBE6FF19EBE6FF03EC16F0A1
:1002B00043E9F5C0EEF0F6C0EFF0F7C0F0F0000152
:1002C000EE511C6EEF511D6E0F5006E01C500E5C7F
:1002D00003E20E501C6E1D6A1C500D5C02E29CEB8A
:1002E0000DF050DA05E00D500E5C02E28EEB0DF0E1
:1002F0000CB004D01DDA01E0F8D1116A126A17EBD4
:10030000F6FF18EBF7FF19EBF8FF0800F550096E40
:10031000095010E00D50125C0DE26FDA03E1EF1DA1
:1003200001E1E3D10A2A000E0B22122AD950170F3D
:1003300055DAEBD7FDD901E1DED1D7D163DAEE5042
:100340001A6EED501B6E1AEBE6FF1BEBE6FFF5ECA9
:1003500015F042E9F3501C6EF4501D6E0F5006E08C
:100360001C500E5C03E20E501C6E1D6A1C500D5C8E
:1003700002E29CEB0DF006DA05E00D500E5C02E2A5
:100380008EEB0DF00CB004D0D3D901E0AED1116AE0
:10039000126A1AEBE9FF1BEBEAFFEF50096E0950F6
:1003A0000FE00D50125C0CE228DA03E1EF1D01E1D1
:1003B0009CD10A2A000E0B22122A1A2A1B22E9D7E4
:1003C000B7D901E198D191D10C8E10040AE1040E45
:1003D000A7D9EE50136EEE50146EEE50156EEF501E
:1003E00032D0030E105C16E10CAE0CD00BDAEFCF5E
:1003F000EEF00001EF6BF06BF16BEEAF23D0EF6925
:10040000F0691FD0FFD9EFCFEEF00001EE51136E6F
:10041000146A20D0020E105C0CE10CAE06D0030E64
:100420007FD9B6D9F0AF0ED00CD0030E79D9B0D9A0
:1004300009D00CAE0AD014DAF06BF16BEFAF02D03A
:10044000F069F169BCD9166E07D00ADAEE51136E65
:10045000EF51146E156A166A0F5002E1010E0E6E0E
:100460001E6A1F6AD950400FE66E000EDA20E66E53
:10047000E552E550436EE750426E416A116A0A0E3A
:10048000106E0950780A12E0200A10E0280A0CE0E9
:10049000200A0AE03F0A06E00D0A02E0200A08E10D
:1004A000020E05D0080E03D0080E0926100E106E9D
:1004B0000CBE02D00C920C94800E0C1417E0163473
:1004C00015E3E668E668E668E66842D97FEC12F074
:1004D000E552E5CFF1F0E5CFF0F0E5CFEFF0E7CF73
:1004E000EEF000016CD9166E2D0E07D00CA202D0D2
:1004F0002B0E03D00CA404D0200E206E1E2A01D097
:10050000206A0E5005E1135014101510161061E00A
:100510000001500EEE6F330EEF6F000EF06F83D9B7
:100520003CEC12F0E552E5CFF4F0E5CFF3F0E5CF87
:10053000F2F0E7CFF1F00001EE51F125F36EEF514B
:10054000F221F46EF051F321F86EF4CFF7FFF3CF00
:10055000F6FF0800F550126E580E095C05E1610EB9
:10056000125C02E3200E125E5ED939EC12F0E55205
:10057000E550166EE550156EE550146EE750136E9B
:1005800042EBE9FF43EBEAFF4206000E435A12EB4F
:10059000EFFF1E2A1350141015101610B9E10CA607
:1005A00019D06F0E095C06E10E501E5C13E31E2885
:1005B0000E6E10D0780E095C09E0580E095C06E05A
:1005C000620E095C03E0420E095C04E1020E1F6E3C
:1005D00001D01E6A100E0C1407E00D500E5C04E2F0
:1005E0000F5002E18DEB0EF00E501E5C03E21E5028
:1005F0000E5E01D00E6A0E501E241F24D8800D54AA
:1006000007E20E500D5CD8801E54D8801F54116E26
:10061000010E0C1406E1115004E08AD866E10AD9F3
:10062000116A205007E010D920EBE6FF87D802E1DD
:10063000EF1D5BE01F500BE007D9300EE66E7ED851
:1006400002E1EF1D52E0D9D802E1EF1D4EE00E505D
:100650001F5C02E21F500E5E300EE66E0EEBE6FFF0
:10066000DCD843E1422A000E432242EBE9FF43EB90
:10067000EAFFEF50126E125008E0E6D812EBE6FFE8
:100680005DD8F0E1EF1DEEE130D052D82EE10E50F2
:100690001E2411241F240A262CD01050030A1CE00B
:1006A000010A14E0030A07E0ADD8C9D80AEBEEFF4F
:1006B0000BEBEDFF20D08BD8F16BEFAF02D0F069E0
:1006C000F169A0D84ED8F1C0EEFF15D080D8EFBFA9
:1006D000F06998D846D80FD095D8B1D80AEBEFFF7B
:1006E0000AD08BD805E1EF1D03E1F368F4680BD065
:1006F0000A2A000E0B22D950020F70D8CDD40AEB73
:10070000F3FF0BEBF4FF7CE9E5CFDAFFE7CFD9FF8E
:100710001200D950020F62D80800F550096E12007D
:10072000005E000E015A00EBE9FF01EBEAFF120048
:10073000200EE66E11EBE6FF0DEF04F07CEC17F0F7
:1007400043E9F3CFEEF0F4CFEFF00001F31C120019
:1007500013EBE6FF14EBE6FF15EBE6FF16EBE6FF07
:1007600012006DD8EEC0EEFFEFC0EEFFF0C0EEFF5E
:100770001200D9CFE6FFDACFE6FFE1CFD9FFE2CF13
:10078000DAFF12001C500D5C116E54D80F5012008D
:10079000EECFEEF0EECFEFF0EFCFF0F00001F16B27
:1007A0001200EECFEEF0EFCFEFF000011200095093
:1007B000E66EE66A38EC19F042E9F3501200EE51A9
:1007C000136EEF51146EF051156EF15112000AEBD9
:1007D000EEF00BEBEFF00001F06B1200E96E000E93
:1007E000DA20EA6EEF2AEECFF6FF000EEF22EECF10
:1007F000F7FFEF22EECFF8FF120026D809EBE6FF55
:100800009EEF03F0020E90EF03F00A0E1202F35077
:100810000924D00F126E89EF03F016D828EC00F0EF
:1008200044E90009120010EBE6FFE66AE66AE66AB0
:10083000A8EF03F011500A26000E0B221200EE5012
:10084000EFCFEAFFE96E120005EBE6FF06EBE6FFED
:100850001200D8DFEE501C6EED501D6E1D341200DC
:06086000D1DFD1EF03F02F
:0A086600D9CFE6FFE1CFD9FF82E908
:1008700041E9E7CFD9FF1200D9CFE6FFE1CFD9FF99
:1008800084E941E9E7CFD9FF1200D9CFE6FFE1CFF4
:10089000D9FF82E941E9E7CFD9FF1200D9CFE6FFBE
:1008A000E1CFD9FF84E937C0E9FF38C0EAFF190E6C
:1008B000E926000EEA22EF6A37C0E9FF38C0EAFFF6
:1008C000190EEB50D880025432E237C0E9FF38C02D
:1008D000EAFF190EEB500024E96E000E0120EA6ECB
:1008E000EF50E66E37C0E9FF38C0EAFF0F0EE92689
:1008F000000EEA22E9CFEEF0EACFEFF037C0E9FFD1
:1009000038C0EAFF190EEB500001EA6AEE25E96EE5
:10091000EF51EA22E552E750EF6E37C0E9FF38C0E9
:10092000EAFF190EE926000EEA22EF2AC5D737C0E2
:10093000E9FF38C0EAFF190EE926000EEA2202EBB1
:10094000EFFF37C0E9FF38C0EAFF1A0EE926000EB4
:10095000EA22010EEF6E37C0E9FF38C0EAFF0F0E42
:10096000EB50C96EC68841E9E7CFD9FF1200D9CF55
:10097000E6FFE1CFD9FF82E937C0E9FF38C0EAFFDF
:100980000B0EE926000EEA22010EEF6E37C0E9FFDA
:1009900038C0EAFF0A0EE926000EEA22EF6A00508C
:1009A00038E0C7AA1ED037C0E9FF38C0EAFF0C0EF6
:1009B000E926000EEA22050EEF6E37C0E9FF38C0C7
:1009C000EAFF0E0EE926000EEA22EF2A37C0E9FF01
:1009D00038C0EAFF0D0EE926000EEA22050EEF6E82
:1009E00017D0C7A40BD037C0E9FF38C0EAFF0C0E00
:1009F000E926000EEA22080EEF6E0AD037C0E9FFA2
:100A000038C0EAFF0C0EE926000EEA22070EEF6E50
:100A10000AD037C0E9FF38C0EAFF0C0EE926000E05
:100A2000EA22060EEF6E41E9E7CFD9FF1200D9CFD7
:100A3000E6FFE1CFD9FF81E949E8026A036A046A67
:100A4000056A066AC6AC20D0C69C37C0E9FF38C02C
:100A5000EAFF0C0EE926000EEA22050EEF6E010EEB
:100A6000066E37C0E9FF38C0EAFF0E0EE926000E19
:100A7000EA22EF2A37C0E9FF38C0EAFF0D0EE92667
:100A8000000EEA22040EEF6EC7A004D0C950016E1A
:100A9000010E026E065001E094D137C0E9FF38C064
:100AA000EAFF0C0EEB50070A01E1D2D00F0A01E178
:100AB0008DD00E0A15E0030A01E083D1C7A60FD03E
:100AC00002EBE6FF54DF41E937C0E9FF38C0EAFF37
:100AD0000C0EEB50080803E1026A010E056E71D19D
:100AE000C7A82ED037C0E9FF38C0EAFF0B0EE926B1
:100AF000000EEA22EF2A025018E0C7BA03D0010E16
:100B0000046E13D037C0E9FF38C0EAFF0E0EE926A5
:100B1000000EEA22EF2A37C0E9FF38C0EAFF0D0EC7
:100B2000E926000EEA22060EEF6E37C0E9FF38C054
:100B3000EAFF0C0EE926000EEA22050EEF6E45D004
:100B4000025043E037C0E9FF38C0EAFF0B0EE92648
:100B5000000EEA22EF2AC7BA1BD0C7B40BD037C0A9
:100B6000E9FF38C0EAFF0C0EE926000EEA22070E64
:100B7000EF6E0DD037C0E9FF38C0EAFF0C0EE92652
:100B8000000EEA22080EEF6E010E056E026A1DD0FD
:100B900037C0E9FF38C0EAFF0E0EE926000EEA2250
:100BA000EF2A37C0E9FF38C0EAFF0C0EE926000E35
:100BB000EA22050EEF6E37C0E9FF38C0EAFF0D0EDE
:100BC000E926000EEA22060EEF6EFBD037C0E9FFE1
:100BD00038C0EAFF1A0EEB500001EE6F37C0E9FF94
:100BE00038C0EAFF190EEB500001EE5D26E237C077
:100BF000E9FF38C0EAFF0F0EE926000EEA22E9CF2E
:100C0000EEF0EACFEFF037C0E9FF38C0EAFF1A0E86
:100C1000EB500001EA6AEE25E96EEF51EA22EF504F
:100C2000C96E37C0E9FF38C0EAFF1A0EE926000E88
:100C3000EA22EF2A010E036E0AD037C0E9FF38C05E
:100C4000EAFF0C0EE926000EEA22050EEF6EB9D07F
:100C5000C7A85AD037C0E9FF38C0EAFF0B0EE92613
:100C6000000EEA22EF2A025042E0C7AA22D037C083
:100C7000E9FF38C0EAFFE9CFEEF0EACFEFF037C086
:100C8000E9FF38C0EAFF0A0EEB500001EA6AEE25E0
:100C9000E96EEF51EA2201EBEFFF37C0E9FF38C000
:100CA000EAFF0A0EE926000EEA22EF2A010E046E80
:100CB0001DD037C0E9FF38C0EAFF0E0EE926000E4E
:100CC000EA22EF2A37C0E9FF38C0EAFF0D0EE92615
:100CD000000EEA22060EEF6E37C0E9FF38C0EAFFC9
:100CE0000C0EE926000EEA22050EEF6E02D0010E70
:100CF000046E37C0E9FF38C0EAFF0C0EE926000E8B
:100D0000EA22050EEF6E5CD002505AE037C0E9FFD0
:100D100038C0EAFF0B0EE926000EEA22EF2AC7AA26
:100D200020D037C0E9FF38C0EAFFE9CFEEF0EACFC4
:100D3000EFF037C0E9FF38C0EAFF0A0EEB500001C0
:100D4000EA6AEE25E96EEF51EA2201EBEFFF37C0C8
:100D5000E9FF38C0EAFF0A0EE926000EEA22EF2A70
:100D60002FD0C7A410D037C0E9FF38C0EAFF0C0E5F
:100D7000E926000EEA22080EEF6E010E046E010E47
:100D8000056E026A1DD037C0E9FF38C0EAFF0E0EBB
:100D9000E926000EEA22EF2A37C0E9FF38C0EAFF51
:100DA0000D0EE926000EEA22060EEF6E37C0E9FFAF
:100DB00038C0EAFF0C0EE926000EEA22050EEF6E9F
:100DC00000D0025002E1035002E0C6A8C68837C036
:100DD000E9FF38C0EAFF0A0EEB5008081FE2045092
:100DE0001DE137C0E9FF38C0EAFF0C0EE926000E0E
:100DF000EA22050EEF6E37C0E9FF38C0EAFF0E0E9B
:100E0000E926000EEA22EF2A37C0E9FF38C0EAFFE0
:100E10000D0EE926000EEA22070EEF6E045041E0A7
:100E200037C0E9FF38C0EAFF0B0EEB50E66E37C063
:100E3000E9FF38C0EAFFE9CFEEF0EACFEFF037C0C4
:100E4000E9FF38C0EAFF0A0EEB500001EA6AEE251E
:100E5000E96EEF51EA22E552E750EF6E37C0E9FF45
:100E600038C0EAFFE9CFEEF0EACFEFF0EEC0E6FFE0
:100E7000EFC0E6FF280EE66E37C0E9FF38C0EAFF94
:100E80000A0EEB50010FE66E73EC0CF044E937C02C
:100E9000E9FF38C0EAFF0A0EE926000EEA22EF6AEF
:100EA00036D037C0E9FF38C0EAFF0E0EEB50000124
:100EB000EE6F010E0001EE5D2AE337C0E9FF38C096
:100EC000EAFF0E0EEB50076E37C0E9FF38C0EAFFAD
:100ED0000D0EEB50086E37C0E9FF38C0EAFF0B0E6D
:100EE000EB50096ED950070FE66EDACFE6FF290EF8
:100EF000E66E030EE66E73EC0CF044E937C0E9FFD2
:100F000038C0EAFF0E0EE926000EEA22EF6A05500D
:100F100013E037C0E9FF38C0EAFFE9CFEEF0EACFCF
:100F2000EFF0EEC0E6FFEFC0E6FF2A0EE66EE66ADF
:100F300073EC0CF044E9056A4AE9E7CFD9FF1200E7
:100F4000D9CFE6FFE1CFD9FF83E900EB37F001EB22
:100F500038F037C0E9FF38C0EAFF0A0EE926000E74
:100F6000EA22EF6A37C0E9FF38C0EAFF0B0EE92634
:100F7000000EEA22EF6A37C0E9FF38C0EAFF0C0E24
:100F8000E926000EEA22050EEF6E37C0E9FF38C0F1
:100F9000EAFF0E0EE926000EEA22EF6A41E9E7CFEA
:100FA000D9FF1200D9CFE6FFE1CFD9FF82E99486BD
:100FB000948800EBC8FFC76AC66AC56A0E0EC612DF
:0E0FC000C78EC580C68A41E9E7CFD9FF12006F
:020FCE008B9EF8
:100FD000320EE66E9DEC19F041E98B8E85EC19F02E
:100FE0008A98420EE66E5AEC18F041E90A0EE66E57
:100FF0005AEC18F041E9280EE66E5AEC18F041E977
:101000008A888A98400EE66E5AEC18F041E9010E83
:10101000E66E5AEC18F041E9E66A5AEC18F041E93C
:101020008A888A98400EE66E5AEC18F041E9E66A22
:101030005AEC18F041E9E66A5AEC18F041E98A885E
:101040001200D9CFE6FFE1CFD9FF83E98A98400E9D
:10105000E66E5AEC18F041E901EBE6FF5AEC18F0A5
:1010600041E900EBE6FF5AEC18F041E98A8841E9D2
:10107000E7CFD9FF1200D9CFE6FFE1CFD9FF81E951
:1010800042E8016A026AA3DF0000030EE66E120E58
:10109000E66ED7DF42E9030EE66E5BD841E9230E28
:1010A000E66E120EE66ECDDF42E9230EE66E08D93B
:1010B00041E93F0EE66E130EE66EC3DF42E9030E12
:1010C000E66E47D841E9E668130EE66EBADF42E9FC
:1010D000E66AF6D841E990D843E9E7CFD9FF120094
:1010E000D9CFE6FFE1CFD9FF83E941E8030E001431
:1010F000036E200E0310E66E120EE66EA2DF42E9CA
:10110000400E0110E66E130EE66E9BDF42E903EB24
:10111000E6FF1FD841E942E9E7CFD9FF1200D9CF56
:10112000E6FFE1CFD9FF82E9230EE66E120EE66EEE
:1011300088DF42E9B80E0010E66E130EE66E81DF1E
:1011400042E9030EE66E05D841E941E9E7CFD9FF50
:101150001200D9CFE6FFE1CFD9FF82E9300E0010AF
:10116000E66E120EE66E6DDF42E9050EE66E9DEC50
:1011700019F041E9200E0010E66E120EE66E61DFF6
:1011800042E941E9E7CFD9FF1200010EC96EC7A0BD
:10119000FED7C95000D01200D9CFE6FFE1CFD9FF6A
:1011A00083E941E8036A00EBE6FFB9DF41E9400E5D
:1011B000015C0EE2020E036E020EE66E01EBE6FF2C
:1011C0008FDF42E9010EE66EE66A8ADF42E90ED061
:1011D000010E036E020EE66EE66A82DF42E9010E40
:1011E000E66E400E015CE66E7BDF42E9035000D004
:1011F00042E9E7CFD9FF1200D9CFE6FFE1CFD9FF0F
:1012000081E944E8016A026A046A080E045C25E286
:1012100004EBE6FFE66AC0DF42E9036A035000011F
:10122000EE6FEF6B800E0001D890EFBF03D0EE5D44
:10123000000EEF5910E2400E035C06E2020EE66E6D
:10124000E66A13D842E905D0010EE66EE66A0DD8CB
:1012500042E9032AE3D7042AD8D7E66AE66A9CDF84
:1012600042E945E9E7CFD9FF1200D9CFE6FFE1CF48
:10127000D9FF83E941E8030E0014036E240E031026
:10128000E66E120EE66EDDDE42E900014151000815
:1012900007E2011CE66E130EE66ED3DE42E906D0CD
:1012A00001EBE6FF130EE66ECCDE42E9200E0310E2
:1012B0000409E66E4EDF41E942E9E7CFD9FF1200AB
:1012C000D9CFE6FFE1CFD9FF82E9230EE66E120EF9
:1012D000E66EB7DE42E9C00E0010E66E130EE66E53
:1012E000B0DE42E9030EE66E34DF41E941E9E7CFC3
:1012F000D9FF1200D9CFE6FFE1CFD9FF81E941E85C
:10130000016A8A98400EE66E5AEC18F041E9010E27
:10131000E66E5AEC18F041E9E6685AEC18F041E93B
:101320008A88280EE66E120EE66E8BDE42E90B0E00
:10133000E66E0FDF41E90B0EE66E0BDF41E90A0EA8
:10134000E66E9DEC19F041E98A98410EE66E5AEC82
:1013500018F041E9130EE66E5AEC18F041E9C7A007
:10136000FED70AEC19F0016E8A88E66A010EE66E75
:1013700068DE42E9015000D042E9E7CFD9FF120010
:10138000D9CFE6FFE1CFD9FF84E943E80150F80B5C
:10139000E842E842E842046E0150070B056E010E78
:1013A000001405EBF3FF055204E0D890E836F3068D
:1013B000FCE1066E01EBE6FF02EBE6FFEDDE42E943
:1013C000E66E06EBE6FF51DF42E944E9E7CFD9FFDD
:1013D0001200D9CFE6FFE1CFD9FF85E942E8056ADF
:1013E000066A0350015CD89006BE03D0055C000E6F
:1013F000065810E2010EE66E0250F36EF46AF350E6
:101400000524E66E03EBE6FFBBDF43E9052A000E89
:101410000622E7D743E9E7CFD9FF1200D9CFE6FF8D
:10142000E1CFD9FF84E943E8046A020E056E010E9C
:10143000066E005009E00050040806E30004E824AA
:10144000E66EE66AA9DE42E9046A046A100E045CEC
:1014500057E2080E045C03E2020E056E02D0010E94
:10146000056E04500124E96E000E0220EA6EEFCFF3
:10147000EEF0410E0001EE5D1EE304500124E96E22
:10148000000E0220EA6EEF505A080CE204500124CC
:10149000E96E000E0220EA6EEFCFEFF0610E000160
:1014A000EF5D09E304500124E96E000E0220EA6EAC
:1014B000EF507A080AE204500124E96E000E02207F
:1014C000EA6EEF50200801E0066A06500FE005EBD7
:1014D000E6FF010EE66E04500124E96E000E0220C4
:1014E000EA6EEFCFE6FF10D843E908D005EBE6FF40
:1014F000010EE66E200EE66E07D843E9042AA6D751
:1015000044E9E7CFD9FF1200D9CFE6FFE1CFD9FFF9
:1015100084E942E8046A056A410E025C31E3025044
:101520005A082EE3410E025C056E00EBE6FFE66A08
:101530009CDE42E9046A060E045C1CE200EBE6FF56
:101540000550060DF3CFEEF0F4CFEFF01A0E0001C8
:10155000EE272A0E0001EF2304500001F76AEE2562
:10156000F66EEF51F7220800F5CFE6FF7EDE42E986
:10157000042AE1D700EBE6FFE66A77DE42E943D0D2
:10158000610E025C31E302507A082EE3610E025CC8
:10159000056E00EBE6FFE66A68DE42E9046A060EC5
:1015A000045C1CE200EBE6FF0550060DF3CFEEF005
:1015B000F4CFEFF0B60E0001EE272A0E0001EF2364
:1015C00004500001F76AEE25F66EEF51F72208008D
:1015D000F5CFE6FF4ADE42E9042AE1D700EBE6FF59
:1015E000E66A43DE42E90FD0200E026E02500BE0A5
:1015F000046A080E045C07E200EBE6FFE66A35DEEB
:0E16000042E9042AF6D743E9E7CFD9FF1200EA
:02160E00D9CF32
:10161000E6FFE1CFD9FF83E941E800EBE9FF01EB09
:10162000EAFF340EE926000EEA22EF6A00EBE9FF3A
:1016300001EBEAFF350EE926000EEA22EF6A036AA3
:10164000040E035C17E200EBE9FF01EBEAFFE9CFD0
:10165000EEF0EACFEFF003500D0D00010001EE5166
:10166000F324E96E00010001EF51F420EA6EEF6A05
:10167000032AE6D742E9E7CFD9FF1200D9CFE6FF28
:10168000E1CFD9FF87E945E803500A6E0B6A04EB06
:10169000E9FF05EBEAFF340EE926000EEA22EF50DF
:1016A000076E04EBE9FF05EBEAFFE9CFEEF0EACFC6
:1016B000EFF007500D0D0001F350EE25086EF450C9
:1016C000EF21096E08EBE9FF09EBEAFFEF5002E0BA
:1016D000FF0E4AD008EBE9FF09EBEAFFEE5203EBFD
:1016E000EFFF08EBE9FF09EBEAFF020EE926000E27
:1016F000EA2202EBEFFF0AEBE6FF0BEBE6FF00EB63
:10170000E6FF01EBE6FF08EBE9FF09EBEAFF030E5A
:10171000E926000EEA22E9CFEEF0EACFEFF0EEC0C4
:10172000E6FFEFC0E6FFA9EC15F046E904EBE9FFA0
:1017300005EBEAFF340EE926000EEA22EF28030B40
:10174000E66E04EBE9FF05EBEAFF340EE926000E36
:10175000EA22E552E750EF6E08EBE9FF09EBEAFFFA
:10176000010EEF6E010E00D046E9E7CFD9FF12005F
:10177000D9CFE6FFE1CFD9FF88E945E805EBE9FFDE
:1017800006EBEAFF350EE926000EEA22EF50086E5E
:1017900005EBE9FF06EBEAFFE9CFEEF0EACFEFF069
:1017A00008500D0D0001F350EE25096EF450EF21A5
:1017B0000A6E09EBE9FF0AEBEAFFEF045CE109EBD3
:1017C000E9FF0AEBEAFFEE52EF50045C02E2FD0E85
:1017D00054D009EBE9FF0AEBEAFFEE52EF500B6E33
:1017E0000C6A0BEBE6FF0CEBE6FF09EBE9FF0AEBFB
:1017F000EAFF030EE926000EEA22E9CFEEF0EACF77
:10180000EFF0EEC0E6FFEFC0E6FF00EBE6FF01EB16
:10181000E6FFA9EC15F046E905EBE9FF06EBEAFF68
:10182000350EE926000EEA22EF28030BE66E05EBE3
:10183000E9FF06EBEAFF350EE926000EEA22E55243
:10184000E750EF6E09EBE9FF0AEBEAFF020EE9262B
:10185000000EEA22EF50E66E02EBE9FF03EBEAFF2F
:10186000E552E750EF6E09EBE9FF0AEBEAFFEF6A9A
:101870000B5003D002D0FC0E00D046E9E7CFD9FFD1
:101880001200D9CFE6FFE1CFD9FF85E900EBE6FFF3
:1018900001EBE6FF02EBE6FF03EBE6FF6C0EE66E04
:1018A000010EE66EEBDE46E900D041E9E7CFD9FF55
:1018B0001200D9CFE6FFE1CFD9FF86E900EBE6FFC2
:1018C00001EBE6FF02EBE6FF03EBE6FF04EBE6FFCE
:1018D0006C0EE66E010EE66E4BDF47E900D041E983
:1018E000E7CFD9FF1200D9CFE6FFE1CFD9FF85E9D5
:1018F00000EBE6FF01EBE6FF02EBE6FF03EBE6FFA2
:10190000360EE66E010EE66EB9DE46E900D041E91C
:10191000E7CFD9FF1200D9CFE6FFE1CFD9FF86E9A3
:1019200000EBE6FF01EBE6FF02EBE6FF03EBE6FF71
:1019300004EBE6FF360EE66E010EE66E19DF47E9B0
:1019400000D041E9E7CFD9FF1200D9CFE6FFE1CFC0
:10195000D9FF85E900EBE6FF01EBE6FF02EBE6FFCE
:1019600003EBE6FF000EE66E010EE66E87DE46E94B
:1019700000D041E9E7CFD9FF1200D9CFE6FFE1CF90
:10198000D9FF86E900EBE6FF01EBE6FF02EBE6FF9D
:1019900003EBE6FF04EBE6FF000EE66E010EE66EDB
:1019A000E7DE47E900D041E9E7CFD9FF1200D9CF00
:1019B000E6FFE1CFD9FF85E900EBE6FF01EBE6FFAB
:1019C00002EBE6FF03EBE6FF000EE66E000EE66EAE
:1019D00055DE46E900D041E9E7CFD9FF1200D9CF63
:1019E000E6FFE1CFD9FF86E900EBE6FF01EBE6FF7A
:1019F00002EBE6FF03EBE6FF04EBE6FF000EE66E0C
:101A0000000EE66EB5DE47E900D041E9E7CFD9FF29
:101A100012000001366B6C0EE66E010EE66EF7DD0D
:101A200042E9360EE66E010EE66EF1DD42E9000E89
:101A3000E66E010EE66EEBDD42E9000EE66E000E8C
:101A4000E66EE5DD42E91200D38E03001200D9CF25
:101A5000E6FFE1CFD9FF83E900EBE9FF01EBEAFF05
:101A6000E9CFEEF0EACFEFF000EBE9FF01EBEAFFA0
:101A7000350EE926000EEA22EF500D0D000100019F
:101A8000EE51F324E96E00010001EF51F420EA6EFB
:101A9000EF5000D041E9E7CFD9FF120000013651E5
:101AA00001E129D01AEC14F0F3CFEEF0F4CFEFF00F
:101AB0000001EE51EF1101E01ED0F8EC13F0F3CF6E
:101AC000EEF0F4CFEFF00001EE51EF1101E113D091
:101AD000360EE66E010EE66EBADF42E9000901E05D
:101AE0000AD06C0EE66E010EE66EB1DF42E9000927
:101AF00001E001D0A9DF120034EC14F0F3CFEEF0D6
:101B0000F4CFEFF00001EE51EF1101E11FD0000121
:101B1000010E366F360EE66E010EE66E98DF42E974
:101B2000000903E00001366B11D06C0EE66E010E69
:101B3000E66E8DDF42E9000903E00001366B06D056
:0E1B40000A0EE66E4AEC19F041E9E4D71200F5
:021B4E00D9CFED
:101B5000E6FFE1CFD9FF81E94EE8490E016E6E0E36
:101B6000026E690E036E740E046E690E056E610ED0
:101B7000066E6C0E076E690E086E7A0E096E690E9F
:101B80000A6E6E0E0B6E670E0C6E0D6A0E6A000109
:101B9000416B010EE66ED950010FE66EDACFE6FF1B
:101BA0000EEC0AF043E94FE9E7CFD9FF1200D9CF95
:101BB000E6FFE1CFD9FF83E950E8E66AE66ACCECBC
:101BC00008F042E9E66A60EC09F041E900EB39F01F
:101BD00001EB3AF000EBE9FF01EBEAFFE9CFEEF0B1
:101BE000EACFEFF0EEC0E6FFEFC0E6FFD950030FFB
:101BF000E66EDACFE6FFD4EC15F044E9010EE66EAE
:101C0000D950030FE66EDACFE6FF0EEC0AF043E997
:101C100000EBE9FF01EBEAFFE9CFEEF0EACFEFF0EE
:101C2000100E0001EE27000E0001EF23EEC0E6FFCC
:101C3000EFC0E6FFD950030FE66EDACFE6FFD4EC33
:101C400015F044E9020EE66ED950030FE66EDACFC6
:101C5000E6FF0EEC0AF043E900EBE9FF01EBEAFFD7
:101C6000E9CFEEF0EACFEFF0200E0001EE27000EF4
:101C70000001EF23EEC0E6FFEFC0E6FFD950030FEF
:101C8000E66EDACFE6FFD4EC15F044E9030EE66E1B
:101C9000D950030FE66EDACFE6FF0EEC0AF043E907
:101CA00000EBE9FF01EBEAFFE9CFEEF0EACFEFF05E
:101CB000300E0001EE27000E0001EF23EEC0E6FF1C
:101CC000EFC0E6FFD950030FE66EDACFE6FFD4ECA3
:101CD00015F044E9040EE66ED950030FE66EDACF34
:101CE000E6FF0EEC0AF043E951E9E7CFD9FF120015
:101CF000E66AE66ACCEC08F042E9E66A60EC09F0D4
:101D000041E9010EE66EA00EE66E000EE66E0EECE8
:101D10000AF043E9020EE66EB00EE66E000EE66EC5
:101D20000EEC0AF043E9030EE66EC00EE66E000EFE
:101D3000E66E0EEC0AF043E9040EE66ED00EE66E97
:101D4000000EE66E0EEC0AF043E91200D9CFE6FF72
:101D5000E1CFD9FF81E950E8550E016E730E026E96
:101D6000650E036E720E046E200E056E200E066E5A
:101D7000076A4F0E086E700E096E740E0A6E200E02
:101D80000B6E200E0C6E200E0D6E0E6A200E0F6E66
:101D9000106AE66AE66ACCEC08F042E9E66A60ECB2
:101DA00009F041E9410E0001E225066E410E0001F5
:101DB000E3250D6E010EE66ED950010FE66EDACF07
:101DC000E6FF0EEC0AF043E9020EE66ED950080F6A
:101DD000E66EDACFE6FF0EEC0AF043E9030EE66E9C
:101DE000D9500F0FE66EDACFE6FF0EEC0AF043E9AA
:101DF000040EE66ED9500F0FE66EDACFE6FF0EEC5A
:101E00000AF043E951E9E7CFD9FF1200D9CFE6FF45
:101E1000E1CFD9FF82E950E8005001E1D5D00001BF
:101E2000E051005C01E1A4D00001E15163E1000157
:101E3000010E416F39C0E9FF3AC0EAFFE9CFF0F087
:101E4000EACFF1F00004100D00010001F051F3247D
:101E50000001EE6F00010001F151F4200001EF6F6D
:101E6000EEC0E6FFEFC0E6FFD950020FE66EDACF14
:101E7000E6FFD4EC15F044E900EBE6FFD950020F81
:101E8000E66EDACFE6FF0EEC0AF043E90001416BA3
:101E90000001E05100082DE239C0E9FF3AC0EAFF35
:101EA000E9CFF0F0EACFF1F00001E005100D0001FC
:101EB0000001F051F3240001EE6F00010001F15127
:101EC000F4200001EF6FEEC0E6FFEFC0E6FFD9504F
:101ED000020FE66EDACFE6FFD4EC15F044E9E0C07D
:101EE000E6FFD950020FE66EDACFE6FF0EEC0AF0FD
:101EF00043E93BD00001E10535E10001010E416FEE
:101F000000EBE6FF0004100DF3CFEEF0F4CFEFF09E
:101F1000A00E0001EE27000E0001EF23EEC0E6FF49
:101F2000EFC0E6FF0EEC0AF043E90001416B00014F
:101F3000E051000816E2E0C0E6FF0001E005100DE8
:101F4000F3CFEEF0F4CFEFF0A00E0001EE27000E7D
:101F50000001EF23EEC0E6FFEFC0E6FF0EEC0AF053
:101F600043E903D00001E05100E100EBE0F02CD0A8
:101F70000001E051000828E2005026E00001E15194
:101F8000020A12E0030A0AE0010A01E012D000EBA3
:101F9000E2F0AEDE0001010EE16F14D000EBE3F0E1
:101FA0000001020EE16F0ED0D1DE0001030EE16FE1
:101FB00009D039C0E6FF3AC0E6FFF9DD42E9000189
:101FC000E16B00D00001E06B51E9E7CFD9FF1200CF
:101FD000D9CFE6FFE1CFD9FF81E966E8016A026A5D
:101FE000036A046A030E936E200E926E100E946EB6
:101FF0008A8A000EE66E0E0EE66E12EBE9FF13EB18
:10200000EAFFE9CFEEF0EACFEFF0EEC0E6FFEFC077
:10201000E6FFD4EC15F044E9100EE66E0E0EE66E07
:1020200012EBE9FF13EBEAFFE9CFEEF0EACFEFF0B6
:10203000100E0001EE27000E0001EF23EEC0E6FFB8
:10204000EFC0E6FFD4EC15F044E9200EE66E0E0E6C
:10205000E66E12EBE9FF13EBEAFFE9CFEEF0EACF11
:10206000EFF0200E0001EE27000E0001EF23EEC07E
:10207000E6FFEFC0E6FFD4EC15F044E9300EE66E63
:102080000E0EE66E12EBE9FF13EBEAFFE9CFEEF07E
:10209000EACFEFF0300E0001EE27000E0001EF2333
:1020A000EEC0E6FFEFC0E6FFD4EC15F044E93BECF0
:1020B00008F0A7EC0DF012EBE6FF13EBE6FFD7EC10
:1020C0000DF042E96C0ED36E9B8CD950220FE66E58
:1020D000DACFE6FF92EC18F042E909EC0DF0930E2E
:1020E000E66E77EC18F041E9F4EC13F07CEC0DF0BF
:1020F000D950140FE66EDACFE6FFD950080FE66E1E
:10210000DACFE6FF0A0EE66E8BEC0CF045E9066EC0
:10211000063416E3FC0E065C12E006EBEEF000015E
:10212000EF6BEEBFEF69EEC0E6FFEFC0E6FFD90E42
:10213000E66E2C0EE66EE66AAFEC17F045E992D03B
:102140000850370A01E17DD0050A01E179D0040A7F
:1021500071E0030A69E0010A61E0070A59E0190A1F
:102160004CE0020A20E0010A1EE0230A01E06ED0E2
:10217000D950140FE66EDACFE6FF06EBEEF0000161
:10218000EF6BEEBFEF69EEC0E6FFEFC0E6FF085071
:10219000E66EE66AD950240FE66EDACFE6FF10EC61
:1021A00018F048E95FD00850E66EE66ABD0EE66EAC
:1021B0002C0EE66EE66AAFEC17F045E91F6A065092
:1021C0001F5C1AE20001D950140FEE6FDACFEFF066
:1021D0001F500001EA6AEE25E96EEF51EA22EF5046
:1021E000E66EE66AB90EE66E2C0EE66EE66AAFECB7
:1021F00017F045E91F2AE3D735D0A90EE66E2C0E5D
:10220000E66EE66AAFEC17F043E9020E066E2AD0DE
:10221000010EE66E06EC0FF041E924D0020EE66EE8
:1022200006EC0FF041E91ED0030EE66E06EC0FF04F
:1022300041E918D0040EE66E06EC0FF041E912D029
:1022400011D0E66A06EC0FF041E90CD00850E66EBA
:10225000E66A7D0EE66E2C0EE66EE66AAFEC17F0CF
:1022600045E900D0D950140FE66EDACFE6FFD95019
:10227000080FE66EDACFE6FF0A0EE66E59EC0CF0B8
:1022800045E9066E063416E3FC0E065C12E006EB2A
:10229000EEF00001EF6BEEBFEF69EEC0E6FFEFC0BE
:1022A000E6FF500EE66E2C0EE66EE66AAFEC17F017
:1022B00045E94AD008501E0A20E0010A1EE0140A2F
:1022C00001E036D0D950140FE66EDACFE6FF06EB08
:1022D000EEF00001EF6BEEBFEF69EEC0E6FFEFC07E
:1022E000E6FF0850E66EE66AD950220FE66EDACFB6
:1022F000E6FFA1EC18F048E927D0D950140FE66E9C
:10230000DACFE6FF06EBEEF00001EF6BEEBFEF6910
:10231000EEC0E6FFEFC0E6FF0850E66EE66AD95071
:10232000200FE66EDACFE6FFE1EC17F048E90CD0BB
:102330000850E66EE66A7D0EE66E2C0EE66EE66AE4
:10234000AFEC17F045E900D0D1D667E9E7CFD9FF68
:02235000120079
:0E23520043E8D9CFE6FFDACFE6FFE1CFD9FFAF
:10236000E2CFDAFF89E9066A1200F3DF068001D0C6
:10237000F0DF01AEC2EF11F0006C011EE86A01222D
:1023800006B0067E03AECAEF11F0026C031EE86AC7
:102390000322067E02EC12F003BEECEF11F006AE53
:1023A00008D0026C031EE86A0322046C051EE86A6A
:1023B000052206B006D084EB00F085EB01F006A004
:1023C00004D082EB00F083EB01F0E552E5CFDAFFB9
:1023D000E7CFD9FF45E9000C06BED1EF11F0E9DFE8
:1023E000FF0C43E8D9CFE6FFDACFE6FFE1CFD9FF14
:1023F000E2CFDAFF89E9066A1200F3DF068003D034
:10240000F0DF01D00682056A046A100EE76ED890EC
:1024100002360336043605360050045C0150055878
:1024200005E30050045E0150055A022AE72EF0D75A
:1024300006B2120006B006D084EB00F085EB01F086
:1024400006A004D082EB00F083EB01F0E552E5CF6B
:10245000DAFFE7CFD9FF45E9120045E8D9CFE6FF1B
:10246000DACFE6FFE1CFD9FFE2CFDAFF8FE90C6ADE
:102470001200F3DF0C8003D0F0DF01D00C820B6A76
:102480000A6A096A086A200EE76ED8900436053693
:1024900006360736083609360A360B360050085C11
:1024A0000150095802500A5803500B5809E30050D4
:1024B000085E0150095A02500A5A03500B5A042A66
:1024C000E72EE4D70CB212000CB00AD088EB00F073
:1024D00089EB01F08AEB02F08BEB03F00CA008D043
:1024E00084EB00F085EB01F086EB02F087EB03F064
:1024F000E552E5CFDAFFE7CFD9FF49E9120044E81A
:10250000D9CFE6FFDACFE6FFE1CFD9FFE2CFDAFF9E
:102510008EE980EB08F081EB09F082EB0AF083EBA7
:102520000BF004500802F350006EF450016E04509A
:102530000902F3500126000EF420026E04500A0234
:10254000F3500226000EF420036E04500B02F350E9
:10255000032605500802F3500126F4500222000E13
:10256000032205500902F3500226F45003220550BD
:102570000A02F350032606500802F3500226F450D4
:10258000032206500902F350032607500802F350B5
:102590000326E552E5CFDAFFE7CFD9FF48E9000C83
:1025A0001200D9CFE6FFE1CFD9FF83E9B1EC19F0F2
:1025B00007EC00F0000901E0FBD791EC19F0F3CF34
:1025C000EEF0F4CFEFF000EBE9FF01EBEAFFEEC035
:1025D000EEFFEFC0EDFF010EE66E4AEC19F041E9A7
:1025E00041E9E7CFD9FF1200D9CFE6FFE1CFD9FF0C
:1025F00084E9FC0EE66EE6683F0EE66E7F0E001480
:10260000FC0BE66ED10EE66E37EC17F045E900EBF9
:10261000E6FFF2EC18F041E9B1EC19F007EC00F03C
:10262000000901E0FBD791EC19F0F3CFEEF0F4CF05
:10263000EFF001EBE9FF02EBEAFFEEC0EEFFEFC0C7
:10264000EDFF010EE66E4AEC19F041E941E9E7CFF2
:10265000D9FF1200D9CFE6FFE1CFD9FF83E9D70E2A
:10266000E66E00EBE6FF01EBE6FFBEDF43E941E982
:10267000E7CFD9FF1200D9CFE6FFE1CFD9FF81E93B
:1026800048E80001FA3504E2F9510008000EFA5555
:102690004DE295EC16F0040A2EE0070A1FE0010A4D
:1026A00010E0030A01E034D0D950030FE66EDACF10
:1026B000E6FF330EE66E020EE66E73EC0CF044E9B4
:1026C00034D0D950030FE66EDACFE6FF340EE66E53
:1026D000020EE66E73EC0CF044E927D0D950030FDC
:1026E000E66EDACFE6FF350EE66E020EE66E73ECAE
:1026F0000CF044E91AD0D950030FE66EDACFE6FFAA
:10270000360EE66E020EE66E73EC0CF044E90DD068
:10271000D950030FE66EDACFE6FF320EE66E020EF8
:10272000E66E73EC0CF044E900D00CD0D950010FE8
:10273000E66EDACFE6FF370EE66E020EE66E73EC5B
:102740000CF044E9C3EC16F00001F96FFA6B000ECF
:10275000E66EE66ADAEC18F042E9D950010FE66E4F
:10276000DACFE6FFD950070FE66EDACFE6FF020EAA
:10277000E66EEFEC0CF045E9056E066AE8BE066809
:10278000020E051801E106500CE1D950010FE66E6A
:10279000DACFE6FF0A0EE66E020EE66E73EC0CF080
:1027A00044E949E9E7CFD9FF1200D9CFE6FFE1CFED
:1027B000D9FF81E944E8C2EC18F0F350016EF450FF
:1027C000026E000EE66EE66A0B0EE66EE66A41ECFD
:1027D0000CF044E9000EE66EE66AAAEC18F042E955
:0827E00045E9E7CFD9FF120023
:0827E800D08EF28EF28C12007B
:1027F000F250800B800A01E0010E0001EE6FEF6BDA
:10280000800B01E0EF69EEC0F3FFEFC0F4FF00D0F2
:102810001200F250400B400A01E0010E0001EE6F81
:10282000EF6B800B01E0EF69EEC0F3FFEFC0F4FF48
:1028300000D01200F2AC05D0000EF36EF46A13D093
:1028400012D0D6DFF3CFEEF0F4CFEFF00001EE516F
:10285000EF1105E0000EF36EF46A05D004D0010E0E
:10286000F36EF46A00D01200E5DFF3CFEEF0F4CFA0
:10287000EFF00001EE51EF110EE1BADFF3CFF0F00F
:10288000F4CFF1F00001F051F11105E1010EF36E0A
:10289000F46A05D004D0000EF36EF46A00D0120082
:1028A000DACFE4FFE2CFDAFFE9CFE4FFEACFE4FFDB
:1028B000D9CFE4FFDACFE4FFF5C0E4FFF6C0E4FFD0
:1028C000F7C0E4FFF8C0E4FFF6CFE4FFF7CFE4FF82
:1028D000F5CFE4FFF3CFE4FFF4CFE4FFFACFE4FF5A
:1028E00000EEEEF0070EE80403E3EECFE4FFFBD7C3
:1028F000E652F2A403D0F2943BEC13F04EEC0DF050
:10290000E55200EEF4F0070EE80403E3E5CFEDFF37
:10291000FBD7E5CFFAFFE5CFF4FFE5CFF3FFE5CF37
:10292000F5FFE5CFF7FFE5CFF6FFE5CFF8F0E5CF10
:10293000F7F0E5CFF6F0E5CFF5F0E5CFDAFFE5CF3C
:10294000D9FFE5CFEAFFE5CFE9FFE5CFDAFF1100D8
:10295000D8CFE4FFE0CFE4FFE46EDACFE4FFE2CFCC
:10296000DAFFE9CFE4FFEACFE4FFD9CFE4FFDACF23
:10297000E4FFF5C0E4FFF6C0E4FFF7C0E4FFF8C0F1
:10298000E4FFF6CFE4FFF7CFE4FFF5CFE4FFF3CFAA
:10299000E4FFF4CFE4FFFACFE4FF00EEEEF0070E21
:1029A000E80403E3EECFE4FFFBD7E6529EA003D09A
:1029B0009E90D5EC13F09EAA03D09E9A21EC19F0BC
:1029C000E55200EEF4F0070EE80403E3E5CFEDFF77
:1029D000FBD7E5CFFAFFE5CFF4FFE5CFF3FFE5CF77
:1029E000F5FFE5CFF7FFE5CFF6FFE5CFF8F0E5CF50
:1029F000F7F0E5CFF6F0E5CFF5F0E5CFDAFFE5CF7C
:102A0000D9FFE5CFEAFFE5CFE9FFE5CFDAFFE550F3
:0A2A1000E5CFE0FFE5CFD8FF10008E
:062A1A007C1211127C0089
:102A20007F49494936003E41414122007F414141B1
:102A30003E007F49494941007F09090901003E41A3
:102A4000415173007F0808087F0000417F4100006A
:102A50002040413F01007F08142241007F40404058
:102A600040007F021C027F007F0408107F003E416F
:102A700041413E007F09090906003E4151215E00A7
:102A80007F091929460026494949320003017F017F
:102A900003003F4040403F001F2040201F003F40B8
:102AA00038403F00631408146300030478040300F3
:102AB0006159494D43002054547840007F284444D4
:102AC0003800384444442800384444287F003854AF
:102AD0005454180000087E09020018A4A49C780031
:102AE0007F080404780000447D4000002040403D01
:102AF00000007F102844000000417F4000007C045B
:102B0000780478007C080404780038444444380091
:102B1000FC182424180018242418FC007C08040441
:102B2000080048545454240004043F4424003C400A
:102B300040207C001C2040201C003C4030403C00D9
:102B40004428102844004C9090907C004464544CDD
:022B500044003F
:0E2B5200D9CFE6FFDACFE6FFFA0EE3CFD9FFC8
:102B6000FB0EE3CFDAFFFC0EE3CFE9FFFD0EE3CF70
:102B7000EAFFE9CFF3FFEACFF4FFF80EE35003E1F9
:102B8000F90EE35008E0F80EE30602E2F90EE30660
:102B9000DECFEEFFF2D7FF0EE3CFDAFFE552FF0EF6
:102BA000E3CFD9FFE5521200D9CFE6FFDACFE6FF37
:102BB000FA0EE3CFD9FFFB0EE3CFDAFFFC0EE3CF33
:102BC000E9FFFD0EE3CFEAFFE9CFF3FFEACFF4FF21
:102BD000DECFEFFFEE66FCD7FF0EE3CFDAFFE55264
:102BE000FF0EE3CFD9FFE5521200FE0EE3CFE9FF5F
:102BF000FF0EE3CFEAFFF36AF46AEE5203E0F34A12
:102C0000F42AFBD71200FF0EE3CFF8FFE552FF0EC8
:102C1000E3CFF7FFE552FF0EE3CFF6FFE552E66A9A
:102C2000E66AE66A0900F55209E0FD0EE32A05E1CD
:102C3000FE0EE32A02E1FF0EE32AF4D7FD0EE3CFF6
:102C4000F5F0FE0EE3CFF6F0FF0EE3CFF7F0120043
:102C50004572726F723A20426164206C6F77207007
:102C600072696F7269747920726563656976652C23
:102C700020636F6465203D2025780D0A004572723F
:102C80006F723A20556E6578706563746564206D67
:102C9000736720696E2071756575652C2074797075
:102CA00065203D2025780D0A0049324320536C6190
:102CB0007665205265710D0A00202578004932435F
:102CC00020496E74657272757074207265636569EF
:102CD0007665642025783A20004572726F723A203A
:102CE0004261642068696768207072696F726974F4
:102CF0007920726563656976652C20636F64652051
:102D00003D2025780D0A004D53473A2025642025A3
:102D1000642025730D0A0054494D4552313A20254F
:0A2D2000642025642025640D0A00DC
:062D2A00D9CFE6FFE1CF66
:102D3000D9FF81E943E8016A026A036A8A848A96B4
:102D4000D70EE66ED950020FE66EDACFE6FFF4EC4E
:102D500012F043E9FF0EE66EE66A02EBE6FF03EBD4
:102D6000E6FFB5EC11F0E552E5CFEFF0E7CFEEF07E
:102D70000001EE2B000EEF230001EE5100D044E9DC
:102D8000E7CFD9FF1200D9CFE6FFE1CFD9FF81E924
:102D900042E8016A026A8A848A86899AD70EE66EB8
:102DA000D950010FE66EDACFE6FFF4EC12F043E9FA
:102DB000023404E201500008030E025403E2010E43
:102DC00003D002D0000E00D043E9E7CFD9FF1200B4
:102DD0001E0EF66E000EF76E000EF86E0001090072
:102DE000F550E96F0900F550EA6F03E1E96701D09A
:102DF0003DD00900F550E46F0900F550E56F09007A
:102E0000F550E66F09000900F550E96E0900F5502C
:102E1000EA6E090009000900F550E76F0900F55056
:102E2000E86F09000900F6CFEBF0F7CFECF0F8CF30
:102E3000EDF0E4C0F6FFE5C0F7FFE6C0F8FF0001E3
:102E4000E75302E1E85307E00900F550EE6EE707AB
:102E5000F8E2E807F9D7EBC0F6FFECC0F7FFEDC0EA
:0E2E6000F8FF0001E907000EEA5BBFD7120081
:022E6E00D9CFBA
:102E7000E6FFDACFE6FFE1CFD9FFE2CFDAFF87E95D
:102E8000C26AC16A0350400DF350C00B0001EE6FDF
:102E900003407F0B3C0BEE11C26E0450040DF35047
:102EA000380BEF6F04380F0B070BEE6F800E041416
:102EB000EE11EF11C16E01EBEEF0EF6BEEC048FFCB
:102EC00000EB49FF060EEE6FC00E0214EEC0E7FFE6
:102ED000E75204E0E8427F0BE706FCE10E01B86F21
:102EE00003AE03D09E9C9D8CF28CC28041E9E5CF5D
:082EF000DAFFE7CFD9FF120061
:082EF800D9CFE6FFDACFE6FFB7
:102F0000E1CFD9FFE2CFDAFF85E9013415E200EB2A
:102F1000E9FF01EBEAFFEECFF3FFEDCFF4FFEE2A7E
:102F2000000EEF22F3CFE9FFF4CFEAFF02EBEFFF51
:102F3000EF50F36EF46A0DD0FE0E005C05E102EB7B
:102F4000E6FF6AEC19F004D002EBE6FF03EC00F0B8
:0E2F500041E941E9E5CFDAFFE7CFD9FF1200F2
:022F5E00D9CFC9
:102F6000E6FFDACFE6FFE1CFD9FFE2CFDAFF85E96E
:102F700044E8D9CFE6FFDACFE6FFE552E550066E2A
:102F8000E750056E05EBE6FF06EBE6FF00EBE6FF1C
:102F900001EBE6FF02EBE6FF3FC0E6FF40C0E6FFC5
:102FA00041EC00F047E9F350076EF450086E07EB70
:102FB000F3FF08EBF4FF45E9E5CFDAFFE7CFD9FFF0
:022FC0001200FD
:0E2FC200D9CFE6FFE1CFD9FF89E91E0E041832
:102FD00001E1055001E120D01F0E041801E1055068
:102FE0001BE100500224E96E01500320EA6EEF6AF3
:102FF00000EBE6FF01EBE6FF02EBE6FF03EBE6FF8B
:1030000004EBE6FF05EBE6FF070EE66E2D0EE66E1F
:10301000E66AAFEC17F049E941E9E7CFD9FF1200C2
:10302000D9CFE6FFE1CFD9FF89E942E880EB09F08B
:1030300081EB0AF009EBE9FF0AEBEAFFEECFE6FFCE
:10304000EECFE6FF02EBE6FF03EBE6FF04EBE6FF65
:1030500005EBE6FF170EE66E2D0EE66EE66AAFECA8
:0C30600017F049E943E9E7CFD9FF12005F
:04306C00D9CFE6FFD3
:10307000DACFE6FFE1CFD9FFE2CFDAFF85E93F0EF5
:10308000C716C66A0250C6120050C7120150030A82
:1030900009E0010A04E0020A06E1C78C04D0C78CEB
:1030A000C68801D0C688C68A41E9E5CFDAFFE7CFF6
:0430B000D9FF120032
:0C30B400D9CFE6FFDACFE6FFE1CFD9FF6D
:1030C000E2CFDAFF83E941E8C950036E9E96C69EBF
:1030D00000EBC9FFC6AE02D0FF0E03D09EA6FED7FE
:0E30E000000E42E9E5CFDAFFE7CFD9FF12007C
:0230EE00D9CF38
:1030F000E6FFDACFE6FFE1CFD9FFE2CFDAFF83E9DF
:103100007F0E0014D56ED76AD66AF29400AE02D054
:10311000F28A01D0F29AD58E41E9E5CFDAFFE7CF06
:04312000D9FF1200C1
:0C312400D9CFE6FFE1CFD9FF83E900EB33
:10313000E9FF01EBEAFFEE6AED6A41E9E7CFD9FF6B
:103140001200D9CFE6FFE1CFD9FF89E941E9E7CF06
:04315000D9FF120091
:0C315400D9CFE6FFDACFE6FFE1CFD9FFCC
:10316000E2CFDAFF84E942E880EB04F081EB05F07E
:1031700005EBCFFF04EBCEFF43E9E5CFDAFFE7CF66
:04318000D9FF120061
:0C318400D9CFE6FFDACFE6FFE1CFD9FF9C
:10319000E2CFDAFF82E942E8CE50026ECF50036EF2
:1031A00002EBF3FF03EBF4FF43E9E5CFDAFFE7CFF0
:0431B000D9FF120031
:0C31B400D9CFE6FFDACFE6FFE1CFD9FF6C
:1031C000E2CFDAFF84E942E880EB04F081EB05F01E
:1031D00005EBD7FF04EBD6FF43E9E5CFDAFFE7CFF6
:0431E000D9FF120001
:0C31E400D9CFE6FFDACFE6FFE1CFD9FF3C
:1031F000E2CFDAFF83E9C30EC2140001EE6F004094
:103200007F0B3C0BEE11C26E41E9E5CFDAFFE7CF51
:04321000D9FF1200D0
:0C321400D9CFE6FFDACFE6FFE1CFD9FF0B
:10322000E2CFDAFF82E941E8C950026E9E96C96A90
:103230009EA6FED7C95042E9E5CFDAFFE7CFD9FF16
:0232400012007A
:0E3242001200D9CFE6FFE1CFD9FF83E900EB00
:10325000FBF001EBFCF0FBC0E9FFFCC0EAFF040E51
:10326000E926000EEA22EF6A41E9E7CFD9FF120012
:10327000F36AF46AFF0EE124E96EFF0EE220EA6EC3
:10328000ED6607D02F0EEF6404D03A0EEF6001D048
:04329000F32A12000B
:0C329400FF0EE3500001FF6F480E01D058
:1032A0004C0EE76EE72EFED7E76AE72EFED7FF2F1C
:0432B000F7D712003A
:0C32B400B00EF36E00EE00F00E0E01D81C
:1032C0001200EA6002D0EE6AFCD7F350E960120007
:0432D000EE6AFCD7CF
:0C32D400FF0EE350ADBA04D0B06AAC8E1F
:1032E000AD8A949CADA2FED7AE6EF36EF46A120066
:1032F0001DEE00F02DEE00F0F86AE8EC16F0B3ECED
:0A33000019F0E8EC0FF0FBD7120003
:06330A00100E946E8B9E74
:103310008B8EE66AE66A010EE66E36EC18F043E93B
:02332000120099
:0E332200C4CFF0F0F0C0F1F00001F06BC3502A
:0A333000F011F36EF1C0F4FF12007B
:06333A00FF0EE350E84E17
:103340001200000000D000D000D0E82EFAD7120002
:10335000303132333435363738396162636465660B
:01336000006C
:01336100006B
:04336200C282120011
:02336600120053
:02336800FEFF66
:06336A00546F756368203A
:103370004D6520486572650000004F7220486572F7
:1033800065003F3F3F3F3F3F3F3F000303030303D1
:10339000030303030303030303034F7220646F77E4
:1033A0006E20686572650000000052656164696E98
:1033B00067206C69676874000000536C656570690C
:1033C0006E67206C69676874000042697A61727286
:1033D00065206C69676874000000536F6D65206F2D
:0E33E00074686572000000000000000000002C
:0233EE00546F1A
:1033F000756368204D6520486572650000004F7256
:103400002048657265002C2C2C2C2C2C2C2C0004B4
:1034100004040404040404040404040404044F72B3
:1034200020646F776E206865726500000000526549
:103430006164696E67206C69676874000000536C92
:10344000656570696E67206C696768740000426921
:103450007A61727265206C69676874000000536F4E
:0E3460006D65206F746865720000000000004A
:00000001FF
