:020000040000FA
:0600000009EF11F01200EF
:020006001200E6
:060008007AEF0AF012007D
:02000E00C250DE
:08001000020B01E0010E1200D9
:06001800D5EF0AF0120012
:02001E000100DF
:0C002000722200005000000002000000EE
:04002C0090DB86E9F6
:100030000150010600090CE002EBE6FF03EBE6FFCE
:1000400000EBE6FF69DBF4E1421DF2E1010E01D0B5
:10005000000E41E9E5CFDAFFE7CFD9FF120077DBE9
:1000600089E97BE80A6A0B6A02EBF6FF03EBF7FF0C
:1000700004EBF8FF0800F550096E095001E12DD39B
:10008000250E095C01E01BD30C6A0D6A0E6A0F6A2B
:10009000106A2DDB2D0E095C0CE02B0E095C09E0CB
:1000A000200E095C06E0230E095C03E0300E095CBB
:1000B00015E10950300A10E0130A0CE0030A08E0C9
:1000C0000B0A04E0060AE5E10C80E3D70C82E1D7D5
:1000D0000C84DFD70C86DDD70C88DBD72A0E095CB1
:1000E00013E1A5DB0DE30C801CEB41F01DEB42F0AE
:1000F0000001416D421F000E422341510D6E02D09E
:100100009CEB0DF0F4DA07D0126A3FDB02E06BDB08
:10011000FCD792EB0DF00CB00C982E0E095C15E19B
:10012000E6DA2A0E095C08E182DB04E29CEB0EF0C1
:10013000010E0F6EDCDA09D0126A27DB02E053DB16
:10014000FCD792EB0EF0010E0F6E680E095C07E112
:10015000CEDA680E095C1DE1030E106E19D0740E24
:10016000095C16E07A0E095C13E0480E095C06E0B3
:10017000540E095C03E05A0E095C02E1020E07D03E
:100180006C0E095C03E06A0E095C03E1010E106E5F
:10019000AEDA09506E0A01E16ED21E0A01E128D1E1
:1001A000200A01E125D13F0A01E1FDD01A0A01E14F
:1001B000FAD00D0A01E1F7D0200A01E1F4D03A0AA1
:1001C00001E1F1D0200A01E1EED0260A01E1EAD0F6
:1001D0000D0A01E1E7D01A0A01E19ED0200A3BE0B6
:1001E000300A1AE0460A0EE0250A01E072D2D95020
:1001F000020FE96E000EDA20EA6E010EEE5E000ECE
:10020000EE5AEE5A0FDB250EE66E86DA03E1421D4A
:1002100001E159D20A2A5BD2116A0D50010803E2AA
:100220000D04116EF5DA115007E0010E0C1404E113
:100230006DDA01E048D2116AD3DAEF50096ECBDAF9
:1002400003E1421D01E13FD20A2A000E0B225EDAD1
:1002500001E13FD238D2020E105C08E1030E4EDA03
:10026000EE50176EEE50186EEF5007D0E7DA436B82
:100270004151176E4251186E4351196E17EBE6FF4C
:1002800018EBE6FF19EBE6FF6CEC0DF043E948C014
:1002900041F049C042F04AC043F0000141511C6E98
:1002A00042511D6E0F5006E01C500E5C03E20E50D2
:1002B0001C6E1D6A1C500D5C02E29CEB0DF050DAC6
:1002C00005E00D500E5C02E28EEB0DF00CB004D098
:1002D0001DDA01E0F8D1116A126A17EBF6FF18EB8C
:1002E000F7FF19EBF8FF0800F550096E095010E010
:1002F0000D50125C0DE26FDA03E1421D01E1E3D122
:100300000A2A000E0B22122AD950170F55DAEBD702
:10031000FDD901E1DED1D7D163DAEE501A6EED508E
:100320001B6E1AEBE6FF1BEBE6FF5EEC0DF042E9FD
:10033000F3501C6EF4501D6E0F5006E01C500E5C06
:1003400003E20E501C6E1D6A1C500D5C02E29CEB19
:100350000DF006DA05E00D500E5C02E28EEB0DF0BA
:100360000CB004D0D3D901E0AED1116A126A1AEBF5
:10037000E9FF1BEBEAFFEF50096E09500FE00D504B
:10038000125C0CE228DA03E1421D01E19CD10A2A49
:10039000000E0B22122A1A2A1B22E9D7B7D901E133
:1003A00098D191D10C8E10040AE1040EA7D9EE5019
:1003B000136EEE50146EEE50156EEF5032D0030EE9
:1003C000105C16E10CAE0CD00BDAEFCF41F000015F
:1003D000426B436B446B41AF23D0426943691FD0EA
:1003E000FFD9EFCF41F000014151136E146A20D0C4
:1003F000020E105C0CE10CAE06D0030E7FD9B6D90C
:1004000043AF0ED00CD0030E79D9B0D909D00CAEC1
:100410000AD014DA436B446B42AF02D0436944699B
:10042000BCD9166E07D00ADA4151136E4251146ED0
:10043000156A166A0F5002E1010E0E6E1E6A1F6ADF
:10044000D950400FE66E000EDA20E66EE552E55018
:10045000436EE750426E416A116A0A0E106E0950EF
:10046000780A12E0200A10E0280A0CE0200A0AE0CC
:100470003F0A06E00D0A02E0200A08E1020E05D05C
:10048000080E03D0080E0926100E106E0CBE02D006
:100490000C920C94800E0C1417E0163415E3E668E9
:1004A000E668E668E66842D977EC0CF0E552E5CFFD
:1004B00044F0E5CF43F0E5CF42F0E7CF41F0000153
:1004C0006CD9166E2D0E07D00CA202D02B0E03D0C5
:1004D0000CA404D0200E206E1E2A01D0206A0E50DB
:1004E00005E1135014101510161061E000015A0EAA
:1004F000416F220E426F000E436F83D934EC0CF033
:10050000E552E5CF47F0E5CF46F0E5CF45F0E7CF40
:1005100044F0000141514425F36E42514521F46EEF
:1005200043514621F86EF4CFF7FFF3CFF6FF0800F2
:10053000F550126E580E095C05E1610E125C02E383
:10054000200E125E5ED931EC0CF0E552E550166ECD
:10055000E550156EE550146EE750136E42EBE9FF5F
:1005600043EBEAFF4206000E435A12EBEFFF1E2A4E
:100570001350141015101610B9E10CA619D06F0EF7
:10058000095C06E10E501E5C13E31E280E6E10D0AF
:10059000780E095C09E0580E095C06E0620E095C01
:1005A00003E0420E095C04E1020E1F6E01D01E6AD8
:1005B000100E0C1407E00D500E5C04E20F5002E127
:1005C0008DEB0EF00E501E5C03E21E500E5E01D04D
:1005D0000E6A0E501E241F24D8800D5407E20E50C0
:1005E0000D5CD8801E54D8801F54116E010E0C145F
:1005F00006E1115004E08AD866E10AD9116A205058
:1006000007E010D920EBE6FF87D802E1421D5BE04E
:100610001F500BE007D9300EE66E7ED802E1421D76
:1006200052E0D9D802E1421D4EE00E501F5C02E2BA
:100630001F500E5E300EE66E0EEBE6FFDCD843E197
:10064000422A000E432242EBE9FF43EBEAFFEF5060
:10065000126E125008E0E6D812EBE6FF5DD8F0E12A
:10066000421DEEE130D052D82EE10E501E2411244E
:100670001F240A262CD01050030A1CE0010A14E0A3
:10068000030A07E0ADD8C9D80AEBEEFF0BEBEDFF8C
:1006900020D08BD8446B42AF02D043694469A0D8C4
:1006A0004ED844C0EEFF15D080D842BF436998D8D9
:1006B00046D80FD095D8B1D80AEBEFFF0AD08BD827
:1006C00005E1421D03E1F368F4680BD00A2A000E2D
:1006D0000B22D950020F70D8CDD40AEBF3FF0BEBED
:1006E000F4FF7CE9E5CFDAFFE7CFD9FF1200D9505C
:1006F000020F62D80800F550096E1200005E000E6D
:10070000015A00EBE9FF01EBEAFF1200200EE66E52
:1007100011EBE6FFFBEF03F05EEC0FF043E9F3CFE4
:1007200041F0F4CF42F00001F31C120013EBE6FF9E
:1007300014EBE6FF15EBE6FF16EBE6FF12006DD8B3
:1007400041C0EEFF42C0EEFF43C0EEFF1200D9CF22
:10075000E6FFDACFE6FFE1CFD9FFE2CFDAFF120002
:100760001C500D5C116E54D80F501200EECF41F0AA
:10077000EECF42F0EFCF43F00001446B1200EECF1A
:1007800041F0EFCF42F0000112000950E66EE66A38
:10079000C9EC10F042E9F35012004151136E42517E
:1007A000146E4351156E445112000AEB41F00BEBED
:1007B00042F00001436B1200E96E000EDA20EA6E8F
:1007C000EF2AEECFF6FF000EEF22EECFF7FFEF227B
:1007D000EECFF8FF120026D809EBE6FF8CEF03F00E
:1007E000020E7EEF03F00A0E1202F3500924D00F1E
:1007F000126E77EF03F016D816EC00F044E900090A
:10080000120010EBE6FFE66AE66AE66A96EF03F08E
:1008100011500A26000E0B221200EE50EFCFEAFF15
:10082000E96E120005EBE6FF06EBE6FF1200D8DFEB
:10083000EE501C6EED501D6E1D341200D1DFBFEF67
:0208400003F0C3
:0E084200D9CFE6FFE1CFD9FF82E941E9E7CF48
:10085000D9FF1200D9CFE6FFE1CFD9FF84E941E902
:10086000E7CFD9FF1200D9CFE6FFE1CFD9FF82E968
:1008700041E9E7CFD9FF1200D9CFE6FFE1CFD9FF99
:1008800084E94EC0E9FF4FC0EAFF190EE926000EC9
:10089000EA22EF6A4EC0E9FF4FC0EAFF190EEB50A3
:1008A000D880025432E24EC0E9FF4FC0EAFF190E71
:1008B000EB500024E96E000E0120EA6EEF50E66E68
:1008C0004EC0E9FF4FC0EAFF0F0EE926000EEA22F4
:1008D000E9CF41F0EACF42F04EC0E9FF4FC0EAFF56
:1008E000190EEB500001EA6A4125E96E4251EA22F5
:1008F000E552E750EF6E4EC0E9FF4FC0EAFF190E18
:10090000E926000EEA22EF2AC5D74EC0E9FF4FC004
:10091000EAFF190EE926000EEA2202EBEFFF4EC0B5
:10092000E9FF4FC0EAFF1A0EE926000EEA22010E87
:10093000EF6E4EC0E9FF4FC0EAFF0F0EEB50C96EDD
:10094000C68841E9E7CFD9FF1200D9CFE6FFE1CF52
:10095000D9FF82E94EC0E9FF4FC0EAFF0B0EE9263E
:10096000000EEA22010EEF6E4EC0E9FF4FC0EAFF13
:100970000A0EE926000EEA22EF6A005035E0C7AA07
:100980001DD04EC0E9FF4FC0EAFF0C0EE926000E55
:10099000EA22050EEF6E4EC0E9FF4FC0EAFF0E0ED1
:1009A000E926000EEA22EF2A4EC0E9FF4FC0EAFF17
:1009B0000D0EE926000EEA22050E1FD0C7A40AD0AC
:1009C0004EC0E9FF4FC0EAFF0C0EE926000EEA22F6
:1009D000080E13D04EC0E9FF4FC0EAFF0C0EE92607
:1009E000000EEA22070E09D04EC0E9FF4FC0EAFF11
:1009F0000C0EE926000EEA22060EEF6E41E9E7CF63
:100A0000D9FF1200D9CFE6FFE1CFD9FF81E949E84C
:100A1000026A036A046A056A066AC6AC20D0C69CEC
:100A20004EC0E9FF4FC0EAFF0C0EE926000EEA2295
:100A3000050EEF6E010E066E4EC0E9FF4FC0EAFFD5
:100A40000E0EE926000EEA22EF2A4EC0E9FF4FC043
:100A5000EAFF0D0EE926000EEA22040EEF6EC7A093
:100A600004D0C950016E010E026E065001E05FD144
:100A70004EC0E9FF4FC0EAFF0C0EEB50070A01E140
:100A8000B4D00F0A01E17FD00E0A16E0030A01E09C
:100A90004ED1C7A64CD102EBE6FF57DF41E94EC06D
:100AA000E9FF4FC0EAFF0C0EEB50080801E03FD110
:100AB000026A010E056E3BD1C7A822D04EC0E9FFE5
:100AC0004FC0EAFF0B0EE926000EEA22EF2A025081
:100AD00001E123D1C7AAD1D04EC0E9FF4FC0EAFF40
:100AE0000E0EE926000EEA22EF2A4EC0E9FF4FC0A3
:100AF000EAFF0D0EE926000EEA22060EEF6E0DD17A
:100B0000025001E114D14EC0E9FF4FC0EAFF0B0EC5
:100B1000E926000EEA22EF2AC7BA18D0C7B40AD0D5
:100B20004EC0E9FF4FC0EAFF0C0EE926000EEA2294
:100B3000070EFCD04EC0E9FF4FC0EAFF0C0EE926BD
:100B4000000EEA22080EEF6E010ED1D04EC0E9FF72
:100B50004FC0EAFF0E0EE926000EEA22EF2A4EC031
:100B6000E9FF4FC0EAFF0C0EE926000EEA22050E4F
:100B7000EF6E4EC0E9FF4FC0EAFF0D0EE926000EF2
:100B8000EA22060ED3D04EC0E9FF4FC0EAFF1A0E8C
:100B9000EB500001416F190EEB50415D01E3BDD0F8
:100BA0004EC0E9FF4FC0EAFF0F0EE926000EEA2211
:100BB000E9CF41F0EACF42F04EC0E9FF4FC0EAFF73
:100BC0001A0EEB50EA6A4125E96E4251EA22EF50D3
:100BD000C96E4EC0E9FF4FC0EAFF1A0EE926000EAB
:100BE000EA22EF2A010E036EA2D0C7A849D04EC058
:100BF000E9FF4FC0EAFF0B0EE926000EEA22EF2ABA
:100C000002503BE0C7AA1CD04EC0E9FF4FC0EAFF2C
:100C10004EC041F04FC042F00A0EEB500001EA6AAC
:100C20004125E96E4251EA2201EBEFFF4EC0E9FF98
:100C30004FC0EAFF0A0EE926000EEA22EF2A1DD075
:100C40004EC0E9FF4FC0EAFF0E0EE926000EEA2271
:100C5000EF2A4EC0E9FF4FC0EAFF0D0EE926000E55
:100C6000EA22060EEF6E4EC0E9FF4FC0EAFF0C0EFF
:100C7000E926000EEA22050E4FD0010E046E4DD07B
:100C8000025055E04EC0E9FF4FC0EAFF0B0EE926C7
:100C9000000EEA22EF2AC7AA1CD04EC0E9FF4FC0BF
:100CA000EAFF4EC041F04FC042F00A0EEB50000187
:100CB000EA6A4125E96E4251EA2201EBEFFF4EC09C
:100CC000E9FF4FC0EAFF0A0EE926000EEA22EF2AEA
:100CD0002ED0C7A40FD04EC0E9FF4FC0EAFF0C0EC4
:100CE000E926000EEA22080EEF6E010E046E056E74
:100CF000026A1DD04EC0E9FF4FC0EAFF0E0EE92682
:100D0000000EEA22EF2A4EC0E9FF4FC0EAFF0D0EA7
:100D1000E926000EEA22060EEF6E4EC0E9FF4FC034
:100D2000EAFF0C0EE926000EEA22050EEF6E0250D5
:100D300002E1035002E0C6A8C6884EC0E9FF4FC0DA
:100D4000EAFF0A0EEB5008081FE204501DE14EC0F6
:100D5000E9FF4FC0EAFF0C0EE926000EEA22050E5D
:100D6000EF6E4EC0E9FF4FC0EAFF0E0EE926000EFF
:100D7000EA22EF2A4EC0E9FF4FC0EAFF0D0EE92636
:100D8000000EEA22070EEF6E045031E04EC0E9FF7C
:100D90004FC0EAFF0B0EEB50E66E4EC041F04FC065
:100DA00042F00A0EEB500001EA6A4125E96E425119
:100DB000EA22E552E750EF6E4EC0E9FF4FC0EAFF6E
:100DC0004EC041F04FC042F04EC0E6FF4FC0E6FFBC
:100DD000280EE66E0A0EEB50010FE66EDAEC08F014
:100DE00044E94EC0E9FF4FC0EAFF0A0E29D04EC0C9
:100DF000E9FF4FC0EAFF0E0EEB500001416F010EFC
:100E0000415D22E34EC0E9FF4FC0EAFF0E0EEB50FA
:100E1000076E0D0EEB50086E0B0EEB50096ED9509D
:100E2000070FE66EDACFE6FF290EE66E030EE66EDA
:100E3000DAEC08F044E94EC0E9FF4FC0EAFF0E0EBD
:100E4000E926000EEA22EF6A055013E04EC0E9FFE2
:100E50004FC0EAFF4EC041F04FC042F04EC0E6FF27
:100E60004FC0E6FF2A0EE66EE66ADAEC08F044E9C7
:100E7000056A4AE9E7CFD9FF1200D9CFE6FFE1CFF3
:100E8000D9FF83E900EB4EF001EB4FF04EC0E9FFD4
:100E90004FC0EAFF0A0EE926000EEA22EF6A4EC0B2
:100EA000E9FF4FC0EAFF0B0EE926000EEA22EF6AC7
:100EB0004EC0E9FF4FC0EAFF0C0EE926000EEA2201
:100EC000050EEF6E4EC0E9FF4FC0EAFF0E0EE92699
:100ED000000EEA22EF6A41E9E7CFD9FF1200D9CF2D
:100EE000E6FFE1CFD9FF82E99486948800EBC8FF42
:100EF000C76AC66AC56A0E0EC612C78EC580C68A84
:080F000041E9E7CFD9FF12001F
:080F0800D9CFE6FFE1CFD9FFCC
:100F100083E941E800EBE9FF01EBEAFF340EE92643
:100F2000000EEA22EF6A00EBE9FF01EBEAFF350E63
:100F3000E926000EEA22EF6A036A040E035C0FE260
:100F400000EBE9FF01EBEAFF03500D0DE950F3243C
:100F5000E96EEA50F420EA6EEF6A032AEED742E91E
:100F6000E7CFD9FF1200D9CFE6FFE1CFD9FF87E95C
:100F700045E803500A6E0B6A04EBE9FF05EBEAFF54
:100F8000340EE926000EEA22EF50076E04EBE9FF6B
:100F900005EBEAFF07500D0D0001F350E924086E40
:100FA000F450EA20096E08EBE9FF09EBEAFFEF5085
:100FB00002E0FF0E48D008EBE9FF09EBEAFFEE5232
:100FC00003EBEFFF08EBE9FF09EBEAFF020EE9266E
:100FD000000EEA2202EBEFFF0AEBE6FF0BEBE6FF67
:100FE00000EBE6FF01EBE6FF08EBE9FF09EBEAFFA8
:100FF000030EE926000EEA22E9CF41F0EACF42F0E3
:10100000E9CFE6FFEACFE6FF33EC0DF046E904EB6B
:10101000E9FF05EBEAFF340EE926000EEA22EF288D
:10102000030BE66E04EBE9FF05EBEAFF340EE9265D
:10103000000EEA22E552E750EF6E08EBE9FF09EBFC
:10104000EAFF010EEF6E46E9E7CFD9FF1200D9CFD4
:10105000E6FFE1CFD9FF88E945E805EBE9FF06EBBC
:10106000EAFF350EE926000EEA22EF50086E05EB86
:10107000E9FF06EBEAFF08500D0D0001F350E924EB
:10108000096EF450EA200A6E09EBE9FF0AEBEAFF69
:10109000EF045BE109EBE9FF0AEBEAFFEE52EF50E8
:1010A000045C02E2FD0E52D009EBE9FF0AEBEAFF15
:1010B000EE52EF500B6E0C6A0BEBE6FF0CEBE6FF0B
:1010C00009EBE9FF0AEBEAFF030EE926000EEA222C
:1010D000E9CF41F0EACF42F0E9CFE6FFEACFE6FF01
:1010E00000EBE6FF01EBE6FF33EC0DF046E905EB24
:1010F000E9FF06EBEAFF350EE926000EEA22EF28AB
:10110000030BE66E05EBE9FF06EBEAFF350EE92679
:10111000000EEA22E552E750EF6E09EBE9FF0AEB19
:10112000EAFF020EE926000EEA22EF50E66E02EB1D
:10113000E9FF03EBEAFFE552E750EF6E09EBE9FF49
:101140000AEBEAFFEF6A0B5001D0FC0E46E9E7CF4D
:10115000D9FF1200D9CFE6FFE1CFD9FF85E900EB37
:10116000E6FF01EBE6FF02EBE6FF03EBE6FF360EE0
:10117000E66E0E0EE66EF7DE46E941E9E7CFD9FFEF
:101180001200D9CFE6FFE1CFD9FF86E900EBE6FFF9
:1011900001EBE6FF02EBE6FF03EBE6FF04EBE6FF05
:1011A000360EE66E0E0EE66E52DF47E941E9E7CFF6
:1011B000D9FF1200D9CFE6FFE1CFD9FF85E900EBD7
:1011C000E6FF01EBE6FF02EBE6FF03EBE6FF000EB6
:1011D000E66E0E0EE66EC7DE46E941E9E7CFD9FFBF
:1011E0001200D9CFE6FFE1CFD9FF86E900EBE6FF99
:1011F00001EBE6FF02EBE6FF03EBE6FF04EBE6FFA5
:10120000000EE66E0E0EE66E22DF47E941E9E7CFFB
:10121000D9FF1200D9CFE6FFE1CFD9FF85E900EB76
:10122000E6FF01EBE6FF02EBE6FF03EBE6FF960EBF
:10123000E66E000EE66E97DE46E941E9E7CFD9FF9C
:101240001200D9CFE6FFE1CFD9FF86E900EBE6FF38
:1012500001EBE6FF02EBE6FF03EBE6FF04EBE6FF44
:10126000960EE66E000EE66EF2DE47E941E9E7CF44
:10127000D9FF1200D9CFE6FFE1CFD9FF85E900EB16
:10128000E6FF01EBE6FF02EBE6FF03EBE6FF600E95
:10129000E66E000EE66E67DE46E941E9E7CFD9FF6C
:1012A0001200D9CFE6FFE1CFD9FF86E900EBE6FFD8
:1012B00001EBE6FF02EBE6FF03EBE6FF04EBE6FFE4
:1012C000600EE66E000EE66EC2DE47E941E9E7CF4A
:1012D000D9FF1200D9CFE6FFE1CFD9FF85E900EBB6
:1012E000E6FF01EBE6FF02EBE6FF03EBE6FF000E95
:1012F000E66E000EE66E37DE46E941E9E7CFD9FF3C
:101300001200D9CFE6FFE1CFD9FF86E900EBE6FF77
:1013100001EBE6FF02EBE6FF03EBE6FF04EBE6FF83
:10132000000EE66E000EE66E92DE47E941E9E7CF79
:10133000D9FF12000001366B360EE66E0E0EE66E19
:10134000E3DD42E9000EE66E0E0EE66EDDDD42E9FB
:10135000960EE66E000EE66ED7DD42E9600EE66E92
:10136000000EE66ED1DD42E91200D38E03001200BA
:10137000D9CFE6FFE1CFD9FF83E900EBE9FF01EB2D
:10138000EAFFE9CF41F0EACF42F000EBE9FF01EBE1
:10139000EAFF350EE926000EEA22EF500D0D00019E
:1013A0004151F324E96E4251F420EA6EEF5041E9D5
:1013B000E7CFD9FF12000001365101E112005BECCA
:1013C0000AF0F3CF41F0F4CF42F00001F350F410F3
:1013D00001E012003BEC0AF0F3CF41F0F4CF42F011
:1013E0000001F350F41001E11200000EE66E0E0E43
:1013F000E66EBEDF42E9000901E01200360EE66E3D
:101400000E0EE66EB5DF42E9000901E01200B5EF0D
:1014100009F067EC0AF0F3CF41F0F4CF42F0F3505B
:10142000F41001E112000001010E366F000EE66EAD
:101430000E0EE66E9DDF42E9000910E1360EE66E03
:101440000E0EE66E95DF42E9000908E1000EE66E39
:10145000000EE66E8DDF42E9000903E00001366B05
:0E14600012000A0EE66EDBEC10F041E9DFD759
:02146E00D08E1E
:10147000F28EF28C1200F250800B800A01E0010E15
:101480000001416F426B800B01E0426941C0F3FFF4
:1014900042C0F4FF1200F250400B400A01E0010E7E
:1014A0000001416F426B800B01E0426941C0F3FFD4
:1014B00042C0F4FF1200F2BC04D0DDDFF350F410A0
:1014C00002E0000E01D0010EF36EF46A1200F3DFA9
:1014D000F3CF41F0F4CF42F00001F350F41006E1F5
:1014E000CADFF350F41002E1010E01D0000EF36EDA
:1014F000F46A1200DACFE4FFE2CFDAFFE9CFE4FFCB
:10150000EACFE4FFD9CFE4FFDACFE4FF48C0E4FF3D
:1015100049C0E4FF4AC0E4FF4BC0E4FFF6CFE4FF5C
:10152000F7CFE4FFF5CFE4FFF3CFE4FFF4CFE4FF20
:10153000FACFE4FF00EE41F0070EE80403E3EECF3C
:10154000E4FFFBD7E6529EA603D09E9602EC05F080
:10155000F2A403D0F294ECEC0DF0E55200EE47F06B
:10156000070EE80403E3E5CFEDFFFBD7E5CFFAFF75
:10157000E5CFF4FFE5CFF3FFE5CFF5FFE5CFF7FFCC
:10158000E5CFF6FFE5CF4BF0E5CF4AF0E5CF49F0E8
:10159000E5CF48F0E5CFDAFFE5CFD9FFE5CFEAFFA9
:1015A000E5CFE9FFE5CFDAFF1100D8CFE4FFE0CFC8
:1015B000E4FFE46EDACFE4FFE2CFDAFFE9CFE4FF45
:1015C000EACFE4FFD9CFE4FFDACFE4FF48C0E4FF7D
:1015D00049C0E4FF4AC0E4FF4BC0E4FFF6CFE4FF9C
:1015E000F7CFE4FFF5CFE4FFF3CFE4FFF4CFE4FF60
:1015F000FACFE4FF00EE41F0070EE80403E3EECF7C
:10160000E4FFFBD7E6529EA003D09E9027EC0EF09D
:101610009EAA03D09E9AC8EC0CF0E55200EE47F06B
:10162000070EE80403E3E5CFEDFFFBD7E5CFFAFFB4
:10163000E5CFF4FFE5CFF3FFE5CFF5FFE5CFF7FF0B
:10164000E5CFF6FFE5CF4BF0E5CF4AF0E5CF49F027
:10165000E5CF48F0E5CFDAFFE5CFD9FFE5CFEAFFE8
:10166000E5CFE9FFE5CFDAFFE550E5CFE0FFE5CFD5
:04167000D8FF10008F
:0C167400D9CFE6FFE1CFD9FF81E97FE884
:10168000046A056A95EC0EF06C0ED36E9B8CD950F3
:101690000D0FE66EDACFE6FF1DEC0DF042E9D950F2
:1016A000120FE66EDACFE6FF3DEC07F042E9D950C3
:1016B0003C0FE66EDACFE6FF51EC10F042E99AEC0F
:1016C00009F0936A8A6A94909492940EE66E36ECCE
:1016D00010F041E937EC0AF09F9A9F869F868C0EA6
:1016E000E66E6FEC07F041E99D869D86190EE66E69
:1016F000E66A6C0EE66E28EC0FF043E9AC0EE66E7F
:101700001B0EE66EE66A91EC0FF043E909EC0AF075
:10171000D9502E0FE66EDACFE6FFD950080FE66EED
:10172000DACFE6FF0A0EE66EF1EC08F045E9066E48
:10173000063411E3FC0E065CE9E006EB41F0000123
:10174000426B41BF426941C0E6FF42C0E6FF7E0EE8
:10175000E66E1B0E0FD008502A0A57E0020A2BE053
:10176000010A29E0230A0CE00850E66EE66A220E20
:10177000E66E1B0EE66EE66A91EC0FF045E9C6D701
:10178000D9502E0FE66EDACFE6FF06EB41F00001EE
:10179000426B41BF426941C0E6FF42C0E6FF0850CC
:1017A000E66EE66AD9503E0FE66EDACFE6FFF1EC60
:1017B0000FF048E9ABD70850E66EE66A620EE66EB7
:1017C0001B0EE66EE66A91EC0FF045E9396A0650A9
:1017D000395C19E20001D9502E0F416FDACF42F087
:1017E0003950EA6A4125E96EDA50EA22EF50E66E96
:1017F000E66A5E0EE66E1B0EE66EE66A91EC0FF090
:1018000045E9392AE4D78B7081D74E0EE66E1B0E60
:10181000E66EE66A91EC0FF043E98B72050E066EF8
:10182000010E2E6E220E2F6E330E306E440E316E70
:10183000550E326ED9502E0FE66EDACFE6FF06EB6C
:0A184000E6FF3CEC04F043E961D739
:06184A0045E8D9CFE6FFDE
:10185000DACFE6FFE1CFD9FFE2CFDAFF8FE90C6AFA
:101860001200F3DF0C8003D0F0DF01D00C820B6A92
:101870000A6A096A086A200EE76ED89004360536AF
:1018800006360736083609360A360B360050085C2D
:101890000150095802500A5803500B5809E30050F0
:1018A000085E0150095A02500A5A03500B5A042A82
:1018B000E72EE4D70CB212000CB00AD088EB00F08F
:1018C00089EB01F08AEB02F08BEB03F00CA008D05F
:1018D00084EB00F085EB01F086EB02F087EB03F080
:1018E000E552E5CFDAFFE7CFD9FF49E9120044E836
:1018F000D9CFE6FFDACFE6FFE1CFD9FFE2CFDAFFBB
:101900008EE980EB08F081EB09F082EB0AF083EBC3
:101910000BF004500802F350006EF450016E0450B6
:101920000902F3500126000EF420026E04500A0250
:10193000F3500226000EF420036E04500B02F35005
:10194000032605500802F3500126F4500222000E2F
:10195000032205500902F3500226F45003220550D9
:101960000A02F350032606500802F3500226F450F0
:10197000032206500902F350032607500802F350D1
:101980000326E552E5CFDAFFE7CFD9FF48E9000C9F
:101990009EAA44D017EC10F0E66E4CC0E9FF4DC093
:1019A000EAFF4CC041F04DC042F0040EEB50000184
:1019B000EA6A4125E96E4251EA22E552E750EF6EAC
:1019C0004CC0E9FF4DC0EAFF040EE926000EEA22F2
:1019D000EF2A4CC0E9FF4DC0EAFF040EEB500408AB
:1019E0001DE14CC0E9FF4DC0EAFF4CC041F04DC0C5
:1019F00042F04CC0E6FF4DC0E6FF1F0EE66E040E3F
:101A0000EB50E66EAAEC08F044E94CC0E9FF4DC08B
:101A1000EAFF040EE926000EEA22EF6A000153A74E
:101A20000BD0AC98AC88000EE66EE66A1E0EE66E31
:101A3000E66AAAEC08F044E91200D9CFE6FFE1CF4C
:101A4000D9FF83E900EB4CF001EB4DF04CC0E9FF0E
:101A50004DC0EAFF040EE926000EEA22EF6A41E9D2
:061A6000E7CFD9FF1200E0
:0A1A6600D9CFE6FFDACFE6FFFA0E53
:101A7000E3CFD9FFFB0EE3CFDAFFFC0EE3CFE9FFA4
:101A8000FD0EE3CFEAFFE9CFF3FFEACFF4FFF80E54
:101A9000E35003E1F90EE35008E0F80EE30602E23A
:101AA000F90EE306DECFEEFFF2D7FF0EE3CFDAFF4B
:101AB000E552FF0EE3CFD9FFE5521200FE0EE3CF51
:101AC000E9FFFF0EE3CFEAFFF36AF46AEE5203E0A8
:101AD000F34AF42AFBD71200FF0EE3CFF8FFE552DA
:101AE000FF0EE3CFF7FFE552FF0EE3CFF6FFE5521F
:101AF000E66AE66AE66A0900F55209E0FD0EE32AA5
:101B000005E1FE0EE32A02E1FF0EE32AF4D7FD0E03
:101B1000E3CF48F0FE0EE3CF49F0FF0EE3CF4AF0EB
:021B20001200B1
:0E1B22004572726F723A20556E657870656379
:101B3000746564206D736720696E207175657565C5
:101B40002C2074797065203D2025780D0A004932DB
:101B50004320536C617665205265710D0A00202583
:101B6000780049324320496E746572727570742032
:101B700072656365697665642025783A2000457250
:101B8000726F723A204261642068696768207072DF
:101B9000696F7269747920726563656976652C2056
:101BA000636F6465203D2025780D0A0048656C6CE4
:101BB0006F0D0A004D53473A2025642025642025E7
:101BC000730D0A0054494D4552313A2025642025B1
:071BD000642025640D0A00EA
:081BD800D9CFE6FFE1CFD9FFF0
:101BE00081E946E8000EE66EE66A99EC10F042E9FB
:101BF000ACEC0EF08A5002E18A6801D08A6AD950B2
:101C0000010FE66EDACFE6FFD950050FE66EDACFA8
:101C1000E6FF020EE66E51EC09F045E9036E046A38
:101C2000E8BE0468020E03180EE104500CE1D9501E
:101C3000010FE66EDACFE6FF0A0EE66E020EE66EE2
:101C4000DAEC08F044E947E9E7CFD9FF1200D9CF31
:101C5000E6FFE1CFD9FF81E942E881EC10F0F350D3
:101C6000016EF450026E000EE66EE66A0B0EE66E32
:101C7000E66AAAEC08F044E9000EE66EE66A69EC52
:0C1C800010F042E943E9E7CFD9FF120061
:041C8C001E0EF66EC4
:101C9000000EF76E000EF86E00010900F5503C6F63
:101CA0000900F5503D6F03E13C6701D03DD00900CC
:101CB000F550376F0900F550386F0900F550396F4E
:101CC00009000900F550E96E0900F550EA6E0900B7
:101CD00009000900F5503A6F0900F5503B6F090003
:101CE0000900F6CF3EF0F7CF3FF0F8CF40F037C015
:101CF000F6FF38C0F7FF39C0F8FF00013A5302E1A0
:101D00003B5307E00900F550EE6E3A07F8E23B0757
:101D1000F9D73EC0F6FF3FC0F7FF40C0F8FF000113
:0A1D20003C07000E3D5BBFD7120028
:061D2A00F80EE66EE66A09
:101D30003F0EE66E040EE66E910EE66EE3EC0EF0DC
:101D400045E9870EE66EB1EC10F041E9320EE66E21
:101D500022EC11F041E91200D9CFE6FFE1CFD9FF23
:101D600081E945E8550E036E36EC11F007EC00F002
:101D70000009FCE116EC11F0F350046EF450056E0E
:101D8000010EE66EDBEC10F041E9000105EB41F0DD
:101D9000426B4151016EFF0E0414026ED950010FC7
:101DA000E66EDACFE6FFD950030F416FDACF42F08B
:101DB000E66E020EE66E6AEC09F044E98A6E46E9C8
:061DC000E7CFD9FF12007D
:0A1DC600D9CFE6FFDACFE6FFE1CF48
:101DD000D9FFE2CFDAFF87E9C26AC16A0350400D3A
:101DE000F350C00B0001416F03407F0B3C0B4111CE
:101DF000C26E0450040DF350380B426F04380F0BC1
:101E0000070B416F800E041441114211C16E01EBAA
:101E100041F0426B41C048FF00EB49FF060E416FA5
:101E2000C00E021441C0E7FFE75204E0E8427F0B16
:101E3000E706FCE10E01B86F03AE03D09E9C9D8CBB
:101E4000F28CC28041E9E5CFDAFFE7CFD9FF12007B
:101E5000D9CFE6FFDACFE6FFE1CFD9FFE2CFDAFF55
:101E600085E9AD6AAC6A02B0AD8802A202D0AD8C41
:101E7000AC8C02B4AD8E02A602D0AC8801D0AC8A84
:101E800002B8AD8402BAAC8602AC02D09D8A01D001
:101E90009D9A02AE02D09D8801D09D9800EBB0FFC4
:101EA000000101EB41F0426B41C07FFFAD8AAC8E77
:0C1EB00041E9E5CFDAFFE7CFD9FF1200CF
:041EBC00D9CFE6FF95
:101EC000DACFE6FFE1CFD9FFE2CFDAFF85E90134CF
:101ED00015E200EBE9FF01EBEAFFEECFF3FFEDCFF8
:101EE000F4FFEE2A000EEF22F3CFE9FFF4CFEAFF72
:101EF00002EBEFFFEF50F36EF46A0DD0FE0E005CC4
:101F000005E102EBE6FFFBEC10F004D002EBE6FF8C
:101F100003EC00F041E941E9E5CFDAFFE7CFD9FF73
:021F20001200AD
:0E1F2200D9CFE6FFDACFE6FFE1CFD9FFE2CF5D
:101F3000DAFF85E944E8D9CFE6FFDACFE6FFE552DC
:101F4000E550066EE750056E05EBE6FF06EBE6FF93
:101F500000EBE6FF01EBE6FF02EBE6FF50C0E6FF19
:101F600051C0E6FF2FEC00F047E9F350076EF45044
:101F7000086E07EBF3FF08EBF4FF45E9E5CFDAFF66
:061F8000E7CFD9FF1200BB
:0A1F8600D9CFE6FFE1CFD9FF89E9CA
:101F90001E0E041802E1055020E01F0E04181DE17A
:101FA00005501BE100500224E96E01500320EA6E47
:101FB000EF6A00EBE6FF01EBE6FF02EBE6FF03EB67
:101FC000E6FF04EBE6FF05EBE6FFB40EE66E1B0E44
:101FD000E66EE66A91EC0FF049E941E9E7CFD9FFF7
:021FE0001200ED
:0E1FE200D9CFE6FFE1CFD9FF89E942E880EBD5
:101FF00009F081EB0AF009EBE9FF0AEBEAFFEECF0B
:10200000E6FFEECFE6FF02EBE6FF03EBE6FF04EBB5
:10201000E6FF05EBE6FFC40EE66E1B0EE66EE66A13
:0E20200091EC0FF049E943E9E7CFD9FF120038
:02202E00D9CF08
:10203000E6FFDACFE6FFE1CFD9FFE2CFDAFF82E9B0
:1020400041E8F20E00015317ACAC03D05391ACB091
:102050005381ACB45385ACB25387AF50026E02507B
:0C20600042E9E5CFDAFFE7CFD9FF12001C
:04206C00D9CFE6FFE3
:10207000DACFE6FFE1CFD9FFE2CFDAFF83E97F0EC7
:102080000014D56ED76AD66AF29400AE02D0F28AF6
:1020900001D0F29AD58E41E9E5CFDAFFE7CFD9FF3B
:0220A00012002C
:0E20A200D9CFE6FFE1CFD9FF83E900EBE9FFDC
:1020B00001EBEAFFEE6AED6A41E9E7CFD9FF1200D2
:1020C000D9CFE6FFE1CFD9FF89E941E9E7CFD9FFD1
:0220D0001200FC
:0E20D200D9CFE6FFDACFE6FFE1CFD9FFE2CFAC
:1020E000DAFF84E942E880EB04F081EB05F005EBD0
:1020F000CFFF04EBCEFF43E9E5CFDAFFE7CFD9FF0F
:022100001200CB
:0E210200D9CFE6FFDACFE6FFE1CFD9FFE2CF7B
:10211000DAFF82E942E8CE50026ECF50036E02EB46
:10212000F3FF03EBF4FF43E9E5CFDAFFE7CFD9FF95
:0221300012009B
:0E213200D9CFE6FFDACFE6FFE1CFD9FFE2CF4B
:10214000DAFF84E942E880EB04F081EB05F005EB6F
:10215000D7FF04EBD6FF43E9E5CFDAFFE7CFD9FF9E
:0221600012006B
:0E216200D9CFE6FFDACFE6FFE1CFD9FFE2CF1B
:10217000DAFF83E9C30EC2140001416F00407F0BF8
:102180003C0B4111C26E41E9E5CFDAFFE7CFD9FF41
:0221900012003B
:0E219200F36AF46AFF0EE124E96EFF0EE2200C
:1021A000EA6EED6607D02F0EEF6404D03A0EEF60B2
:0621B00001D0F32A120029
:0A21B600FF0EE3500001526F480EC7
:1021C00001D04C0EE76EE72EFED7E76AE72EFED76A
:0621D000522FF7D71200A8
:0A21D600B00EF36E00EE00F00E0EE6
:1021E00001D81200EA6002D0EE6AFCD7F350E96031
:0621F0001200EE6AFCD7AC
:0A21F600FF0EE350ADBA04D0B06A4A
:10220000AC8EAD8A949CADA2FED7AE6EF36EF46A2E
:022210001200BA
:0E2212001DEE00F02DEE00F0F86A46EC0EF026
:0C22200038EC11F03AEC0BF0FBD7120088
:04222C00C4CF43F0E8
:1022300043C044F00001436BC3504311F36E44C0EC
:04224000F4FF120095
:0C224400FF0EE350E84E1200000000D036
:0A22500000D000D0E82EFAD71200EB
:06225A003031323334354F
:0B226000363738396162636465660040
:04226C00C282120018
:0222700012005A
:02227200FEFF6D
:00000001FF
