:020000040000FA
:0600000052EF2EF0120089
:020006000400F4
:060008002CEF07F01200CE
:02000E00C250DE
:08001000020B01E0010E1200D9
:060018002CEF07F01200BE
:02001E00C2829C
:020020001200CC
:020022001200CA
:020024001200C8
:020026000000D8
:02002800FEFFD9
:02002A000000D4
:02002C000114BD
:02002E000001CF
:0E00300002030405060708090A0B0C0D0E0F4B
:02003E000700B9
:10004000A55D000052000000020000009A5D000063
:10005000A20E00000B0000002C0000005000000069
:1000600002000000155D0000640300008500000030
:100070002A0000004E0000000200000028000000DE
:100080004C00000002000000260000004A000000B2
:04009000020000006A
:0C009400D9CFE6FFE1CFD9FF84E941E8B5
:1000A000F250100B01E0010E046EF2988A9A0301DF
:1000B00001EBE9F302EBEAF3030ED890EA33E933FC
:1000C000E804FBE17F0E0301E9158009E66E44ECCC
:1000D0002DF041E9030101EBE9F302EBEAF3050E30
:1000E000D890E937EA37E804FBE1E00E0301E915AF
:1000F0001009E66E44EC2DF041E900EBE6FF44EC1C
:100100002DF041E98A8A0450E8B0F288E8A0F2981C
:1001100042E9E7CFD9FF1200D9CFE6FFE1CFD9FFFF
:1001200083E941E8F250100B01E0010E036EF298F2
:100130008A9A01EBE6FF44EC2DF041E900EBE6FF83
:1001400044EC2DF041E98A8A0350E8B0F288E8A037
:10015000F29842E9E7CFD9FF1200D9CFE6FFE1CF0D
:10016000D9FF82E942E8F250100B01E0010E036E64
:10017000F2988A9A00EBE6FF44EC2DF041E958EC46
:100180002DF0026E8A8A0350E8B0F288E8A0F29857
:10019000025000D043E9E7CFD9FF1200D9CFE6FFE4
:1001A000E1CFD9FF83E942E8F250100B01E0010EE4
:1001B000046EF2988A9A030100EBE9F301EBEAF38B
:1001C000030ED890EA33E933E804FBE17F0E030124
:1001D000E917000E0301EA17800E0301E911E66E2C
:1001E00044EC2DF041E9030100EBE9F301EBEAF304
:1001F000050ED890E937EA37E804FBE1E00E030189
:10020000E915E66E44EC2DF041E958EC2DF0036E53
:100210008A8A0450E8B0F288E8A0F298035000D02F
:1002200043E9E7CFD9FF1200D9CFE6FFE1CFD9FFED
:1002300081E943E88B9E026A036A2C0E025C010E80
:10024000035804E2022A000E0322F7D78B8E026ABB
:10025000036A2C0E025C010E035804E2022A000E0F
:100260000322F7D7070EE66E550EE66E55DF42E91C
:10027000540EE66E72DF41E9016E070E0114F8E1DB
:10028000026A036AE80E025C030E035804E2022AC3
:10029000000E0322F7D7010EE66E1B0EE66E3CDF62
:1002A00042E9E668070EE66E37DF42E9E668090EC6
:1002B000E66E32DF42E9E668030EE66E2DDF42E9C4
:1002C000E668050EE66E28DF42E9016A080E015C69
:1002D00011E201500001EA6ACE25E96ECF51EA220F
:1002E000EFCFE6FF0150E8240B0FE66E15DF42E981
:1002F000012AECD7030EE66EE66A020EE66ECADE4F
:1003000043E9020EE66E010EE66E020EE66EC2DEF6
:1003100043E9800EE66E020EE66E020EE66EBADE6F
:1003200043E9E66A030EE66E020EE66EB3DE43E9CB
:10033000900EE66E060EE66E020EE66EABDE43E94A
:10034000800EE66E070EE66E020EE66EA3DE43E951
:10035000100EE66E080EE66E020EE66E9BDE43E9B8
:10036000010EE66E200EE66E020EE66E93DE43E9A7
:10037000800EE66E750EE66ECFDE42E9400EE66E4A
:100380007D0EE66EC9DE42E9600EE66E7F0EE66E19
:10039000C3DE42E9980EE66E310EE66EBDDE42E93E
:1003A000950EE66E5D0EE66EB7DE42E90F0EE66E66
:1003B000020EE66EF3DE42E9016EA00E0114A00803
:1003C000F5E1E60EE66E650EE66EA6DE42E9030E88
:1003D000E66EE66A020EE66E5DDE43E9020EE66E4A
:1003E000010EE66E020EE66E55DE43E9E66AE1C0F6
:1003F000E6FF52EC06F042E944E9E7CFD9FF1200EC
:10040000D9CFE6FFE1CFD9FF81E942E881A0F282AE
:100410000001EEA11FD052C0E9F353C0EAF303017B
:10042000EB6BEC6BD8900301EC51000A08E6800EF0
:10043000E95D000EEA59000EEB59000EEC5906E397
:100440000001526B536B0001EE9104D00001522B5E
:10045000000E53230001EEAB67D1010E026E0401C2
:1004600001AD026A0001136B00011B6BCC0E04018D
:100470000215016E0150080A01E1F2D0840A01E17F
:10048000C0D0040A01E184D0080A67E04C0A39E0D0
:10049000040A01E0E5D0FF0E0401065D06E1FF0E4F
:1004A0000401075D02E1000113850001138F025072
:1004B00014E004C41CF005C41DF00001080E146F04
:1004C000040E156F130E0401005D0001186F00018A
:1004D000100E166F040E176F13D008C41CF009C459
:1004E0001DF000010A0E146F040E156F150E0401A5
:1004F000005D0001186F0001120E166F040E176FD9
:10050000B2D00001138F025014E004C41CF005C4E3
:100510001DF000010E0E146F040E156F190E04016C
:10052000005D0001186F0001160E166F040E176FA4
:1005300013D00EC41CF00FC41DF00001100E146F78
:10054000040E156F1B0E0401005D0001186F000101
:10055000180E166F040E176F86D000011385000168
:10056000138F0001010E1B6F04C41CF005C41DF0A5
:100570000001060E146F040E156F0B0E0401005DD2
:100580000001186F0001080E166F040E176F6BD074
:10059000FF0E0401065D06E1FF0E0401075D02E1A6
:1005A000000113850001138F0001010E1B6F025023
:1005B00014E108C41CF009C41DF000010A0E146FF8
:1005C000040E156F0F0E0401005D0001186F00018D
:1005D0000C0E166F040E176F13D004C41CF005C464
:1005E0001DF00001080E146F040E156F0D0E0401AE
:1005F000005D0001186F00010A0E166F040E176FE0
:1006000032D00001138F0001010E1B6F025014E065
:1006100004C41CF005C41DF000010D0E146F040E7F
:10062000156F130E0401005D0001186F0001100E1C
:10063000166F040E176F13D00DC41CF00EC41DF0FE
:1006400000010F0E146F040E156F150E0401005DEE
:100650000001186F0001120E166F040E176F03D001
:1006600069D8000E63D0040101A732D0060EF66EE1
:10067000000EF76E0800F550010A19E0050A13E0B4
:10068000030A11E0040A0BE0050A09E0040A03E08A
:10069000070A01E010D0150E0001185F0DD00D0EF5
:1006A0000001185F09D0090E0001185F05D0050E82
:1006B0000001185F01D000D0050E000116250001D1
:1006C000166F000E000117210001176F000113873C
:1006D000070E040101150DE0030A07E0020A01E01C
:1006E0000CD00001139113930BD0000113811393CD
:1006F00007D000011381138303D01CD8000E16D03D
:1007000004010005EA6A000FE96E040EEA22EFCF49
:100710001AF004010051EA6A000FE96E040EEA22A1
:10072000EFCF19F0010E02D0000E00D043E9E7CF61
:10073000D9FF12000001EE9B1200D9CFE6FFE1CFF6
:10074000D9FF8BE94CE80C6A0D6AD950030FE96EAA
:10075000DACFEAFFEF50040B02E0010E066ED9502B
:10076000030FE96EDACFEAFFEF50080B01E0076AEA
:10077000D950030FE96EDACFEAFFEF50030B0108FF
:1007800003E1030E0D6E0BD0D950030FE96EDACFE3
:10079000EAFFEF50030B000902E1010E0D6E0001AC
:1007A000E251081802E1E35109180BE10001E21DD2
:1007B00001E1E31D06E0050E0B6E0D8C010E0E6EC1
:1007C00003D0070E0B6E0E6A065003E0020E0B26D6
:1007D00002D0080E0B26075003E0020E0B2602D0B3
:1007E000080E0B26D950030FE96EDACFEAFFEF505F
:1007F000080B01E00D86D950030FE96EDACFEAFF4E
:10080000EF50200B09E0D950030FE96EDACFEAFF71
:10081000EF50040B01E10D8AD950030FE96EDACFD6
:10082000EAFFEF50030B030807E10D6A070E0B6E9A
:100830000E6A010E076E039A0BEBE6FF0C500C2AB2
:10084000E66EE66A27DC43E9D950030FE96EDACF9A
:10085000EAFFEF50080B0BE00B500024050FE66E8B
:100860000C500C2AE66EE66A15DC43E909D00B5001
:100870000024E66E0C500C2AE66EE66A0BDC43E9B7
:100880000DEBE6FF0C500C2AE66EE66A4AEC00F02F
:1008900043E9D950030FE96EDACFEAFFEF50030BBB
:1008A000030815E1800EE66E0C500C2AE66EE66A2F
:1008B0004AEC00F043E90001E051E02BE66E0C50F9
:1008C0000C2AE66EE66A4AEC00F043E99CD006503A
:1008D0000CE007500AE0880EE66E0C500C2AE66E1B
:1008E000E66A4AEC00F043E925D006500CE00750D8
:1008F0000AE1C80EE66E0C500C2AE66EE66A4AEC77
:1009000000F043E917D006500CE107040AE18C0E11
:10091000E66E0C500C2AE66EE66A4AEC00F043E9FB
:1009200009D0CC0EE66E0C500C2AE66EE66A4AEC54
:1009300000F043E90001E051E02BE66E0C500C2A78
:10094000E66EE66A4AEC00F043E908EBE6FF0C507D
:100950000C2AE66EE66A4AEC00F043E909EBE6FF92
:100960000C500C2AE66EE66A4AEC00F043E9D950D6
:10097000030FE96EDACFEAFFEF50040B11E0E668EF
:100980000C500C2AE66EE66A4AEC00F043E9E66891
:100990000C500C2AE66EE66A4AEC00F043E933D0CC
:1009A00006501CE004EBE9FF05EBEAFFEFCFE6FFA2
:1009B0000C500C2AE66EE66A4AEC00F043E9042883
:1009C000E96E000E0520EA6EEFCFE6FF0C500C2A10
:1009D000E66EE66A4AEC00F043E915D00D6A080EAF
:1009E0000D5C11E20D500424E96E000E0520EA6E44
:1009F000EFCFE6FF0C500C2AE66EE66A4AEC00F0F8
:100A000043E90D2AECD70E5012E1E2C0E6FF0C508C
:100A10000C2AE66EE66A4AEC00F043E9E3C0E6FF22
:100A20000C500C2AE66EE66A4AEC00F043E90750E7
:100A300013E0E4C0E6FF0C500C2AE66EE66A4AECCE
:100A400000F043E9E5C0E6FF0C500C2AE66EE66ACA
:100A50004AEC00F043E916D00D6A080E0D5C12E274
:100A60000D500001EA6ACE25E96ECF51EA22EFCFA0
:100A7000E6FF0C500C2AE66EE66A4AEC00F043E909
:100A80000D2AEBD7D950030FE96EDACFEAFFEF500A
:100A9000080B52E00D6A040E0D5C11E20D50EA6A7B
:100AA000D00FE96E000EEA22EFCFE6FF0C500C2AC1
:100AB000E66EE66A4AEC00F043E90D2AECD7000145
:100AC000D02B000ED123D223D323070EF66E000EB7
:100AD000F76E0800F5CFE6FF0C500C2AE66EE66ACA
:100AE0004AEC00F043E90D6A100E0D5C19E20D505E
:100AF000F76A2E0FF66E000EF7220800F5CFE6FF1C
:100B00000D500301EA6B800FE96F020EEA23E9C37F
:100B1000E6FFEAC3E6FF4AEC00F043E90D2AE4D71A
:100B2000060EF66E000EF76E0800F5CFE6FF590EC2
:100B3000E66E8CEC00F042E90D6A00500D5C11E2AB
:100B40000D500124E96E000E0220EA6EEFCFE6FFA1
:100B50000C500C2AE66EE66A4AEC00F043E90D2AD6
:100B6000ECD70001EE81D950030FE96EDACFEAFF2E
:100B7000EF50200B0DE0D950030FE96EDACFEAFFFA
:100B8000EF50040B05E1050E0D6E0001EE8304D05D
:100B9000010E0D6E0001EE93D950030FE96EDACF0E
:100BA000EAFFEF50080B01E00D820DEBE6FF370E78
:100BB000E66E8CEC00F042E906EC2CF0F6C3E9F3AB
:100BC000F7C3EAF3F8C3EBF3F9C3ECF30301E9511C
:100BD0000F6EEA51106EEB51116EEC51126E81A046
:100BE000F2820001EEB108D00001EEA504D00001B0
:100BF000EE95000E53D050D006EC2CF0F6C3E9F37E
:100C0000F7C3EAF3F8C3EBF3F9C3ECF30301E951DB
:100C1000136EEA51146EEB51156EEC51166E13EB18
:100C2000EDF314EBEEF315EBEFF316EBF0F3D95015
:100C30000F0FE96EDACFEAFFEE500301ED5D03011D
:100C4000E96FEE500301EE590301EA6FEE50030124
:100C5000EF590301EB6FEE500301F0590301EC6F04
:100C6000D880C40E0301E955090EEA55000EEB5574
:100C7000000EEC5510E214EC01F0E20EE66E000EF0
:100C8000E66EE40EE66E000EE66E85D844E90001DD
:100C9000EE91000E03D0A3D7010E00D04DE9E7CFAF
:100CA000D9FF1200D9CFE6FFE1CFD9FF83E90B0EC0
:100CB000015C03E301501A0802E2000E1DD001EBB3
:100CC000E1F00B0E015C100DF3500309E66EE66ACD
:100CD000020EE66E4AEC00F043E9040EE66E6D0E7D
:100CE000E66E8CEC00F042E9E66A6D0EE66E8CEC86
:100CF00000F042E9010E00D041E9E7CFD9FF120030
:100D0000D9CFE6FFE1CFD9FF82E942E80A0EE66ECD
:100D100000EBE6FF4DEC27F041E9E750036E0A0EC9
:100D2000E66E00EBE6FF4AEC27F041E9E750400DA4
:100D3000F350026E0350050803E2380E02261CD061
:100D40000350040803E2300E022616D003500308B5
:100D500003E2280E022610D00350020803E2200E00
:100D600002260AD00350010803E2180E022604D01E
:100D7000035002E0100E022602EBE6FF030EE66EC1
:100D8000020EE66E4AEC00F043E9010E00D043E9A2
:100D9000E7CFD9FF1200D9CFE6FFE1CFD9FF85E930
:100DA00002EBE9FF03EBEAFFEFCFE4F00228E96E84
:100DB000000E0320EA6EEFCFE5F000EBE9FF01EB58
:100DC000EAFFEFCFE2F00028E96E000E0120EA6EA4
:100DD000EFCFE3F0E4C0E6FF070EE66E8CEC00F028
:100DE00042E9E5C0E6FF090EE66E8CEC00F042E950
:100DF000E2C0E6FF030EE66E8CEC00F042E9E3C0D1
:100E0000E6FF050EE66E8CEC00F042E9010E00D024
:100E100041E9E7CFD9FF1200D9CFE6FFE1CFD9FFF3
:100E200084E900EBCDF001EBCEF002EBCFF0D6CFB2
:100E3000E0F000010B0EE16F14EC01F00001EE6B2D
:100E40000001010ED06FD16BD26BD36B010E00D0BD
:100E500041E9E7CFD9FF1200D8CFE4FFE0CFE4FFAC
:100E6000E46EDACFE4FFE2CFDAFFE9CFE4FFEACFC6
:100E7000E4FFF6C3E4FFF7C3E4FFF8C3E4FFF9C3FC
:100E8000E4FFF6CFE4FFF7CFE4FFF5CFE4FFF3CFC5
:100E9000E4FFF4CFE4FFFACFE4FF03EEE9F0080E3D
:100EA000E80403E3EECFE4FFFBD7E652D9CFE6FF39
:100EB000E1CFD9FF81E948E8F250100B01E147D2B8
:100EC000F250020B01E143D2F292620EE66EADECFB
:100ED00000F041E9036ED950030FE96EDACFEAFF63
:100EE000EF50010B1AE00001EE910001526B536BC1
:100EF0000001EEA312D0480EE66EADEC00F041E921
:100F0000056ED950050FE96EDACFEAFFEF50010BFD
:100F100002E00001EE850001EE93D950030FE96E67
:100F2000DACFEAFFEF50080B01E16FD10001EEBB11
:100F300061D10001EEA703D15E0EE66EADEC00F0CC
:100F400041E9066E0001EE9706A208D0010EE66E9A
:100F50001B0EE66E8CEC00F042E957D1060E016ED6
:100F6000010EE66E030EE66ECEEC00F042E9076E6F
:100F700007BC02D0020E0126020EE66E030EE66EDC
:100F8000CEEC00F042E9076E0C0E07140C0803E1EA
:100F9000080E012602D0020E0126026A080E025C2B
:100FA00024E201500301FD6B000FFC6F030EFD23D3
:100FB00002500301FC250301FA6F000E0301FD211D
:100FC0000301FB6FFAC3E6FFFBC3E6FFCEEC00F0C4
:100FD00042E9E66E0250EA6AD40FE96E000EEA2298
:100FE000E552E750EF6E022AD9D7026A040E025C7E
:100FF00024E201500301FD6B080FFC6F030EFD237B
:1010000002500301FC250301FA6F000E0301FD21CC
:101010000301FB6FFAC3E6FFFBC3E6FFCEEC00F073
:1010200042E9E66E0250EA6ADC0FE96E000EEA223F
:10103000E552E750EF6E022AD9D7016A0A0E015C29
:101040002FE201500A0DF3CFE9FFF4CFEAFF000EC3
:10105000E926030EEA22080EE926000EEA22EF50E6
:10106000800B1CE0D40EE66E000EE66E01500A0DF9
:10107000F3CFE9FFF4CFEAFF000EE926030EEA22E0
:10108000E9CFFAF3EACFFBF3FAC3E6FFFBC3E6FFCF
:101090005CEC0DF044E9000901E002D0012ACED752
:1010A0000A0E015C4BE20150040DF3CFE9FFF4CFCF
:1010B000EAFF1E0EE926000EEA22EE500001DC5D7A
:1010C000EE50DD59EE50DE59EE50DF5909E2010EC7
:1010D000E66E1B0EE66E8CEC00F042E996D02ED048
:1010E000E8680001DC1908E1E868DD1905E1E86855
:1010F000DE1902E1E868DF190FE10150040DF3CFBA
:10110000E9FFF4CFEAFF1E0EE926000EEA22EE6A9E
:10111000EE6AEE6AEE6A12D00150040DF3CFE9FFD9
:10112000F4CFEAFF1E0EE926000EEA22DCC0EEFF35
:10113000DDC0EEFFDEC0EEFFDFC0EEFF0DD0000130
:10114000EEA90AD00001EE99010EE66E1B0EE66EC6
:101150008CEC00F042E959D0040EE66E730EE66E98
:101160008CEC00F042E9E66A030EE66ECEEC00F08D
:1011700042E9020F0401006F4A0E0401005D2CE2F7
:101180000001EE8B010E016E020E04010025D880D5
:1011900001541AE301500301FB6B000FFA6F030EB9
:1011A000FB23FAC3E6FFFBC3E6FFCEEC00F042E907
:1011B000E66E0150EA6A000FE96E040EEA22E5527B
:1011C000E750EF6E012AE0D7010EE66E1B0EE66EC9
:1011D0008CEC00F042E907D0010EE66E1B0EE66EC5
:1011E0008CEC00F042E9E66A730EE66E8CEC00F0DF
:1011F00042E90BD0010EE66E1B0EE66E8CEC00F0A1
:1012000042E90001EE970001EE99D950030FE96E13
:10121000DACFEAFFEF50100B01E199D00001EEA107
:1012200011D00001EE89800EE66E590EE66E8CEC50
:1012300000F042E9010EE66E1B0EE66E8CEC00F04B
:1012400042E985D0060E016E010EE66E030EE66ED3
:10125000CEEC00F042E9086E08BC02D0020E012676
:10126000020EE66E030EE66ECEEC00F042E9086E6A
:101270000C0E08140C0803E1080E012602D0020E21
:101280000126026A0A0E0124025C10E202500301E8
:10129000FB6B010FFA6F030EFB23FAC3E6FFFBC3E0
:1012A000E6FFCEEC00F042E9022AECD70150030140
:1012B000FB6B0C0FFA6F030EFB23FAC3E6FFFBC3B5
:1012C000E6FFCEEC00F042E9026E070EF66E000E6D
:1012D000F76E0800F550025C09E0800EE66E590ECC
:1012E000E66E8CEC00F042E90001EE890001EEB9F7
:1012F0002ED0016A100E015C19E20150F76A2E0F20
:10130000F66E000EF7220800F5CFE6FF015003014C
:10131000FB6BB00FFA6F020EFB23FAC3E6FFFBC3B1
:10132000E6FF4AEC00F043E9012AE4D70001EE872A
:10133000060EF66E000EF76E0800F550080DF3501D
:101340004009E66E590EE66E8CEC00F042E9F2A41C
:101350000CD0F2AA0AD0F2940001482B00014851A7
:1013600002E10001492B30EC26F09DAC05D09EAC8B
:1013700003D09E9C16EC27F0CCEC2CF000D049E971
:10138000E7CFD9FFE55203EEF0F0080EE80403E3DF
:10139000E5CFEDFFFBD7E5CFFAFFE5CFF4FFE5CFD3
:1013A000F3FFE5CFF5FFE5CFF7FFE5CFF6FFE5CF9C
:1013B000F9F3E5CFF8F3E5CFF7F3E5CFF6F3E5CFB3
:1013C000EAFFE5CFE9FFE5CFDAFFE550E5CFE0FF43
:0613D000E5CFD8FF10007C
:0A13D60000001200D9CFE6FFE1CFBE
:1013E000D9FF81E946E800EC02F0000901E11ED2D4
:1013F0000001076B00010001135100010791040B6C
:1014000001E0078100010001135100010795080B5D
:1014100001E0078500011351030B010802E1010EF1
:1014200001D0000E00010799E8B007890001000112
:1014300013510001079B800B01E0078B000113AFE4
:1014400004D014C00AF015C00BF01CC008F01DC079
:1014500009F018C00EF016C00CF017C00DF0020E07
:101460000001006F016B1AC010F019C00FF00001ED
:1014700007A9A4D10CC0E9FF0DC0EAFFEF50920A02
:1014800001E14BD1030A01E12DD1130A01E1B1D0F1
:10149000030A01E08FD1066A010E0001EA6A0C25F9
:1014A000E96E0D51EA22EF500E01AB5D03E09AECBC
:1014B00003F083D10001081D01E1091D11E00001C5
:1014C00003510001081904E1000104510001091948
:1014D00007E000010E51020803E2F20E066E03D08F
:1014E000F5EC0EF0066E030E0E01AC5D0FE0020E81
:1014F0000E01AC5D03E1020E065C08E10E01AC05D5
:1015000008E1060406E0020E065C03E09AEC03F034
:1015100054D1065004E0060402E0000E01D0010E92
:10152000000E000913E0000111510A0DF3CFE9FF8D
:10153000F4CFEAFF000EE926030EEA22080EE926A0
:10154000000EEA22EF6AF30E066E37D10001056B3A
:1015500000010551052BEA6A000FE96E010EEA222F
:10156000910EEF6E00010551052BEA6A000FE96E3E
:10157000010EEA2206EBEFFF065002E0060423E12B
:1015800000010551052BEA6A000FE96E010EEA22FF
:1015900006C0EFFF016A010E015C15E20150EA6A24
:1015A000500FE96E000EEA22EF50E66E0001055181
:1015B000052BEA6A000FE96E010EEA22E552E750B8
:1015C000EF6E012AE8D79AEC03F000010751040BF3
:1015D00001E0010EE66E010EE66E0AC0E6FF0BC0EA
:1015E000E6FF08C0E6FF09C0E6FFE66A98D947E9CA
:1015F000E4D00001056B00010551052BEA6A000FDC
:10160000E96E010EEA22920EEF6E016A0A0E015C8B
:1016100046E201500A0DF3CFE9FFF4CFEAFF000ED6
:10162000E926030EEA22080EE926000EEA22EF5010
:10163000800B33E001500A0DF3CFE9FFF4CFEAFF4E
:10164000000EE926030EEA22E9CFE9F3EACFEAF336
:10165000E9C3E6FFEAC3E6FF0AC0E6FF0BC0E6FF08
:101660002BDA44E9000919E001500A0DF3CFE9FF34
:10167000F4CFEAFF000EE926030EEA22080EE9265F
:10168000000EEA22EF6A00010551052BEA6A000FFD
:10169000E96E010EEA22EF6A02D0012AB7D79AEC6E
:1016A00003F00A0E015C0AE100010551052BEA6A0C
:1016B000000FE96E010EEA22F00EEF6E00010751F5
:1016C000040B01E0010EE66E010EE66E0AC0E6FFB5
:1016D0000BC0E6FF08C0E6FF09C0E6FFE66A1FD9B7
:1016E00047E96BD0010E0001EA6A0C25E96E0D5145
:1016F000EA22EF50020A07E0020A03E0010A01E0D1
:1017000008D073DB07D0000112AB02D00001129B9E
:1017100001D000D09AEC03F050D0010E0001EA6A2B
:101720000C25E96E0D51EA22EF5041E1016A0A0EE3
:10173000015C3DE201500A0DF3CFE9FFF4CFEAFF6F
:10174000000EE926030EEA22080EE926000EEA2220
:10175000EF50800B2AE001500A0DF3CFE9FFF4CFE0
:10176000EAFF000EE926030EEA22E9CFE9F3EACF09
:10177000EAF3E9C3E6FFEAC3E6FF0AC0E6FF0BC0EF
:10178000E6FF9AD944E9000910E001500A0DF3CFB1
:10179000E9FFF4CFEAFF000EE926030EEA22080E65
:1017A000E926000EEA22EF6A02D0012AC0D79AEC9D
:1017B00003F003D00001128700D027D00001128768
:1017C00016C0E9FF17C0EAFFEFCF02F0020EE66E87
:1017D000000EE66EA2CEE6FF010EE66E35EC23F0BB
:1017E00044E90001006F016B800B01E00169020E0A
:1017F000E66E000EE66E500EE66E010EE66E9FEC93
:1018000022F044E90001006B016B00010E510AE077
:10181000000100011251100B05E1000100011251FD
:10182000200B04E0000112979AEC03F047E9E7CFA0
:10183000D9FF1200D9CFE6FFE1CFD9FF82E946E810
:101840000001126B026A0A0E025C11E202500A0DDC
:10185000F3CFE9FFF4CFEAFF000EE926030EEA22F8
:10186000080EE926000EEA22EF6A022AECD7FBEC0A
:101870002BF00001056B026A0A0E025C10E20250B6
:10188000040DF3CFE9FFF4CFEAFF1E0EE926000EA8
:10189000EA22EE6AEE6AEE6AEE6A022AEDD70001EB
:1018A000340E036F120E046FA30E046E0E0E056E3F
:1018B000038203960398039A038C00500394E8B0C4
:1018C0000384039003EBE6FF04EBE6FF05EBE6FF82
:1018D0000CEC07F043E906680768030EE66E000E9D
:1018E000E66ED950060FE66EDACFE6FFCBEC06F0D7
:1018F00044E9ABCEE6FF03DA41E90001066B0001E3
:101900000681000106870E01AC39F00B00010613B9
:10191000F288010E00D047E9E7CFD9FF1200D9CFF6
:10192000E6FFE1CFD9FF88E948E8086A015002E004
:10193000010E01D0000E0301E96FD950080FE96EC6
:10194000DACFEAFF0301E951030BF36EFC0EEF144B
:10195000F310EF6E065002E0000E01D0010E089A5F
:10196000E8B0088A06500894E8B008840050089649
:10197000E8B008860C6A065002E0010E01D0000EA5
:101980000B6E065002E0000E01D0010E089CE8B07C
:10199000088C088E82EB09F083EB0AF084EB0DF0E3
:1019A00085EB0EF005C0E6FF000EE66E010EE66E5A
:1019B000D950080FE96EDACFEAFFEECFE6FFEECF9F
:1019C000E6FFEECFE6FFEECFE6FFEECFE6FFEECF8F
:1019D000E6FFEECFE6FF9DEC03F04AE90F6E000153
:1019E000056B0F5000D049E9E7CFD9FF1200D9CFDE
:1019F000E6FFE1CFD9FF82E900EBE6FFE66A000EE1
:101A0000E66EE66A03C0E6FF04C0E6FF010EE66E7E
:101A100086DF47E900D041E9E7CFD9FF1200D9CFEF
:101A2000E6FFE1CFD9FF83E901500A0DF3CFE9FFCB
:101A3000F4CFEAFF000EE926030EEA22080EE9269B
:101A4000000EEA22EF50800B19E000EBE6FF010EDA
:101A5000E66E01500A0DF3CFE9FFF4CFEAFF000E66
:101A6000E926030EEA22E9CFE9F3EACFEAF3E9C374
:101A7000E6FFEAC3E6FF08D844E902D0000E00D032
:101A800041E9E7CFD9FF1200D9CFE6FFE1CFD9FF77
:101A900085E900EBE6FFE66A02EBE6FF03EBE6FF13
:101AA00003C0E6FF04C0E6FFE66A39DF47E900D07D
:101AB00041E9E7CFD9FF1200D9CFE6FFE1CFD9FF47
:101AC00085E941E8056A080E055C16E20550022426
:101AD000E96E000E0320EA6EEFCFE9F30550002413
:101AE000E96E000E0120EA6EEF500301E95D02E0AD
:101AF000000E04D0052AE7D7010E00D042E9E7CF57
:101B0000D9FF1200D9CFE6FFE1CFD9FF87E9055011
:101B1000020A09E0030A05E0010A01E006D0010E0D
:101B200007D0000E05D0000E03D000D0000E00D06C
:101B300041E9E7CFD9FF1200D9CFE6FFE1CFD9FFC6
:101B400083E94CE80E01AC51036E030E046E056A86
:101B5000000402E1FF0ECAD006EC2CF0F6C3E9F354
:101B6000F7C3EAF3F8C3EBF3F9C3ECF30301E9516C
:101B7000066EEA51076EEB51086EEC51096ED950B2
:101B8000060FE96EDACFEAFF240EEE5EF40EEE5A8F
:101B9000000EEE5A000EEE5A0E01AC6B00011289D7
:101BA000000112A99ED006EC2CF0F6C3E9F3F7C3AE
:101BB000EAF3F8C3EBF3F9C3ECF30301E9510A6E5E
:101BC000EA510B6EEB510C6EEC510D6E0AEBEDF31E
:101BD0000BEBEEF30CEBEFF30DEBF0F3D950060F3C
:101BE000E96EDACFEAFFEE500301ED5D0301E96F24
:101BF000EE500301EE590301EA6FEE500301EF5975
:101C00000301EB6FEE500301F0590301EC6FD88034
:101C1000240E0301E955F40EEA55000EEB55000EB3
:101C2000EC555CE28AEB06F08BEB07F08CEB08F0EE
:101C30008DEB09F005500506000801E2B1D7010E51
:101C4000056E04500406000902E1FF0E4FD00001AA
:101C5000056B00010551052BEA6A000FE96E010EC4
:101C6000EA22810EEF6E00010551052BEA6A000F92
:101C7000E96E010EEA22ABCEEFFF00010551052B04
:101C8000EA6A000FE96E010EEA2206C0EFFF0E6A53
:101C9000010E0E5C15E20E50EA6A500FE96E000E5E
:101CA000EA22EF50E66E00010551052BEA6A000FAB
:101CB000E96E010EEA22E552E750EF6E0E2AE8D7F0
:101CC000E66A010EE66E000EE66EE66A03C0E6FF07
:101CD00004C0E6FF010EE66E22DE47E9EDEC09F0F6
:101CE0005FD703EBACFE0001115100D04DE9E7CF07
:101CF000D9FF1200000112979AEC03F01200D9CF1D
:101D0000E6FFE1CFD9FF82E9E66A00EBE6FF52EC9D
:101D100006F042E9000904E000EBABFE010E02D040
:101D2000000E00D041E9E7CFD9FF1200EDEC09F039
:101D300000011251080B01E0010E00D01200D9CFB2
:101D4000E6FFE1CFD9FF82E942E80A0E005C22E219
:101D500000500A0DF3CFE9FFF4CFEAFF000EE926A9
:101D6000030EEA22080EE926000EEA22EF50800B4D
:101D700010E0026A080E025C06E2080E025C01E254
:101D800000D0022AF7D7026A010E025C02E2022AA0
:101D9000FBD727D0026A0A0E025C23E202500A0D2A
:101DA000F3CFE9FFF4CFEAFF000EE926030EEA22A3
:101DB000080EE926000EEA22EF50800B10E0036ABD
:101DC000080E035C06E2080E035C01E200D0032A61
:101DD000F7D7036A010E035C02E2032AFBD7022A4B
:101DE000DAD743E9E7CFD9FF1200D9CFE6FFE1CF39
:101DF000D9FF81E943E8026A0368016A0A0E015CBF
:101E000038E201500A0DF3CFE9FFF4CFEAFF000EEC
:101E1000E926030EEA22080EE926000EEA22EF5018
:101E2000800B20E001500A0DF3CFE9FFF4CFEAFF69
:101E3000000EE926030EEA22E9CFE9F3EACFEAF33E
:101E4000E9C3E6FFEAC3E6FF0AC0E6FF0BC0E6FF10
:101E500033DE44E9000905E081EB03F0010E026E78
:101E600008D005D0FF0E035C02E181EB03F0012AEC
:101E7000C5D7FF0E035C03E1F10E9ED09BD00E018F
:101E8000AC51010802E2025097D0016A080E015CD1
:101E900023E201500001EA6A0A25E96E0B51EA22A9
:101EA000EF50E66E03500A0DF3CFE9FFF4CFEAFFDF
:101EB000000EE926030EEA22E9CFE9F3EACFEAF3BE
:101EC00001500301EA6AE925E96EEA51EA22E55286
:101ED000E750EF6E012ADAD703500A0DF3CFE9FF7E
:101EE000F4CFEAFF000EE926030EEA22080EE926E7
:101EF000000EEA22EF8E020E0001EA6A0C25E96E5E
:101F00000D51EA22EF50010B0301E96F03500A0D56
:101F1000F3CFE9FFF4CFEAFF000EE926030EEA2231
:101F2000080EE926000EEA220301E951010BF36EC7
:101F3000FE0EEF14F310EF6E016A010E015C28E251
:101F4000030E01240001EA6A0C25E96E0D51EA2214
:101F5000EF50E66E03500A0DF3CFE9FFF4CFEAFF2E
:101F6000000EE926030EEA22090EE926000EEA22F7
:101F7000E9CFE9F3EACFEAF301500301EA6AE92580
:101F8000E96EEA51EA22E552E750EF6E012AD5D711
:101F90000350040DF3CFE9FFF4CFEAFF1E0EE9264C
:101FA000000EEA22EE6AEE6AEE6AEE6A03EB11F0C8
:101FB00000011299025000D044E9E7CFD9FF120086
:101FC000D9CFE6FFE1CFD9FF82E945E8FF0E005CFB
:101FD0005AE1026A0A0E025C55E202500A0DF3CF82
:101FE000E9FFF4CFEAFF000EE926030EEA22080E0D
:101FF000E926000EEA22EF50800B33E00001056B6A
:1020000000010551052BEA6A000FE96E010EEA2274
:10201000820EEF6EE66A010EE66E02500A0DF3CFF5
:10202000E9FFF4CFEAFF000EE926030EEA22E9CF2A
:10203000E9F3EACFEAF3E9C3E6FFEAC3E6FF03C048
:10204000E6FF04C0E6FFE66A6ADC47E9036A046A61
:10205000FF0E035C0F0E045804E2032A000E042254
:10206000F7D702500A0DF3CFE9FFF4CFEAFF000ED5
:10207000E926030EEA22080EE926000EEA22EF6A9C
:10208000022AA8D753D000500A0DF3CFE9FFF4CFAE
:10209000EAFF000EE926030EEA22080EE926000EEA
:1020A000EA22EF50800B42E00001056B0001055170
:1020B000052BEA6A000FE96E010EEA22820EEF6E2E
:1020C000E66A010EE66E00500A0DF3CFE9FFF4CF89
:1020D000EAFF000EE926030EEA22E9CFE9F3EACF90
:1020E000EAF3E9C3E6FFEAC3E6FF03C0E6FF04C084
:1020F000E6FFE66A14DC47E9056A066AFF0E055C3E
:102100000F0E065804E2052A000E0622F7D70050EB
:102110000A0DF3CFE9FFF4CFEAFF000EE926030E24
:10212000EA22080EE926000EEA22EF6A46E9E7CF26
:10213000D9FF1200D9CFE6FFE1CFD9FF82E90050E5
:10214000030801E20ED000EBACFE0E01AC51100D05
:10215000F3CFE9F30F0E000106150301E9110001A9
:0A216000066F41E9E7CFD9FF120036
:06216A00D9CFE6FFE1CF32
:10217000D9FF81E94EE8490E016E6E0E026E690EBE
:10218000036E740E046E690E056E610E066E6C0EA3
:10219000076E690E086E7A0E096E690E0A6E6E0E73
:1021A0000B6E670E0C6E0D6A0E6AF9C0FDF0FAC078
:1021B000FEF000014E6B010EE66ED950010FE66E87
:1021C000DACFE6FF2AEC20F043E94FE9E7CFD9FF69
:1021D0001200D9CFE6FFE1CFD9FF82E956E8050E1C
:1021E000126E136A146A156A166A176AE66AE66A54
:1021F000FCEC1EF042E9E66A90EC1FF041E9F9C000
:10220000E9FFFAC0EAFF020EEB50166E176A146A75
:10221000156A17341550171804E61650145C175039
:1022200015585EE2040ED89015BE03D0145C000E63
:10223000155856E2026AF9C0E9FFFAC0EAFF050E36
:10224000E926000EEA22E9CFE9F3EACFEAF314EB3C
:10225000EBF315EBECF30301D890EB37EC3703010C
:102260000301E9510301EB25E96E03010301EA5182
:102270000301EC21EA6EEE50EFCFEAFFE96EEE507B
:10228000126EED50136E03011204E96F000E135825
:10229000EA6F040E0301D890E937EA37E806FBE15C
:1022A000690E0301E927030E0301EA23E9C3E6FFF0
:1022B000EAC3E6FFD950020FE66EDACFE6FF4BEC39
:1022C0002AF044E91428E66ED950020FE66EDACF00
:1022D000E6FF2AEC20F043E9142A000E152299D7D4
:1022E000005050E0005004084DE30001010E4E6F15
:1022F000026AF9C0E9FFFAC0EAFF050EE926000EFE
:10230000EA22E9CFEBF3EACFECF30004020D03017C
:102310000301EB51F324E96E03010301EC51F420B6
:10232000EA6EEE50EFCFEAFFE96EEECFE9F3EFCFC2
:10233000EAF30301E907000EEA5B040E0301D890FB
:10234000E937EA37E806FBE1690E0301E927030EE6
:102350000301EA23E9C3E6FFEAC3E6FFD950020F0F
:10236000E66EDACFE6FF4BEC2AF044E900EBE6FF3D
:10237000D950020FE66EDACFE6FF2AEC20F043E9EF
:1023800000014E6B57E9E7CFD9FF1200D9CFE6FF26
:10239000E1CFD9FF82E956E8050E126E136A146A7E
:1023A000156A166A176AE66AE66AFCEC1EF042E9EC
:1023B000E66A90EC1FF041E9FBC0E9FFFCC0EAFFD0
:1023C000020EEB50166E176A146A156A1734155010
:1023D000171804E61650145C175015585EE2040EE8
:1023E000D89015BE03D0145C000E155856E2026A50
:1023F000FBC0E9FFFCC0EAFF050EE926000EEA2259
:10240000E9CFE9F3EACFEAF314EBEBF315EBECF3E6
:102410000301D890EB37EC3703010301E9510301C5
:10242000EB25E96E03010301EA510301EC21EA6E99
:10243000EE50EFCFEAFFE96EEE50126EED50136EE4
:1024400003011204E96F000E1358EA6F040E030132
:10245000D890E937EA37E806FBE1A90E0301E9273E
:10246000030E0301EA23E9C3E6FFEAC3E6FFD950FE
:10247000020FE66EDACFE6FF4BEC2AF044E91428AF
:10248000E66ED950020FE66EDACFE6FF2AEC20F0B6
:1024900043E9142A000E152299D7005001E181D09A
:1024A0000050040801E27DD00001010E4E6F026A67
:1024B000FBC0E9FFFCC0EAFF050EE926000EEA2298
:1024C000E9CFEBF3EACFECF30004020D03010301C3
:1024D000EB51F324E96E03010301EC51F420EA6EA1
:1024E000EE50EFCFEAFFE96EEECFE9F3EFCFEAF37C
:1024F0000301E907000EEA5B040E0301D890E937F7
:10250000EA37E806FBE1A90E0301E927030E030100
:10251000EA23E9C3E6FFEAC3E6FFD950020FE66EFD
:10252000DACFE6FF4BEC2AF044E900EBE6FFFBC014
:10253000E9FFFCC0EAFF050EE926000EEA22E9CF1A
:10254000EBF3EACFECF30004020D03010301EB51BE
:10255000F324E96E03010301EC51F420EA6EEE501E
:10256000EFCFEAFFE96EEECFE9F3EFCFEAF3030135
:10257000E907000EEA5B040E0301D890E937EA3759
:10258000E806FBE1A90E0301E927030E0301EA2394
:10259000E9C3E6FFEAC3E6FF2AEC20F043E90001C5
:1025A0004E6B57E9E7CFD9FF1200D9CFE6FFE1CF55
:1025B000D9FF83E950E8550E036E730E046E650E65
:1025C000056E720E066E200E076E200E086E096AEA
:1025D0004F0E0A6E700E0B6E740E0C6E200E0D6E8A
:1025E000200E0E6E200E0F6E106A200E116E126AF3
:1025F000E66AE66AFCEC1EF042E9E66A90EC1FF03F
:1026000041E9400E0124086E400E00240F6E010EB9
:10261000E66ED950030FE66EDACFE6FF2AEC20F023
:1026200043E9020EE66ED9500A0FE66EDACFE6FFF6
:102630002AEC20F043E9030EE66ED950110FE66E46
:10264000DACFE6FF2AEC20F043E9040EE66ED9501B
:10265000110FE66EDACFE6FF2AEC20F043E951E9EC
:10266000E7CFD9FF1200D9CFE6FFE1CFD9FF82E94A
:1026700041E9E7CFD9FF1200D9CFE6FFE1CFD9FF7B
:1026800082E952E8230EE66E120EE66E51EC1EF061
:1026900042E93F0EE66E130EE66E51EC1EF042E983
:1026A000030EE66ED9EC1EF041E9005001E1C2D004
:1026B00000500301645D01E0BDD00001F95100014B
:1026C000FD1904E10001FA510001FE1920E1E66A5A
:1026D00080DD41E9FDC0E9FFFEC0EAFF050EE92605
:1026E000000EEA22E9CFE9F3EACFEAF30004020D93
:1026F00003010301E951F324E96E03010301EA51E7
:10270000F420EA6EEECFFDF0EDCFFEF092D00001A6
:10271000FB510001FD1904E10001FC510001FE190B
:1027200020E1E66A33DE41E9FDC0E9FFFEC0EAFFD1
:10273000050EE926000EEA22E9CFE9F3EACFEAF333
:102740000004020D03010301E951F324E96E0301C2
:102750000301EA51F420EA6EEECFFDF0EDCFFEF07A
:1027600068D0FDC0E9FFFEC0EAFF030EE926000EB7
:10277000EA22EECFE9F3EFCFEAF30001F9510301CA
:10278000E91904E10001FA510301EA1909E100EB3A
:10279000E6FF1FDD41E900EB67F30301646B31D015
:1027A000FDC0E9FFFEC0EAFF030EE926000EEA22A3
:1027B000EECFE9F3EFCFEAF30001FB510301E91992
:1027C00004E10001FC510301EA1918E100EBE6FF06
:1027D000DDDD41E90301646B03016751126E80EB9B
:1027E00013F0D950120FE66EDACFE6FF460EE66E12
:1027F000020EE66E9FEC22F044E903D0E66AE9DCC3
:1028000041E9FDC0E9FFFEC0EAFF020EEB50030103
:10281000E96F010E0301E95D0CE3FDC0E9FFFEC0B5
:10282000EAFF050EE926000EEA22EECFFDF0EDCF1D
:10283000FEF04ED00001F9510001FD1904E1000144
:10284000FA510001FE1916E0FDC0E9FFFEC0EAFFE3
:10285000030EE926000EEA22EECFE9F3EFCFEAF30A
:102860000001F9510301E91904E10001FA510301E2
:10287000EA1904E1E66AADDC41E928D00001FB5128
:102880000001FD1904E10001FC510001FE1916E0F0
:10289000FDC0E9FFFEC0EAFF030EE926000EEA22B2
:1028A000EECFE9F3EFCFEAF30001FB510301E919A1
:1028B00004E10001FC510301EA1904E1E66A66DD66
:1028C00041E904D0F9C0FDF0FAC0FEF000EB64F37A
:1028D00053E9E7CFD9FF1200D9CFE6FFE1CFD9FF07
:1028E00091E955E8740E116E650E126E730E136E3B
:1028F000740E146E156AF9C0E9FFFAC0EAFF020E01
:10290000E926000EEA22EF6AFBC0E9FFFCC0EAFFFD
:10291000020EE926000EEA22EF6A0EEBE9FF0FEB4A
:10292000EAFF010EEE6EED6A0EEBE9FF0FEBEAFF38
:10293000020EE926000EEA22EF6A0EEBE9FF0FEB2A
:10294000EAFF030EE926000EEA22F9C0EEFFFAC004
:10295000EDFF0CEBE9FF0DEBEAFF020EEE6EED6A08
:102960000CEBE9FF0DEBEAFF020EE926000EEA226E
:10297000EF6A0CEBE9FF0DEBEAFF030EE926000E10
:10298000EA22F9C0EEFFFAC0EDFF0AEBE9FF0BEB1C
:10299000EAFF030EEE6EED6A0AEBE9FF0BEBEAFFCE
:1029A000020EE926000EEA22EF6A0AEBE9FF0BEBC2
:1029B000EAFF030EE926000EEA22F9C0EEFFFAC094
:1029C000EDFF08EBE9FF09EBEAFF040EEE6EED6A9E
:1029D00008EBE9FF09EBEAFF020EE926000EEA2206
:1029E000EF6A08EBE9FF09EBEAFF030EE926000EA8
:1029F000EA22F9C0EEFFFAC0EDFF06EBE9FF07EBB4
:102A0000EAFF010EEE6EED6A06EBE9FF07EBEAFF67
:102A1000020EE926000EEA22EF6A06EBE9FF07EB59
:102A2000EAFF030EE926000EEA22FBC0EEFFFCC01F
:102A3000EDFF04EBE9FF05EBEAFF020EEE6EED6A37
:102A400004EBE9FF05EBEAFF020EE926000EEA229D
:102A5000EF6A04EBE9FF05EBEAFF030EE926000E3F
:102A6000EA22FBC0EEFFFCC0EDFF02EBE9FF03EB47
:102A7000EAFF030EEE6EED6A02EBE9FF03EBEAFFFD
:102A8000020EE926000EEA22EF6A02EBE9FF03EBF1
:102A9000EAFF030EE926000EEA22FBC0EEFFFCC0AF
:102AA000EDFF00EBE9FF01EBEAFF040EEE6EED6ACD
:102AB00000EBE9FF01EBEAFF020EE926000EEA2235
:102AC000EF6A00EBE9FF01EBEAFF030EE926000ED7
:102AD000EA22FBC0EEFFFCC0EDFFF9C0E6FFFAC042
:102AE000E6FF06EBE6FF07EBE6FF9BD844E9F9C0FB
:102AF000E6FFFAC0E6FF04EBE6FF05EBE6FF91D840
:102B000044E9F9C0E6FFFAC0E6FF02EBE6FF03EB9B
:102B1000E6FF87D844E9F9C0E6FFFAC0E6FF00EB1C
:102B2000E6FF01EBE6FF7DD844E906EBE6FF07EBA5
:102B3000E6FFFBC0E6FFFCC0E6FF73D844E904EB08
:102B4000E6FF05EBE6FFFBC0E6FFFCC0E6FF69D849
:102B500044E902EBE6FF03EBE6FFFBC0E6FFFCC047
:102B6000E6FF5FD844E900EBE6FF01EBE6FFFBC0C0
:102B7000E6FFFCC0E6FF55D844E9FBC0E6FFFCC019
:102B8000E6FF0EEBE6FF0FEBE6FF4BD844E9FBC098
:102B9000E6FFFCC0E6FF0CEBE6FF0DEBE6FF41D8DD
:102BA00044E9FBC0E6FFFCC0E6FF0AEBE6FF0BEBE7
:102BB000E6FF37D844E9FBC0E6FFFCC0E6FF08EBC0
:102BC000E6FF09EBE6FF2DD844E90EEBE6FF0FEB3D
:102BD000E6FFF9C0E6FFFAC0E6FF23D844E90CEBB4
:102BE000E6FF0DEBE6FFF9C0E6FFFAC0E6FF19D8F5
:102BF00044E90AEBE6FF0BEBE6FFF9C0E6FFFAC09B
:102C0000E6FF0FD844E908EBE6FF09EBE6FFF9C061
:102C1000E6FFFAC0E6FF05D844E956E9E7CFD9FF59
:102C20001200D9CFE6FFE1CFD9FF85E902EBE9FF3A
:102C300003EBEAFF020EE926000EEA22EF2A02EB7E
:102C4000E9FF03EBEAFF050EE926000EEA22E9CFD1
:102C5000E9F3EACFEAF302EBE9FF03EBEAFF020E46
:102C6000E926000EEA22EF04020D03010301E951F7
:102C7000F324E96E03010301EA51F420EA6E00EB4C
:102C8000EEFF01EBEDFF41E9E7CFD9FF1200D9CF0D
:102C9000E6FFE1CFD9FF85E902EBF9F003EBFAF0AB
:102CA00000EBFBF001EBFCF041E9E7CFD9FF1200AC
:102CB00090DB86E90150010600090CE002EBE6FF1B
:102CC00003EBE6FF00EBE6FF69DBF4E1EA1DF2E16E
:102CD000010E01D0000E41E9E5CFDAFFE7CFD9FFC1
:102CE000120077DB89E97BE80A6A0B6A02EBF6FFE0
:102CF00003EBF7FF04EBF8FF0800F550096E0950ED
:102D000001E12DD3250E095C01E01BD30C6A0D6A8D
:102D10000E6A0F6A106A2DDB2D0E095C0CE02B0E7B
:102D2000095C09E0200E095C06E0230E095C03E063
:102D3000300E095C15E10950300A10E0130A0CE06E
:102D4000030A08E00B0A04E0060AE5E10C80E3D779
:102D50000C82E1D70C84DFD70C86DDD70C88DBD75B
:102D60002A0E095C13E1A5DB0DE30C801CEBE9F3F3
:102D70001DEBEAF30301E96DEA1F000EEA23E951B6
:102D80000D6E02D09CEB0DF0F4DA07D0126A3FDB37
:102D900002E06BDBFCD792EB0DF00CB00C982E0E22
:102DA000095C15E1E6DA2A0E095C08E182DB04E23F
:102DB0009CEB0EF0010E0F6EDCDA09D0126A27DBF5
:102DC00002E053DBFCD792EB0EF0010E0F6E680EA3
:102DD000095C07E1CEDA680E095C1DE1030E106E96
:102DE00019D0740E095C16E07A0E095C13E0480EE7
:102DF000095C06E0540E095C03E05A0E095C02E12E
:102E0000020E07D06C0E095C03E06A0E095C03E158
:102E1000010E106EAEDA09506E0A01E16ED21E0A82
:102E200001E128D1200A01E125D13F0A01E1FDD0CD
:102E30001A0A01E1FAD00D0A01E1F7D0200A01E1F6
:102E4000F4D03A0A01E1F1D0200A01E1EED0260ADD
:102E500001E1EAD00D0A01E1E7D01A0A01E19ED0B2
:102E6000200A3BE0300A1AE0460A0EE0250A01E09B
:102E700072D2D950020FE96E000EDA20EA6E010E0E
:102E8000EE5E000EEE5AEE5A0FDB250EE66E86DA87
:102E900003E1EA1D01E159D20A2A5BD2116A0D5001
:102EA000010803E20D04116EF5DA115007E0010E7E
:102EB0000C1404E16DDA01E048D2116AD3DAEF5064
:102EC000096ECBDA03E1EA1D01E13FD20A2A000EC6
:102ED0000B225EDA01E13FD238D2020E105C08E12B
:102EE000030E4EDAEE50176EEE50186EEF5007D00C
:102EF000E7DAEB6BE951176EEA51186EEB51196E78
:102F000017EBE6FF18EBE6FF19EBE6FF7AEC2AF089
:102F100043E9F6C3E9F3F7C3EAF3F8C3EBF30301BC
:102F2000E9511C6EEA511D6E0F5006E01C500E5CFC
:102F300003E20E501C6E1D6A1C500D5C02E29CEBFD
:102F40000DF050DA05E00D500E5C02E28EEB0DF054
:102F50000CB004D01DDA01E0F8D1116A126A17EB47
:102F6000F6FF18EBF7FF19EBF8FF0800F550096EB4
:102F7000095010E00D50125C0DE26FDA03E1EA1D1A
:102F800001E1E3D10A2A000E0B22122AD950170FB1
:102F900055DAEBD7FDD901E1DED1D7D163DAEE50B6
:102FA0001A6EED501B6E1AEBE6FF1BEBE6FF6CECA6
:102FB0002AF042E9F3501C6EF4501D6E0F5006E0EB
:102FC0001C500E5C03E20E501C6E1D6A1C500D5C02
:102FD00002E29CEB0DF006DA05E00D500E5C02E219
:102FE0008EEB0DF00CB004D0D3D901E0AED1116A54
:102FF000126A1AEBE9FF1BEBEAFFEF50096E09506A
:103000000FE00D50125C0CE228DA03E1EA1D01E149
:103010009CD10A2A000E0B22122A1A2A1B22E9D757
:10302000B7D901E198D191D10C8E10040AE1040EB8
:10303000A7D9EE50136EEE50146EEE50156EEF5091
:1030400032D0030E105C16E10CAE0CD00BDAEFCFD1
:10305000E9F30301EA6BEB6BEC6BE9AF23D0EA69B0
:10306000EB691FD0FFD9EFCFE9F30301E951136EEC
:10307000146A20D0020E105C0CE10CAE06D0030ED8
:103080007FD9B6D9EBAF0ED00CD0030E79D9B0D919
:1030900009D00CAE0AD014DAEB6BEC6BEAAF02D0BD
:1030A000EB69EC69BCD9166E07D00ADAE951136EE8
:1030B000EA51146E156A166A0F5002E1010E0E6E87
:1030C0001E6A1F6AD950400FE66E000EDA20E66EC7
:1030D000E552E550436EE750426E416A116A0A0EAE
:1030E000106E0950780A12E0200A10E0280A0CE05D
:1030F000200A0AE03F0A06E00D0A02E0200A08E181
:10310000020E05D0080E03D0080E0926100E106E10
:103110000CBE02D00C920C94800E0C1417E01634E6
:1031200015E3E668E668E668E66842D96CEC27F0E5
:10313000E552E5CFECF3E5CFEBF3E5CFEAF3E7CFEC
:10314000E9F303016CD9166E2D0E07D00CA202D044
:103150002B0E03D00CA404D0200E206E1E2A01D00A
:10316000206A0E5005E1135014101510161061E07E
:103170000301040EE96F5D0EEA6F000EEB6F83D959
:10318000CCEC27F0E552E5CFEFF3E5CFEEF3E5CF5A
:10319000EDF3E7CFECF30301E951EC25F36EEA51CF
:1031A000ED21F46EEB51EE21F86EF4CFF7FFF3CF83
:1031B000F6FF0800F550126E580E095C05E1610E2D
:1031C000125C02E3200E125E5ED9C9EC27F0E552D4
:1031D000E550166EE550156EE550146EE750136E0F
:1031E00042EBE9FF43EBEAFF4206000E435A12EBC3
:1031F000EFFF1E2A1350141015101610B9E10CA67B
:1032000019D06F0E095C06E10E501E5C13E31E28F8
:103210000E6E10D0780E095C09E0580E095C06E0CD
:10322000620E095C03E0420E095C04E1020E1F6EAF
:1032300001D01E6A100E0C1407E00D500E5C04E263
:103240000F5002E18DEB0EF00E501E5C03E21E509B
:103250000E5E01D00E6A0E501E241F24D8800D541D
:1032600007E20E500D5CD8801E54D8801F54116E9A
:10327000010E0C1406E1115004E08AD866E10AD967
:10328000116A205007E010D920EBE6FF87D802E151
:10329000EA1D5BE01F500BE007D9300EE66E7ED8CA
:1032A00002E1EA1D52E0D9D802E1EA1D4EE00E50DB
:1032B0001F5C02E21F500E5E300EE66E0EEBE6FF64
:1032C000DCD843E1422A000E432242EBE9FF43EB04
:1032D000EAFFEF50126E125008E0E6D812EBE6FF5C
:1032E0005DD8F0E1EA1DEEE130D052D82EE10E506B
:1032F0001E2411241F240A262CD01050030A1CE07F
:10330000010A14E0030A07E0ADD8C9D80AEBEEFFC2
:103310000BEBEDFF20D08BD8EC6BEAAF02D0EB6962
:10332000EC69A0D84ED8ECC3EEFF15D080D8EABF28
:10333000EB6998D846D80FD095D8B1D80AEBEFFFF3
:103340000AD08BD805E1EA1D03E1F368F4680BD0DD
:103350000A2A000E0B22D950020F70D8CDD40AEBE6
:10336000F3FF0BEBF4FF7CE9E5CFDAFFE7CFD9FF02
:103370001200D950020F62D80800F550096E1200F1
:10338000005E000E015A00EBE9FF01EBEAFF1200BC
:10339000200EE66E11EBE6FF3DEF1AF03CEC2CF050
:1033A00043E9F3CFE9F3F4CFEAF30301F31C12008E
:1033B00013EBE6FF14EBE6FF15EBE6FF16EBE6FF7B
:1033C00012006DD8E9C3EEFFEAC3EEFFEBC3EEFFD8
:1033D0001200D9CFE6FFDACFE6FFE1CFD9FFE2CF87
:1033E000DAFF12001C500D5C116E54D80F50120001
:1033F000EECFE9F3EECFEAF3EFCFEBF30301EC6BA3
:103400001200EECFE9F3EFCFEAF303011200095007
:10341000E66EE66A04EC2EF042E9F3501200E95140
:10342000136EEA51146EEB51156EEC5112000AEB5B
:10343000E9F30BEBEAF30301EB6B1200E96E000E0C
:10344000DA20EA6EEF2AEECFF6FF000EEF22EECF83
:10345000F7FFEF22EECFF8FF120026D809EBE6FFC8
:10346000CEEF19F0020EC0EF19F00A0E1202F3505F
:103470000924D00F126EB9EF19F016D858EC16F0D7
:1034800044E90009120010EBE6FFE66AE66AE66A24
:10349000D8EF19F011500A26000E0B221200EE5040
:1034A000EFCFEAFFE96E120005EBE6FF06EBE6FF61
:1034B0001200D8DFEE501C6EED501D6E1D34120050
:0634C000D1DF01EF1AF05C
:0A34C600D9CFE6FFE1CFD9FF82E97C
:1034D00041E9E7CFD9FF1200D9CFE6FFE1CFD9FF0D
:1034E00084E941E9E7CFD9FF1200D9CFE6FFE1CF68
:1034F000D9FF82E941E9E7CFD9FF1200D9CFE6FF32
:10350000E1CFD9FF84E946C0E9FF47C0EAFF190EC1
:10351000E926000EEA22EF6A46C0E9FF47C0EAFF4B
:10352000190EEB50D880025432E246C0E9FF47C082
:10353000EAFF190EEB500024E96E000E0120EA6E3E
:10354000EF50E66E46C0E9FF47C0EAFF0F0EE926DE
:10355000000EEA22E9CFE9F3EACFEAF346C0E9FF39
:1035600047C0EAFF190EEB500301EA6AE925E96E4C
:10357000EA51EA22E552E750EF6E46C0E9FF47C044
:10358000EAFF190EE926000EEA22EF2AC5D746C047
:10359000E9FF47C0EAFF190EE926000EEA2202EB16
:1035A000EFFF46C0E9FF47C0EAFF1A0EE926000E0A
:1035B000EA22010EEF6E46C0E9FF47C0EAFF0F0E98
:1035C000EB50C96EC68841E9E7CFD9FF1200D9CFC9
:1035D000E6FFE1CFD9FF82E946C0E9FF47C0EAFF35
:1035E0000B0EE926000EEA22010EEF6E46C0E9FF3F
:1035F00047C0EAFF0A0EE926000EEA22EF6A0050F1
:1036000038E0C7AA1ED046C0E9FF47C0EAFF0C0E4B
:10361000E926000EEA22050EEF6E46C0E9FF47C01C
:10362000EAFF0E0EE926000EEA22EF2A46C0E9FF65
:1036300047C0EAFF0D0EE926000EEA22050EEF6EE6
:1036400017D0C7A40BD046C0E9FF47C0EAFF0C0E55
:10365000E926000EEA22080EEF6E0AD046C0E9FF06
:1036600047C0EAFF0C0EE926000EEA22070EEF6EB5
:103670000AD046C0E9FF47C0EAFF0C0EE926000E5B
:10368000EA22060EEF6E41E9E7CFD9FF1200D9CF4B
:10369000E6FFE1CFD9FF81E949E8026A036A046ADB
:1036A000056A066AC6AC20D0C69C46C0E9FF47C082
:1036B000EAFF0C0EE926000EEA22050EEF6E010E5F
:1036C000066E46C0E9FF47C0EAFF0E0EE926000E6F
:1036D000EA22EF2A46C0E9FF47C0EAFF0D0EE926BD
:1036E000000EEA22040EEF6EC7A004D0C950016E8E
:1036F000010E026E065001E094D146C0E9FF47C0BA
:10370000EAFF0C0EEB50070A01E1D2D00F0A01E1EB
:103710008DD00E0A15E0030A01E083D1C7A60FD0B1
:1037200002EBE6FF54DF41E946C0E9FF47C0EAFF8C
:103730000C0EEB50080803E1026A010E056E71D110
:10374000C7A82ED046C0E9FF47C0EAFF0B0EE92606
:10375000000EEA22EF2A025018E0C7BA03D0010E89
:10376000046E13D046C0E9FF47C0EAFF0E0EE926FB
:10377000000EEA22EF2A46C0E9FF47C0EAFF0D0E1D
:10378000E926000EEA22060EEF6E46C0E9FF47C0AA
:10379000EAFF0C0EE926000EEA22050EEF6E45D078
:1037A000025043E046C0E9FF47C0EAFF0B0EE9269E
:1037B000000EEA22EF2AC7BA1BD0C7B40BD046C00E
:1037C000E9FF47C0EAFF0C0EE926000EEA22070EC9
:1037D000EF6E0DD046C0E9FF47C0EAFF0C0EE926A8
:1037E000000EEA22080EEF6E010E056E026A1DD071
:1037F00046C0E9FF47C0EAFF0E0EE926000EEA22A6
:10380000EF2A46C0E9FF47C0EAFF0C0EE926000E8A
:10381000EA22050EEF6E46C0E9FF47C0EAFF0D0E33
:10382000E926000EEA22060EEF6EFBD046C0E9FF45
:1038300047C0EAFF1A0EEB500301E96F46C0E9FFEB
:1038400047C0EAFF190EEB500301E95D26E246C0CE
:10385000E9FF47C0EAFF0F0EE926000EEA22E9CF92
:10386000E9F3EACFEAF346C0E9FF47C0EAFF1A0EE0
:10387000EB500301EA6AE925E96EEA51EA22EF50CA
:10388000C96E46C0E9FF47C0EAFF1A0EE926000EDE
:10389000EA22EF2A010E036E0AD046C0E9FF47C0B4
:1038A000EAFF0C0EE926000EEA22050EEF6EB9D0F3
:1038B000C7A85AD046C0E9FF47C0EAFF0B0EE92669
:1038C000000EEA22EF2A025042E0C7AA22D046C0E8
:1038D000E9FF47C0EAFFE9CFE9F3EACFEAF346C0E0
:1038E000E9FF47C0EAFF0A0EEB500301EA6AE92547
:1038F000E96EEA51EA2201EBEFFF46C0E9FF47C05B
:10390000EAFF0A0EE926000EEA22EF2A010E046EF3
:103910001DD046C0E9FF47C0EAFF0E0EE926000EA3
:10392000EA22EF2A46C0E9FF47C0EAFF0D0EE9266A
:10393000000EEA22060EEF6E46C0E9FF47C0EAFF1E
:103940000C0EE926000EEA22050EEF6E02D0010EE3
:10395000046E46C0E9FF47C0EAFF0C0EE926000EE0
:10396000EA22050EEF6E5CD002505AE046C0E9FF35
:1039700047C0EAFF0B0EE926000EEA22EF2AC7AA8B
:1039800020D046C0E9FF47C0EAFFE9CFE9F3EACF1C
:10399000EAF346C0E9FF47C0EAFF0A0EEB50030115
:1039A000EA6AE925E96EEA51EA2201EBEFFF46C037
:1039B000E9FF47C0EAFF0A0EE926000EEA22EF2AD5
:1039C0002FD0C7A410D046C0E9FF47C0EAFF0C0EB5
:1039D000E926000EEA22080EEF6E010E046E010EBB
:1039E000056E026A1DD046C0E9FF47C0EAFF0E0E11
:1039F000E926000EEA22EF2A46C0E9FF47C0EAFFA7
:103A00000D0EE926000EEA22060EEF6E46C0E9FF13
:103A100047C0EAFF0C0EE926000EEA22050EEF6E03
:103A200000D0025002E1035002E0C6A8C68846C09A
:103A3000E9FF47C0EAFF0A0EEB5008081FE20450F6
:103A40001DE146C0E9FF47C0EAFF0C0EE926000E63
:103A5000EA22050EEF6E46C0E9FF47C0EAFF0E0EF0
:103A6000E926000EEA22EF2A46C0E9FF47C0EAFF36
:103A70000D0EE926000EEA22070EEF6E045041E01B
:103A800046C0E9FF47C0EAFF0B0EEB50E66E46C0AA
:103A9000E9FF47C0EAFFE9CFE9F3EACFEAF346C01E
:103AA000E9FF47C0EAFF0A0EEB500301EA6AE92585
:103AB000E96EEA51EA22E552E750EF6E46C0E9FFAF
:103AC00047C0EAFFE9CFE9F3EACFEAF3E9C3E6FF4B
:103AD000EAC3E6FF280EE66E46C0E9FF47C0EAFFEC
:103AE0000A0EEB50010FE66E9FEC22F044E946C04F
:103AF000E9FF47C0EAFF0A0EE926000EEA22EF6A54
:103B000036D046C0E9FF47C0EAFF0E0EEB50030176
:103B1000E96F010E0301E95D2AE346C0E9FF47C0F2
:103B2000EAFF0E0EEB50076E46C0E9FF47C0EAFF02
:103B30000D0EEB50086E46C0E9FF47C0EAFF0B0EC2
:103B4000EB50096ED950070FE66EDACFE6FF290E6B
:103B5000E66E030EE66E9FEC22F044E946C0E9FFF4
:103B600047C0EAFF0E0EE926000EEA22EF6A055072
:103B700013E046C0E9FF47C0EAFFE9CFE9F3EACF27
:103B8000EAF3E9C3E6FFEAC3E6FF2A0EE66EE66A59
:103B90009FEC22F044E9056A4AE9E7CFD9FF120019
:103BA000D9CFE6FFE1CFD9FF83E900EB46F001EB87
:103BB00047F046C0E9FF47C0EAFF0A0EE926000EBB
:103BC000EA22EF6A46C0E9FF47C0EAFF0B0EE9268A
:103BD000000EEA22EF6A46C0E9FF47C0EAFF0C0E7A
:103BE000E926000EEA22050EEF6E46C0E9FF47C047
:103BF000EAFF0E0EE926000EEA22EF6A41E9E7CF5E
:103C0000D9FF1200D9CFE6FFE1CFD9FF82E9948630
:103C1000948800EBC8FFC76AC66AC56A0E0EC61252
:0E3C2000C78EC580C68A41E9E7CFD9FF1200E2
:023C2E008B9E6B
:103C3000050EE66E77EC2EF041E98B8E5FEC2EF0F0
:103C40008A98420EE66EF1EC2CF041E90A0EE66E1F
:103C5000F1EC2CF041E9280EE66EF1EC2CF041E994
:103C60008A888A98400EE66EF1EC2CF041E9010E4C
:103C7000E66EF1EC2CF041E9E66AF1EC2CF041E95A
:103C80008A888A98400EE66EF1EC2CF041E9E66AEB
:103C9000F1EC2CF041E9E66AF1EC2CF041E98A887C
:103CA0001200D9CFE6FFE1CFD9FF83E9050EE66E1A
:103CB00077EC2EF041E98A98400EE66EF1EC2CF09C
:103CC00041E901EBE6FFF1EC2CF041E900EBE6FF06
:103CD000F1EC2CF041E98A8841E9E7CFD9FF1200E5
:103CE000D9CFE6FFE1CFD9FF81E942E8016A026A54
:103CF0009EDF0000030EE66E120EE66ED2DF42E992
:103D0000030EE66E56D841E9230EE66E120EE66EFD
:103D1000C8DF42E9230EE66E03D941E93F0EE66EA5
:103D2000130EE66EBEDF42E9030EE66E42D841E9AD
:103D3000E66AF6D841E990D843E9E7CFD9FF120007
:103D4000D9CFE6FFE1CFD9FF83E941E8030E0014A4
:103D5000036E200E0310E66E120EE66EA2DF42E93D
:103D6000400E0110E66E130EE66E9BDF42E903EB98
:103D7000E6FF1FD841E942E9E7CFD9FF1200D9CFCA
:103D8000E6FFE1CFD9FF82E9230EE66E120EE66E62
:103D900088DF42E9B80E0010E66E130EE66E81DF92
:103DA00042E9030EE66E05D841E941E9E7CFD9FFC4
:103DB0001200D9CFE6FFE1CFD9FF82E9300E001023
:103DC000E66E120EE66E6DDF42E9020EE66E77ECED
:103DD0002EF041E9200E0010E66E120EE66E61DF55
:103DE00042E941E9E7CFD9FF1200010EC96EC7A031
:103DF000FED7C95000D01200D9CFE6FFE1CFD9FFDE
:103E000083E941E8036A00EBE6FFB9DF41E9400ED0
:103E1000015C0EE2020E036E020EE66E01EBE6FF9F
:103E20008FDF42E9010EE66EE66A8ADF42E90ED0D4
:103E3000010E036E020EE66EE66A82DF42E9010EB3
:103E4000E66E400E015CE66E7BDF42E9035000D077
:103E500042E9E7CFD9FF1200D9CFE6FFE1CFD9FF82
:103E600081E944E8016A026A046A080E045C25E2FA
:103E700004EBE6FFE66AC0DF42E9036A0350030190
:103E8000E96FEA6B800E0301D890EABF03D0E95DC9
:103E9000000EEA5910E2400E035C06E2020EE66EE6
:103EA000E66A13D842E905D0010EE66EE66A0DD83F
:103EB00042E9032AE3D7042AD8D7E66AE66A9CDFF8
:103EC00042E945E9E7CFD9FF1200D9CFE6FFE1CFBC
:103ED000D9FF83E942E8030E0014036E240E031099
:103EE000E66E120EE66EDDDE42E900014E5100087C
:103EF00007E2011CE66E130EE66ED3DE42E906D041
:103F000001EBE6FF130EE66ECCDE42E9200E031055
:103F10000409E66E4EDF41E943E9E7CFD9FF12001D
:103F2000D9CFE6FFE1CFD9FF82E9230EE66E120E6C
:103F3000E66EB7DE42E9C00E0010E66E130EE66EC6
:103F4000B0DE42E9030EE66E34DF41E941E9E7CF36
:103F5000D9FF1200D9CFE6FFE1CFD9FF81E941E8CF
:103F6000016AE668010EE66E9CDE42E9280EE66E06
:103F7000120EE66E96DE42E92B0EE66E1ADF41E97E
:103F80008A98410EE66EF1EC2CF041E9130EE66ED4
:103F9000F1EC2CF041E9C7A0FED7D6EC2DF0016E74
:103FA0008A88E66A010EE66E7CDE42E9015000D0A6
:103FB00042E9E7CFD9FF1200D9CFE6FFE1CFD9FF21
:103FC00084E943E80150F80BE842E842E842046E15
:103FD0000150070B056E010E001405EBF3FF0552AF
:103FE00004E0D890E836F306FCE1066E01EBE6FF4C
:103FF00002EBE6FF01DF42E9E66E06EBE6FF65DF76
:1040000042E944E9E7CFD9FF1200D9CFE6FFE1CF7B
:10401000D9FF85E942E8056A066A0350015CD89039
:1040200006BE03D0055C000E065810E2010EE66ED7
:104030000250F36EF46AF3500524E66E03EBE6FFDC
:10404000BBDF43E9052A000E0622E7D743E9E7CFA5
:10405000D9FF1200D9CFE6FFE1CFD9FF84E944E8C8
:10406000046A020E056E010E066EF250100B01E09E
:10407000010E076EF2980001010E4F6F005009E02B
:104080000050040806E30004E824E66EE66AB4DEA5
:1040900042E9046A046A100E045C57E2080E045CEC
:1040A00003E2020E056E02D0010E056E04500124DB
:1040B000E96E000E0220EA6EEFCFE9F3410E030134
:1040C000E95D1EE304500124E96E000E0220EA6E51
:1040D000EF505A080CE204500124E96E000E022051
:1040E000EA6EEFCFEAF3610E0301EA5D09E30450E3
:1040F0000124E96E000E0220EA6EEF507A080AE20F
:1041000004500124E96E000E0220EA6EEF502008F0
:1041100001E0066A06500FE005EBE6FF010EE66ED1
:1041200004500124E96E000E0220EA6EEFCFE6FF94
:1041300017D843E908D005EBE6FF010EE66E200E26
:10414000E66E0ED843E9042AA6D700014F6B07504C
:10415000E8B0F288E8A0F29845E9E7CFD9FF12006D
:10416000D9CFE6FFE1CFD9FF84E943E8046A056AC5
:10417000410E025C31E302505A082EE3410E025C0C
:10418000056E00EBE6FFE66AA0DE42E9046A060E71
:10419000045C1CE200EBE6FF0550060DF3CFE9F3EB
:1041A000F4CFEAF3080E0301E927530E0301EA23D3
:1041B00004500301F76AE925F66EEA51F722080078
:1041C000F5CFE6FF82DE42E9042AE1D700EBE6FF05
:1041D000E66A7BDE42E943D0610E025C31E30250C5
:1041E0007A082EE3610E025C056E00EBE6FFE66ADC
:1041F0006CDE42E9046A060E045C1CE200EBE6FF9A
:104200000550060DF3CFE9F3F4CFEAF3A40E030152
:10421000E927530E0301EA2304500301F76AE92555
:10422000F66EEA51F7220800F5CFE6FF4EDE42E9CE
:10423000042AE1D700EBE6FFE66A47DE42E90FD049
:10424000200E026E02500BE0046A080E045C07E2C6
:1042500000EBE6FFE66A39DE42E9042AF6D744E9D4
:06426000E7CFD9FF1200B8
:0A426600D9CFE6FFE1CFD9FF83E9CD
:1042700041E800EBE9FF01EBEAFF340EE926000E0E
:10428000EA22EF6A00EBE9FF01EBEAFF350EE926CF
:10429000000EEA22EF6A036A040E035C17E200EBE9
:1042A000E9FF01EBEAFFE9CFE9F3EACFEAF30350D4
:1042B0000D0D03010301E951F324E96E030103012C
:1042C000EA51F420EA6EEF6A032AE6D742E9E7CF23
:1042D000D9FF1200D9CFE6FFE1CFD9FF87E945E842
:1042E00003500A6E0B6A04EBE9FF05EBEAFF340E9C
:1042F000E926000EEA22EF50076E04EBE9FF05EB1A
:10430000EAFFE9CFE9F3EACFEAF307500D0D030125
:10431000F350E925086EF450EA21096E08EBE9FF35
:1043200009EBEAFFEF5002E0FF0E4AD008EBE9FF8D
:1043300009EBEAFFEE5203EBEFFF08EBE9FF09EBB5
:10434000EAFF020EE926000EEA2202EBEFFF0AEB7B
:10435000E6FF0BEBE6FF00EBE6FF01EBE6FF08EB09
:10436000E9FF09EBEAFF030EE926000EEA22E9CF96
:10437000E9F3EACFEAF3E9C3E6FFEAC3E6FF20EC9C
:104380002AF046E904EBE9FF05EBEAFF340EE926E3
:10439000000EEA22EF28030BE66E04EBE9FF05EBC3
:1043A000EAFF340EE926000EEA22E552E750EF6EEE
:1043B00008EBE9FF09EBEAFF010EEF6E010E00D0FA
:1043C00046E9E7CFD9FF1200D9CFE6FFE1CFD9FF09
:1043D00088E945E805EBE9FF06EBEAFF350EE9263B
:1043E000000EEA22EF50086E05EBE9FF06EBEAFF4C
:1043F000E9CFE9F3EACFEAF308500D0D0301F350DA
:10440000E925096EF450EA210A6E09EBE9FF0AEB8F
:10441000EAFFEF045CE109EBE9FF0AEBEAFFEE5289
:10442000EF50045C02E2FD0E54D009EBE9FF0AEB09
:10443000EAFFEE52EF500B6E0C6A0BEBE6FF0CEB53
:10444000E6FF09EBE9FF0AEBEAFF030EE926000E9F
:10445000EA22E9CFE9F3EACFEAF3E9C3E6FFEAC3E8
:10446000E6FF00EBE6FF01EBE6FF20EC2AF046E971
:1044700005EBE9FF06EBEAFF350EE926000EEA221E
:10448000EF28030BE66E05EBE9FF06EBEAFF350EBE
:10449000E926000EEA22E552E750EF6E09EBE9FF4C
:1044A0000AEBEAFF020EE926000EEA22EF50E66E62
:1044B00002EBE9FF03EBEAFFE552E750EF6E09EB91
:1044C000E9FF0AEBEAFFEF6A0B5003D002D0FC0EC3
:1044D00000D046E9E7CFD9FF1200D9CFE6FFE1CF00
:1044E000D9FF85E900EBE6FF01EBE6FF02EBE6FF13
:1044F00003EBE6FF6C0EE66E0E0EE66EEBDE46E9B3
:1045000000D041E9E7CFD9FF1200D9CFE6FFE1CFD4
:10451000D9FF86E900EBE6FF01EBE6FF02EBE6FFE1
:1045200003EBE6FF04EBE6FF6C0EE66E0E0EE66EA6
:104530004BDF47E900D041E9E7CFD9FF1200D9CFDF
:10454000E6FFE1CFD9FF85E900EBE6FF01EBE6FFEF
:1045500002EBE6FF03EBE6FF360EE66E0E0EE66EAE
:10456000B9DE46E900D041E9E7CFD9FF1200D9CF43
:10457000E6FFE1CFD9FF86E900EBE6FF01EBE6FFBE
:1045800002EBE6FF03EBE6FF04EBE6FF360EE66E1A
:104590000E0EE66E19DF47E900D041E9E7CFD9FFFB
:1045A0001200D9CFE6FFE1CFD9FF85E900EBE6FFA6
:1045B00001EBE6FF02EBE6FF03EBE6FF000EE66E23
:1045C0000E0EE66E87DE46E900D041E9E7CFD9FF5F
:1045D0001200D9CFE6FFE1CFD9FF86E900EBE6FF75
:1045E00001EBE6FF02EBE6FF03EBE6FF04EBE6FF81
:1045F000000EE66E0E0EE66EE7DE47E900D041E9FA
:10460000E7CFD9FF1200D9CFE6FFE1CFD9FF85E987
:1046100000EBE6FF01EBE6FF02EBE6FF03EBE6FF54
:10462000970EE66E000EE66E55DE46E900D041E9D3
:10463000E7CFD9FF1200D9CFE6FFE1CFD9FF86E956
:1046400000EBE6FF01EBE6FF02EBE6FF03EBE6FF24
:1046500004EBE6FF970EE66E000EE66EB5DE47E968
:1046600000D041E9E7CFD9FF1200D9CFE6FFE1CF73
:10467000D9FF85E900EBE6FF01EBE6FF02EBE6FF81
:1046800003EBE6FF600EE66E000EE66E23DE46E903
:1046900000D041E9E7CFD9FF1200D9CFE6FFE1CF43
:1046A000D9FF86E900EBE6FF01EBE6FF02EBE6FF50
:1046B00003EBE6FF04EBE6FF600EE66E000EE66E2F
:1046C00083DE47E900D041E9E7CFD9FF12000001BE
:1046D000966B6C0EE66E0E0EE66EC5DD42E9360E8A
:1046E000E66E0E0EE66EBFDD42E9000EE66E0E0EC1
:1046F000E66EB9DD42E9970EE66E000EE66EB3DDBA
:1047000042E9600EE66E000EE66EADDD42E9120093
:10471000D38E03001200D9CFE6FFE1CFD9FF83E9A2
:1047200000EBE9FF01EBEAFFE9CFE9F3EACFEAF3B7
:1047300000EBE9FF01EBEAFF350EE926000EEA2265
:10474000EF500D0D03010301E951F324E96E03015C
:104750000301EA51F420EA6EEF5000D041E9E7CFBF
:10476000D9FF12000001965101E129D0F6EC28F0A2
:10477000F3CFE9F3F4CFEAF30301E951EA1101E0E1
:104780001ED0D4EC28F0F3CFE9F3F4CFEAF3030121
:10479000E951EA1101E113D0360EE66E0E0EE66E17
:1047A000BADF42E9000901E00AD06C0EE66E0E0E97
:1047B000E66EB1DF42E9000901E001D0A9DF120095
:1047C00010EC29F0F3CFE9F3F4CFEAF30301E95158
:1047D000EA1101E11FD00001010E966F360EE66E60
:1047E0000E0EE66E98DF42E9000903E00001966BC9
:1047F00011D06C0EE66E0E0EE66E8DDF42E90009FA
:1048000003E00001966B06D00A0EE66E16EC2EF061
:0648100041E9E4D71200AB
:0A481600D9CFE6FFE1CFD9FF81E919
:104820007AE8046A056A066A076A086A156A166AF7
:10483000176A186A030E936E230E926E100E946E12
:104840008A8A1BEBE6FF1CEBE6FF19EBE6FF1AEB8F
:10485000E6FF47EC16F044E970EC1EF0B5EC10F002
:104860002BEBE6FF2CEBE6FF29EBE6FF2AEBE6FF5E
:1048700027EBE6FF28EBE6FF25EBE6FF26EBE6FF5E
:1048800023EBE6FF24EBE6FF21EBE6FF22EBE6FF5E
:104890001FEBE6FF20EBE6FF1DEBE6FF1EEBE6FF5E
:1048A0006CEC14F050E9A1EC2CF067EC23F06C0EEA
:1048B000D36E9B8C910EE66E29EC2DF041E9CDEC88
:1048C00028F0E66AE9EC10F041E9E0EC23F0D95079
:1048D0002D0FE66EDACFE6FFD950110FE66EDACF74
:1048E000E6FF0A0EE66EB7EC22F045E90F6E0F34D4
:1048F00016E3FC0E0F5C12E00FEBE9F30301EA6B29
:10490000E9BFEA69E9C3E6FFEAC3E6FF9F0EE66E88
:10491000560EE66EE66A6FEC2CF045E90BD11150AD
:10492000500A01E1A0D0160A01E189D07A0A01E11A
:1049300085D00B0A01E17DD0050A01E179D0040A96
:1049400071E0030A69E0010A61E0070A59E0190A07
:104950004CE0020A20E0010A1EE0230A01E0DED05A
:10496000D9502D0FE66EDACFE6FF0FEBE9F3030126
:10497000EA6BE9BFEA69E9C3E6FFEAC3E6FF115063
:10498000E66EE66AD950380FE66EDACFE6FF44EC01
:104990002EF048E9CFD01150E66EE66A830EE66E3F
:1049A000560EE66EE66A6FEC2CF045E9036A0F508E
:1049B000035C1AE20301D9502D0FE96FDACFEAF355
:1049C00003500301EA6AE925E96EEA51EA22EF5051
:1049D000E66EE66A7F0EE66E560EE66EE66A6FECEF
:1049E0002CF045E9032AE3D7A5D06F0EE66E560EEC
:1049F000E66EE66A6FEC2CF043E9020E0F6E9AD079
:104A0000010EE66E3CEC13F041E994D0020EE66E26
:104A10003CEC13F041E98ED0030EE66E3CEC13F053
:104A200041E988D0040EE66E3CEC13F041E982D0F7
:104A300081D0E66A3CEC13F041E97CD07BD02EEBD0
:104A4000E6FF2DEBE6FFD5EC12F042E9D9502D0F31
:104A5000E66EDACFE6FF460EE66E030EE66E35EC46
:104A600023F044E967D0D950090FE66EDACFE6FFAC
:104A7000D0EC25F042E9EDEC09F0D8900A5004E6BC
:104A8000000E095C020E0A5802E28B8401D08B945E
:104A9000D950140FE66EDACFE6FFD950110FE66E4B
:104AA000DACFE6FF010EE66E4DEC23F045E9106E1D
:104AB000FC0E105C03E0FD0E0F5C01E12ED0500EE9
:104AC000145C25E10001056B016A026A080ED890AA
:104AD00002BE03D0015C000E025812E20150E8242D
:104AE000E66E00010551052BEA6A000FE96E010E22
:104AF000EA22E552E750EF6E012A000E0222E6D7C5
:104B0000052AE66AF7EC0CF041E98B7004D04C0EF4
:104B1000145C01E18B727AEC0EF00CD01150E66E51
:104B2000E66A430EE66E560EE66EE66A6FEC2CF011
:104B300045E900D0D9502D0FE66EDACFE6FFD95007
:104B4000110FE66EDACFE6FF0A0EE66E85EC22F074
:104B500045E90F6E0F3416E3FC0E0F5C12E00FEB0D
:104B6000E9F30301EA6BE9BFEA69E9C3E6FFEAC3D7
:104B7000E6FF160EE66E560EE66EE66A6FEC2CF059
:104B800045E908D011501E0A04E0150A01E001D0E1
:0E4B900001D000D09AD67BE9E7CFD9FF120002
:024B9E00120003
:104BA000D9CFE6FFE1CFD9FF83E90FEC00F007ECA6
:104BB00000F0000901E0FBD76BEC2EF0F3CFE9F336
:104BC000F4CFEAF300EBE9FF01EBEAFFE9C3EEFF04
:104BD000EAC3EDFF010EE66E16EC2EF041E941E965
:104BE000E7CFD9FF1200D9CFE6FFE1CFD9FF84E9A3
:104BF000C36AC46AFF0EE66EE66A3F0EE66E7F0E7B
:104C00000014FC0BE66ED10EE66EB6EC2BF045E917
:104C100000EBE6FFBEEC2DF041E90FEC00F00E01D9
:104C2000AD5101E1FCD701EBE9FF02EBEAFFAECEAB
:104C3000EEFFAFCEEDFF41E9E7CFD9FF1200D9CFAC
:104C4000E6FFE1CFD9FF83E9D70EE66E00EBE6FF82
:104C500001EBE6FFC8DF43E941E9E7CFD9FF1200E6
:104C6000D9CFE6FFE1CFD9FF81E948E80E01AD6B6E
:104C700000014A51000850E200014F514DE19FEC04
:104C80002AF0040A2EE0070A1FE0010A10E0030AD6
:104C900001E034D0D950030FE66EDACFE6FF330ED1
:104CA000E66E020EE66E9FEC22F044E934D0D95055
:104CB000030FE66EDACFE6FF340EE66E020EE66E06
:104CC0009FEC22F044E927D0D950030FE66EDACFEB
:104CD000E6FF350EE66E020EE66E9FEC22F044E92A
:104CE0001AD0D950030FE66EDACFE6FF360EE66E25
:104CF000020EE66E9FEC22F044E90DD0D950030F6E
:104D0000E66EDACFE6FF370EE66E020EE66E9FEC39
:104D100022F044E900D015D000014F5112E1030EFA
:104D200000014B5D0EE3D950030FE66EDACFE6FFCC
:104D3000370EE66E020EE66E9FEC22F044E90001AB
:104D40004B6B00014B2BE6EC2AF000014A6F870EFB
:104D5000E66ED950010FE66EDACFE6FF44DF43E995
:104D600081EB03F08F0EE66ED950010FE66EDACFBD
:104D7000E6FF39DF43E981EB04F0D950030FE66E1B
:104D8000DACFE6FF3C0EE66E020EE66E9FEC22F0F6
:104D900044E9000EE66EE66AA6EC2DF042E9D95031
:104DA000010FE66EDACFE6FFD950070FE66EDACFD5
:104DB000E6FF020EE66E1BEC23F045E9056E066A7F
:104DC000E8BE0668020E051801E106500CE1D95054
:104DD000010FE66EDACFE6FF0A0EE66E020EE66E11
:104DE0009FEC22F044E949E9E7CFD9FF1200D9CF7F
:104DF000E6FFE1CFD9FF81E944E88EEC2DF0F350D6
:104E0000016EF450026E000EE66EE66A0B0EE66E60
:104E1000E66A6DEC22F044E9000EE66EE66A76EC96
:104E20002DF042E945E9E7CFD9FF1200D9CFE6FFDF
:104E3000E1CFD9FF81E944E8016A026A036A046AA2
:104E4000C450036E046A030103EBEAF3E96BC35039
:104E50000301E911016EEA51026E01EBAEFE02EBB5
:104E6000AFFE0E01010EAD6F45E9E7CFD9FF12008D
:0C4E7000AECEF3FFAFCEF4FF00D0120076
:044E7C0042E8D9CF60
:104E8000E6FFDACFE6FFE1CFD9FFE2CFDAFF86E92E
:104E9000036A1200F3DF038003D0F0DF01D0038246
:104EA000026A080EE76ED890013602360050025CA6
:104EB00002E3026E012AE72EF7D703B2120003B015
:104EC00081EB00F003A082EB00F0E552E5CFDAFFC2
:104ED000E7CFD9FF43E9120044E8D9CFE6FFDACFA4
:104EE000E6FFE1CFD9FFE2CFDAFF8EE980EB08F0F1
:104EF00081EB09F082EB0AF083EB0BF0045008021F
:104F0000F350006EF450016E04500902F350012674
:104F1000000EF420026E04500A02F3500226000E26
:104F2000F420036E04500B02F350032605500802D0
:104F3000F3500126F4500222000E0322055009020C
:104F4000F3500226F450032205500A02F3500326C0
:104F500006500802F3500226F450032206500902BC
:104F6000F350032607500802F3500326E552E5CF1D
:104F7000DAFFE7CFD9FF48E9000C45E8D9CFE6FFD3
:104F8000DACFE6FFE1CFD9FFE2CFDAFF8FE90C6A93
:104F90001200F3DF0C8003D0F0DF01D00C820B6A2B
:104FA0000A6A096A086A200EE76ED8900436053648
:104FB00006360736083609360A360B360050085CC6
:104FC0000150095802500A5803500B5809E3005089
:104FD000085E0150095A02500A5A03500B5A042A1B
:104FE000E72EE4D70CB212000CB00AD088EB00F028
:104FF00089EB01F08AEB02F08BEB03F00CA008D0F8
:1050000084EB00F085EB01F086EB02F087EB03F018
:0E501000E552E5CFDAFFE7CFD9FF49E91200FC
:02501E00D9CFE8
:10502000E6FFE1CFD9FF85E944E801D054D000EB99
:10503000E6FF01EBE6FF02EBE6FF03EBE6FF280EDF
:10504000E66EE66AE66AE66A6CEC27F0E552E5CFC2
:10505000ECF3E5CFEBF3E5CFEAF3E7CFE9F30301B8
:10506000E951056EEA51066EEB51076EEC51086E80
:10507000D950050FE96EDACFEAFFAF0EEE5E000EF3
:10508000EE5A000EEE5A000EEE5A083408E20550B1
:105090002D08000E0654000E0754000E085401E3BC
:1050A0001AD0083408E205500008000E0654000E1D
:1050B0000754000E08540FE20000D950050FE96EA6
:1050C000DACFEAFF2A0EEE5E000EEE5A000EEE5A1E
:1050D000000EEE5AE6D745E9E7CFD9FF1200D9CF47
:1050E000E6FFE1CFD9FF83E944E800EBE6FF01EBFF
:1050F000E6FFE66AE66AA00EE66E0F0EE66EE66A68
:10510000E66A6CEC27F0E552E5CFECF3E5CFEBF384
:10511000E5CFEAF3E7CFE9F30301E951036EEA5182
:10512000046EEB51056EEC51066ED950030FE96E1B
:10513000DACFEAFFAA0EEE5E000EEE5A000EEE5A2D
:10514000000EEE5A063408E20350C308000E045461
:10515000000E0554000E065402E31BD01AD006348C
:1051600008E203500008000E0454000E0554000E1F
:1051700006540FE20000D950030FE96EDACFEAFFC0
:10518000270EEE5E000EEE5A000EEE5A000EEE5A9C
:0A519000E6D745E9E7CFD9FF12008A
:06519A00D08EF28EF28CB3
:1051A000F28C9E9C9D8C1200F250800B800A01E0D4
:1051B000010E0301E96FEA6B800B01E0EA69E9C3C4
:1051C000F3FFEAC3F4FF00D01200F250400B400A94
:1051D00001E0010E0301E96FEA6B800B01E0EA696F
:1051E000E9C3F3FFEAC3F4FF00D01200F2AC05D02C
:1051F000000EF36EF46A13D012D0D6DFF3CFE9F3CA
:10520000F4CFEAF30301E951EA1105E0000EF36E71
:10521000F46A05D004D0010EF36EF46A00D01200D7
:10522000E5DFF3CFE9F3F4CFEAF30301E951EA1143
:105230000EE1BADFF3CFEBF3F4CFECF30301EB5164
:10524000EC1105E1010EF36EF46A05D004D0000EF6
:10525000F36EF46A00D01200DACFE4FFE2CFDAFF97
:10526000E9CFE4FFEACFE4FFD9CFE4FFDACFE4FFF0
:10527000F6C3E4FFF7C3E4FFF8C3E4FFF9C3E4FFB8
:10528000F6CFE4FFF7CFE4FFF5CFE4FFF3CFE4FF81
:10529000F4CFE4FFFACFE4FF03EEE9F0080EE804F0
:1052A00003E3EECFE4FFFBD7E652F2A403D0F2947F
:1052B00030EC26F0B2EC23F0E55203EEF0F0080EED
:1052C000E80403E3E5CFEDFFFBD7E5CFFAFFE5CF39
:1052D000F4FFE5CFF3FFE5CFF5FFE5CFF7FFE5CF2F
:1052E000F6FFE5CFF9F3E5CFF8F3E5CFF7F3E5CF38
:1052F000F6F3E5CFDAFFE5CFD9FFE5CFEAFFE5CF5B
:08530000E9FFE5CFDAFF11001F
:085308007C1211127C007F49A8
:10531000494936003E41414122007F4141413E0022
:105320007F49494941007F09090901003E41415136
:1053300073007F0808087F0000417F410000204083
:10534000413F01007F08142241007F40404040005F
:105350007F021C027F007F0408107F003E41414114
:105360003E007F09090906003E4151215E007F0988
:105370001929460026494949320003017F010300EB
:105380003F4040403F001F2040201F003F4038402A
:105390003F00631408146300030478040300615998
:1053A000494D43002054547840007F28444438003D
:1053B000384444442800384444287F003854545426
:1053C000180000087E09020018A4A49C78007F0839
:1053D0000404780000447D4000002040403D00006F
:1053E0007F102844000000417F4000007C047804C6
:1053F00078007C0804047800384444443800FC18E1
:105400002424180018242418FC007C080404080034
:1054100048545454240004043F4424003C40402099
:105420007C001C2040201C003C4030403C004428B4
:10543000102844004C9090907C004464544C4400EC
:10544000D9CFE6FFDACFE6FFFA0EE3CFD9FFFB0EA6
:10545000E3CFDAFFFC0EE3CFE9FFFD0EE3CFEAFF77
:10546000E9CFF3FFEACFF4FFF80EE35003E1F90EC2
:10547000E35008E0F80EE30602E2F90EE306DECFA1
:10548000EEFFF2D7FF0EE3CFDAFFE552FF0EE3CFD8
:10549000D9FFE5521200D9CFE6FFDACFE6FFFA0EC8
:1054A000E3CFD9FFFB0EE3CFDAFFFC0EE3CFE9FF3A
:1054B000FD0EE3CFEAFFE9CFF3FFEACFF4FFDECF43
:1054C000EFFFEE66FCD7FF0EE3CFDAFFE552FF0EEB
:1054D000E3CFD9FFE5521200FE0EE3CFE9FFFF0E46
:1054E000E3CFEAFFF36AF46AEE5203E0F34AF42AE8
:1054F000FBD71200FF0EE3CFF8FFE552FF0EE3CF1C
:10550000F7FFE552FF0EE3CFF6FFE552E66AE66AE3
:10551000E66A0900F55209E0FD0EE32A05E1FE0EF8
:10552000E32A02E1FF0EE32AF4D7FD0EE3CFF6F300
:0E553000FE0EE3CFF7F3FF0EE3CFF8F3120009
:02553E00D9CFC3
:10554000E6FFE1CFD9FF81E943E8016A026A036A15
:105550008A848A96D70EE66ED950020FE66EDACFAD
:10556000E6FFF3EC25F043E90F0ED89003BE03D01D
:10557000025C000E035803E2000E24D023D0D89022
:10558000035004E62F0E025C010E035803E2010EE5
:1055900019D018D0D890035004E6100E025C020E09
:1055A000035803E2020E0ED00DD0D890035004E64B
:1055B000D00E025C020E035803E2030E03D002D0A9
:1055C000040E00D044E9E7CFD9FF1200D9CFE6FF9F
:1055D000E1CFD9FF81E942E8016A026A8A848A86BA
:1055E000899AD70EE66ED950010FE66EDACFE6FF44
:1055F000F3EC25F043E9023404E20150F008030E15
:10560000025403E2010E03D002D0000E00D043E9A1
:06561000E7CFD9FF1200F4
:0A5616004572726F723A204261641F
:10562000206C6F77207072696F726974792072656F
:1056300063656976652C20636F6465203D2025785D
:105640000D0A004572726F723A20556E657870656A
:1056500063746564206D736720696E20717565756C
:10566000652C2074797065203D2025780D0A00494D
:10567000324320536C617665205265710D0A00201B
:1056800025780049324320496E74657272757074D2
:105690002072656365697665642025783A20004547
:1056A00072726F723A204261642068696768207084
:1056B00072696F7269747920726563656976652CA9
:0D56C00020636F6465203D2025780D0A00F1
:0256CE003E0E8E
:1056D000F66E000EF76E000EF86E00010900F55030
:1056E000F46F0900F550F56F03E1F46701D03DD088
:1056F0000900F550EF6F0900F550F06F0900F55003
:10570000F16F09000900F550E96E0900F550EA6EE5
:10571000090009000900F550F26F0900F550F36F18
:1057200009000900F6CFF6F0F7CFF7F0F8CFF8F060
:10573000EFC0F6FFF0C0F7FFF1C0F8FF0001F25331
:1057400002E1F35307E00900F550EE6EF207F8E2CC
:10575000F307F9D7F6C0F6FFF7C0F7FFF8C0F8FF78
:0C5760000001F407000EF55BBFD712003B
:04576C00D9CFE6FFAC
:10577000DACFE6FFE1CFD9FFE2CFDAFF87E9C26AED
:10578000C16A0350400DF350C00B0301E96F0340A1
:105790007F0B3C0BE911C26E0450040DF350380B23
:1057A000EA6F04380F0B070BE96F800E0414E91140
:1057B000EA11C16E01EBE9F3EA6BE9C348FF00EBC4
:1057C00049FF060EE96FC00E0214E9C3E7FFE75276
:1057D00004E0E8427F0BE706FCE10E01B86F03AE80
:1057E00003D09E9C9D8CF28CC28041E9E5CFDAFF0C
:0657F000E7CFD9FF120013
:0A57F600050ED56EF184F294F28ADC
:10580000D58E0001486B0001496B1200D9CFE6FF2D
:10581000E1CFD9FF81E945E8F29A036A046A056A93
:10582000D650016ED750026E011C01E1021C08E146
:105830000550052A0301E96F030E0301E95DF0E35A
:10584000F2A406D0032AFF0E0001485D01E1042AFC
:10585000000148510326000149510426F28A01EB58
:10586000F6F302EBF7F303EBF8F304EBF9F300D0F4
:0858700046E9E7CFD9FF120061
:08587800D9CFE6FFDACFE6FF0D
:10588000E1CFD9FFE2CFDAFF85E9013415E200EB81
:10589000E9FF01EBEAFFEECFF3FFEDCFF4FFEE2AD5
:1058A000000EEF22F3CFE9FFF4CFEAFF02EBEFFFA8
:1058B000EF50F36EF46A0DD0FE0E005C05E102EBD2
:1058C000E6FF36EC2EF004D002EBE6FF11EC00F020
:0E58D00041E941E9E5CFDAFFE7CFD9FF120049
:0258DE00D9CF20
:1058E000E6FFDACFE6FFE1CFD9FFE2CFDAFF85E9C5
:1058F00044E8D9CFE6FFDACFE6FFE552E550066E81
:10590000E750056E05EBE6FF06EBE6FF00EBE6FF72
:1059100001EBE6FF02EBE6FF4CC0E6FF4DC0E6FF01
:1059200071EC16F047E9F350076EF450086E07EB80
:10593000F3FF08EBF4FF45E9E5CFDAFFE7CFD9FF46
:02594000120053
:0E594200C090F26AF16AF06A6C0ED36E030E2A
:10595000936E200E926E100E946EC00EC76E200EC7
:10596000C66E0F0EC16E8A8A939AF292D08EF19C07
:10597000F28E1200D9CFE6FFE1CFD9FF83E941E9EA
:10598000E7CFD9FF1200D9CFE6FFE1CFD9FF85E9F4
:0A59900041E9E7CFD9FF1200120031
:06599A00D9CFE6FFDACFD1
:1059A000E6FFE1CFD9FFE2CFDAFF85E93F0EC71668
:1059B000C66A0250C6120050C7120150030A09E01D
:1059C000010A04E0020A06E1C78C04D0C78CC6882D
:1059D00001D0C688C68A41E9E5CFDAFFE7CFD9FF13
:0259E0001200B3
:0E59E200D9CFE6FFDACFE6FFE1CFD9FFE2CF63
:1059F000DAFF83E941E8C950036E9E96C69E00EB2C
:105A0000C9FFC6AE02D0FF0E03D09EA6FED7000E81
:0C5A100042E9E5CFDAFFE7CFD9FF120032
:045A1C00D9CFE6FFF9
:105A2000E1CFD9FF89E91E0E041801E1055001E11B
:105A30000CD01F0E041801E1055007E100500224AC
