:020000040000FA
:0600000028EF2BF01200B6
:020006000400F4
:060008002CEF07F01200CE
:02000E00C250DE
:08001000020B01E0010E1200D9
:060018002CEF07F01200BE
:02001E00C2829C
:020020001200CC
:020022001200CA
:020024001200C8
:020026000000D8
:02002800FEFFD9
:02002A000000D4
:02002C000000D2
:02002E000001CF
:0E00300002030405060708090A0B0C0D0E0F4B
:02003E000700B9
:100040002C0000005A00000002000000C857000009
:10005000A30E00000B0000004657000060000000E7
:1000600082000000C156000064030000850000000B
:100070002A000000580000000200000028000000D4
:10008000560000000200000026000000540000009E
:04009000020000006A
:0C009400D9CFE6FFE1CFD9FF84E941E8B5
:1000A000F250100B01E0010E046EF2988A9A0301DF
:1000B00001EBF3F302EBF4F3030ED890F433F333D4
:1000C000E804FBE17F0E0301F3158009E66E1AECEC
:1000D0002AF041E9030101EBF3F302EBF4F3050E1F
:1000E000D890F337F437E804FBE1E00E0301F31591
:1000F0001009E66E1AEC2AF041E900EBE6FF1AEC73
:100100002AF041E98A8A0450E8B0F288E8A0F2981F
:1001100042E9E7CFD9FF1200D9CFE6FFE1CFD9FFFF
:1001200083E941E8F250100B01E0010E036EF298F2
:100130008A9A01EBE6FF1AEC2AF041E900EBE6FFB0
:100140001AEC2AF041E98A8A0350E8B0F288E8A064
:10015000F29842E9E7CFD9FF1200D9CFE6FFE1CF0D
:10016000D9FF82E942E8F250100B01E0010E036E64
:10017000F2988A9A00EBE6FF1AEC2AF041E92EEC9D
:100180002AF0026E8A8A0350E8B0F288E8A0F2985A
:10019000025000D043E9E7CFD9FF1200D9CFE6FFE4
:1001A000E1CFD9FF83E942E8F250100B01E0010EE4
:1001B000046EF2988A9A030100EBF3F301EBF4F377
:1001C000030ED890F433F333E804FBE17F0E030110
:1001D000F317000E0301F417800E0301F311E66E0E
:1001E0001AEC2AF041E9030100EBF3F301EBF4F31D
:1001F000050ED890F337F437E804FBE1E00E030175
:10020000F315E66E1AEC2AF041E92EEC2AF0036EA3
:100210008A8A0450E8B0F288E8A0F298035000D02F
:1002200043E9E7CFD9FF1200D9CFE6FFE1CFD9FFED
:1002300081E943E88B9E026A036A2C0E025C010E80
:10024000035804E2022A000E0322F7D78B8E026ABB
:10025000036A2C0E025C010E035804E2022A000E0F
:100260000322F7D7070EE66E550EE66E55DF42E91C
:10027000540EE66E72DF41E9016E070E0114F8E1DB
:10028000026A036AE80E025C030E035804E2022AC3
:10029000000E0322F7D7010EE66E1B0EE66E3CDF62
:1002A00042E9E668070EE66E37DF42E9E668090EC6
:1002B000E66E32DF42E9E668030EE66E2DDF42E9C4
:1002C000E668050EE66E28DF42E9016A080E015C69
:1002D00011E201500401EA6AB725E96EB851EA2239
:1002E000EFCFE6FF0150E8240B0FE66E15DF42E981
:1002F000012AECD7030EE66EE66A020EE66ECADE4F
:1003000043E9020EE66E010EE66E020EE66EC2DEF6
:1003100043E9800EE66E020EE66E020EE66EBADE6F
:1003200043E9E66A030EE66E020EE66EB3DE43E9CB
:10033000900EE66E060EE66E020EE66EABDE43E94A
:10034000800EE66E070EE66E020EE66EA3DE43E951
:10035000100EE66E080EE66E020EE66E9BDE43E9B8
:10036000010EE66E200EE66E020EE66E93DE43E9A7
:10037000800EE66E750EE66ECFDE42E9400EE66E4A
:100380007D0EE66EC9DE42E9600EE66E7F0EE66E19
:10039000C3DE42E9980EE66E310EE66EBDDE42E93E
:1003A000950EE66E5D0EE66EB7DE42E90F0EE66E66
:1003B000020EE66EF3DE42E9016EA00E0114A00803
:1003C000F5E1E60EE66E650EE66EA6DE42E9030E88
:1003D000E66EE66A020EE66E5DDE43E9020EE66E4A
:1003E000010EE66E020EE66E55DE43E9E66ACAC409
:1003F000E6FF52EC06F042E944E9E7CFD9FF1200EC
:10040000D9CFE6FFE1CFD9FF81E942E881A0F282AE
:100410000401D7A11FD05AC0F3F35BC0F4F303016A
:10042000F56BF66BD8900301F651000A08E6800ED2
:10043000F35D000EF459000EF559000EF65906E36F
:1004400000015A6B5B6B0401D79104D000015A2B59
:10045000000E5B230401D7AB67D1010E026E0401CD
:1004600001AD026A0001136B00011B6BCC0E04018D
:100470000215016E0150080A01E1F2D0840A01E17F
:10048000C0D0040A01E184D0080A67E04C0A39E0D0
:10049000040A01E0E5D0FF0E0401065D06E1FF0E4F
:1004A0000401075D02E1000113850001138F025072
:1004B00014E004C41CF005C41DF00001080E146F04
:1004C000040E156F130E0401005D0001186F00018A
:1004D000100E166F040E176F13D008C41CF009C459
:1004E0001DF000010A0E146F040E156F150E0401A5
:1004F000005D0001186F0001120E166F040E176FD9
:10050000B2D00001138F025014E004C41CF005C4E3
:100510001DF000010E0E146F040E156F190E04016C
:10052000005D0001186F0001160E166F040E176FA4
:1005300013D00EC41CF00FC41DF00001100E146F78
:10054000040E156F1B0E0401005D0001186F000101
:10055000180E166F040E176F86D000011385000168
:10056000138F0001010E1B6F04C41CF005C41DF0A5
:100570000001060E146F040E156F0B0E0401005DD2
:100580000001186F0001080E166F040E176F6BD074
:10059000FF0E0401065D06E1FF0E0401075D02E1A6
:1005A000000113850001138F0001010E1B6F025023
:1005B00014E108C41CF009C41DF000010A0E146FF8
:1005C000040E156F0F0E0401005D0001186F00018D
:1005D0000C0E166F040E176F13D004C41CF005C464
:1005E0001DF00001080E146F040E156F0D0E0401AE
:1005F000005D0001186F00010A0E166F040E176FE0
:1006000032D00001138F0001010E1B6F025014E065
:1006100004C41CF005C41DF000010D0E146F040E7F
:10062000156F130E0401005D0001186F0001100E1C
:10063000166F040E176F13D00DC41CF00EC41DF0FE
:1006400000010F0E146F040E156F150E0401005DEE
:100650000001186F0001120E166F040E176F03D001
:1006600069D8000E63D0040101A732D0060EF66EE1
:10067000000EF76E0800F550010A19E0050A13E0B4
:10068000030A11E0040A0BE0050A09E0040A03E08A
:10069000070A01E010D0150E0001185F0DD00D0EF5
:1006A0000001185F09D0090E0001185F05D0050E82
:1006B0000001185F01D000D0050E000116250001D1
:1006C000166F000E000117210001176F000113873C
:1006D000070E040101150DE0030A07E0020A01E01C
:1006E0000CD00001139113930BD0000113811393CD
:1006F00007D000011381138303D01CD8000E16D03D
:1007000004010005EA6A000FE96E040EEA22EFCF49
:100710001AF004010051EA6A000FE96E040EEA22A1
:10072000EFCF19F0010E02D0000E00D043E9E7CF61
:10073000D9FF12000401D79B1200D9CFE6FFE1CF09
:10074000D9FF8BE94CE80C6A0D6AD950030FE96EAA
:10075000DACFEAFFEF50040B02E0010E066ED9502B
:10076000030FE96EDACFEAFFEF50080B01E0076AEA
:10077000D950030FE96EDACFEAFFEF50030B0108FF
:1007800003E1030E0D6E0BD0D950030FE96EDACFE3
:10079000EAFFEF50030B000902E1010E0D6E0401A8
:1007A000CB51081802E1CC5109180BE10401CB1D13
:1007B00001E1CC1D06E0050E0B6E0D8C010E0E6ED8
:1007C00003D0070E0B6E0E6A065003E0020E0B26D6
:1007D00002D0080E0B26075003E0020E0B2602D0B3
:1007E000080E0B26D950030FE96EDACFEAFFEF505F
:1007F000080B01E00D86D950030FE96EDACFEAFF4E
:10080000EF50200B09E0D950030FE96EDACFEAFF71
:10081000EF50040B01E10D8AD950030FE96EDACFD6
:10082000EAFFEF50030B030807E10D6A070E0B6E9A
:100830000E6A010E076E039A0BEBE6FF0C500C2AB2
:10084000E66EE66A27DC43E9D950030FE96EDACF9A
:10085000EAFFEF50080B0BE00B500024050FE66E8B
:100860000C500C2AE66EE66A15DC43E909D00B5001
:100870000024E66E0C500C2AE66EE66A0BDC43E9B7
:100880000DEBE6FF0C500C2AE66EE66A4AEC00F02F
:1008900043E9D950030FE96EDACFEAFFEF50030BBB
:1008A000030815E1800EE66E0C500C2AE66EE66A2F
:1008B0004AEC00F043E90401C951C92BE66E0C5023
:1008C0000C2AE66EE66A4AEC00F043E99CD006503A
:1008D0000CE007500AE0880EE66E0C500C2AE66E1B
:1008E000E66A4AEC00F043E925D006500CE00750D8
:1008F0000AE1C80EE66E0C500C2AE66EE66A4AEC77
:1009000000F043E917D006500CE107040AE18C0E11
:10091000E66E0C500C2AE66EE66A4AEC00F043E9FB
:1009200009D0CC0EE66E0C500C2AE66EE66A4AEC54
:1009300000F043E90401C951C92BE66E0C500C2AA2
:10094000E66EE66A4AEC00F043E908EBE6FF0C507D
:100950000C2AE66EE66A4AEC00F043E909EBE6FF92
:100960000C500C2AE66EE66A4AEC00F043E9D950D6
:10097000030FE96EDACFEAFFEF50040B11E0E668EF
:100980000C500C2AE66EE66A4AEC00F043E9E66891
:100990000C500C2AE66EE66A4AEC00F043E933D0CC
:1009A00006501CE004EBE9FF05EBEAFFEFCFE6FFA2
:1009B0000C500C2AE66EE66A4AEC00F043E9042883
:1009C000E96E000E0520EA6EEFCFE6FF0C500C2A10
:1009D000E66EE66A4AEC00F043E915D00D6A080EAF
:1009E0000D5C11E20D500424E96E000E0520EA6E44
:1009F000EFCFE6FF0C500C2AE66EE66A4AEC00F0F8
:100A000043E90D2AECD70E5012E1CBC4E6FF0C509F
:100A10000C2AE66EE66A4AEC00F043E9CCC4E6FF35
:100A20000C500C2AE66EE66A4AEC00F043E90750E7
:100A300013E0CDC4E6FF0C500C2AE66EE66A4AECE1
:100A400000F043E9CEC4E6FF0C500C2AE66EE66ADD
:100A50004AEC00F043E916D00D6A080E0D5C12E274
:100A60000D500401EA6AB725E96EB851EA22EFCFCA
:100A7000E6FF0C500C2AE66EE66A4AEC00F043E909
:100A80000D2AEBD7D950030FE96EDACFEAFFEF500A
:100A9000080B52E00D6A040E0D5C11E20D50EA6A7B
:100AA000B90FE96E040EEA22EFCFE6FF0C500C2AD4
:100AB000E66EE66A4AEC00F043E90D2AECD7040141
:100AC000B92B000EBA23BB23BC23070EF66E000E13
:100AD000F76E0800F5CFE6FF0C500C2AE66EE66ACA
:100AE0004AEC00F043E90D6A100E0D5C19E20D505E
:100AF000F76A2E0FF66E000EF7220800F5CFE6FF1C
:100B00000D500301F46B800FF36F020EF423F3C357
:100B1000E6FFF4C3E6FF4AEC00F043E90D2AE4D710
:100B2000060EF66E000EF76E0800F5CFE6FF590EC2
:100B3000E66E8CEC00F042E90D6A00500D5C11E2AB
:100B40000D500124E96E000E0220EA6EEFCFE6FFA1
:100B50000C500C2AE66EE66A4AEC00F043E90D2AD6
:100B6000ECD70401D781D950030FE96EDACFEAFF41
:100B7000EF50200B0DE0D950030FE96EDACFEAFFFA
:100B8000EF50040B05E1050E0D6E0401D78304D070
:100B9000010E0D6E0401D793D950030FE96EDACF21
:100BA000EAFFEF50080B01E00D820DEBE6FF370E78
:100BB000E66E8CEC00F042E9DCEC28F046C0F3F382
:100BC00047C0F4F348C0F5F349C0F6F30301F3510D
:100BD0000F6EF451106EF551116EF651126E81A028
:100BE000F2820401D7B108D00401D7A504D00401D2
:100BF000D795000E53D050D0DCEC28F046C0F3F36C
:100C000047C0F4F348C0F5F349C0F6F30301F351CC
:100C1000136EF451146EF551156EF651166E13EBFA
:100C2000F7F314EBF8F315EBF9F316EBFAF3D950ED
:100C30000F0FE96EDACFEAFFEE500301F75D030113
:100C4000F36FEE500301F8590301F46FEE50030106
:100C5000F9590301F56FEE500301FA590301F66FDC
:100C6000D880C40E0301F355090EF455000EF55556
:100C7000000EF65510E214EC01F0CB0EE66E040EF9
:100C8000E66ECD0EE66E040EE66E85D844E90401EC
:100C9000D791000E03D0A3D7010E00D04DE9E7CFC6
:100CA000D9FF1200D9CFE6FFE1CFD9FF83E90B0EC0
:100CB000015C03E301501A0802E2000E1DD001EBB3
:100CC000CAF40B0E015C100DF3500309E66EE66AE0
:100CD000020EE66E4AEC00F043E9040EE66E6D0E7D
:100CE000E66E8CEC00F042E9E66A6D0EE66E8CEC86
:100CF00000F042E9010E00D041E9E7CFD9FF120030
:100D0000D9CFE6FFE1CFD9FF82E942E80A0EE66ECD
:100D100000EBE6FF26EC24F041E9E750036E0A0EF3
:100D2000E66E00EBE6FF23EC24F041E9E750400DCE
:100D3000F350026E0350050803E2380E02261CD061
:100D40000350040803E2300E022616D003500308B5
:100D500003E2280E022610D00350020803E2200E00
:100D600002260AD00350010803E2180E022604D01E
:100D7000035002E0100E022602EBE6FF030EE66EC1
:100D8000020EE66E4AEC00F043E9010E00D043E9A2
:100D9000E7CFD9FF1200D9CFE6FFE1CFD9FF85E930
:100DA00002EBE9FF03EBEAFFEFCFCDF40228E96E97
:100DB000000E0320EA6EEFCFCEF400EBE9FF01EB6B
:100DC000EAFFEFCFCBF40028E96E000E0120EA6EB7
:100DD000EFCFCCF4CDC4E6FF070EE66E8CEC00F04E
:100DE00042E9CEC4E6FF090EE66E8CEC00F042E963
:100DF000CBC4E6FF030EE66E8CEC00F042E9CCC4F7
:100E0000E6FF050EE66E8CEC00F042E9010E00D024
:100E100041E9E7CFD9FF1200D9CFE6FFE1CFD9FFF3
:100E200084E900EBB6F401EBB7F402EBB8F4D6CFEB
:100E3000C9F404010B0ECA6F14EC01F00401D76B66
:100E40000401010EB96FBA6BBB6BBC6B010E00D015
:100E500041E9E7CFD9FF1200D8CFE4FFE0CFE4FFAC
:100E6000E46EDACFE4FFE2CFDAFFE9CFE4FFEACFC6
:100E7000E4FF46C0E4FF47C0E4FF48C0E4FF49C0C8
:100E8000E4FFF6CFE4FFF7CFE4FFF5CFE4FFF3CFC5
:100E9000E4FFF4CFE4FFFACFE4FF03EEF3F0080E33
:100EA000E80403E3EECFE4FFFBD7E652D9CFE6FF39
:100EB000E1CFD9FF81E948E8F250100B01E147D2B8
:100EC000F250020B01E143D2F292620EE66EADECFB
:100ED00000F041E9036ED950030FE96EDACFEAFF63
:100EE000EF50010B1AE00401D79100015A6B5B6BC4
:100EF0000401D7A312D0480EE66EADEC00F041E934
:100F0000056ED950050FE96EDACFEAFFEF50010BFD
:100F100002E00401D7850401D793D950030FE96E8D
:100F2000DACFEAFFEF50080B01E16FD10401D7BB24
:100F300061D10401D7A703D15E0EE66EADEC00F0DF
:100F400041E9066E0401D79706A208D0010EE66EAD
:100F50001B0EE66E8CEC00F042E957D1060E016ED6
:100F6000010EE66E030EE66ECEEC00F042E9076E6F
:100F700007BC02D0020E0126020EE66E030EE66EDC
:100F8000CEEC00F042E9076E0C0E07140C0803E1EA
:100F9000080E012602D0020E0126026A080E025C2B
:100FA00024E2015000014D6B000F4C6F030E4D23E6
:100FB000025000014C2500014A6F000E00014D2136
:100FC00000014B6F4AC0E6FF4BC0E6FFCEEC00F0DD
:100FD00042E9E66E0250EA6ABD0FE96E040EEA22AB
:100FE000E552E750EF6E022AD9D7026A040E025C7E
:100FF00024E2015000014D6B080F4C6F030E4D238E
:10100000025000014C2500014A6F000E00014D21E5
:1010100000014B6F4AC0E6FF4BC0E6FFCEEC00F08C
:1010200042E9E66E0250EA6AC50FE96E040EEA2252
:10103000E552E750EF6E022AD9D7016A0A0E015C29
:101040002FE201500A0DF3CFE9FFF4CFEAFF000EC3
:10105000E926030EEA22080EE926000EEA22EF50E6
:10106000800B1CE0BD0EE66E040EE66E01500A0D0C
:10107000F3CFE9FFF4CFEAFF000EE926030EEA22E0
:10108000E9CF4AF0EACF4BF04AC0E6FF4BC0E6FF9B
:1010900055EC0DF044E9000901E002D0012ACED759
:1010A0000A0E015C4BE20150040DF3CFE9FFF4CFCF
:1010B000EAFF1E0EE926000EEA22EE500401C55D8D
:1010C000EE50C659EE50C759EE50C85909E2010E0C
:1010D000E66E1B0EE66E8CEC00F042E996D02ED048
:1010E000E8680401C51908E1E868C61905E1E8687F
:1010F000C71902E1E868C8190FE10150040DF3CFE8
:10110000E9FFF4CFEAFF1E0EE926000EEA22EE6A9E
:10111000EE6AEE6AEE6A12D00150040DF3CFE9FFD9
:10112000F4CFEAFF1E0EE926000EEA22C5C4EEFF48
:10113000C6C4EEFFC7C4EEFFC8C4EEFF0DD0040165
:10114000D7A90AD00401D799010EE66E1B0EE66EF0
:101150008CEC00F042E959D0040EE66E730EE66E98
:101160008CEC00F042E9E66A030EE66ECEEC00F08D
:1011700042E9020F0401006F4A0E0401005D2CE2F7
:101180000401D78B010E016E020E04010025D880E8
:1011900001541AE3015000014B6B000F4A6F030E1C
:1011A0004B234AC0E6FF4BC0E6FFCEEC00F042E91D
:1011B000E66E0150EA6A000FE96E040EEA22E5527B
:1011C000E750EF6E012AE0D7010EE66E1B0EE66EC9
:1011D0008CEC00F042E907D0010EE66E1B0EE66EC5
:1011E0008CEC00F042E9E66A730EE66E8CEC00F0DF
:1011F00042E90BD0010EE66E1B0EE66E8CEC00F0A1
:1012000042E90401D7970401D799D950030FE96E39
:10121000DACFEAFFEF50100B01E199D00401D7A11A
:1012200011D00401D789800EE66E590EE66E8CEC63
:1012300000F042E9010EE66E1B0EE66E8CEC00F04B
:1012400042E985D0060E016E010EE66E030EE66ED3
:10125000CEEC00F042E9086E08BC02D0020E012676
:10126000020EE66E030EE66ECEEC00F042E9086E6A
:101270000C0E08140C0803E1080E012602D0020E21
:101280000126026A0A0E0124025C10E202500001EB
:101290004B6B010F4A6F030E4B234AC0E6FF4BC056
:1012A000E6FFCEEC00F042E9022AECD70150000143
:1012B0004B6B0C0F4A6F030E4B234AC0E6FF4BC02B
:1012C000E6FFCEEC00F042E9026E070EF66E000E6D
:1012D000F76E0800F550025C09E0800EE66E590ECC
:1012E000E66E8CEC00F042E90401D7890401D7B91D
:1012F0002ED0016A100E015C19E20150F76A2E0F20
:10130000F66E000EF7220800F5CFE6FF015000014F
:101310004B6BB00F4A6F020E4B234AC0E6FF4BC027
:10132000E6FF4AEC00F043E9012AE4D70401D7873D
:10133000060EF66E000EF76E0800F550080DF3501D
:101340004009E66E590EE66E8CEC00F042E9F2A41C
:101350000CD0F2AA0AD0F2940001522B0001525193
:1013600002E10001532B33EC23F0A2EC29F000D072
:1013700049E9E7CFD9FFE55203EEFAF0080EE80499
:1013800003E3E5CFEDFFFBD7E5CFFAFFE5CFF4FFB1
:10139000E5CFF3FFE5CFF5FFE5CFF7FFE5CFF6FFAC
:1013A000E5CF49F0E5CF48F0E5CF47F0E5CF46F08F
:1013B000E5CFEAFFE5CFE9FFE5CFDAFFE550E5CF7E
:0813C000E0FFE5CFD8FF1000AB
:0813C80000001200D9CFE6FF7E
:1013D000E1CFD9FF81E946E800EC02F0000901E124
:1013E0001ED20001076B000100011351000107919B
:1013F000040B01E007810001000113510001079572
:10140000080B01E0078500011351030B010802E1FD
:10141000010E01D0000E00010799E8B00789000114
:10142000000113510001079B800B01E0078B0001B5
:1014300013AF04D014C00AF015C00BF01CC008F0A4
:101440001DC009F018C00EF016C00CF017C00DF04A
:10145000020E0001006F016B1AC010F019C00FF0EE
:10146000000107A9A4D10CC0E9FF0DC0EAFFEF50AD
:10147000920A01E14BD1030A01E12DD1130A01E1E6
:10148000B1D0030A01E08FD1066A010E0001EA6AB9
:101490000C25E96E0D51EA22EF500E01AC5D03E020
:1014A0009AEC03F083D10001081D01E1091D11E050
:1014B000000103510001081904E100010451000179
:1014C000091907E000010E51020803E2F20E066E50
:1014D00003D0EEEC0EF0066E030E0E01AD5D0FE0D4
:1014E000020E0E01AD5D03E1020E065C08E10E0185
:1014F000AD0508E1060406E0020E065C03E09AEC86
:1015000003F054D1065004E0060402E0000E01D0BE
:10151000010E000E000913E0000111510A0DF3CF76
:10152000E9FFF4CFEAFF000EE926030EEA22080ED7
:10153000E926000EEA22EF6AF30E066E37D10001AB
:10154000056B00010551052BEA6A000FE96E010EDB
:10155000EA22910EEF6E00010551052BEA6A000F99
:10156000E96E010EEA2206EBEFFF065002E00604E8
:1015700023E100010551052BEA6A000FE96E010E17
:10158000EA2206C0EFFF016A010E015C15E201507C
:10159000EA6AE00FE96E000EEA22EF50E66E000103
:1015A0000551052BEA6A000FE96E010EEA22E552A9
:1015B000E750EF6E012AE8D79AEC03F000010751DB
:1015C000040B01E0010EE66E010EE66E0AC0E6FFB6
:1015D0000BC0E6FF08C0E6FF09C0E6FFE66A98D93F
:1015E00047E9E4D00001056B00010551052BEA6ACB
:1015F000000FE96E010EEA22920EEF6E016A0A0EEA
:10160000015C46E201500A0DF3CFE9FFF4CFEAFF97
:10161000000EE926030EEA22080EE926000EEA2251
:10162000EF50800B33E001500A0DF3CFE9FFF4CF08
:10163000EAFF000EE926030EEA22E9CFF3F3EACF30
:10164000F4F3F3C3E6FFF4C3E6FF0AC0E6FF0BC002
:10165000E6FF2BDA44E9000919E001500A0DF3CF47
:10166000E9FFF4CFEAFF000EE926030EEA22080E96
:10167000E926000EEA22EF6A00010551052BEA6A0D
:10168000000FE96E010EEA22EF6A02D0012AB7D7F5
:101690009AEC03F00A0E015C0AE100010551052BEA
:1016A000EA6A000FE96E010EEA22F00EEF6E000109
:1016B0000751040B01E0010EE66E010EE66E0AC052
:1016C000E6FF0BC0E6FF08C0E6FF09C0E6FFE66ADA
:1016D0001FD947E96BD0010E0001EA6A0C25E96EBB
:1016E0000D51EA22EF50020A07E0020A03E0010A64
:1016F00001E008D073DB07D0000112AB02D000017B
:10170000129B01D000D09AEC03F050D0010E0001E2
:10171000EA6A0C25E96E0D51EA22EF5041E1016AB7
:101720000A0E015C3DE201500A0DF3CFE9FFF4CF50
:10173000EAFF000EE926030EEA22080EE926000E53
:10174000EA22EF50800B2AE001500A0DF3CFE9FFA7
:10175000F4CFEAFF000EE926030EEA22E9CFF3F305
:10176000EACFF4F3F3C3E6FFF4C3E6FF0AC0E6FFF3
:101770000BC0E6FF9AD944E9000910E001500A0DB8
:10178000F3CFE9FFF4CFEAFF000EE926030EEA22C9
:10179000080EE926000EEA22EF6A02D0012AC0D71D
:1017A0009AEC03F003D00001128700D027D000018B
:1017B000128716C0E9FF17C0EAFFEFCF02F0020E52
:1017C000E66E000EE66EA3CEE6FF010EE66E8BEC33
:1017D0001DF044E90001006F016B800B01E001691D
:1017E000020EE66E000EE66E500EE66E010EE66E1E
:1017F000F5EC1CF044E90001006B016B00010E5197
:101800000AE0000100011251100B05E10001000186
:101810001251200B04E0000112979AEC03F047E903
:10182000E7CFD9FF1200D9CFE6FFE1CFD9FF82E998
:1018300046E80001126B026A0A0E025C11E20250D5
:101840000A0DF3CFE9FFF4CFEAFF000EE926030EFD
:10185000EA22080EE926000EEA22EF6A022AECD7F5
:10186000D1EC28F00001056B026A0A0E025C10E25E
:101870000250040DF3CFE9FFF4CFEAFF1E0EE92674
:10188000000EEA22EE6AEE6AEE6AEE6A022AEDD7EE
:101890000001340E036F120E046FA40E046E0E0EC0
:1018A000056E038203960398039A038C00500394F9
:1018B000E8B00384039003EBE6FF04EBE6FF05EBDF
:1018C000E6FF0CEC07F043E906680768030EE66ED6
:1018D000000EE66ED950060FE66EDACFE6FFCBECCF
:1018E00006F044E9ACCEE6FF03DA41E90001066BFD
:1018F00000010681000106870E01AD39F00B0001E1
:101900000613F288010E00D047E9E7CFD9FF120095
:10191000D9CFE6FFE1CFD9FF88E948E8086A01504E
:1019200002E0010E01D0000E0301F36FD950080F41
:10193000E96EDACFEAFF0301F351030BF36EFC0EFD
:10194000EF14F310EF6E065002E0000E01D0010E0E
:10195000089AE8B0088A06500894E8B00884005055
:101960000896E8B008860C6A065002E0010E01D025
:10197000000E0B6E065002E0000E01D0010E089C16
:10198000E8B0088C088E82EB09F083EB0AF084EB58
:101990000DF085EB0EF005C0E6FF000EE66E010EC1
:1019A000E66ED950080FE96EDACFEAFFEECFE6FF18
:1019B000EECFE6FFEECFE6FFEECFE6FFEECFE6FF9F
:1019C000EECFE6FFEECFE6FF9DEC03F04AE90F6EA7
:1019D0000001056B0F5000D049E9E7CFD9FF120095
:1019E000D9CFE6FFE1CFD9FF82E900EBE6FFE66A57
:1019F000000EE66EE66A03C0E6FF04C0E6FF010ED5
:101A0000E66E86DF47E900D041E9E7CFD9FF120053
:101A1000D9CFE6FFE1CFD9FF83E901500A0DF3CF1B
:101A2000E9FFF4CFEAFF000EE926030EEA22080ED2
:101A3000E926000EEA22EF50800B19E000EBE6FFEA
:101A4000010EE66E01500A0DF3CFE9FFF4CFEAFF75
:101A5000000EE926030EEA22E9CFF3F3EACFF4F30E
:101A6000F3C3E6FFF4C3E6FF08D844E902D0000E52
:101A700000D041E9E7CFD9FF1200D9CFE6FFE1CF8F
:101A8000D9FF85E900EBE6FFE66A02EBE6FF03EB30
:101A9000E6FF03C0E6FF04C0E6FFE66A39DF47E978
:101AA00000D041E9E7CFD9FF1200D9CFE6FFE1CF5F
:101AB000D9FF85E941E8056A080E055C16E2055084
:101AC0000224E96E000E0320EA6EEFCFF3F3055017
:101AD0000024E96E000E0120EA6EEF500301F35D71
:101AE00002E0000E04D0052AE7D7010E00D042E93B
:101AF000E7CFD9FF1200D9CFE6FFE1CFD9FF87E9C1
:101B00000550020A09E0030A05E0010A01E006D0D7
:101B1000010E07D0000E05D0000E03D000D0000E3D
:101B200000D041E9E7CFD9FF1200D9CFE6FFE1CFDE
:101B3000D9FF83E94CE80E01AD51036E030E046E2C
:101B4000056A000402E1FF0ECAD0DCEC28F046C0B2
:101B5000F3F347C0F4F348C0F5F349C0F6F30301CB
:101B6000F351066EF451076EF551086EF651096E89
:101B7000D950060FE96EDACFEAFF240EEE5EF40EBE
:101B8000EE5A000EEE5A000EEE5A0E01AD6B000139
:101B90001289000112A99ED0DCEC28F046C0F3F3B4
:101BA00047C0F4F348C0F5F349C0F6F30301F3511D
:101BB0000A6EF4510B6EF5510C6EF6510D6E0AEB78
:101BC000F7F30BEBF8F30CEBF9F30DEBFAF3D95059
:101BD000060FE96EDACFEAFFEE500301F75D03016D
:101BE000F36FEE500301F8590301F46FEE50030157
:101BF000F9590301F56FEE500301FA590301F66F2D
:101C0000D880240E0301F355F40EF455000EF5555B
:101C1000000EF6555CE28AEB06F08BEB07F08CEBDE
:101C200008F08DEB09F005500506000801E2B1D778
:101C3000010E056E04500406000902E1FF0E4FD0AC
:101C40000001056B00010551052BEA6A000FE96EE2
:101C5000010EEA22810EEF6E00010551052BEA6AA2
:101C6000000FE96E010EEA22ACCEEFFF0001055134
:101C7000052BEA6A000FE96E010EEA2206C0EFFFAB
:101C80000E6A010E0E5C15E20E50EA6AE00FE96E74
:101C9000000EEA22EF50E66E00010551052BEA6ABC
:101CA000000FE96E010EEA22E552E750EF6E0E2AB0
:101CB000E8D7E66A010EE66E000EE66EE66A03C03D
:101CC000E6FF04C0E6FF010EE66E22DE47E9E6EC21
:101CD00009F05FD703EBADFE0001115100D04DE9D3
:101CE000E7CFD9FF1200000112979AEC03F012001F
:101CF000D9CFE6FFE1CFD9FF82E9E66A00EBE6FF44
:101D000052EC06F042E9000904E000EBACFE010EE3
:101D100002D0000E00D041E9E7CFD9FF1200E6EC77
:101D200009F000011251080B01E0010E00D0120071
:101D3000D9CFE6FFE1CFD9FF82E942E80A0E005C85
:101D400022E200500A0DF3CFE9FFF4CFEAFF000EC4
:101D5000E926030EEA22080EE926000EEA22EF50D9
:101D6000800B10E0026A080E025C06E2080E025CBC
:101D700001E200D0022AF7D7026A010E025C02E2F9
:101D8000022AFBD727D0026A0A0E025C23E2025025
:101D90000A0DF3CFE9FFF4CFEAFF000EE926030EA8
:101DA000EA22080EE926000EEA22EF50800B10E02E
:101DB000036A080E035C06E2080E035C01E200D031
:101DC000032AF7D7036A010E035C02E2032AFBD75A
:101DD000022ADAD743E9E7CFD9FF1200D9CFE6FFCD
:101DE000E1CFD9FF81E943E8026A0368016A0A0E7C
:101DF000015C38E201500A0DF3CFE9FFF4CFEAFFAE
:101E0000000EE926030EEA22080EE926000EEA2259
:101E1000EF50800B20E001500A0DF3CFE9FFF4CF23
:101E2000EAFF000EE926030EEA22E9CFF3F3EACF38
:101E3000F4F3F3C3E6FFF4C3E6FF0AC0E6FF0BC00A
:101E4000E6FF33DE44E9000905E081EB03F0010E13
:101E5000026E08D005D0FF0E035C02E181EB03F0B7
:101E6000012AC5D7FF0E035C03E1F10E9ED09BD083
:101E70000E01AD51010802E2025097D0016A080E2E
:101E8000015C23E201500001EA6A0A25E96E0B5168
:101E9000EA22EF50E66E03500A0DF3CFE9FFF4CFCC
:101EA000EAFF000EE926030EEA22E9CFF3F3EACFB8
:101EB000F4F301500301EA6AF325E96EF451EA22D2
:101EC000E552E750EF6E012ADAD703500A0DF3CF3F
:101ED000E9FFF4CFEAFF000EE926030EEA22080E1E
:101EE000E926000EEA22EF8E020E0001EA6A0C25B6
:101EF000E96E0D51EA22EF50010B0301F36F03501D
:101F00000A0DF3CFE9FFF4CFEAFF000EE926030E36
:101F1000EA22080EE926000EEA220301F351010B22
:101F2000F36EFE0EEF14F310EF6E016A010E015C0A
:101F300028E2030E01240001EA6A0C25E96E0D5126
:101F4000EA22EF50E66E03500A0DF3CFE9FFF4CF1B
:101F5000EAFF000EE926030EEA22090EE926000E2A
:101F6000EA22E9CFF3F3EACFF4F301500301EA6A7E
:101F7000F325E96EF451EA22E552E750EF6E012AAB
:101F8000D5D70350040DF3CFE9FFF4CFEAFF1E0EBF
:101F9000E926000EEA22EE6AEE6AEE6AEE6A03EBCA
:101FA00011F000011299025000D044E9E7CFD9FFA7
:101FB0001200D9CFE6FFE1CFD9FF82E945E8FF0E55
:101FC000005C5AE1026A0A0E025C55E202500A0DF8
:101FD000F3CFE9FFF4CFEAFF000EE926030EEA2271
:101FE000080EE926000EEA22EF50800B33E00001D4
:101FF000056B00010551052BEA6A000FE96E010E21
:10200000EA22820EEF6EE66A010EE66E02500A0DBB
:10201000F3CFE9FFF4CFEAFF000EE926030EEA2230
:10202000E9CFF3F3EACFF4F3F3C3E6FFF4C3E6FF3B
:1020300003C0E6FF04C0E6FFE66A6ADC47E9036A1C
:10204000046AFF0E035C0F0E045804E2032A000E1C
:102050000422F7D702500A0DF3CFE9FFF4CFEAFFCD
:10206000000EE926030EEA22080EE926000EEA22F7
:10207000EF6A022AA8D753D000500A0DF3CFE9FF28
:10208000F4CFEAFF000EE926030EEA22080EE92645
:10209000000EEA22EF50800B42E00001056B0001C8
:1020A0000551052BEA6A000FE96E010EEA22820E45
:1020B000EF6EE66A010EE66E00500A0DF3CFE9FFFF
:1020C000F4CFEAFF000EE926030EEA22E9CFF3F38C
:1020D000EACFF4F3F3C3E6FFF4C3E6FF03C0E6FF81
:1020E00004C0E6FFE66A14DC47E9056A066AFF0EEB
:1020F000055C0F0E065804E2052A000E0622F7D7EB
:1021000000500A0DF3CFE9FFF4CFEAFF000EE926F5
:10211000030EEA22080EE926000EEA22EF6A46E9DB
:10212000E7CFD9FF1200D9CFE6FFE1CFD9FF82E98F
:102130000050030801E20ED000EBADFE0E01AD51E0
:10214000100DF3CFF3F30F0E000106150301F31189
:0C2150000001066F41E9E7CFD9FF120043
:04215C0090DB86E9A5
:102160000150010600090CE002EBE6FF03EBE6FF7D
:1021700000EBE6FF69DBF4E1F41DF2E1010E01D0B2
:10218000000E41E9E5CFDAFFE7CFD9FF120077DB98
:1021900089E97BE80A6A0B6A02EBF6FF03EBF7FFBB
:1021A00004EBF8FF0800F550096E095001E12DD34A
:1021B000250E095C01E01BD30C6A0D6A0E6A0F6ADA
:1021C000106A2DDB2D0E095C0CE02B0E095C09E07A
:1021D000200E095C06E0230E095C03E0300E095C6A
:1021E00015E10950300A10E0130A0CE0030A08E078
:1021F0000B0A04E0060AE5E10C80E3D70C82E1D784
:102200000C84DFD70C86DDD70C88DBD72A0E095C5F
:1022100013E1A5DB0DE30C801CEBF3F31DEBF4F3F2
:102220000301F36DF41F000EF423F3510D6E02D081
:102230009CEB0DF0F4DA07D0126A3FDB02E06BDBB7
:10224000FCD792EB0DF00CB00C982E0E095C15E14A
:10225000E6DA2A0E095C08E182DB04E29CEB0EF070
:10226000010E0F6EDCDA09D0126A27DB02E053DBC5
:10227000FCD792EB0EF0010E0F6E680E095C07E1C1
:10228000CEDA680E095C1DE1030E106E19D0740ED3
:10229000095C16E07A0E095C13E0480E095C06E062
:1022A000540E095C03E05A0E095C02E1020E07D0ED
:1022B0006C0E095C03E06A0E095C03E1010E106E0E
:1022C000AEDA09506E0A01E16ED21E0A01E128D190
:1022D000200A01E125D13F0A01E1FDD01A0A01E1FE
:1022E000FAD00D0A01E1F7D0200A01E1F4D03A0A50
:1022F00001E1F1D0200A01E1EED0260A01E1EAD0A5
:102300000D0A01E1E7D01A0A01E19ED0200A3BE064
:10231000300A1AE0460A0EE0250A01E072D2D950CE
:10232000020FE96E000EDA20EA6E010EEE5E000E7C
:10233000EE5AEE5A0FDB250EE66E86DA03E1F41D47
:1023400001E159D20A2A5BD2116A0D50010803E259
:102350000D04116EF5DA115007E0010E0C1404E1C2
:102360006DDA01E048D2116AD3DAEF50096ECBDAA8
:1023700003E1F41D01E13FD20A2A000E0B225EDACE
:1023800001E13FD238D2020E105C08E1030E4EDAB2
:10239000EE50176EEE50186EEF5007D0E7DAF56B7F
:1023A000F351176EF451186EF551196E17EBE6FFE5
:1023B00018EBE6FF19EBE6FF50EC27F043E946C0C7
:1023C000F3F347C0F4F348C0F5F30301F3511C6E77
:1023D000F4511D6E0F5006E01C500E5C03E20E50CF
:1023E0001C6E1D6A1C500D5C02E29CEB0DF050DA75
:1023F00005E00D500E5C02E28EEB0DF00CB004D047
:102400001DDA01E0F8D1116A126A17EBF6FF18EB3A
:10241000F7FF19EBF8FF0800F550096E095010E0BE
:102420000D50125C0DE26FDA03E1F41D01E1E3D11E
:102430000A2A000E0B22122AD950170F55DAEBD7B1
:10244000FDD901E1DED1D7D163DAEE501A6EED503D
:102450001B6E1AEBE6FF1BEBE6FF42EC27F042E9AE
:10246000F3501C6EF4501D6E0F5006E01C500E5CB5
:1024700003E20E501C6E1D6A1C500D5C02E29CEBC8
:102480000DF006DA05E00D500E5C02E28EEB0DF069
:102490000CB004D0D3D901E0AED1116A126A1AEBA4
:1024A000E9FF1BEBEAFFEF50096E09500FE00D50FA
:1024B000125C0CE228DA03E1F41D01E19CD10A2A46
:1024C000000E0B22122A1A2A1B22E9D7B7D901E1E2
:1024D00098D191D10C8E10040AE1040EA7D9EE50C8
:1024E000136EEE50146EEE50156EEF5032D0030E98
:1024F000105C16E10CAE0CD00BDAEFCFF3F3030156
:10250000F46BF56BF66BF3AF23D0F469F5691FD06C
:10251000FFD9EFCFF3F30301F351136E146A20D008
:10252000020E105C0CE10CAE06D0030E7FD9B6D9BA
:10253000F5AF0ED00CD0030E79D9B0D909D00CAEBE
:102540000AD014DAF56BF66BF4AF02D0F569F669D0
:10255000BCD9166E07D00ADAF351136EF451146E1B
:10256000156A166A0F5002E1010E0E6E1E6A1F6A8E
:10257000D950400FE66E000EDA20E66EE552E550C7
:10258000436EE750426E416A116A0A0E106E09509E
:10259000780A12E0200A10E0280A0CE0200A0AE07B
:1025A0003F0A06E00D0A02E0200A08E1020E05D00B
:1025B000080E03D0080E0926100E106E0CBE02D0B5
:1025C0000C920C94800E0C1417E0163415E3E66898
:1025D000E668E668E66842D945EC24F0E552E5CFC6
:1025E000F6F3E5CFF5F3E5CFF4F3E7CFF3F303012B
:1025F0006CD9166E2D0E07D00CA202D02B0E03D074
:102600000CA404D0200E206E1E2A01D0206A0E5089
:1026100005E1135014101510161061E00301B00EFF
:10262000F36F560EF46F000EF56F83D9A5EC24F00E
:10263000E552E5CFF9F3E5CFF8F3E5CFF7F3E7CFD0
:10264000F6F30301F351F625F36EF451F721F46E1E
:10265000F551F821F86EF4CFF7FFF3CFF6FF08003D
:10266000F550126E580E095C05E1610E125C02E332
:10267000200E125E5ED9A2EC24F0E552E550166EF3
:10268000E550156EE550146EE750136E42EBE9FF0E
:1026900043EBEAFF4206000E435A12EBEFFF1E2AFD
:1026A0001350141015101610B9E10CA619D06F0EA6
:1026B000095C06E10E501E5C13E31E280E6E10D05E
:1026C000780E095C09E0580E095C06E0620E095CB0
:1026D00003E0420E095C04E1020E1F6E01D01E6A87
:1026E000100E0C1407E00D500E5C04E20F5002E1D6
:1026F0008DEB0EF00E501E5C03E21E500E5E01D0FC
:102700000E6A0E501E241F24D8800D5407E20E506E
:102710000D5CD8801E54D8801F54116E010E0C140D
:1027200006E1115004E08AD866E10AD9116A205006
:1027300007E010D920EBE6FF87D802E1F41D5BE04B
:102740001F500BE007D9300EE66E7ED802E1F41D73
:1027500052E0D9D802E1F41D4EE00E501F5C02E2B7
:102760001F500E5E300EE66E0EEBE6FFDCD843E146
:10277000422A000E432242EBE9FF43EBEAFFEF500F
:10278000126E125008E0E6D812EBE6FF5DD8F0E1D9
:10279000F41DEEE130D052D82EE10E501E2411244B
:1027A0001F240A262CD01050030A1CE0010A14E052
:1027B000030A07E0ADD8C9D80AEBEEFF0BEBEDFF3B
:1027C00020D08BD8F66BF4AF02D0F569F669A0D8AB
:1027D0004ED8F6C3EEFF15D080D8F4BFF56998D86F
:1027E00046D80FD095D8B1D80AEBEFFF0AD08BD8D6
:1027F00005E1F41D03E1F368F4680BD00A2A000E2A
:102800000B22D950020F70D8CDD40AEBF3FF0BEB9B
:10281000F4FF7CE9E5CFDAFFE7CFD9FF1200D9500A
:10282000020F62D80800F550096E1200005E000E1B
:10283000015A00EBE9FF01EBEAFF1200200EE66E01
:1028400011EBE6FF93EF14F012EC29F043E9F3CF1C
:10285000F3F3F4CFF4F30301F31C120013EBE6FFE0
:1028600014EBE6FF15EBE6FF16EBE6FF12006DD862
:10287000F3C3EEFFF4C3EEFFF5C3EEFF1200D9CFB2
:10288000E6FFDACFE6FFE1CFD9FFE2CFDAFF1200B1
:102890001C500D5C116E54D80F501200EECFF3F3A4
:1028A000EECFF4F3EFCFF5F30301F66B1200EECFAA
:1028B000F3F3EFCFF4F3030112000950E66EE66A7A
:1028C000DAEC2AF042E9F3501200F351136EF4519E
:1028D000146EF551156EF65112000AEBF3F30BEB83
:1028E000F4F30301F56B1200E96E000EDA20EA6ED4
:1028F000EF2AEECFF6FF000EEF22EECFF7FFEF222A
:10290000EECFF8FF120026D809EBE6FF24EF14F013
:10291000020E16EF14F00A0E1202F3500924D00F23
:10292000126E0FEF14F016D8AEEC10F044E9000967
:10293000120010EBE6FFE66AE66AE66A2EEF14F094
:1029400011500A26000E0B221200EE50EFCFEAFFC4
:10295000E96E120005EBE6FF06EBE6FF1200D8DF9A
:10296000EE501C6EED501D6E1D341200D1DF57EF7E
:0229700014F061
:0E297200D9CFE6FFE1CFD9FF82E941E9E7CFF7
:10298000D9FF1200D9CFE6FFE1CFD9FF84E941E9B1
:10299000E7CFD9FF1200D9CFE6FFE1CFD9FF82E917
:1029A00041E9E7CFD9FF1200D9CFE6FFE1CFD9FF48
:1029B00084E94EC0E9FF4FC0EAFF190EE926000E78
:1029C000EA22EF6A4EC0E9FF4FC0EAFF190EEB5052
:1029D000D880025432E24EC0E9FF4FC0EAFF190E20
:1029E000EB500024E96E000E0120EA6EEF50E66E17
:1029F0004EC0E9FF4FC0EAFF0F0EE926000EEA22A3
:102A0000E9CFF3F3EACFF4F34EC0E9FF4FC0EAFF9A
:102A1000190EEB500301EA6AF325E96EF451EA223C
:102A2000E552E750EF6E4EC0E9FF4FC0EAFF190EC6
:102A3000E926000EEA22EF2AC5D74EC0E9FF4FC0B3
:102A4000EAFF190EE926000EEA2202EBEFFF4EC064
:102A5000E9FF4FC0EAFF1A0EE926000EEA22010E36
:102A6000EF6E4EC0E9FF4FC0EAFF0F0EEB50C96E8C
:102A7000C68841E9E7CFD9FF1200D9CFE6FFE1CF01
:102A8000D9FF82E94EC0E9FF4FC0EAFF0B0EE926ED
:102A9000000EEA22010EEF6E4EC0E9FF4FC0EAFFC2
:102AA0000A0EE926000EEA22EF6A005038E0C7AAB3
:102AB0001ED04EC0E9FF4FC0EAFF0C0EE926000E03
:102AC000EA22050EEF6E4EC0E9FF4FC0EAFF0E0E80
:102AD000E926000EEA22EF2A4EC0E9FF4FC0EAFFC6
:102AE0000D0EE926000EEA22050EEF6E17D0C7A4E0
:102AF0000BD04EC0E9FF4FC0EAFF0C0EE926000ED6
:102B0000EA22080EEF6E0AD04EC0E9FF4FC0EAFF7E
:102B10000C0EE926000EEA22070EEF6E0AD04EC018
:102B2000E9FF4FC0EAFF0C0EE926000EEA22060E6E
:102B3000EF6E41E9E7CFD9FF1200D9CFE6FFE1CF31
:102B4000D9FF81E949E8026A036A046A056A066AEC
:102B5000C6AC20D0C69C4EC0E9FF4FC0EAFF0C0EA9
:102B6000E926000EEA22050EEF6E010E066E4EC03B
:102B7000E9FF4FC0EAFF0E0EE926000EEA22EF2A17
:102B80004EC0E9FF4FC0EAFF0D0EE926000EEA2213
:102B9000040EEF6EC7A004D0C950016E010E026E84
:102BA000065001E094D14EC0E9FF4FC0EAFF0C0E81
:102BB000EB50070A01E1D2D00F0A01E18DD00E0AD5
:102BC00015E0030A01E083D1C7A60FD002EBE6FFB0
:102BD00054DF41E94EC0E9FF4FC0EAFF0C0EEB5055
:102BE000080803E1026A010E056E71D1C7A82ED054
:102BF0004EC0E9FF4FC0EAFF0B0EE926000EEA22A5
:102C0000EF2A025018E0C7BA03D0010E046E13D0A9
:102C10004EC0E9FF4FC0EAFF0E0EE926000EEA2281
:102C2000EF2A4EC0E9FF4FC0EAFF0D0EE926000E65
:102C3000EA22060EEF6E4EC0E9FF4FC0EAFF0C0E0F
:102C4000E926000EEA22050EEF6E45D0025043E061
:102C50004EC0E9FF4FC0EAFF0B0EE926000EEA2244
:102C6000EF2AC7BA1BD0C7B40BD04EC0E9FF4FC084
:102C7000EAFF0C0EE926000EEA22070EEF6E0DD0D9
:102C80004EC0E9FF4FC0EAFF0C0EE926000EEA2213
:102C9000080EEF6E010E056E026A1DD04EC0E9FFF0
:102CA0004FC0EAFF0E0EE926000EEA22EF2A4EC0C0
:102CB000E9FF4FC0EAFF0C0EE926000EEA22050EDE
:102CC000EF6E4EC0E9FF4FC0EAFF0D0EE926000E81
:102CD000EA22060EEF6EFBD04EC0E9FF4FC0EAFFBE
:102CE0001A0EEB500301F36F4EC0E9FF4FC0EAFF2D
:102CF000190EEB500301F35D26E24EC0E9FF4FC011
:102D0000EAFF0F0EE926000EEA22E9CFF3F3EACF3D
:102D1000F4F34EC0E9FF4FC0EAFF1A0EEB50030177
:102D2000EA6AF325E96EF451EA22EF50C96E4EC00B
:102D3000E9FF4FC0EAFF1A0EE926000EEA22EF2A49
:102D4000010E036E0AD04EC0E9FF4FC0EAFF0C0E21
:102D5000E926000EEA22050EEF6EB9D0C7A85AD0B8
:102D60004EC0E9FF4FC0EAFF0B0EE926000EEA2233
:102D7000EF2A025042E0C7AA22D04EC0E9FF4FC05E
:102D8000EAFFE9CFF3F3EACFF4F34EC0E9FF4FC017
:102D9000EAFF0A0EEB500301EA6AF325E96EF451EB
:102DA000EA2201EBEFFF4EC0E9FF4FC0EAFF0A0E37
:102DB000E926000EEA22EF2A010E046E1DD04EC055
:102DC000E9FF4FC0EAFF0E0EE926000EEA22EF2AC5
:102DD0004EC0E9FF4FC0EAFF0D0EE926000EEA22C1
:102DE000060EEF6E4EC0E9FF4FC0EAFF0C0EE9265B
:102DF000000EEA22050EEF6E02D0010E046E4EC0E8
:102E0000E9FF4FC0EAFF0C0EE926000EEA22050E8C
:102E1000EF6E5CD002505AE04EC0E9FF4FC0EAFFAF
:102E20000B0EE926000EEA22EF2AC7AA20D04EC0D8
:102E3000E9FF4FC0EAFFE9CFF3F3EACFF4F34EC066
:102E4000E9FF4FC0EAFF0A0EEB500301EA6AF325DF
:102E5000E96EF451EA2201EBEFFF4EC0E9FF4FC0EB
:102E6000EAFF0A0EE926000EEA22EF2A2FD0C7A4B5
:102E700010D04EC0E9FF4FC0EAFF0C0EE926000E4D
:102E8000EA22080EEF6E010E046E010E056E026A54
:102E90001DD04EC0E9FF4FC0EAFF0E0EE926000E1E
:102EA000EA22EF2A4EC0E9FF4FC0EAFF0D0EE926E5
:102EB000000EEA22060EEF6E4EC0E9FF4FC0EAFF99
:102EC0000C0EE926000EEA22050EEF6E00D002502D
:102ED00002E1035002E0C6A8C6884EC0E9FF4FC019
:102EE000EAFF0A0EEB5008081FE204501DE14EC035
:102EF000E9FF4FC0EAFF0C0EE926000EEA22050E9C
:102F0000EF6E4EC0E9FF4FC0EAFF0E0EE926000E3D
:102F1000EA22EF2A4EC0E9FF4FC0EAFF0D0EE92674
:102F2000000EEA22070EEF6E045041E04EC0E9FFAA
:102F30004FC0EAFF0B0EEB50E66E4EC0E9FF4FC0EC
:102F4000EAFFE9CFF3F3EACFF4F34EC0E9FF4FC055
:102F5000EAFF0A0EEB500301EA6AF325E96EF45129
:102F6000EA22E552E750EF6E4EC0E9FF4FC0EAFF9C
:102F7000E9CFF3F3EACFF4F3F3C3E6FFF4C3E6FFDC
:102F8000280EE66E4EC0E9FF4FC0EAFF0A0EEB5076
:102F9000010FE66EF5EC1CF044E94EC0E9FF4FC0AE
:102FA000EAFF0A0EE926000EEA22EF6A36D04EC08A
:102FB000E9FF4FC0EAFF0E0EEB500301F36F010E65
:102FC0000301F35D2AE34EC0E9FF4FC0EAFF0E0E96
:102FD000EB50076E4EC0E9FF4FC0EAFF0D0EEB50FD
:102FE000086E4EC0E9FF4FC0EAFF0B0EEB50096EB2
:102FF000D950070FE66EDACFE6FF290EE66E030E14
:10300000E66EF5EC1CF044E94EC0E9FF4FC0EAFF64
:103010000E0EE926000EEA22EF6A055013E04EC0BC
:10302000E9FF4FC0EAFFE9CFF3F3EACFF4F3F3C3CC
:10303000E6FFF4C3E6FF2A0EE66EE66AF5EC1CF046
:1030400044E9056A4AE9E7CFD9FF1200D9CFE6FF84
:10305000E1CFD9FF83E900EB4EF001EB4FF04EC01A
:10306000E9FF4FC0EAFF0A0EE926000EEA22EF6AE6
:103070004EC0E9FF4FC0EAFF0B0EE926000EEA2220
:10308000EF6A4EC0E9FF4FC0EAFF0C0EE926000EC2
:10309000EA22050EEF6E4EC0E9FF4FC0EAFF0E0EAA
:1030A000E926000EEA22EF6A41E9E7CFD9FF1200D4
:1030B000D9CFE6FFE1CFD9FF82E99486948800EB6F
:1030C000C8FFC76AC66AC56A0E0EC612C78EC5801B
:0A30D000C68A41E9E7CFD9FF1200DC
:0630DA008B9E050EE66E60
:1030E0004DEC2BF041E98B8E35EC2BF08A98420E9B
:1030F000E66EC7EC29F041E90A0EE66EC7EC29F04E
:1031000041E9280EE66EC7EC29F041E98A888A98E1
:10311000400EE66EC7EC29F041E9010EE66EC7EC01
:1031200029F041E9E66AC7EC29F041E98A888A98E2
:10313000400EE66EC7EC29F041E9E66AC7EC29F0DB
:1031400041E9E66AC7EC29F041E98A881200D9CF43
:10315000E6FFE1CFD9FF83E9050EE66E4DEC2BF0DB
:1031600041E98A98400EE66EC7EC29F041E901EB8F
:10317000E6FFC7EC29F041E900EBE6FFC7EC29F0D8
:1031800041E98A8841E9E7CFD9FF1200D9CFE6FFAC
:10319000E1CFD9FF81E942E8016A026A9EDF0000BF
:1031A000030EE66E120EE66ED2DF42E9030EE66E05
:1031B00056D841E9230EE66E120EE66EC8DF42E9EC
:1031C000230EE66E03D941E93F0EE66E130EE66E5E
:1031D000BEDF42E9030EE66E42D841E9E66AF6D860
:1031E00041E990D843E9E7CFD9FF1200D9CFE6FFF4
:1031F000E1CFD9FF83E941E8030E0014036E200EEE
:103200000310E66E120EE66EA2DF42E9400E0110D8
:10321000E66E130EE66E9BDF42E903EBE6FF1FD876
:1032200041E942E9E7CFD9FF1200D9CFE6FFE1CF6C
:10323000D9FF82E9230EE66E120EE66E88DF42E9C0
:10324000B80E0010E66E130EE66E81DF42E9030E43
:10325000E66E05D841E941E9E7CFD9FF1200D9CFA1
:10326000E6FFE1CFD9FF82E9300E0010E66E120EC4
:10327000E66E6DDF42E9020EE66E4DEC2BF041E9A1
:10328000200E0010E66E120EE66E61DF42E941E9A3
:10329000E7CFD9FF1200010EC96EC7A0FED7C950F3
:1032A00000D01200D9CFE6FFE1CFD9FF83E941E892
:1032B000036A00EBE6FFB9DF41E9400E015C0EE274
:1032C000020E036E020EE66E01EBE6FF8FDF42E9AF
:1032D000010EE66EE66A8ADF42E90ED0010E036E49
:1032E000020EE66EE66A82DF42E9010EE66E400EED
:1032F000015CE66E7BDF42E9035000D042E9E7CF94
:10330000D9FF1200D9CFE6FFE1CFD9FF81E944E828
:10331000016A026A046A080E045C25E204EBE6FF17
:10332000E66AC0DF42E9036A03500301F36FF46BFE
:10333000800E0301D890F4BF03D0F35D000EF45962
:1033400010E2400E035C06E2020EE66EE66A13D857
:1033500042E905D0010EE66EE66A0DD842E9032A7D
:10336000E3D7042AD8D7E66AE66A9CDF42E945E952
:10337000E7CFD9FF1200D9CFE6FFE1CFD9FF83E92C
:1033800042E8030E0014036E240E0310E66E120EC4
:10339000E66EDDDE42E900015851000807E2011C3B
:1033A000E66E130EE66ED3DE42E906D001EBE6FFD1
:1033B000130EE66ECCDE42E9200E03100409E66E21
:1033C0004EDF41E943E9E7CFD9FF1200D9CFE6FF4D
:1033D000E1CFD9FF82E9230EE66E120EE66EB7DE6C
:1033E00042E9C00E0010E66E130EE66EB0DE42E952
:1033F000030EE66E34DF41E941E9E7CFD9FF120061
:10340000D9CFE6FFE1CFD9FF81E941E8016AE6685B
:10341000010EE66E9CDE42E9280EE66E120EE66EA6
:1034200096DE42E92B0EE66E1ADF41E98A98410EDC
:10343000E66EC7EC29F041E9130EE66EC7EC29F001
:1034400041E9C7A0FED7ACEC2AF0016E8A88E66A93
:10345000010EE66E7CDE42E9015000D042E9E7CF82
:10346000D9FF1200D9CFE6FFE1CFD9FF84E943E8C5
:103470000150F80BE842E842E842046E0150070BA5
:10348000056E010E001405EBF3FF055204E0D89021
:10349000E836F306FCE1066E01EBE6FF02EBE6FF21
:1034A00001DF42E9E66E06EBE6FF65DF42E944E94B
:1034B000E7CFD9FF1200D9CFE6FFE1CFD9FF85E9E9
:1034C00042E8056A066A0350015CD89006BE03D044
:1034D000055C000E065810E2010EE66E0250F36E17
:1034E000F46AF3500524E66E03EBE6FFBBDF43E925
:1034F000052A000E0622E7D743E9E7CFD9FF1200DD
:10350000D9CFE6FFE1CFD9FF84E944E8046A020E8F
:10351000056E010E066EF250100B01E0010E076EF3
:10352000F2980001010E596F005009E000500408A4
:1035300006E30004E824E66EE66AB4DE42E9046AC3
:10354000046A100E045C57E2080E045C03E2020EEB
:10355000056E02D0010E056E04500124E96E000EC6
:103560000220EA6EEFCFF3F3410E0301F35D1EE399
:1035700004500124E96E000E0220EA6EEF505A0852
:103580000CE204500124E96E000E0220EA6EEFCF37
:10359000F4F3610E0301F45D09E304500124E96EC4
:1035A000000E0220EA6EEF507A080AE2045001246D
:1035B000E96E000E0220EA6EEF50200801E0066A74
:1035C00006500FE005EBE6FF010EE66E0450012405
:1035D000E96E000E0220EA6EEFCFE6FF17D843E94E
:1035E00008D005EBE6FF010EE66E200EE66E0ED863
:1035F00043E9042AA6D70001596B0750E8B0F288C6
:10360000E8A0F29845E9E7CFD9FF1200D9CFE6FF4D
:10361000E1CFD9FF84E943E8046A056A410E025C00
:1036200031E302505A082EE3410E025C056E00EBB6
:10363000E6FFE66AA0DE42E9046A060E045C1CE2CC
:1036400000EBE6FF0550060DF3CFF3F3F4CFF4F3F0
:10365000B40E0301F3274C0E0301F42304500301BD
:10366000F76AF325F66EF451F7220800F5CFE6FF6E
:1036700082DE42E9042AE1D700EBE6FFE66A7BDE60
:1036800042E943D0610E025C31E302507A082EE336
:10369000610E025C056E00EBE6FFE66A6CDE42E955
:1036A000046A060E045C1CE200EBE6FF0550060D02
:1036B000F3CFF3F3F4CFF4F3500E0301F3274D0EE1
:1036C0000301F42304500301F76AF325F66EF45165
:1036D000F7220800F5CFE6FF4EDE42E9042AE1D7E3
:1036E00000EBE6FFE66A47DE42E90FD0200E026EED
:1036F00002500BE0046A080E045C07E200EBE6FFF0
:10370000E66A39DE42E9042AF6D744E9E7CFD9FF71
:023710001200A5
:0E371200D9CFE6FFE1CFD9FF83E941E800EB14
:10372000E9FF01EBEAFF340EE926000EEA22EF6A18
:1037300000EBE9FF01EBEAFF350EE926000EEA2275
:10374000EF6A036A040E035C17E200EBE9FF01EB8A
:10375000EAFFE9CFF3F3EACFF4F303500D0D0301D1
:103760000301F351F324E96E03010301F451F42042
:10377000EA6EEF6A032AE6D742E9E7CFD9FF1200E3
:10378000D9CFE6FFE1CFD9FF87E945E803500A6EBC
:103790000B6A04EBE9FF05EBEAFF340EE926000EA5
:1037A000EA22EF50076E04EBE9FF05EBEAFFE9CFF1
:1037B000F3F3EACFF4F307500D0D0301F350F325B3
:1037C000086EF450F421096E08EBE9FF09EBEAFFFB
:1037D000EF5002E0FF0E4AD008EBE9FF09EBEAFFE9
:1037E000EE5203EBEFFF08EBE9FF09EBEAFF020EF5
:1037F000E926000EEA2202EBEFFF0AEBE6FF0BEBF5
:10380000E6FF00EBE6FF01EBE6FF08EBE9FF09EB63
:10381000EAFF030EE926000EEA22E9CFF3F3EACF2E
:10382000F4F3F3C3E6FFF4C3E6FFF6EC26F046E953
:1038300004EBE9FF05EBEAFF340EE926000EEA226D
:10384000EF28030BE66E04EBE9FF05EBEAFF340E0D
:10385000E926000EEA22E552E750EF6E08EBE9FF99
:1038600009EBEAFF010EEF6E010E00D046E9E7CF4B
:10387000D9FF1200D9CFE6FFE1CFD9FF88E945E8AB
:1038800005EBE9FF06EBEAFF350EE926000EEA221A
:10389000EF50086E05EBE9FF06EBEAFFE9CFF3F323
:1038A000EACFF4F308500D0D0301F350F325096E30
:1038B000F450F4210A6E09EBE9FF0AEBEAFFEF048A
:1038C0005CE109EBE9FF0AEBEAFFEE52EF50045C22
:1038D00002E2FD0E54D009EBE9FF0AEBEAFFEE52DB
:1038E000EF500B6E0C6A0BEBE6FF0CEBE6FF09EBFF
:1038F000E9FF0AEBEAFF030EE926000EEA22E9CF10
:10390000F3F3EACFF4F3F3C3E6FFF4C3E6FF00EB0F
:10391000E6FF01EBE6FFF6EC26F046E905EBE9FFF2
:1039200006EBEAFF350EE926000EEA22EF28030B2C
:10393000E66E05EBE9FF06EBEAFF350EE926000E21
:10394000EA22E552E750EF6E09EBE9FF0AEBEAFFE6
:10395000020EE926000EEA22EF50E66E02EBE9FFC6
:1039600003EBEAFFE552E750EF6E09EBE9FF0AEBE4
:10397000EAFFEF6A0B5003D002D0FC0E00D046E9FC
:10398000E7CFD9FF1200D9CFE6FFE1CFD9FF85E914
:1039900000EBE6FF01EBE6FF02EBE6FF03EBE6FFE1
:1039A000800EE66E040EE66EEBDE46E900D041E9DD
:1039B000E7CFD9FF1200D9CFE6FFE1CFD9FF86E9E3
:1039C00000EBE6FF01EBE6FF02EBE6FF03EBE6FFB1
:1039D00004EBE6FF800EE66E040EE66E4BDF47E971
:1039E00000D041E9E7CFD9FF1200D9CFE6FFE1CF00
:1039F000D9FF85E900EBE6FF01EBE6FF02EBE6FF0E
:103A000003EBE6FF4A0EE66E040EE66EB9DE46E90B
:103A100000D041E9E7CFD9FF1200D9CFE6FFE1CFCF
:103A2000D9FF86E900EBE6FF01EBE6FF02EBE6FFDC
:103A300003EBE6FF04EBE6FF4A0EE66E040EE66ECD
:103A400019DF47E900D041E9E7CFD9FF1200D9CF0C
:103A5000E6FFE1CFD9FF85E900EBE6FF01EBE6FFEA
:103A600002EBE6FF03EBE6FF6D0EE66E0E0EE66E72
:103A700087DE46E900D041E9E7CFD9FF1200D9CF70
:103A8000E6FFE1CFD9FF86E900EBE6FF01EBE6FFB9
:103A900002EBE6FF03EBE6FF04EBE6FF6D0EE66EDE
:103AA0000E0EE66EE7DE47E900D041E9E7CFD9FF29
:103AB0001200D9CFE6FFE1CFD9FF85E900EBE6FFA1
:103AC00001EBE6FF02EBE6FF03EBE6FF370EE66EE7
:103AD0000E0EE66E55DE46E900D041E9E7CFD9FF8C
:103AE0001200D9CFE6FFE1CFD9FF86E900EBE6FF70
:103AF00001EBE6FF02EBE6FF03EBE6FF04EBE6FF7C
:103B0000370EE66E0E0EE66EB5DE47E900D041E9EF
:103B1000E7CFD9FF1200D9CFE6FFE1CFD9FF85E982
:103B200000EBE6FF01EBE6FF02EBE6FF03EBE6FF4F
:103B3000000EE66E0E0EE66E23DE46E900D041E989
:103B4000E7CFD9FF1200D9CFE6FFE1CFD9FF86E951
:103B500000EBE6FF01EBE6FF02EBE6FF03EBE6FF1F
:103B600004EBE6FF000EE66E0E0EE66E83DE47E91E
:103B700000D041E9E7CFD9FF12000E01366B800E6D
:103B8000E66E040EE66EC5DD42E94A0EE66E040EF0
:103B9000E66EBFDD42E96D0EE66E0E0EE66EB9DD35
:103BA00042E9370EE66E0E0EE66EB3DD42E9000E18
:103BB000E66E0E0EE66EADDD42E91200D38E030016
:103BC0001200D9CFE6FFE1CFD9FF83E900EBE9FF8F
:103BD00001EBEAFFE9CFF3F3EACFF4F300EBE9FFFF
:103BE00001EBEAFF350EE926000EEA22EF500D0D3B
:103BF00003010301F351F324E96E03010301F451BE
:103C0000F420EA6EEF5000D041E9E7CFD9FF12006F
:103C10000E01365101E129D0CCEC25F0F3CFF3F3BE
:103C2000F4CFF4F30301F351F41101E01ED0AAEC38
:103C300025F0F3CFF3F3F4CFF4F30301F351F411D0
:103C400001E113D04A0EE66E040EE66EBADF42E9D9
:103C5000000901E00AD0800EE66E040EE66EB1DFC8
:103C600042E9000901E001D0A9DF1200E6EC25F0ED
:103C7000F3CFF3F3F4CFF4F30301F351F41101E1C3
:103C80001FD00E01010E366F4A0EE66E040EE66E70
:103C900098DF42E9000903E00E01366B11D0800E77
:103CA000E66E040EE66E8DDF42E9000903E00E01C8
:103CB000366B06D00A0EE66EECEC2AF041E9E4D74A
:023CC0001200F0
:0E3CC200D9CFE6FFE1CFD9FF81E94EE8490EE8
:103CD000016E6E0E026E690E036E740E046E690E36
:103CE000056E610E066E6C0E076E690E086E7A0E1A
:103CF000096E690E0A6E6E0E0B6E670E0C6E0D6A03
:103D00000E6A0001586B010EE66ED950010FE66E87
:103D1000DACFE6FF80EC1AF043E94FE9E7CFD9FFAD
:103D20001200D9CFE6FFE1CFD9FF84E950E8E66A77
:103D3000E66A52EC19F042E9E66AE6EC19F041E96C
:103D400001EB50F002EB51F0046A01EBE9FF02EBEA
:103D5000EAFFE9CFF3F3EACFF4F3F3C3E6FFF4C3EA
:103D6000E6FFD950040FE66EDACFE6FF21EC27F02C
:103D700044E9010EE66ED950040FE66EDACFE6FF95
:103D800080EC1AF043E9046A01EBE9FF02EBEAFF79
:103D9000E9CFF3F3EACFF4F3100E0301F327000E9B
:103DA0000301F423F3C3E6FFF4C3E6FFD950040F85
:103DB000E66EDACFE6FF21EC27F044E9020EE66E6C
:103DC000D950040FE66EDACFE6FF80EC1AF043E933
:103DD000046A01EBE9FF02EBEAFFE9CFF3F3EACF74
:103DE000F4F3200E0301F327000E0301F423F3C3C1
:103DF000E6FFF4C3E6FFD950040FE66EDACFE6FF24
:103E000021EC27F044E9030EE66ED950040FE66E6C
:103E1000DACFE6FF80EC1AF043E9046A01EBE9FF30
:103E200002EBEAFFE9CFF3F3EACFF4F3300E03013C
:103E3000F327000E0301F423F3C3E6FFF4C3E6FF08
:103E4000D950040FE66EDACFE6FF21EC27F044E903
:103E5000040EE66ED950040FE66EDACFE6FF80EC72
:103E60001AF043E9005034E00050040831E3000147
:103E7000010E586F01EBE9FF02EBEAFFE9CFF5F322
:103E8000EACFF6F30004100D03010301F551F3240A
:103E90000301F36F03010301F651F4200301F46FF2
:103EA000F3C3E6FFF4C3E6FFD950040FE66EDACFA2
:103EB000E6FF21EC27F044E900EBE6FFD950040FC0
:103EC000E66EDACFE6FF80EC1AF043E90001586BAA
:103ED00051E9E7CFD9FF1200D9CFE6FFE1CFD9FFF3
:103EE00082E9E66AE66A52EC19F042E9E66AE6EC33
:103EF00019F041E9010EE66EA40EE66E030EE66EC1
:103F000080EC1AF043E9020EE66EB40EE66E030E84
:103F1000E66E80EC1AF043E9030EE66EC40EE66E20
:103F2000030EE66E80EC1AF043E9040EE66ED40E42
:103F3000E66E030EE66E80EC1AF043E900501DE0D9
:103F4000005004081AE30001010E586F00EBE6FF71
:103F50000004100DF3CFF3F3F4CFF4F3A40E030138
:103F6000F327030E0301F423F3C3E6FFF4C3E6FFD4
:103F700080EC1AF043E90001586B41E9E7CFD9FF23
:103F80001200D9CFE6FFE1CFD9FF81E953E8550E02
:103F9000016E730E026E650E036E720E046E200EBD
:103FA000056E200E066E076A4F0E086E700E096EC3
:103FB000740E0A6E200E0B6E200E0C6E200E0D6E0F
:103FC0000E6A200E0F6E106A460E116E0301E75145
:103FD000126E0301E851136ED950110FE66EDACF5D
:103FE000E6FF460EE66E030EE66EF5EC1CF044E9C5
:103FF000E66AE66A52EC19F042E9E66AE6EC19F084
:1040000041E9400E0301E725066E400E0301E82555
:104010000D6E010EE66ED950010FE66EDACFE6FFA7
:1040200080EC1AF043E9020EE66ED950080FE66EF6
:10403000DACFE6FF80EC1AF043E9030EE66ED950C2
:104040000F0FE66EDACFE6FF80EC1AF043E9040EBC
:10405000E66ED9500F0FE66EDACFE6FF80EC1AF06D
:1040600043E954E9E7CFD9FF1200D9CFE6FFE1CF0A
:10407000D9FF82E941E9E7CFD9FF1200D9CFE6FFA6
:10408000E1CFD9FF82E950E8230EE66E120EE66E0C
:10409000A7EC18F042E93F0EE66E130EE66EA7ECB1
:1040A00018F042E9030EE66E2FEC19F041E90050DA
:1040B0005CE00301E451005C03E000EBE4F354D066
:1040C0000301E451000850E200504EE00301E551C5
:1040D000020A38E0030A20E0010A01E03BD00301B4
:1040E000E65100080DE200EBE7F3E66AF5DE41E990
:1040F0000301010EE56F0301E46B0301E66B0BD0D6
:1041000000EBE6FF50C0E6FF51C0E6FF0ADE43E9E0
:104110000301010EE66F28D00301E65100080AE210
:1041200000EBE8F30301020EE56F0301E46B03010A
:10413000E66B07D000EBE6FFCFDE41E90301010E9D
:10414000E66F12D01EDF0301E56B0301E46B030190
:10415000E66B0AD0E66A50C0E6FF51C0E6FFE1DD3B
:1041600043E90301E56B00D019D00301E46B0301BF
:10417000E55108E1E66A50C0E6FF51C0E6FFD1DD37
:1041800043E90CD00301E50504E1E66AA5DE41E957
:1041900005D0020E0301E55D01E1F3DE51E9E7CF51
:0441A000D9FF120031
:0C41A400D9CFE6FFE1CFD9FF81E968E840
:1041B000046A056A066A076A086A156A166A176A4F
:1041C000186A030E936E200E926E100E946E8A8AF9
:1041D000600EE66E000EE66E19EBE9FF1AEBEAFFE1
:1041E000E9CFF3F3EACFF4F3F3C3E6FFF4C3E6FF5A
:1041F00021EC27F044E9700EE66E000EE66E19EB36
:10420000E9FF1AEBEAFFE9CFF3F3EACFF4F3100E7C
:104210000301F327000E0301F423F3C3E6FFF4C305
:10422000E6FF21EC27F044E9800EE66E000EE66E14
:1042300019EBE9FF1AEBEAFFE9CFF3F3EACFF4F366
:10424000200E0301F327000E0301F423F3C3E6FF5E
:10425000F4C3E6FF21EC27F044E9900EE66E000E71
:10426000E66E19EBE9FF1AEBEAFFE9CFF3F3EACFC9
:10427000F4F3300E0301F327000E0301F423F3C31C
:10428000E6FFF4C3E6FF21EC27F044E9C6EC18F0A2
:1042900061EC1EF077EC29F0BDEC1DF06C0ED36ED6
:1042A0009B8C910EE66EFFEC29F041E9A6EC25F01F
:1042B000010EE66E13EC0CF041E9E66A19EBE6FF3D
:1042C0001AEBE6FF91EC1EF043E936EC1EF0D950F4
:1042D0001B0FE66EDACFE6FFD950110FE66EDACF8C
:1042E000E6FF0A0EE66E0DEC1DF045E90F6E0F3489
:1042F00016E3FC0E0F5C12E00FEBF3F30301F46B1B
:10430000F3BFF469F3C3E6FFF4C3E6FF4B0EE66EBA
:10431000500EE66EE66A45EC29F045E904D11150ED
:10432000500A01E199D0160A01E189D07A0A01E127
:1043300085D00B0A01E17DD0050A01E179D0040A9C
:1043400071E0030A69E0010A61E0070A59E0190A0D
:104350004CE0020A20E0010A1EE0230A01E0D7D067
:10436000D9501B0FE66EDACFE6FF0FEBF3F3030134
:10437000F46BF3BFF469F3C3E6FFF4C3E6FF115037
:10438000E66EE66AD950260FE66EDACFE6FF1AEC43
:104390002BF048E9C8D01150E66EE66A2F0EE66EA3
:1043A000500EE66EE66A45EC29F045E9036A0F50C7
:1043B000035C1AE20301D9501B0FF36FDACFF4F359
:1043C00003500301EA6AF325E96EF451EA22EF5043
:1043D000E66EE66A2B0EE66E500EE66EE66A45EC79
:1043E00029F045E9032AE3D79ED01B0EE66E500E56
:1043F000E66EE66A45EC29F043E9020E0F6E93D0B3
:10440000010EE66E3EEC20F041E98DD0020EE66E24
:104410003EEC20F041E987D0030EE66E3EEC20F042
:1044200041E981D0040EE66E3EEC20F041E97BD0FC
:104430007AD0E66A3EEC20F041E975D074D0D950CC
:104440001B0FE66EDACFE6FF460EE66E030EE66E53
:104450008BEC1DF044E967D0D950090FE66EDACF36
:10446000E6FFC9EC22F042E9E6EC09F0D8900A50E8
:1044700004E6000E095C020E0A5802E28B8401D0A9
:104480008B94D950140FE66EDACFE6FFD950110F96
:10449000E66EDACFE6FF010EE66EA3EC1DF045E90D
:1044A000106EFC0E105C03E0FD0E0F5C01E12ED0DF
:1044B000500E145C25E10001056B016A026A080ECA
:1044C000D89002BE03D0015C000E025812E20150E7
:1044D000E824E66E00010551052BEA6A000FE96E3B
:1044E000010EEA22E552E750EF6E012A000E022289
:1044F000E6D7052AE66AF0EC0CF041E98B7004D0AF
:104500004C0E145C01E18B7273EC0EF00CD0115068
:10451000E66EE66AEF0EE66E4F0EE66EE66A45EC74
:1045200029F045E900D0D9501B0FE66EDACFE6FF3F
:10453000D950110FE66EDACFE6FF0A0EE66EDBEC1D
:104540001CF045E90F6E0F3416E3FC0E0F5C12E011
:104550000FEBF3F30301F46BF3BFF469F3C3E6FF6E
:10456000F4C3E6FFC20EE66E4F0EE66EE66A45EC59
:1045700029F045E908D011501E0A04E0150A01E0AF
:1045800001D001D000D0A1D669E9E7CFD9FF120050
:104590001200D9CFE6FFE1CFD9FF83E90FEC00F09D
:1045A00007EC00F0000901E0FBD741EC2BF0F3CF62
:1045B000F3F3F4CFF4F300EBE9FF01EBEAFFF3C30D
:1045C000EEFFF4C3EDFF010EE66EECEC2AF041E9DC
:1045D00041E9E7CFD9FF1200D9CFE6FFE1CFD9FFFC
:1045E00084E9FF0EE66EE66A3F0EE66E7F0E00146B
:1045F000FC0BE66ED10EE66E8CEC28F045E900EB84
:10460000E6FF94EC2AF041E90FEC00F007EC00F033
:10461000000901E0FBD741EC2BF0F3CFF3F3F4CF2B
:10462000F4F301EBE9FF02EBEAFFF3C3EEFFF4C39F
:10463000EDFF010EE66EECEC2AF041E941E9E7CF2F
:10464000D9FF1200D9CFE6FFE1CFD9FF83E9D70E1A
:10465000E66E00EBE6FF01EBE6FFBEDF43E941E972
:10466000E7CFD9FF1200D9CFE6FFE1CFD9FF81E92B
:1046700048E800015451000850E2000159514DE151
:1046800075EC27F0040A2EE0070A1FE0010A10E08B
:10469000030A01E034D0D950030FE66EDACFE6FF0B
:1046A000330EE66E020EE66EF5EC1CF044E934D0F3
:1046B000D950030FE66EDACFE6FF340EE66E020E37
:1046C000E66EF5EC1CF044E927D0D950030FE66EF6
:1046D000DACFE6FF350EE66E020EE66EF5EC1CF064
:1046E00044E91AD0D950030FE66EDACFE6FF360E52
:1046F000E66E020EE66EF5EC1CF044E90DD0D950E2
:10470000030FE66EDACFE6FF370EE66E020EE66EB8
:10471000F5EC1CF044E900D015D00001595112E12C
:10472000030E0001555D0EE3D950030FE66EDACF9C
:10473000E6FF370EE66E020EE66EF5EC1CF044E97D
:104740000001556B0001552BBCEC27F00001546FA4
:10475000870EE66ED950010FE66EDACFE6FF3CDF3A
:1047600043E981EB03F08F0EE66ED950010FE66E40
:10477000DACFE6FF31DF43E981EB04F0D950030FD4
:10478000E66EDACFE6FF3C0EE66E020EE66EF5EC64
:104790001CF044E9000EE66EE66A7CEC2AF042E981
:1047A000D950010FE66EDACFE6FFD950070FE66E5B
:1047B000DACFE6FF020EE66E71EC1DF045E9056EFC
:1047C000066AE8BE0668020E051801E106500CE113
:1047D000D950010FE66EDACFE6FF0A0EE66E020E42
:1047E000E66EF5EC1CF044E949E9E7CFD9FF120089
:1047F000D9CFE6FFE1CFD9FF81E944E864EC2AF0A4
:10480000F350016EF450026E000EE66EE66A0B0E77
:10481000E66EE66AC3EC1CF044E9000EE66EE66A5A
:0E4820004CEC2AF042E945E9E7CFD9FF12003F
:02482E0042E85E
:10483000D9CFE6FFDACFE6FFE1CFD9FFE2CFDAFF4B
:1048400086E9036A1200F3DF038003D0F0DF01D0B2
:104850000382026A080EE76ED890013602360050D5
:10486000025C02E3026E012AE72EF7D703B21200C0
:1048700003B081EB00F003A082EB00F0E552E5CF3E
:10488000DAFFE7CFD9FF43E9120044E8D9CFE6FFCA
:10489000DACFE6FFE1CFD9FFE2CFDAFF8EE980EB96
:1048A00008F081EB09F082EB0AF083EB0BF0045087
:1048B0000802F350006EF450016E04500902F350E8
:1048C0000126000EF420026E04500A02F350022664
:1048D000000EF420036E04500B02F3500326055023
:1048E0000802F3500126F4500222000E0322055064
:1048F0000902F3500226F450032205500A02F35035
:10490000032606500802F3500226F45003220650F4
:104910000902F350032607500802F3500326E5521C
:10492000E5CFDAFFE7CFD9FF48E9000C45E8D9CF5A
:10493000E6FFDACFE6FFE1CFD9FFE2CFDAFF8FE97A
:104940000C6A1200F3DF0C8003D0F0DF01D00C8280
:104950000B6A0A6A096A086A200EE76ED890043664
:10496000053606360736083609360A360B36005045
:10497000085C0150095802500A5803500B5809E3CB
:104980000050085E0150095A02500A5A03500B5A4F
:10499000042AE72EE4D70CB212000CB00AD088EB40
:1049A00000F089EB01F08AEB02F08BEB03F00CA036
:1049B00008D084EB00F085EB01F086EB02F087EB8A
:1049C00003F0E552E5CFDAFFE7CFD9FF49E912005E
:1049D000D9CFE6FFE1CFD9FF85E944E801D054D033
:1049E00000EBE6FF01EBE6FF02EBE6FF03EBE6FF81
:1049F000280EE66EE66AE66AE66A45EC24F0E552C1
:104A0000E5CFF6F3E5CFF5F3E5CFF4F3E7CFF3F336
:104A10000301F351056EF451066EF551076EF65120
:104A2000086ED950050FE96EDACFEAFFAF0EEE5EE1
:104A3000000EEE5A000EEE5A000EEE5A083408E24E
:104A400005502D08000E0654000E0754000E0854A1
:104A500001E31AD0083408E205500008000E06549D
:104A6000000E0754000E08540FE20000D950050F45
:104A7000E96EDACFEAFF2A0EEE5E000EEE5A000E65
:104A8000EE5A000EEE5AE6D745E9E7CFD9FF1200FD
:104A9000D9CFE6FFE1CFD9FF83E944E800EBE6FF99
:104AA00001EBE6FFE66AE66AA00EE66E0F0EE66E22
:104AB000E66AE66A45EC24F0E552E5CFF6F3E5CF89
:104AC000F5F3E5CFF4F3E7CFF3F30301F351036E0E
:104AD000F451046EF551056EF651066ED950030F70
:104AE000E96EDACFEAFFAA0EEE5E000EEE5A000E75
:104AF000EE5A000EEE5A063408E20350C308000EC8
:104B00000454000E0554000E065402E31BD01AD0C4
:104B1000063408E203500008000E0454000E055449
:104B2000000E06540FE20000D950030FE96EDACFF1
:104B3000EAFF270EEE5E000EEE5A000EEE5A000E51
:0C4B4000EE5AE6D745E9E7CFD9FF120096
:044B4C00D08EF28E87
:104B5000F28C1200F250800B800A01E0010E03017A
:104B6000F36FF46B800B01E0F469F3C3F3FFF4C35C
:104B7000F4FF00D01200F250400B400A01E0010E99
:104B80000301F36FF46B800B01E0F469F3C3F3FFEF
:104B9000F4C3F4FF00D01200F2AC05D0000EF36EA7
:104BA000F46A13D012D0D6DFF3CFF3F3F4CFF4F3DB
:104BB0000301F351F41105E0000EF36EF46A05D021
:104BC00004D0010EF36EF46A00D01200E5DFF3CFDB
:104BD000F3F3F4CFF4F30301F351F4110EE1BADF70
:104BE000F3CFF5F3F4CFF6F30301F551F61105E138
:104BF000010EF36EF46A05D004D0000EF36EF46A71
:104C000000D01200DACFE4FFE2CFDAFFE9CFE4FF11
:104C1000EACFE4FFD9CFE4FFDACFE4FF46C0E4FFF8
:104C200047C0E4FF48C0E4FF49C0E4FFF6CFE4FF1B
:104C3000F7CFE4FFF5CFE4FFF3CFE4FFF4CFE4FFD9
:104C4000FACFE4FF03EEF3F0080EE80403E3EECF3F
:104C5000E4FFFBD7E652F2A403D0F29433EC23F046
:104C600008EC1EF0E55203EEFAF0080EE80403E348
:104C7000E5CFEDFFFBD7E5CFFAFFE5CFF4FFE5CFBA
:104C8000F3FFE5CFF5FFE5CFF7FFE5CFF6FFE5CF83
:104C900049F0E5CF48F0E5CF47F0E5CF46F0E5CF66
:104CA000DAFFE5CFD9FFE5CFEAFFE5CFE9FFE5CFB2
:044CB000DAFF110016
:0C4CB4007C1211127C007F494949360037
:104CC0003E41414122007F4141413E007F494949E7
:104CD00041007F09090901003E41415173007F08ED
:104CE00008087F0000417F4100002040413F010053
:104CF0007F08142241007F40404040007F021C0298
:104D00007F007F0408107F003E4141413E007F0943
:104D1000090906003E4151215E007F09192946001C
:104D200026494949320003017F0103003F404040CA
:104D30003F001F2040201F003F4038403F006314C9
:104D4000081463000304780403006159494D4300CB
:104D50002054547840007F28444438003844444468
:104D60002800384444287F00385454541800000860
:104D70007E09020018A4A49C78007F08040478002F
:104D800000447D4000002040403D00007F1028444A
:104D9000000000417F4000007C04780478007C081B
:104DA00004047800384444443800FC1824241800D3
:104DB00018242418FC007C080404080048545454A7
:104DC000240004043F4424003C4040207C001C207C
:104DD00040201C003C4030403C0044281028440047
:0C4DE0004C9090907C004464544C4400C3
:044DEC00D9CFE6FF36
:104DF000DACFE6FFFA0EE3CFD9FFFB0EE3CFDAFFFF
:104E0000FC0EE3CFE9FFFD0EE3CFEAFFE9CFF3FFAE
:104E1000EACFF4FFF80EE35003E1F90EE35008E0A7
:104E2000F80EE30602E2F90EE306DECFEEFFF2D75C
:104E3000FF0EE3CFDAFFE552FF0EE3CFD9FFE552D5
:104E40001200D9CFE6FFDACFE6FFFA0EE3CFD9FFA3
:104E5000FB0EE3CFDAFFFC0EE3CFE9FFFD0EE3CF5D
:104E6000EAFFE9CFF3FFEACFF4FFDECFEFFFEE6614
:104E7000FCD7FF0EE3CFDAFFE552FF0EE3CFD9FFF9
:104E8000E5521200FE0EE3CFE9FFFF0EE3CFEAFF8B
:104E9000F36AF46AEE5203E0F34AF42AFBD71200F5
:104EA000FF0EE3CFF8FFE552FF0EE3CFF7FFE55229
:104EB000FF0EE3CFF6FFE552E66AE66AE66A09000E
:104EC000F55209E0FD0EE32A05E1FE0EE32A02E1B8
:104ED000FF0EE32AF4D7FD0EE3CF46F0FE0EE3CF3C
:0A4EE00047F0FF0EE3CF48F0120088
:064EEA00D9CFE6FFE1CF85
:104EF000D9FF81E943E8016A026A036A8A848A96D3
:104F0000D70EE66ED950020FE66EDACFE6FFECEC74
:104F100022F043E90F0ED89003BE03D0025C000ECE
:104F2000035803E2000E24D023D0D890035004E6A7
:104F30002F0E025C010E035803E2010E19D018D0A7
:104F4000D890035004E6100E025C020E035803E2F0
:104F5000020E0ED00DD0D890035004E6D00E025CA5
:104F6000020E035803E2030E03D002D0040E00D059
:104F700044E9E7CFD9FF1200D9CFE6FFE1CFD9FF4F
:104F800081E942E8016A026A8A848A86899AD70E90
:104F9000E66ED950010FE66EDACFE6FFECEC22F0B8
:104FA00043E9023404E20150F008030E025403E224
:104FB000010E03D002D0000E00D043E9E7CFD9FFA5
:024FC0001200DD
:0E4FC2004572726F723A20426164206C6F7704
:104FD000207072696F726974792072656365697691
:104FE000652C20636F6465203D2025780D0A0045FF
:104FF00072726F723A20556E65787065637465647D
:10500000206D736720696E2071756575652C20743D
:10501000797065203D2025780D0A004932432053E0
:105020006C617665205265710D0A00202578004973
:10503000324320496E7465727275707420726563B4
:1050400065697665642025783A20004572726F7232
:105050003A204261642068696768207072696F72E3
:1050600069747920726563656976652C20636F6465
:0950700065203D2025780D0A00A1
:06507A003E0EF66E000E72
:10508000F76E000EF86E03010900F550EE6F09008F
:10509000F550EF6F03E1EE6701D03DD00900F55008
:1050A000E96F0900F550EA6F0900F550EB6F090050
:1050B0000900F550E96E0900F550EA6E0900090093
:1050C0000900F550EC6F0900F550ED6F090009007B
:1050D000F6CFF0F3F7CFF1F3F8CFF2F3E9C3F6FF31
:1050E000EAC3F7FFEBC3F8FF0301EC5302E1ED5312
:1050F00007E00900F550EE6EEC07F8E2ED07F9D78E
:10510000F0C3F6FFF1C3F7FFF2C3F8FF0301EE07A8
:08511000000EEF5BBFD7120097
:08511800D9CFE6FFDACFE6FF74
:10512000E1CFD9FFE2CFDAFF87E9C26AC16A035053
:10513000400DF350C00B0301F36F03407F0B3C0B9A
:10514000F311C26E0450040DF350380BF46F0438A1
:105150000F0B070BF36F800E0414F311F411C16EE3
:1051600001EBF3F3F46BF3C348FF00EB49FF060ECA
:10517000F36FC00E0214F3C3E7FFE75204E0E84206
:105180007F0BE706FCE10E01B86F03AE03D09E9CD7
:105190009D8CF28CC28041E9E5CFDAFFE7CFD9FFE1
:0251A0001200FB
:0E51A200050ED56EF184F294F28AD58E0001CE
:1051B000526B0001536B1200D9CFE6FFE1CFD9FF4C
:1051C00081E945E8F29A036A046A056AD650016EDD
:1051D000D750026E011C01E1021C08E10550052AAE
:1051E0000301F36F030E0301F35DF0E3F2A406D0B5
:1051F000032AFF0E0001525D01E1042A0001525111
:105200000326000153510426F28A01EB46F002EB1B
:1052100047F003EB48F004EB49F000D046E9E7CF54
:04522000D9FF1200A0
:0C522400D9CFE6FFDACFE6FFE1CFD9FFDB
:10523000E2CFDAFF85E9013415E200EBE9FF01EB8B
:10524000EAFFEECFF3FFEDCFF4FFEE2A000EEF22E0
:10525000F3CFE9FFF4CFEAFF02EBEFFFEF50F36E7D
:10526000F46A0DD0FE0E005C05E102EBE6FF0CECEB
:105270002BF004D002EBE6FF11EC00F041E941E92C
:0A528000E5CFDAFFE7CFD9FF1200F7
:06528A00D9CFE6FFDACFE8
:10529000E6FFE1CFD9FFE2CFDAFF85E944E8D9CFD5
:1052A000E6FFDACFE6FFE552E550066EE750056E01
:1052B00005EBE6FF06EBE6FF00EBE6FF01EBE6FFA2
:1052C00002EBE6FF56C0E6FF57C0E6FFC7EC10F062
:1052D00047E9F350076EF450086E07EBF3FF08EB55
:0E52E000F4FF45E9E5CFDAFFE7CFD9FF120072
:0252EE00C0906E
:1052F000F26AF16AF06A6C0ED36E030E936E200EA2
:10530000926E100E946EC00EC76E200EC66E0F0EFB
:10531000C16E8A8A939AF292D08EF19CF28E12001C
:10532000D9CFE6FFE1CFD9FF83E941E9E7CFD9FF44
:105330001200D9CFE6FFE1CFD9FF85E941E9E7CFF8
:06534000D9FF120012006B
:0A534600D9CFE6FFDACFE6FFE1CF92
:10535000D9FFE2CFDAFF85E93F0EC716C66A0250D1
:10536000C6120050C7120150030A09E0010A04E006
:10537000020A06E1C78C04D0C78CC68801D0C68853
:0E538000C68A41E9E5CFDAFFE7CFD9FF120078
:02538E00D9CF75
:10539000E6FFDACFE6FFE1CFD9FFE2CFDAFF83E91C
:1053A00041E8C950036E9E96C69E00EBC9FFC6AE8B
:1053B00002D0FF0E03D09EA6FED7000E42E9E5CF35
:0853C000DAFFE7CFD9FF12006C
:0853C800D9CFE6FFE1CFD9FFC8
:1053D00089E91E0E041801E1055001E10CD01F0EF1
:1053E000041801E1055007E100500224E96E015064
:0E53F0000320EA6EEF6A41E9E7CFD9FF120011
:0253FE00D9CF05
:10540000E6FFDACFE6FFE1CFD9FFE2CFDAFF83E9AB
:105410007F0E0014D56ED76AD66AF29400AE02D021
:10542000F28A01D0F29AD58E41E9E5CFDAFFE7CFD3
:04543000D9FF12008E
:0C543400D9CFE6FFE1CFD9FF82E941E8C3
:105440009E96C950026EC69E00EBC9FFC6BEFBD732
:105450009EA6FED742E9E7CFD9FF1200E66AEADF4F
:0854600041E9C95000D012001F
:08546800D9CFE6FFE1CFD9FF27
:1054700083E900EBE9FF01EBEAFFEE6AED6A41E93F
:10548000E7CFD9FF1200D9CFE6FFE1CFD9FF89E9F5
:0854900041E9E7CFD9FF12004A
:08549800D9CFE6FFDACFE6FFF1
:1054A000E1CFD9FFE2CFDAFF84E942E880EB04F0F4
:1054B00081EB05F005EBCFFF04EBCEFF43E9E5CF31
:0854C000DAFFE7CFD9FF12006B
:0854C800D9CFE6FFDACFE6FFC1
:1054D000E1CFD9FFE2CFDAFF82E942E8CE50026E97
:1054E000CF50036E02EBF3FF03EBF4FF43E9E5CF8C
:0854F000DAFFE7CFD9FF12003B
:0854F800D9CFE6FFDACFE6FF91
:10550000E1CFD9FFE2CFDAFF84E942E880EB04F093
:1055100081EB05F005EBD7FF04EBD6FF43E9E5CFC0
:08552000DAFFE7CFD9FF12000A
:08552800D9CFE6FFDACFE6FF60
:10553000E1CFD9FFE2CFDAFF83E9C30EC214030142
:10554000F36F00407F0B3C0BF311C26E41E9E5CFD6
:08555000DAFFE7CFD9FF1200DA
:08555800D9CFE6FFDACFE6FF30
:10556000E1CFD9FFE2CFDAFF82E941E8C950026E0C
:105570009E96C96A9EA6FED7C95042E9E5CFDAFFDA
:06558000E7CFD9FF120085
:0A5586001200D9CFE6FFE1CFD9FFF4
:1055900083E900EBAEFE01EBAFFEAECEE9FFAFCE8E
:1055A000EAFF040EE926000EEA22EF6A41E9E7CF9E
:0455B000D9FF12000D
:0C55B400F36AF46AFF0EE124E96EFF0EBA
:1055C000E220EA6EED6607D02F0EEF6404D03A0EAB
:0855D000EF6001D0F32A120084
:0855D800FF0EE35000015C6FBF
:1055E000480E01D04C0EE76EE72EFED7E76AE72E95
:0855F000FED75C2FF7D7120073
:0855F800B00EF36E00EE00F0AE
:105600000E0E01D81200EA6002D0EE6AFCD7F35009
:08561000E9601200EE6AFCD70C
:08561800FF0EE350ADBA04D00F
:10562000B06AAC8EAD8A949CADA2FED7AE6EF36E1E
:04563000F46A120006
:0C563400D9CFE6FFE1CFD9FF89E942E8B9
:1056400080EB09F081EB0AF043E9E7CFD9FF1200C4
:105650001DEE00F02DEE00F0F86A3DEC28F012ECA3
:0A56600000F0D2EC20F0FBD712009E
:06566A00100E946E8B9EF1
:105670008B8EE66AE66A010EE66EA3EC29F043E93A
:02568000120016
:0E568200C4CFF5F3F5C3F6F30301F56BC35087
:0A569000F511F36EF6C3F4FF1200EB
:06569A00FF0EE350E84E94
:1056A0001200000000D000D000D0E82EFAD712007F
:1056B0003031323334353637383961626364656688
:0156C00000E9
:0F56C10042656E2042616C6B636F6D00000000EC
:1056D0000044616E204C6F67616E000000000000A6
:1056E00000547920446176697300000000000000D6
:1056F0000052696C6579204E6577656C6C0000001E
:105700000052656164696E67206C696768740000A7
:1057100000536C656570696E67206C69676874001A
:10572000005456206C696768740000000000000097
:10573000004D4158206C696768740000000000004B
:0657400000000000000063
:0A57460042656E2042616C6B636FD8
:105750006D000000000044616E204C6F67616E00B8
:105760000000000000005479204461766973000055
:1057700000000000000052696C6579204E65776575
:105780006C6C0000000052656164696E67206C6992
:10579000676874000000536C656570696E67206C03
:1057A0006967687400005456206C6967687400006B
:1057B0000000000000004D4158206C6967687400CB
:0857C0000000000000000114CC
:0857C8005501776655443322B8
:0357D000110000C5
:00000001FF
