:020000040000FA
:060000005FEF11F0120099
:020006001200E6
:06000800D1EF0AF0120026
:02000E00C250DE
:08001000020B01E0010E1200D9
:060018002EEF0BF01200B8
:02001E000100DF
:0C00200036230000500000000200000029
:04002C0090DB86E9F6
:100030000150010600090CE002EBE6FF03EBE6FFCE
:1000400000EBE6FF69DBF4E1421DF2E1010E01D0B5
:10005000000E41E9E5CFDAFFE7CFD9FF120077DBE9
:1000600089E97BE80A6A0B6A02EBF6FF03EBF7FF0C
:1000700004EBF8FF0800F550096E095001E12DD39B
:10008000250E095C01E01BD30C6A0D6A0E6A0F6A2B
:10009000106A2DDB2D0E095C0CE02B0E095C09E0CB
:1000A000200E095C06E0230E095C03E0300E095CBB
:1000B00015E10950300A10E0130A0CE0030A08E0C9
:1000C0000B0A04E0060AE5E10C80E3D70C82E1D7D5
:1000D0000C84DFD70C86DDD70C88DBD72A0E095CB1
:1000E00013E1A5DB0DE30C801CEB41F01DEB42F0AE
:1000F0000001416D421F000E422341510D6E02D09E
:100100009CEB0DF0F4DA07D0126A3FDB02E06BDB08
:10011000FCD792EB0DF00CB00C982E0E095C15E19B
:10012000E6DA2A0E095C08E182DB04E29CEB0EF0C1
:10013000010E0F6EDCDA09D0126A27DB02E053DB16
:10014000FCD792EB0EF0010E0F6E680E095C07E112
:10015000CEDA680E095C1DE1030E106E19D0740E24
:10016000095C16E07A0E095C13E0480E095C06E0B3
:10017000540E095C03E05A0E095C02E1020E07D03E
:100180006C0E095C03E06A0E095C03E1010E106E5F
:10019000AEDA09506E0A01E16ED21E0A01E128D1E1
:1001A000200A01E125D13F0A01E1FDD01A0A01E14F
:1001B000FAD00D0A01E1F7D0200A01E1F4D03A0AA1
:1001C00001E1F1D0200A01E1EED0260A01E1EAD0F6
:1001D0000D0A01E1E7D01A0A01E19ED0200A3BE0B6
:1001E000300A1AE0460A0EE0250A01E072D2D95020
:1001F000020FE96E000EDA20EA6E010EEE5E000ECE
:10020000EE5AEE5A0FDB250EE66E86DA03E1421D4A
:1002100001E159D20A2A5BD2116A0D50010803E2AA
:100220000D04116EF5DA115007E0010E0C1404E113
:100230006DDA01E048D2116AD3DAEF50096ECBDAF9
:1002400003E1421D01E13FD20A2A000E0B225EDAD1
:1002500001E13FD238D2020E105C08E1030E4EDA03
:10026000EE50176EEE50186EEF5007D0E7DA436B82
:100270004151176E4251186E4351196E17EBE6FF4C
:1002800018EBE6FF19EBE6FFCAEC0EF043E948C0B5
:1002900041F049C042F04AC043F0000141511C6E98
:1002A00042511D6E0F5006E01C500E5C03E20E50D2
:1002B0001C6E1D6A1C500D5C02E29CEB0DF050DAC6
:1002C00005E00D500E5C02E28EEB0DF00CB004D098
:1002D0001DDA01E0F8D1116A126A17EBF6FF18EB8C
:1002E000F7FF19EBF8FF0800F550096E095010E010
:1002F0000D50125C0DE26FDA03E1421D01E1E3D122
:100300000A2A000E0B22122AD950170F55DAEBD702
:10031000FDD901E1DED1D7D163DAEE501A6EED508E
:100320001B6E1AEBE6FF1BEBE6FFBCEC0EF042E99E
:10033000F3501C6EF4501D6E0F5006E01C500E5C06
:1003400003E20E501C6E1D6A1C500D5C02E29CEB19
:100350000DF006DA05E00D500E5C02E28EEB0DF0BA
:100360000CB004D0D3D901E0AED1116A126A1AEBF5
:10037000E9FF1BEBEAFFEF50096E09500FE00D504B
:10038000125C0CE228DA03E1421D01E19CD10A2A49
:10039000000E0B22122A1A2A1B22E9D7B7D901E133
:1003A00098D191D10C8E10040AE1040EA7D9EE5019
:1003B000136EEE50146EEE50156EEF5032D0030EE9
:1003C000105C16E10CAE0CD00BDAEFCF41F000015F
:1003D000426B436B446B41AF23D0426943691FD0EA
:1003E000FFD9EFCF41F000014151136E146A20D0C4
:1003F000020E105C0CE10CAE06D0030E7FD9B6D90C
:1004000043AF0ED00CD0030E79D9B0D909D00CAEC1
:100410000AD014DA436B446B42AF02D0436944699B
:10042000BCD9166E07D00ADA4151136E4251146ED0
:10043000156A166A0F5002E1010E0E6E1E6A1F6ADF
:10044000D950400FE66E000EDA20E66EE552E55018
:10045000436EE750426E416A116A0A0E106E0950EF
:10046000780A12E0200A10E0280A0CE0200A0AE0CC
:100470003F0A06E00D0A02E0200A08E1020E05D05C
:10048000080E03D0080E0926100E106E0CBE02D006
:100490000C920C94800E0C1417E0163415E3E668E9
:1004A000E668E668E66842D921EC0CF0E552E5CF53
:1004B00044F0E5CF43F0E5CF42F0E7CF41F0000153
:1004C0006CD9166E2D0E07D00CA202D02B0E03D0C5
:1004D0000CA404D0200E206E1E2A01D0206A0E50DB
:1004E00005E1135014101510161061E000011E0EE6
:1004F000416F230E426F000E436F83D9DEEC0BF089
:10050000E552E5CF47F0E5CF46F0E5CF45F0E7CF40
:1005100044F0000141514425F36E42514521F46EEF
:1005200043514621F86EF4CFF7FFF3CFF6FF0800F2
:10053000F550126E580E095C05E1610E125C02E383
:10054000200E125E5ED9DBEC0BF0E552E550166E24
:10055000E550156EE550146EE750136E42EBE9FF5F
:1005600043EBEAFF4206000E435A12EBEFFF1E2A4E
:100570001350141015101610B9E10CA619D06F0EF7
:10058000095C06E10E501E5C13E31E280E6E10D0AF
:10059000780E095C09E0580E095C06E0620E095C01
:1005A00003E0420E095C04E1020E1F6E01D01E6AD8
:1005B000100E0C1407E00D500E5C04E20F5002E127
:1005C0008DEB0EF00E501E5C03E21E500E5E01D04D
:1005D0000E6A0E501E241F24D8800D5407E20E50C0
:1005E0000D5CD8801E54D8801F54116E010E0C145F
:1005F00006E1115004E08AD866E10AD9116A205058
:1006000007E010D920EBE6FF87D802E1421D5BE04E
:100610001F500BE007D9300EE66E7ED802E1421D76
:1006200052E0D9D802E1421D4EE00E501F5C02E2BA
:100630001F500E5E300EE66E0EEBE6FFDCD843E197
:10064000422A000E432242EBE9FF43EBEAFFEF5060
:10065000126E125008E0E6D812EBE6FF5DD8F0E12A
:10066000421DEEE130D052D82EE10E501E2411244E
:100670001F240A262CD01050030A1CE0010A14E0A3
:10068000030A07E0ADD8C9D80AEBEEFF0BEBEDFF8C
:1006900020D08BD8446B42AF02D043694469A0D8C4
:1006A0004ED844C0EEFF15D080D842BF436998D8D9
:1006B00046D80FD095D8B1D80AEBEFFF0AD08BD827
:1006C00005E1421D03E1F368F4680BD00A2A000E2D
:1006D0000B22D950020F70D8CDD40AEBF3FF0BEBED
:1006E000F4FF7CE9E5CFDAFFE7CFD9FF1200D9505C
:1006F000020F62D80800F550096E1200005E000E6D
:10070000015A00EBE9FF01EBEAFF1200200EE66E52
:1007100011EBE6FFFBEF03F083EC0FF043E9F3CFBF
:1007200041F0F4CF42F00001F31C120013EBE6FF9E
:1007300014EBE6FF15EBE6FF16EBE6FF12006DD8B3
:1007400041C0EEFF42C0EEFF43C0EEFF1200D9CF22
:10075000E6FFDACFE6FFE1CFD9FFE2CFDAFF120002
:100760001C500D5C116E54D80F501200EECF41F0AA
:10077000EECF42F0EFCF43F00001446B1200EECF1A
:1007800041F0EFCF42F0000112000950E66EE66A38
:100790000DEC11F042E9F35012004151136E425139
:1007A000146E4351156E445112000AEB41F00BEBED
:1007B00042F00001436B1200E96E000EDA20EA6E8F
:1007C000EF2AEECFF6FF000EEF22EECFF7FFEF227B
:1007D000EECFF8FF120026D809EBE6FF8CEF03F00E
:1007E000020E7EEF03F00A0E1202F3500924D00F1E
:1007F000126E77EF03F016D816EC00F044E900090A
:10080000120010EBE6FFE66AE66AE66A96EF03F08E
:1008100011500A26000E0B221200EE50EFCFEAFF15
:10082000E96E120005EBE6FF06EBE6FF1200D8DFEB
:10083000EE501C6EED501D6E1D341200D1DFBFEF67
:0208400003F0C3
:0E084200D9CFE6FFE1CFD9FF82E941E9E7CF48
:10085000D9FF1200D9CFE6FFE1CFD9FF84E941E902
:10086000E7CFD9FF1200D9CFE6FFE1CFD9FF82E968
:1008700041E9E7CFD9FF1200D9CFE6FFE1CFD9FF99
:1008800084E94EC0E9FF4FC0EAFF190EE926000EC9
:10089000EA22EF6A4EC0E9FF4FC0EAFF190EEB50A3
:1008A000D880025432E24EC0E9FF4FC0EAFF190E71
:1008B000EB500024E96E000E0120EA6EEF50E66E68
:1008C0004EC0E9FF4FC0EAFF0F0EE926000EEA22F4
:1008D000E9CF41F0EACF42F04EC0E9FF4FC0EAFF56
:1008E000190EEB500001EA6A4125E96E4251EA22F5
:1008F000E552E750EF6E4EC0E9FF4FC0EAFF190E18
:10090000E926000EEA22EF2AC5D74EC0E9FF4FC004
:10091000EAFF190EE926000EEA2202EBEFFF4EC0B5
:10092000E9FF4FC0EAFF1A0EE926000EEA22010E87
:10093000EF6E4EC0E9FF4FC0EAFF0F0EEB50C96EDD
:10094000C68841E9E7CFD9FF1200D9CFE6FFE1CF52
:10095000D9FF82E94EC0E9FF4FC0EAFF0B0EE9263E
:10096000000EEA22010EEF6E4EC0E9FF4FC0EAFF13
:100970000A0EE926000EEA22EF6A005038E0C7AA04
:100980001ED04EC0E9FF4FC0EAFF0C0EE926000E54
:10099000EA22050EEF6E4EC0E9FF4FC0EAFF0E0ED1
:1009A000E926000EEA22EF2A4EC0E9FF4FC0EAFF17
:1009B0000D0EE926000EEA22050EEF6E17D0C7A431
:1009C0000BD04EC0E9FF4FC0EAFF0C0EE926000E27
:1009D000EA22080EEF6E0AD04EC0E9FF4FC0EAFFD0
:1009E0000C0EE926000EEA22070EEF6E0AD04EC06A
:1009F000E9FF4FC0EAFF0C0EE926000EEA22060EC0
:100A0000EF6E41E9E7CFD9FF1200D9CFE6FFE1CF82
:100A1000D9FF81E949E8026A036A046A056A066A3D
:100A2000C6AC20D0C69C4EC0E9FF4FC0EAFF0C0EFA
:100A3000E926000EEA22050EEF6E010E066E4EC08C
:100A4000E9FF4FC0EAFF0E0EE926000EEA22EF2A68
:100A50004EC0E9FF4FC0EAFF0D0EE926000EEA2264
:100A6000040EEF6EC7A004D0C950016E010E026ED5
:100A7000065001E094D14EC0E9FF4FC0EAFF0C0ED2
:100A8000EB50070A01E1D2D00F0A01E18DD00E0A26
:100A900015E0030A01E083D1C7A60FD002EBE6FF01
:100AA00054DF41E94EC0E9FF4FC0EAFF0C0EEB50A6
:100AB000080803E1026A010E056E71D1C7A82ED0A5
:100AC0004EC0E9FF4FC0EAFF0B0EE926000EEA22F6
:100AD000EF2A025018E0C7BA03D0010E046E13D0FB
:100AE0004EC0E9FF4FC0EAFF0E0EE926000EEA22D3
:100AF000EF2A4EC0E9FF4FC0EAFF0D0EE926000EB7
:100B0000EA22060EEF6E4EC0E9FF4FC0EAFF0C0E60
:100B1000E926000EEA22050EEF6E45D0025043E0B2
:100B20004EC0E9FF4FC0EAFF0B0EE926000EEA2295
:100B3000EF2AC7BA1BD0C7B40BD04EC0E9FF4FC0D5
:100B4000EAFF0C0EE926000EEA22070EEF6E0DD02A
:100B50004EC0E9FF4FC0EAFF0C0EE926000EEA2264
:100B6000080EEF6E010E056E026A1DD04EC0E9FF41
:100B70004FC0EAFF0E0EE926000EEA22EF2A4EC011
:100B8000E9FF4FC0EAFF0C0EE926000EEA22050E2F
:100B9000EF6E4EC0E9FF4FC0EAFF0D0EE926000ED2
:100BA000EA22060EEF6EFBD04EC0E9FF4FC0EAFF0F
:100BB0001A0EEB500001416F4EC0E9FF4FC0EAFF33
:100BC000190EEB500001415D26E24EC0E9FF4FC017
:100BD000EAFF0F0EE926000EEA22E9CF41F0EACF44
:100BE00042F04EC0E9FF4FC0EAFF1A0EEB50000181
:100BF000EA6A4125E96E4251EA22EF50C96E4EC0C1
:100C0000E9FF4FC0EAFF1A0EE926000EEA22EF2A9A
:100C1000010E036E0AD04EC0E9FF4FC0EAFF0C0E72
:100C2000E926000EEA22050EEF6EB9D0C7A85AD009
:100C30004EC0E9FF4FC0EAFF0B0EE926000EEA2284
:100C4000EF2A025042E0C7AA22D04EC0E9FF4FC0AF
:100C5000EAFFE9CF41F0EACF42F04EC0E9FF4FC0D2
:100C6000EAFF0A0EEB500001EA6A4125E96E4251A3
:100C7000EA2201EBEFFF4EC0E9FF4FC0EAFF0A0E88
:100C8000E926000EEA22EF2A010E046E1DD04EC0A6
:100C9000E9FF4FC0EAFF0E0EE926000EEA22EF2A16
:100CA0004EC0E9FF4FC0EAFF0D0EE926000EEA2212
:100CB000060EEF6E4EC0E9FF4FC0EAFF0C0EE926AC
:100CC000000EEA22050EEF6E02D0010E046E4EC039
:100CD000E9FF4FC0EAFF0C0EE926000EEA22050EDE
:100CE000EF6E5CD002505AE04EC0E9FF4FC0EAFF01
:100CF0000B0EE926000EEA22EF2AC7AA20D04EC02A
:100D0000E9FF4FC0EAFFE9CF41F0EACF42F04EC021
:100D1000E9FF4FC0EAFF0A0EEB500001EA6A4125E5
:100D2000E96E4251EA2201EBEFFF4EC0E9FF4FC0EE
:100D3000EAFF0A0EE926000EEA22EF2A2FD0C7A406
:100D400010D04EC0E9FF4FC0EAFF0C0EE926000E9E
:100D5000EA22080EEF6E010E046E010E056E026AA5
:100D60001DD04EC0E9FF4FC0EAFF0E0EE926000E6F
:100D7000EA22EF2A4EC0E9FF4FC0EAFF0D0EE92636
:100D8000000EEA22060EEF6E4EC0E9FF4FC0EAFFEA
:100D90000C0EE926000EEA22050EEF6E00D002507E
:100DA00002E1035002E0C6A8C6884EC0E9FF4FC06A
:100DB000EAFF0A0EEB5008081FE204501DE14EC086
:100DC000E9FF4FC0EAFF0C0EE926000EEA22050EED
:100DD000EF6E4EC0E9FF4FC0EAFF0E0EE926000E8F
:100DE000EA22EF2A4EC0E9FF4FC0EAFF0D0EE926C6
:100DF000000EEA22070EEF6E045041E04EC0E9FFFC
:100E00004FC0EAFF0B0EEB50E66E4EC0E9FF4FC03D
:100E1000EAFFE9CF41F0EACF42F04EC0E9FF4FC010
:100E2000EAFF0A0EEB500001EA6A4125E96E4251E1
:100E3000EA22E552E750EF6E4EC0E9FF4FC0EAFFED
:100E4000E9CF41F0EACF42F041C0E6FF42C0E6FF01
:100E5000280EE66E4EC0E9FF4FC0EAFF0A0EEB50C7
:100E6000010FE66E41EC09F044E94EC0E9FF4FC0C6
:100E7000EAFF0A0EE926000EEA22EF6A36D04EC0DB
:100E8000E9FF4FC0EAFF0E0EEB500001416F010E6B
:100E90000001415D2AE34EC0E9FF4FC0EAFF0E0E9C
:100EA000EB50076E4EC0E9FF4FC0EAFF0D0EEB504E
:100EB000086E4EC0E9FF4FC0EAFF0B0EEB50096E03
:100EC000D950070FE66EDACFE6FF290EE66E030E65
:100ED000E66E41EC09F044E94EC0E9FF4FC0EAFF7D
:100EE0000E0EE926000EEA22EF6A055013E04EC00E
:100EF000E9FF4FC0EAFFE9CF41F0EACF42F041C03D
:100F0000E6FF42C0E6FF2A0EE66EE66A41EC09F013
:100F100044E9056A4AE9E7CFD9FF1200D9CFE6FFD5
:100F2000E1CFD9FF83E900EB4EF001EB4FF04EC06B
:100F3000E9FF4FC0EAFF0A0EE926000EEA22EF6A37
:100F40004EC0E9FF4FC0EAFF0B0EE926000EEA2271
:100F5000EF6A4EC0E9FF4FC0EAFF0C0EE926000E13
:100F6000EA22050EEF6E4EC0E9FF4FC0EAFF0E0EFB
:100F7000E926000EEA22EF6A41E9E7CFD9FF120025
:100F8000D9CFE6FFE1CFD9FF82E99486948800EBC0
:100F9000C8FFC76AC66AC56A0E0EC612C78EC5806C
:0A0FA000C68A41E9E7CFD9FF12002D
:060FAA00D9CFE6FFE1CF04
:100FB000D9FF83E941E800EBE9FF01EBEAFF340EDA
:100FC000E926000EEA22EF6A00EBE9FF01EBEAFFF7
:100FD000350EE926000EEA22EF6A036A040E035C6E
:100FE00017E200EBE9FF01EBEAFFE9CF41F0EACFBE
:100FF00042F003500D0D000100014151F324E96E50
:10100000000100014251F420EA6EEF6A032AE6D79C
:1010100042E9E7CFD9FF1200D9CFE6FFE1CFD9FFF0
:1010200087E945E803500A6E0B6A04EBE9FF05EB1C
:10103000EAFF340EE926000EEA22EF50076E04EBB9
:10104000E9FF05EBEAFFE9CF41F0EACF42F00750B4
:101050000D0D0001F3504125086EF4504221096E38
:1010600008EBE9FF09EBEAFFEF5002E0FF0E4AD080
:1010700008EBE9FF09EBEAFFEE5203EBEFFF08EBA9
:10108000E9FF09EBEAFF020EE926000EEA2202EB75
:10109000EFFF0AEBE6FF0BEBE6FF00EBE6FF01EBF1
:1010A000E6FF08EBE9FF09EBEAFF030EE926000E75
:1010B000EA22E9CF41F0EACF42F041C0E6FF42C068
:1010C000E6FF91EC0EF046E904EBE9FF05EBEAFFE1
:1010D000340EE926000EEA22EF28030BE66E04EB3D
:1010E000E9FF05EBEAFF340EE926000EEA22E5529D
:1010F000E750EF6E08EBE9FF09EBEAFF010EEF6E38
:10110000010E00D046E9E7CFD9FF1200D9CFE6FFA4
:10111000E1CFD9FF88E945E805EBE9FF06EBEAFFF7
:10112000350EE926000EEA22EF50086E05EBE9FFC6
:1011300006EBEAFFE9CF41F0EACF42F008500D0D8F
:101140000001F3504125096EF45042210A6E09EB6B
:10115000E9FF0AEBEAFFEF045CE109EBE9FF0AEBC8
:10116000EAFFEE52EF50045C02E2FD0E54D009EBB0
:10117000E9FF0AEBEAFFEE52EF500B6E0C6A0BEB45
:10118000E6FF0CEBE6FF09EBE9FF0AEBEAFF030ED3
:10119000E926000EEA22E9CF41F0EACF42F041C051
:1011A000E6FF42C0E6FF00EBE6FF01EBE6FF91EC55
:1011B0000EF046E905EBE9FF06EBEAFF350EE926FE
:1011C000000EEA22EF28030BE66E05EBE9FF06EBC3
:1011D000EAFF350EE926000EEA22E552E750EF6EEF
:1011E00009EBE9FF0AEBEAFF020EE926000EEA220C
:1011F000EF50E66E02EBE9FF03EBEAFFE552E75042
:10120000EF6E09EBE9FF0AEBEAFFEF6A0B5003D040
:1012100002D0FC0E00D046E9E7CFD9FF1200D9CFAB
:10122000E6FFE1CFD9FF85E900EBE6FF01EBE6FF42
:1012300002EBE6FF03EBE6FF000EE66E0E0EE66E37
:10124000EBDE46E900D041E9E7CFD9FF1200D9CF64
:10125000E6FFE1CFD9FF86E900EBE6FF01EBE6FF11
:1012600002EBE6FF03EBE6FF04EBE6FF000EE66EA3
:101270000E0EE66E4BDF47E900D041E9E7CFD9FF1C
:101280001200D9CFE6FFE1CFD9FF85E900EBE6FFF9
:1012900001EBE6FF02EBE6FF03EBE6FF960EE66EE0
:1012A000000EE66EB9DE46E900D041E9E7CFD9FF8E
:1012B0001200D9CFE6FFE1CFD9FF86E900EBE6FFC8
:1012C00001EBE6FF02EBE6FF03EBE6FF04EBE6FFD4
:1012D000960EE66E000EE66E19DF47E900D041E992
:1012E000E7CFD9FF1200D9CFE6FFE1CFD9FF85E9DB
:1012F00000EBE6FF01EBE6FF02EBE6FF03EBE6FFA8
:10130000600EE66E000EE66E87DE46E900D041E92B
:10131000E7CFD9FF1200D9CFE6FFE1CFD9FF86E9A9
:1013200000EBE6FF01EBE6FF02EBE6FF03EBE6FF77
:1013300004EBE6FF600EE66E000EE66EE7DE47E9C0
:1013400000D041E9E7CFD9FF1200D9CFE6FFE1CFC6
:10135000D9FF85E900EBE6FF01EBE6FF02EBE6FFD4
:1013600003EBE6FF000EE66E000EE66E55DE46E984
:1013700000D041E9E7CFD9FF1200D9CFE6FFE1CF96
:10138000D9FF86E900EBE6FF01EBE6FF02EBE6FFA3
:1013900003EBE6FF04EBE6FF000EE66E000EE66EE2
:1013A000B5DE47E900D041E9E7CFD9FF12000001DF
:1013B000366B000EE66E0E0EE66EF7DD42E9960E17
:1013C000E66E000EE66EF1DD42E9600EE66E000E9E
:1013D000E66EEBDD42E9000EE66E000EE66EE5DD40
:1013E00042E91200D38E03001200D9CFE6FFE1CF0D
:1013F000D9FF83E900EBE9FF01EBEAFFE9CF41F018
:10140000EACF42F000EBE9FF01EBEAFF350EE926F7
:10141000000EEA22EF500D0D000100014151F324AE
:10142000E96E000100014251F420EA6EEF5000D055
:1014300041E9E7CFD9FF12000001365101E129D07F
:101440009BEC0AF0F3CF41F0F4CF42F000014151A0
:10145000421101E01ED079EC0AF0F3CF41F0F4CF55
:1014600042F000014151421101E113D0960EE66EA7
:10147000000EE66EBADF42E9000901E00AD0000E74
:10148000E66E0E0EE66EB1DF42E9000901E001D022
:10149000A9DF1200B5EC0AF0F3CF41F0F4CF42F02F
:1014A00000014151421101E11FD00001010E366FD0
:1014B000960EE66E000EE66E98DF42E9000903E044
:1014C0000001366B11D0000EE66E0E0EE66E8DDF5B
:1014D00042E9000903E00001366B06D00A0EE66E11
:0A14E00031EC11F041E9E4D71200ED
:0614EA00D08EF28EF28CA0
:1014F0001200F250800B800A01E0010E0001416FE2
:10150000426B800B01E0426941C0F3FF42C0F4FF2F
:1015100000D01200F250400B400A01E0010E000121
:10152000416F426B800B01E0426941C0F3FF42C052
:10153000F4FF00D01200F2AC05D0000EF36EF46A96
:1015400013D012D0D6DFF3CF41F0F4CF42F0000138
:101550004151421105E0000EF36EF46A05D004D04B
:10156000010EF36EF46A00D01200E5DFF3CF41F014
:10157000F4CF42F00001415142110EE1BADFF3CF46
:1015800043F0F4CF44F000014351441105E1010E52
:10159000F36EF46A05D004D0000EF36EF46A00D046
:1015A0001200DACFE4FFE2CFDAFFE9CFE4FFEACFBF
:1015B000E4FFD9CFE4FFDACFE4FF48C0E4FF49C03D
:1015C000E4FF4AC0E4FF4BC0E4FFF6CFE4FFF7CFEF
:1015D000E4FFF5CFE4FFF3CFE4FFF4CFE4FFFACF6D
:1015E000E4FF00EE41F0070EE80403E3EECFE4FF72
:1015F000FBD7E6529EA603D09E9605EC05F0F2A41A
:1016000003D0F294A1EC0DF01CEC0AF0E55200EED0
:1016100047F0070EE80403E3E5CFEDFFFBD7E5CF86
:10162000FAFFE5CFF4FFE5CFF3FFE5CFF5FFE5CF18
:10163000F7FFE5CFF6FFE5CF4BF0E5CF4AF0E5CF7A
:1016400049F0E5CF48F0E5CFDAFFE5CFD9FFE5CFA8
:10165000EAFFE5CFE9FFE5CFDAFF1100D8CFE4FFDD
:10166000E0CFE4FFE46EDACFE4FFE2CFDAFFE9CFC8
:10167000E4FFEACFE4FFD9CFE4FFDACFE4FF48C0CC
:10168000E4FF49C0E4FF4AC0E4FF4BC0E4FFF6CFEB
:10169000E4FFF7CFE4FFF5CFE4FFF3CFE4FFF4CFAF
:1016A000E4FFFACFE4FF00EE41F0070EE80403E3A5
:1016B000EECFE4FFFBD7E6529EA003D09E90D5EC80
:1016C0000DF09EAA03D09E9AF6EC10F0E55200EEC3
:1016D00047F0070EE80403E3E5CFEDFFFBD7E5CFC6
:1016E000FAFFE5CFF4FFE5CFF3FFE5CFF5FFE5CF58
:1016F000F7FFE5CFF6FFE5CF4BF0E5CF4AF0E5CFBA
:1017000049F0E5CF48F0E5CFDAFFE5CFD9FFE5CFE7
:10171000EAFFE5CFE9FFE5CFDAFFE550E5CFE0FFEF
:06172000E5CFD8FF100028
:0A17260043E8D9CFE6FFDACFE6FF73
:10173000E1CFD9FFE2CFDAFF89E9066A1200F3DFD1
:10174000068003D0F0DF01D00682056A046A100E1D
:10175000E76ED89002360336043605360050045C36
:101760000150055805E30050045E0150055A022A55
:10177000E72EF0D706B2120006B006D084EB00F0D8
:1017800085EB01F006A004D082EB00F083EB01F0C2
:10179000E552E5CFDAFFE7CFD9FF45E9120045E88A
:1017A000D9CFE6FFDACFE6FFE1CFD9FFE2CFDAFF0C
:1017B0008FE90C6A1200F3DF0C8003D0F0DF01D058
:1017C0000C820B6A0A6A096A086A200EE76ED890D2
:1017D0000436053606360736083609360A360B361D
:1017E0000050085C0150095802500A5803500B5829
:1017F00009E30050085E0150095A02500A5A03508A
:101800000B5A042AE72EE4D70CB212000CB00AD00F
:1018100088EB00F089EB01F08AEB02F08BEB03F030
:101820000CA008D084EB00F085EB01F086EB02F011
:1018300087EB03F0E552E5CFDAFFE7CFD9FF49E9BF
:10184000120044E8D9CFE6FFDACFE6FFE1CFD9FFB7
:10185000E2CFDAFF8EE980EB08F081EB09F082EB52
:101860000AF083EB0BF004500802F350006EF450C2
:10187000016E04500902F3500126000EF420026E9E
:1018800004500A02F3500226000EF420036E0450A6
:101890000B02F350032605500802F3500126F450C2
:1018A0000222000E032205500902F3500226F450D2
:1018B000032205500A02F350032606500802F35093
:1018C0000226F450032206500902F3500326075063
:1018D0000802F3500326E552E5CFDAFFE7CFD9FF40
:0418E00048E9000CC7
:0C18E4006CEC11F08A9A400EE66E61EC8C
:1018F00010F041E90A0EE66E61EC10F041E9A00E2D
:10190000E66E61EC10F041E98A8A8A9A400EE66E32
:1019100061EC10F041E9100EE66E61EC10F041E967
:10192000E66A61EC10F041E98A8A8A9A400EE66E16
:1019300061EC10F041E9E66A61EC10F041E9E66A19
:1019400061EC10F041E98A8A1200D9CFE6FFE1CFBD
:10195000D9FF83E98A9A400EE66E61EC10F041E906
:1019600001EBE6FF61EC10F041E900EBE6FF61EC12
:1019700010F041E98A8A41E9E7CFD9FF1200D9CFB7
:10198000E6FFE1CFD9FF83E941E8030E0014036EBF
:10199000300E0310E66E0A0EE66ED7DF42E9180E2F
:1019A000E66E84EC11F041E90F0E0114B809E66E01
:1019B0001A0EE66ECADF42E9180EE66E84EC11F0EC
:1019C00041E9300E03103009E66E0A0EE66EBDDF07
:1019D00042E9180EE66E84EC11F041E942E9E7CFE6
:1019E000D9FF1200D9CFE6FFE1CFD9FF82E941E963
:1019F000E7CFD9FF1200300EE66E0A0EE66EA5DFC5
:101A000042E9020EE66E84EC11F041E9200EE66E2A
:101A10000A0EE66E9ADF42E9120064DF0000200E33
:101A2000E66E0A0EE66E91DF42E9080EE66E84EC81
:101A300011F041E9230EE66E0A0EE66E86DF42E9FA
:101A40003F0EE66E1A0EE66E80DF42E9D4DFC00E6E
:101A5000E66E1A0EE66E79DF42E9CDDF1200D9CFCD
:101A6000E6FFE1CFD9FF83E941E8030E0014036EDE
:101A7000240EE66E0A0EE66E68DF42E901EBE6FF31
:101A80001A0EE66E62DF42E9B6DF42E9E7CFD9FF20
:021A9000120042
:0E1A92001200D9CFE6FFE1CFD9FF83E998EC2F
:101AA00011F007EC00F0000901E0FBD778EC11F031
:101AB000F3CF41F0F4CF42F000EBE9FF01EBEAFF96
:101AC00041C0EEFF42C0EDFF010EE66E31EC11F0B9
:101AD00041E941E9E7CFD9FF1200D9CFE6FFE1CFD5
:101AE000D9FF83E9FC0EE66EE6683F0EE66E540E03
:101AF000E66ED10EE66E3EEC0FF045E9D70EE66ECF
:101B0000DEEC10F041E998EC11F007EC00F0000970
:101B100001E0FBD778EC11F0F3CF41F0F4CF42F0C5
:101B200000EBE9FF01EBEAFF41C0EEFF42C0EDFF31
:101B3000010EE66E31EC11F041E941E9E7CFD9FF42
:101B40001200D9CFE6FFE1CFD9FF81E946E8000EC8
:101B5000E66EE66AC6EC10F042E9D950010FE66E77
:101B6000DACFE6FFD950050FE66EDACFE6FF020EB8
:101B7000E66EBDEC09F045E9036E046AE8BE046850
:101B8000020E031801E104500CE1D950010FE66E7A
:101B9000DACFE6FF0A0EE66E020EE66E41EC09F0C1
:101BA00044E947E9E7CFD9FF1200D9CFE6FFE1CFFB
:101BB000D9FF81E942E8AEEC10F0F350016EF45029
:101BC000026E000EE66EE66A0B0EE66EE66A0FEC3B
:101BD00009F044E9000EE66EE66A96EC10F042E980
:081BE00043E9E7CFD9FF120031
:081BE800D9CFE6FFE1CFD9FFE0
:101BF00081E947E8016A026A036A046A056A066ABB
:101C0000030E936E926A100E946E72EC0CF00DEC53
:101C10000DF0040EE66EE66A01EBE6FF02EBE6FF6E
:101C2000A2EC0BF0E552E550046EE750036E012A7A
:101C3000000E0222035004100AE1550E076E07EB56
:101C4000E6FF0A0EE66EA5EC0CF042E929D0010E83
:101C5000031801E104500AE1AA0E076E07EBE6FF44
:101C60000A0EE66EA5EC0CF042E91AD0020E03183B
:101C700001E104500AE1550E076E07EBE6FF1A0E6C
:101C8000E66EA5EC0CF042E90BD0AA0E076E07EB4E
:101C9000E6FF1A0EE66EA5EC0CF042E9016A026A54
:101CA0008A848A868A90D950050FE66EDACFE6FFDD
:101CB0006DEC0DF042E905500008030E065429E2D0
:101CC0008A848A96D950050FE66EDACFE6FF6DEC6E
:101CD0000DF042E9F00E055C000E065804E28B8020
:101CE0008B928B9415D0F00E055C010E065804E221
:101CF0008B908B828B940CD0F00E055C020E0658F4
:101D000004E28B808B828B9403D08B908B928B849C
:101D100003D08B908B928B947CD748E9E7CFD9FF87
:021D20001200AF
:0E1D2200D9CFE6FFDACFE6FFFA0EE3CFD9FF06
:101D3000FB0EE3CFDAFFFC0EE3CFE9FFFD0EE3CFAE
:101D4000EAFFE9CFF3FFEACFF4FFF80EE35003E137
:101D5000F90EE35008E0F80EE30602E2F90EE3069E
:101D6000DECFEEFFF2D7FF0EE3CFDAFFE552FF0E34
:101D7000E3CFD9FFE5521200FE0EE3CFE9FFFF0EDD
:101D8000E3CFEAFFF36AF46AEE5203E0F34AF42A7F
:101D9000FBD71200FF0EE3CFF8FFE552FF0EE3CFB3
:101DA000F7FFE552FF0EE3CFF6FFE552E66AE66A7B
:101DB000E66A0900F55209E0FD0EE32A05E1FE0E90
:101DC000E32A02E1FF0EE32AF4D7FD0EE3CF48F049
:0E1DD000FE0EE3CF49F0FF0EE3CF4AF0120003
:021DDE001E0ED7
:101DE000F66E000EF76E000EF86E00010900F55059
:101DF0003C6F0900F5503D6F03E13C6701D03DD0D9
:101E00000900F550376F0900F550386F0900F5509B
:101E1000396F09000900F550E96E0900F550EA6EC6
:101E2000090009000900F5503A6F0900F5503B6FB1
:101E300009000900F6CF3EF0F7CF3FF0F8CF40F0B1
:101E400037C0F6FF38C0F7FF39C0F8FF00013A533A
:101E500002E13B5307E00900F550EE6E3A07F8E265
:101E60003B07F9D73EC0F6FF3FC0F7FF40C0F8FF81
:0C1E700000013C07000E3D5BBFD71200D4
:041E7C00D9CFE6FFD5
:101E8000DACFE6FFE1CFD9FFE2CFDAFF87E9C26A16
:101E9000C16A0350400DF350C00B0001416F034075
:101EA0007F0B3C0B4111C26E0450040DF350380BF4
:101EB000426F04380F0B070B416F800E0414411161
:101EC0004211C16E01EB41F0426B41C048FF00EB93
:101ED00049FF060E416FC00E021441C0E7FFE752F2
:101EE00004E0E8427F0BE706FCE10E01B86F03AEA9
:101EF00003D09E9C9D8CF28CC28041E9E5CFDAFF35
:061F0000E7CFD9FF12003B
:0A1F0600D9CFE6FFDACFE6FFE1CF06
:101F1000D9FFE2CFDAFF85E9013415E200EBE9FFF2
:101F200001EBEAFFEECFF3FFEDCFF4FFEE2A000E58
:101F3000EF22F3CFE9FFF4CFEAFF02EBEFFFEF5020
:101F4000F36EF46A0DD0FE0E005C05E102EBE6FFD5
:101F500051EC11F004D002EBE6FF03EC00F041E994
:0C1F600041E9E5CFDAFFE7CFD9FF12001E
:041F6C00D9CFE6FFE4
:101F7000DACFE6FFE1CFD9FFE2CFDAFF85E944E827
:101F8000D9CFE6FFDACFE6FFE552E550066EE7501F
:101F9000056E05EBE6FF06EBE6FF00EBE6FF01EB67
:101FA000E6FF02EBE6FF50C0E6FF51C0E6FF2FEC74
:101FB00000F047E9F350076EF450086E07EBF3FFAB
:101FC00008EBF4FF45E9E5CFDAFFE7CFD9FF1200D0
:101FD000D9CFE6FFE1CFD9FF89E91E0E041801E150
:101FE000055001E120D01F0E041801E105501BE14E
:101FF00000500224E96E01500320EA6EEF6A00EB04
:10200000E6FF01EBE6FF02EBE6FF03EBE6FF04EB86
:10201000E6FF05EBE6FF3E0EE66E220EE66EE66A92
:0E202000B6EC0FF049E941E9E7CFD9FF120015
:02202E00D9CF08
:10203000E6FFE1CFD9FF89E942E880EB09F081EBC7
:102040000AF009EBE9FF0AEBEAFFEECFE6FFEECF7D
:10205000E6FF02EBE6FF03EBE6FF04EBE6FF05EB32
:10206000E6FF4E0EE66E220EE66EE66AB6EC0FF066
:0A20700049E943E9E7CFD9FF120068
:06207A00D9CFE6FFDACF2A
:10208000E6FFE1CFD9FFE2CFDAFF85E93F0EC716C1
:10209000C66A0250C6120050C7120150030A09E076
:1020A000010A04E0020A06E1C78C04D0C78CC68886
:1020B00001D0C688C68A41E9E5CFDAFFE7CFD9FF6C
:0220C00012000C
:0E20C200D9CFE6FFDACFE6FFE1CFD9FFE2CFBC
:1020D000DAFF83E941E8C950036E9E96C69E00EB85
:1020E000C9FFC6AE02D0FF0E03D09EA6FED7000EDB
:0C20F00042E9E5CFDAFFE7CFD9FF12008C
:0420FC00D9CFE6FF53
:10210000E1CFD9FF83E900EBE9FF01EBEAFFEE6ADB
:10211000ED6A41E9E7CFD9FF1200D9CFE6FFE1CF61
:0C212000D9FF89E941E9E7CFD9FF12009F
:04212C00D9CFE6FF22
:10213000DACFE6FFE1CFD9FFE2CFDAFF84E942E868
:1021400080EB04F081EB05F005EBCFFF04EBCEFF55
:0C21500043E9E5CFDAFFE7CFD9FF12002A
:04215C00D9CFE6FFF2
:10216000DACFE6FFE1CFD9FFE2CFDAFF82E942E83A
:10217000CE50026ECF50036E02EBF3FF03EBF4FF81
:0C21800043E9E5CFDAFFE7CFD9FF1200FA
:04218C00D9CFE6FFC2
:10219000DACFE6FFE1CFD9FFE2CFDAFF84E942E808
:1021A00080EB04F081EB05F005EBD7FF04EBD6FFE5
:0C21B00043E9E5CFDAFFE7CFD9FF1200CA
:0421BC00D9CFE6FF92
:1021C000DACFE6FFE1CFD9FFE2CFDAFF83E9C30E32
:1021D000C2140001416F00407F0B3C0B4111C26EE5
:0C21E00041E9E5CFDAFFE7CFD9FF12009C
:0421EC001200D9CF35
:1021F000E6FFE1CFD9FF83E900EB4CF001EB4DF0B6
:102200004CC0E9FF4DC0EAFF040EE926000EEA22A9
:0A221000EF6A41E9E7CFD9FF1200A1
:06221A00F36AF46AFF0EF6
:10222000E124E96EFF0EE220EA6EED6607D02F0E84
:0E223000EF6404D03A0EEF6001D0F32A1200E2
:02223E004D53FE
:10224000473A2025642025642025730D0A0054494F
:102250004D4552313A2025642025642025640D0A1D
:01226000007D
:0E226200FF0EE3500001526F480E01D04C0EEB
:10227000E76EE72EFED7E76AE72EFED7522FF7D795
:0222800012004A
:0E228200B00EF36E00EE00F00E0E01D812004A
:10229000EA6002D0EE6AFCD7F350E9601200EE6A01
:0222A000FCD769
:0E22A200FF0EE350ADBA04D0B06AAC8EAD8A28
:0E22B000949CADA2FED7AE6EF36EF46A1200DF
:0222BE001DEE13
:1022C00000F02DEE00F0F86AEFEC0EF09AEC11F051
:0822D000F4EC0DF0FBD7120045
:0822D800100E946E8B9E8B8E9C
:1022E000E66AE66A010EE66E3DEC10F043E9120084
:1022F000C4CF43F043C044F00001436BC3504311CB
:08230000F36E44C0F4FF12006B
:08230800FF0EE350E84E120045
:0E231000000000D000D000D0E82EFAD7120056
:02231E0030315C
:0F232000323334353637383961626364656600AD
:04233000C282120053
:02233400120095
:02233600FEFFA8
:00000001FF
