:020000040000FA
:06000000CEEF01F012003A
:020006000000F8
:08000800F80EE66EE66A3F0EF9
:10001000E66E040EE66E910EE66EE0EC00F0006E09
:10002000050EE15E0050870EE66E97EC01F0E5529A
:10003000320EE66EDCEC01F0E5521200D9CFE6FF9D
:10004000E1CFD9FFF8EC01F0F0EC01F0000901E09C
:10005000FBD7E7EC01F0F3CF00F0F4CF01F0FD0E99
:10006000DBCFE9FFFE0EDBCFEAFF00C0EEFF01C0F1
:10007000EDFF010EE66EAEEC01F0E552E552E7CF82
:10008000D9FF1200D9CFE6FFE1CFD9FFFC0EE66E13
:10009000E6683F0EE66EFC0EDB507F0BFC0BE66E57
:1000A000D10EE66EE0EC00F0006E050EE15E005051
:1000B000FC0EDBCFE6FF97EC01F0E552F8EC01F027
:1000C000F0EC01F0000901E0FBD7E7EC01F0F3CF21
:1000D00000F0F4CF01F0FD0EDBCFE9FFFE0EDBCF29
:1000E000EAFF00C0EEFF01C0EDFF010EE66EAEECD0
:1000F00001F0E552E552E7CFD9FF1200F5EF01F02C
:10010000D9CFE6FFE1CFD9FF080EE1266C0ED36E02
:10011000896A030E926E8A6A93688B6AFC0E946EEB
:10012000010E8B6E320EE66E80EC01F0E5528B6AAA
:10013000320EE66E80EC01F0E552040EDB6A050E2D
:10014000DB6A870EE66ED9CFE6FFDACFE6FF9ADFED
:10015000E552E552E5528F0EE66ED950020FE66E7B
:10016000000EDA20E66E8EDFE552E552E552DECF74
:1001700000F0DDCF01F0013404E200500008020E6F
:10018000015402E28B9001D08B80020EDBCF00F095
:10019000030EDBCF01F0013404E200500008020E30
:1001A000015402E28B9201D08B82C7D7080EE15C2A
:1001B00002E2E16AE552E16EE552E7CFD9FF1200B3
:1001C000D9CFE6FFDACFE6FFE1CFD9FFE2CFDAFF02
:1001D000C26AC16AFC0EDB50400DF350C00B006ECA
:1001E000FC0EDB407F0B3C0B0010C26EFD0EDB50A3
:1001F000040DF350380B016EFD0EDB380F0B070BAF
:10020000006EFD0EDB50800B00100110C16EF90E68
:10021000DBCF00F0FA0EDBCF01F001C000F0016A85
:1002200000C048FFF90EDBCF49FF060E006EFB0E43
:10023000DB50C00B00C0E7FFE75204E0E8427F0B51
:10024000E706FCE10E01B86FFC0EDBAE03D09E9C0E
:100250009D8CF28CC280E552E5CFDAFFE7CFD9FF63
:0202600012008A
:0E026200060EF66E000EF76E000EF86E00012E
:100270000900F550656F0900F550666F03E1656789
:1002800001D03DD00900F550606F0900F550616F55
:100290000900F550626F09000900F550E96E090088
:1002A000F550EA6E090009000900F550636F090076
:1002B000F550646F09000900F6CF67F0F7CF68F0DA
:1002C000F8CF69F060C0F6FF61C0F7FF62C0F8FFC9
:1002D0000001635302E1645307E00900F550EE6E3C
:1002E0006307F8E26407F9D767C0F6FF68C0F7FF55
:1002F00069C0F8FF00016507000E665BBFD71200FA
:10030000FF0EE350076EEF0E01D0F30EE76EE72EFF
:1003100087EF01F00C0E066EE76AE72E8DEF01F015
:0E032000062E8CEF01F0072E85EF01F0120083
:02032E00D9CF25
:10033000E6FFDACFE6FFE1CFD9FFE2CFDAFFC30E67
:10034000C214006EFD0EDB407F0B3C0B0010C26E32
:0C035000E552E5CFDAFFE7CFD9FF12003D
:04035C00FF0EE3505D
:10036000076E480E01D04C0EE76EE72EFED7E76A07
:0C037000E72EFED7072EF7D70000120082
:04037C00B00EF36E5E
:1003800000EE00F00E0E01D81200EA6002D0EE6A14
:0C039000FCD7F350E9601200EE6AFCD7C5
:04039C001DEE00F062
:1003A0002DEE00F0F86A059C31EC01F0FAEC01F05A
:0803B00080EC00F0FBD7120005
:0803B800FF0EE350E84E1200B5
:0E03C000000000D000D000D0E82EFAD71200C6
:0203CE00C45019
:1003D000036E026AC3500210F36E03C0F4FF1200F2
:0A03E000C250020B01E0010E1200F2
:0603EA00C2909D9C120070
:0403F000C2821200B3
:0203F4001200F5
:00000001FF
