:020000040000FA
:0600000076EF01F0120092
:020006000000F8
:08000800F80EE66EE66A3F0EF9
:10001000E66E040EE66E910EE66E88EC00F0006E61
:10002000050EE15E0050870EE66E3FEC01F0E552F2
:10003000320EE66E84EC01F0E5521200D9CFE6FFF5
:10004000E1CFD9FFA0EC01F098EC01F0000901E04C
:10005000FBD78FEC01F0F3CF00F0F4CF01F0FD0EF1
:10006000DBCFE9FFFE0EDBCFEAFF00C0EEFF01C0F1
:10007000EDFF010EE66E56EC01F0E552E552E7CFDA
:10008000D9FF12009DEF01F0D9CFE6FFE1CFD9FFF4
:10009000060EE1266C0ED36E896A010E926E8A6A94
:1000A00093688B6AFE0E946EAFDF010E8B6E320E7C
:1000B000E66E28EC01F0E5528B6A320EE66E28EC13
:1000C00001F0E552020EDB6A030EDB6AD9CFE6FFD0
:1000D000DACFE6FFB3DFE552E552DECF00F0DDCF49
:1000E00001F0D890015004E6000E005C020E0158A9
:1000F00002E28B6A02D0010E8B6EE4D7060EE15C41
:1001000002E2E16AE552E16EE552E7CFD9FF120063
:10011000D9CFE6FFDACFE6FFE1CFD9FFE2CFDAFFB2
:10012000C26AC16AFC0EDB50400DF350C00B006E7A
:10013000FC0EDB407F0B3C0B0010C26EFD0EDB5053
:10014000040DF350380B016EFD0EDB380F0B070B5F
:10015000006EFD0EDB50800B00100110C16EF90E19
:10016000DBCF00F0FA0EDBCF01F001C000F0016A36
:1001700000C048FFF90EDBCF49FF060E006EFB0EF4
:10018000DB50C00B00C0E7FFE75204E0E8427F0B02
:10019000E706FCE10E01B86FFC0EDBAE03D09E9CBF
:1001A0009D8CF28CC280E552E5CFDAFFE7CFD9FF14
:0201B00012003B
:0E01B200060EF66E000EF76E000EF86E0001DF
:1001C0000900F550656F0900F550666F03E165673A
:1001D00001D03DD00900F550606F0900F550616F06
:1001E0000900F550626F09000900F550E96E090039
:1001F000F550EA6E090009000900F550636F090027
:10020000F550646F09000900F6CF67F0F7CF68F08A
:10021000F8CF69F060C0F6FF61C0F7FF62C0F8FF79
:100220000001635302E1645307E00900F550EE6EEC
:100230006307F8E26407F9D767C0F6FF68C0F7FF05
:1002400069C0F8FF00016507000E665BBFD71200AA
:10025000FF0EE350076EEF0E01D0F30EE76EE72EB0
:100260002FEF01F00C0E066EE76AE72E35EF01F076
:0E027000062E34EF01F0072E2DEF01F01200E4
:02027E00D9CFD6
:10028000E6FFDACFE6FFE1CFD9FFE2CFDAFFC30E18
:10029000C214006EFD0EDB407F0B3C0B0010C26EE3
:0C02A000E552E5CFDAFFE7CFD9FF1200EE
:0402AC00FF0EE3500E
:1002B000076E480E01D04C0EE76EE72EFED7E76AB8
:0C02C000E72EFED7072EF7D70000120033
:0402CC00B00EF36E0F
:1002D00000EE00F00E0E01D81200EA6002D0EE6AC5
:0C02E000FCD7F350E9601200EE6AFCD776
:0402EC001DEE00F013
:1002F0002DEE00F0F86A059CD9EC00F0A2EC01F0BC
:0803000044EC00F0FBD71200F1
:08030800FF0EE350E84E120065
:0E031000000000D000D000D0E82EFAD7120076
:02031E00C450C9
:10032000036E026AC3500210F36E03C0F4FF1200A2
:0A033000C250020B01E0010E1200A2
:06033A00C2909D9C120020
:04034000C282120063
:020344001200A5
:00000001FF
