:020000040000FA
:0600000044EF18F01200AD
:020006001200E6
:060008000FEF12F01200E0
:02000E00C250DE
:08001000020B01E0010E1200D9
:0600180067EF12F0120078
:02001E000300DD
:10002000023100000000000040000000F930000034
:10003000D70000000100000000310000D5000000E2
:0400400002000000BA
:0C00440090DB86E90150010600090CE089
:1000500002EBE6FF03EBE6FF00EBE6FF69DBF4E112
:100060004B1DF2E1010E01D0000E41E9E5CFDAFFB0
:10007000E7CFD9FF120077DB89E97BE80A6A0B6AD0
:1000800002EBF6FF03EBF7FF04EBF8FF0800F55077
:10009000096E095001E12DD3250E095C01E01BD347
:1000A0000C6A0D6A0E6A0F6A106A2DDB2D0E095C50
:1000B0000CE02B0E095C09E0200E095C06E0230E23
:1000C000095C03E0300E095C15E10950300A10E0CC
:1000D000130A0CE0030A08E00B0A04E0060AE5E153
:1000E0000C80E3D70C82E1D70C84DFD70C86DDD7F8
:1000F0000C88DBD72A0E095C13E1A5DB0DE30C802D
:100100001CEB4AF01DEB4BF000014A6D4B1F000E3B
:100110004B234A510D6E02D09CEB0DF0F4DA07D060
:10012000126A3FDB02E06BDBFCD792EB0DF00CB008
:100130000C982E0E095C15E1E6DA2A0E095C08E13E
:1001400082DB04E29CEB0EF0010E0F6EDCDA09D0CC
:10015000126A27DB02E053DBFCD792EB0EF0010EB4
:100160000F6E680E095C07E1CEDA680E095C1DE1CE
:10017000030E106E19D0740E095C16E07A0E095C3D
:1001800013E0480E095C06E0540E095C03E05A0EC9
:10019000095C02E1020E07D06C0E095C03E06A0EF6
:1001A000095C03E1010E106EAEDA09506E0A01E13E
:1001B0006ED21E0A01E128D1200A01E125D13F0AB1
:1001C00001E1FDD01A0A01E1FAD00D0A01E1F7D0F0
:1001D000200A01E1F4D03A0A01E1F1D0200A01E15C
:1001E000EED0260A01E1EAD00D0A01E1E7D01A0AB1
:1001F00001E19ED0200A3BE0300A1AE0460A0EE0F8
:10020000250A01E072D2D950020FE96E000EDA2001
:10021000EA6E010EEE5E000EEE5AEE5A0FDB250E70
:10022000E66E86DA03E14B1D01E159D20A2A5BD260
:10023000116A0D50010803E20D04116EF5DA115038
:1002400007E0010E0C1404E16DDA01E048D2116AF6
:10025000D3DAEF50096ECBDA03E14B1D01E13FD257
:100260000A2A000E0B225EDA01E13FD238D2020EDA
:10027000105C08E1030E4EDAEE50176EEE50186E69
:10028000EF5007D0E7DA4C6B4A51176E4B51186E9E
:100290004C51196E17EBE6FF18EBE6FF19EBE6FF82
:1002A000CFEC14F043E956C04AF057C04BF058C0A9
:1002B0004CF000014A511C6E4B511D6E0F5006E070
:1002C0001C500E5C03E20E501C6E1D6A1C500D5C2F
:1002D00002E29CEB0DF050DA05E00D500E5C02E2FC
:1002E0008EEB0DF00CB004D01DDA01E0F8D1116AEC
:1002F000126A17EBF6FF18EBF7FF19EBF8FF08008F
:10030000F550096E095010E00D50125C0DE26FDAE5
:1003100003E14B1D01E1E3D10A2A000E0B22122A50
:10032000D950170F55DAEBD7FDD901E1DED1D7D17E
:1003300063DAEE501A6EED501B6E1AEBE6FF1BEB04
:10034000E6FFC1EC14F042E9F3501C6EF4501D6E50
:100350000F5006E01C500E5C03E20E501C6E1D6A2E
:100360001C500D5C02E29CEB0DF006DA05E00D502E
:100370000E5C02E28EEB0DF00CB004D0D3D901E09C
:10038000AED1116A126A1AEBE9FF1BEBEAFFEF50DC
:10039000096E09500FE00D50125C0CE228DA03E1FF
:1003A0004B1D01E19CD10A2A000E0B22122A1A2AA7
:1003B0001B22E9D7B7D901E198D191D10C8E100455
:1003C0000AE1040EA7D9EE50136EEE50146EEE50F3
:1003D000156EEF5032D0030E105C16E10CAE0CD04F
:1003E0000BDAEFCF4AF000014B6B4C6B4D6B4AAF11
:1003F00023D04B694C691FD0FFD9EFCF4AF00001E1
:100400004A51136E146A20D0020E105C0CE10CAE3F
:1004100006D0030E7FD9B6D94CAF0ED00CD0030E48
:1004200079D9B0D909D00CAE0AD014DA4C6B4D6B27
:100430004BAF02D04C694D69BCD9166E07D00ADAB1
:100440004A51136E4B51146E156A166A0F5002E131
:10045000010E0E6E1E6A1F6AD950400FE66E000E26
:10046000DA20E66EE552E550436EE750426E416A8F
:10047000116A0A0E106E0950780A12E0200A10E084
:10048000280A0CE0200A0AE03F0A06E00D0A02E012
:10049000200A08E1020E05D0080E03D0080E092636
:1004A000100E106E0CBE02D00C920C94800E0C1428
:1004B00017E0163415E3E668E668E668E66842D9B0
:1004C00062EC11F0E552E5CF4DF0E5CF4CF0E5CF11
:1004D0004BF0E7CF4AF000016CD9166E2D0E07D015
:1004E0000CA202D02B0E03D00CA404D0200E206E40
:1004F0001E2A01D0206A0E5005E113501410151069
:10050000161061E00001E80E4A6F300E4B6F000ECE
:100510004C6F83D91FEC11F0E552E5CF50F0E5CFD9
:100520004FF0E5CF4EF0E7CF4DF000014A514D2599
:10053000F36E4B514E21F46E4C514F21F86EF4CFB7
:10054000F7FFF3CFF6FF0800F550126E580E095C66
:1005500005E1610E125C02E3200E125E5ED91CEC16
:1005600011F0E552E550166EE550156EE550146E2B
:10057000E750136E42EBE9FF43EBEAFF4206000E41
:10058000435A12EBEFFF1E2A1350141015101610C9
:10059000B9E10CA619D06F0E095C06E10E501E5C85
:1005A00013E31E280E6E10D0780E095C09E0580E79
:1005B000095C06E0620E095C03E0420E095C04E19E
:1005C000020E1F6E01D01E6A100E0C1407E00D50B3
:1005D0000E5C04E20F5002E18DEB0EF00E501E5C3B
:1005E00003E21E500E5E01D00E6A0E501E241F2420
:1005F000D8800D5407E20E500D5CD8801E54D88070
:100600001F54116E010E0C1406E1115004E08AD83B
:1006100066E10AD9116A205007E010D920EBE6FF05
:1006200087D802E14B1D5BE01F500BE007D9300E6D
:10063000E66E7ED802E14B1D52E0D9D802E14B1D97
:100640004EE00E501F5C02E21F500E5E300EE66E52
:100650000EEBE6FFDCD843E1422A000E432242EBD8
:10066000E9FF43EBEAFFEF50126E125008E0E6D8C4
:1006700012EBE6FF5DD8F0E14B1DEEE130D052D831
:100680002EE10E501E2411241F240A262CD01050B7
:10069000030A1CE0010A14E0030A07E0ADD8C9D838
:1006A0000AEBEEFF0BEBEDFF20D08BD84D6B4BAF81
:1006B00002D04C694D69A0D84ED84DC0EEFF15D080
:1006C00080D84BBF4C6998D846D80FD095D8B1D8B0
:1006D0000AEBEFFF0AD08BD805E14B1D03E1F3686D
:1006E000F4680BD00A2A000E0B22D950020F70D8E2
:1006F000CDD40AEBF3FF0BEBF4FF7CE9E5CFDAFF97
:10070000E7CFD9FF1200D950020F62D80800F55088
:10071000096E1200005E000E015A00EBE9FF01EBCA
:10072000EAFF1200200EE66E11EBE6FF07EF04F081
:1007300048EC16F043E9F3CF4AF0F4CF4BF0000158
:10074000F31C120013EBE6FF14EBE6FF15EBE6FFDC
:1007500016EBE6FF12006DD84AC0EEFF4BC0EEFF6D
:100760004CC0EEFF1200D9CFE6FFDACFE6FFE1CFB3
:10077000D9FFE2CFDAFF12001C500D5C116E54D885
:100780000F501200EECF4AF0EECF4BF0EFCF4CF00F
:1007900000014D6B1200EECF4AF0EFCF4BF000019D
:1007A00012000950E66EE66A04EC18F042E9F350D4
:1007B00012004A51136E4B51146E4C51156E4D512F
:1007C00012000AEB4AF00BEB4BF000014C6B1200ED
:1007D000E96E000EDA20EA6EEF2AEECFF6FF000E89
:1007E000EF22EECFF7FFEF22EECFF8FF120026D870
:1007F00009EBE6FF98EF03F0020E8AEF03F00A0E12
:100800001202F3500924D00F126E83EF03F016D8B2
:1008100022EC00F044E90009120010EBE6FFE66A62
:10082000E66AE66AA2EF03F011500A26000E0B22D8
:100830001200EE50EFCFEAFFE96E120005EBE6FF83
:1008400006EBE6FF1200D8DFEE501C6EED501D6E79
:0A0850001D341200D1DFCBEF03F0DE
:06085A00D9CFE6FFE1CF5B
:10086000D9FF82E941E9E7CFD9FF1200D9CFE6FFEE
:10087000E1CFD9FF84E941E9E7CFD9FF1200D9CF11
:10088000E6FFE1CFD9FF82E941E9E7CFD9FF1200C6
:10089000D9CFE6FFE1CFD9FF84E9D1C0E9FFD2C0CB
:1008A000EAFF190EE926000EEA22EF6AD1C0E9FF3D
:1008B000D2C0EAFF190EEB50D880025432E2D1C008
:1008C000E9FFD2C0EAFF190EEB500024E96E000EDA
:1008D0000120EA6EEF50E66ED1C0E9FFD2C0EAFF18
:1008E0000F0EE926000EEA22E9CF4AF0EACF4BF0DC
:1008F000D1C0E9FFD2C0EAFF190EEB500001EA6A4D
:100900004A25E96E4B51EA22E552E750EF6ED1C01D
:10091000E9FFD2C0EAFF190EE926000EEA22EF2A0B
:10092000C5D7D1C0E9FFD2C0EAFF190EE926000EF3
:10093000EA2202EBEFFFD1C0E9FFD2C0EAFF1A0EB4
:10094000E926000EEA22010EEF6ED1C0E9FFD2C007
:10095000EAFF0F0EEB50C96EC68841E9E7CFD9FF19
:100960001200D9CFE6FFE1CFD9FF82E9D1C0E9FF7C
:10097000D2C0EAFF0B0EE926000EEA22010EEF6E4E
:10098000D1C0E9FFD2C0EAFF0A0EE926000EEA2232
:10099000EF6A005038E0C7AA1ED0D1C0E9FFD2C02C
:1009A000EAFF0C0EE926000EEA22050EEF6ED1C01A
:1009B000E9FFD2C0EAFF0E0EE926000EEA22EF2A76
:1009C000D1C0E9FFD2C0EAFF0D0EE926000EEA22EF
:1009D000050EEF6E17D0C7A40BD0D1C0E9FFD2C06F
:1009E000EAFF0C0EE926000EEA22080EEF6E0AD08E
:1009F000D1C0E9FFD2C0EAFF0C0EE926000EEA22C0
:100A0000070EEF6E0AD0D1C0E9FFD2C0EAFF0C0E8C
:100A1000E926000EEA22060EEF6E41E9E7CFD9FF84
:100A20001200D9CFE6FFE1CFD9FF81E949E8026A98
:100A3000036A046A056A066AC6AC20D0C69CD1C0A7
:100A4000E9FFD2C0EAFF0C0EE926000EEA22050EED
:100A5000EF6E010E066ED1C0E9FFD2C0EAFF0E0EA6
:100A6000E926000EEA22EF2AD1C0E9FFD2C0EAFF50
:100A70000D0EE926000EEA22040EEF6EC7A004D088
:100A8000C950016E010E026E065001E094D1D1C032
:100A9000E9FFD2C0EAFF0C0EEB50070A01E1D2D009
:100AA0000F0A01E18DD00E0A15E0030A01E083D19F
:100AB000C7A60FD002EBE6FF54DF41E9D1C0E9FF42
:100AC000D2C0EAFF0C0EEB50080803E1026A010EE7
:100AD000056E71D1C7A82ED0D1C0E9FFD2C0EAFF00
:100AE0000B0EE926000EEA22EF2A025018E0C7BAE0
:100AF00003D0010E046E13D0D1C0E9FFD2C0EAFFCB
:100B00000E0EE926000EEA22EF2AD1C0E9FFD2C07C
:100B1000EAFF0D0EE926000EEA22060EEF6ED1C0A6
:100B2000E9FFD2C0EAFF0C0EE926000EEA22050E0C
:100B3000EF6E45D0025043E0D1C0E9FFD2C0EAFFDA
:100B40000B0EE926000EEA22EF2AC7BA1BD0C7B463
:100B50000BD0D1C0E9FFD2C0EAFF0C0EE926000E8F
:100B6000EA22070EEF6E0DD0D1C0E9FFD2C0EAFF36
:100B70000C0EE926000EEA22080EEF6E010E056E3D
:100B8000026A1DD0D1C0E9FFD2C0EAFF0E0EE926ED
:100B9000000EEA22EF2AD1C0E9FFD2C0EAFF0C0E14
:100BA000E926000EEA22050EEF6ED1C0E9FFD2C0A1
:100BB000EAFF0D0EE926000EEA22060EEF6EFBD0CC
:100BC000D1C0E9FFD2C0EAFF1A0EEB5000014A6F14
:100BD000D1C0E9FFD2C0EAFF190EEB5000014A5D17
:100BE00026E2D1C0E9FFD2C0EAFF0F0EE926000ECF
:100BF000EA22E9CF4AF0EACF4BF0D1C0E9FFD2C0F8
:100C0000EAFF1A0EEB500001EA6A4A25E96E4B51E1
:100C1000EA22EF50C96ED1C0E9FFD2C0EAFF1A0E36
:100C2000E926000EEA22EF2A010E036E0AD0D1C097
:100C3000E9FFD2C0EAFF0C0EE926000EEA22050EFB
:100C4000EF6EB9D0C7A85AD0D1C0E9FFD2C0EAFF31
:100C50000B0EE926000EEA22EF2A025042E0C7AA54
:100C600022D0D1C0E9FFD2C0EAFFE9CF4AF0EACFF3
:100C70004BF0D1C0E9FFD2C0EAFF0A0EEB500001F1
:100C8000EA6A4A25E96E4B51EA2201EBEFFFD1C037
:100C9000E9FFD2C0EAFF0A0EE926000EEA22EF2A97
:100CA000010E046E1DD0D1C0E9FFD2C0EAFF0E0EC6
:100CB000E926000EEA22EF2AD1C0E9FFD2C0EAFFFE
:100CC0000D0EE926000EEA22060EEF6ED1C0E9FFF6
:100CD000D2C0EAFF0C0EE926000EEA22050EEF6EE6
:100CE00002D0010E046ED1C0E9FFD2C0EAFF0C0EA3
:100CF000E926000EEA22050EEF6E5CD002505AE0A3
:100D0000D1C0E9FFD2C0EAFF0B0EE926000EEA22AD
:100D1000EF2AC7AA20D0D1C0E9FFD2C0EAFFE9CFAD
:100D20004AF0EACF4BF0D1C0E9FFD2C0EAFF0A0E89
:100D3000EB500001EA6A4A25E96E4B51EA2201EBC9
:100D4000EFFFD1C0E9FFD2C0EAFF0A0EE926000E8C
:100D5000EA22EF2A2FD0C7A410D0D1C0E9FFD2C019
:100D6000EAFF0C0EE926000EEA22080EEF6E010ED5
:100D7000046E010E056E026A1DD0D1C0E9FFD2C01B
:100D8000EAFF0E0EE926000EEA22EF2AD1C0E9FFA3
:100D9000D2C0EAFF0D0EE926000EEA22060EEF6E23
:100DA000D1C0E9FFD2C0EAFF0C0EE926000EEA220C
:100DB000050EEF6E00D0025002E1035002E0C6A81B
:100DC000C688D1C0E9FFD2C0EAFF0A0EEB5008087E
:100DD0001FE204501DE1D1C0E9FFD2C0EAFF0C0EB2
:100DE000E926000EEA22050EEF6ED1C0E9FFD2C05F
:100DF000EAFF0E0EE926000EEA22EF2AD1C0E9FF33
:100E0000D2C0EAFF0D0EE926000EEA22070EEF6EB1
:100E1000045041E0D1C0E9FFD2C0EAFF0B0EEB5015
:100E2000E66ED1C0E9FFD2C0EAFFE9CF4AF0EACFCF
:100E30004BF0D1C0E9FFD2C0EAFF0A0EEB5000012F
:100E4000EA6A4A25E96E4B51EA22E552E750EF6E15
:100E5000D1C0E9FFD2C0EAFFE9CF4AF0EACF4BF0B8
:100E60004AC0E6FF4BC0E6FF280EE66ED1C0E9FFA0
:100E7000D2C0EAFF0A0EEB50010FE66E6DEC0CF0EB
:100E800044E9D1C0E9FFD2C0EAFF0A0EE926000E0C
:100E9000EA22EF6A36D0D1C0E9FFD2C0EAFF0E0ED7
:100EA000EB5000014A6F010E00014A5D2AE3D1C0F8
:100EB000E9FFD2C0EAFF0E0EEB50076ED1C0E9FF8A
:100EC000D2C0EAFF0D0EEB50086ED1C0E9FFD2C0D0
:100ED000EAFF0B0EEB50096ED950070FE66EDACF22
:100EE000E6FF290EE66E030EE66E6DEC0CF044E9AB
:100EF000D1C0E9FFD2C0EAFF0E0EE926000EEA22B9
:100F0000EF6A055013E0D1C0E9FFD2C0EAFFE9CF94
:100F10004AF0EACF4BF04AC0E6FF4BC0E6FF2A0E8C
:100F2000E66EE66A6DEC0CF044E9056A4AE9E7CF43
:100F3000D9FF1200D9CFE6FFE1CFD9FF83E900EB5B
:100F4000D1F001EBD2F0D1C0E9FFD2C0EAFF0A0E26
:100F5000E926000EEA22EF6AD1C0E9FFD2C0EAFF1B
:100F60000B0EE926000EEA22EF6AD1C0E9FFD2C0DB
:100F7000EAFF0C0EE926000EEA22050EEF6ED1C044
:100F8000E9FFD2C0EAFF0E0EE926000EEA22EF6A60
:100F900041E9E7CFD9FF1200D9CFE6FFE1CFD9FF72
:100FA00082E99486948800EBC8FFC76AC66AC56A5E
:100FB0000E0EC612C78EC580C68A41E9E7CFD9FF9B
:020FC00012001D
:0E0FC2008B9E320EE66E69EC18F041E98B8EC4
:100FD00051EC18F08A98420EE66E26EC17F041E9C3
:100FE0000A0EE66E26EC17F041E9280EE66E26ECB6
:100FF00017F041E98A888A98400EE66E26EC17F0D1
:1010000041E9010EE66E26EC17F041E9E66A26ECAE
:1010100017F041E98A888A98400EE66E26EC17F0B0
:1010200041E9E66A26EC17F041E9E66A26EC17F09A
:1010300041E98A881200D9CFE6FFE1CFD9FF83E9E1
:101040008A98400EE66E26EC17F041E901EBE6FFC8
:1010500026EC17F041E900EBE6FF26EC17F041E93A
:101060008A8841E9E7CFD9FF1200D9CFE6FFE1CF67
:10107000D9FF81E942E8016A026AA3DF0000030E9A
:10108000E66E120EE66ED7DF42E9030EE66E5BD81F
:1010900041E9230EE66E120EE66ECDDF42E9230E25
:1010A000E66E08D941E93F0EE66E130EE66EC3DF29
:1010B00042E9030EE66E47D841E9E668130EE66E94
:1010C000BADF42E9E66AF6D841E990D843E9E7CFCA
:1010D000D9FF1200D9CFE6FFE1CFD9FF83E941E87C
:1010E000030E0014036E200E0310E66E120EE66E61
:1010F000A2DF42E9400E0110E66E130EE66E9BDFA2
:1011000042E903EBE6FF1FD841E942E9E7CFD9FF07
:101110001200D9CFE6FFE1CFD9FF82E9230EE66EB8
:10112000120EE66E88DF42E9B80E0010E66E130E6E
:10113000E66E81DF42E9030EE66E05D841E941E93A
:10114000E7CFD9FF1200D9CFE6FFE1CFD9FF82E97F
:10115000300E0010E66E120EE66E6DDF42E9050EEF
:10116000E66E69EC18F041E9200E0010E66E120EF2
:10117000E66E61DF42E941E9E7CFD9FF1200010ED7
:10118000C96EC7A0FED7C95000D01200D9CFE6FF64
:10119000E1CFD9FF83E941E8036A00EBE6FFB9DF5D
:1011A00041E9400E015C0EE2020E036E020EE66E95
:1011B00001EBE6FF8FDF42E9010EE66EE66A8ADFA9
:1011C00042E90ED0010E036E020EE66EE66A82DF81
:1011D00042E9010EE66E400E015CE66E7BDF42E9FD
:1011E000035000D042E9E7CFD9FF1200D9CFE6FF84
:1011F000E1CFD9FF81E944E8016A026A046A080E76
:10120000045C25E204EBE6FFE66AC0DF42E9036A1C
:10121000035000014A6F4B6B800E0001D8904BBF0A
:1012200003D04A5D000E4B5910E2400E035C06E20B
:10123000020EE66EE66A13D842E905D0010EE66EAC
:10124000E66A0DD842E9032AE3D7042AD8D7E66A2A
:10125000E66A9CDF42E945E9E7CFD9FF1200D9CF22
:10126000E6FFE1CFD9FF83E941E8030E0014036EE6
:10127000240E0310E66E120EE66EDDDE42E900017A
:10128000D751000807E2011CE66E130EE66ED3DEAE
:1012900042E906D001EBE6FF130EE66ECCDE42E932
:1012A000200E03100409E66E4EDF41E942E9E7CF64
:1012B000D9FF1200D9CFE6FFE1CFD9FF82E9230E93
:1012C000E66E120EE66EB7DE42E9C00E0010E66E64
:1012D000130EE66EB0DE42E9030EE66E34DF41E93E
:1012E00041E9E7CFD9FF1200D9CFE6FFE1CFD9FF1F
:1012F00081E941E8016A8A98400EE66E26EC17F013
:1013000041E9010EE66E26EC17F041E9E66826ECAD
:1013100017F041E98A88280EE66E120EE66E8BDE23
:1013200042E90B0EE66E0FDF41E90B0EE66E0BDFB6
:1013300041E90A0EE66E69EC18F041E98A98410E1F
:10134000E66E26EC17F041E9130EE66E26EC17F078
:1013500041E9C7A0FED7D6EC17F0016E8A88E66A8D
:10136000010EE66E68DE42E9015000D042E9E7CFA7
:10137000D9FF1200D9CFE6FFE1CFD9FF84E943E8D6
:101380000150F80BE842E842E842046E0150070BB6
:10139000056E010E001405EBF3FF055204E0D89032
:1013A000E836F306FCE1066E01EBE6FF02EBE6FF32
:1013B000EDDE42E9E66E06EBE6FF51DF42E944E985
:1013C000E7CFD9FF1200D9CFE6FFE1CFD9FF85E9FA
:1013D00042E8056A066A0350015CD89006BE03D055
:1013E000055C000E065810E2010EE66E0250F36E28
:1013F000F46AF3500524E66E03EBE6FFBBDF43E936
:10140000052A000E0622E7D743E9E7CFD9FF1200ED
:10141000D9CFE6FFE1CFD9FF84E943E8046A020EA1
:10142000056E010E066E005009E00050040806E348
:101430000004E824E66EE66AA9DE42E9046A046A6A
:10144000100E045C57E2080E045C03E2020E056E07
:1014500002D0010E056E04500124E96E000E022038
:10146000EA6EEFCF4AF0410E00014A5D1EE30450E0
:101470000124E96E000E0220EA6EEF505A080CE2D9
:1014800004500124E96E000E0220EA6EEFCF4BF00B
:10149000610E00014B5D09E304500124E96E000E6A
:1014A0000220EA6EEF507A080AE204500124E96E45
:1014B000000E0220EA6EEF50200801E0066A065096
:1014C0000FE005EBE6FF010EE66E04500124E96E25
:1014D000000E0220EA6EEFCFE6FF10D843E908D0F5
:1014E00005EBE6FF010EE66E200EE66E07D843E937
:1014F000042AA6D744E9E7CFD9FF1200D9CFE6FFE7
:10150000E1CFD9FF84E942E8046A056A410E025C32
:1015100031E302505A082EE3410E025C056E00EBE7
:10152000E6FFE66A9CDE42E9046A060E045C1CE201
:1015300000EBE6FF0550060DF3CF4AF0F4CF4BF079
:10154000B20E00014A27270E00014B230450000170
:10155000F76A4A25F66E4B51F7220800F5CFE6FFF1
:101560007EDE42E9042AE1D700EBE6FFE66A77DE99
:1015700042E943D0610E025C31E302507A082EE367
:10158000610E025C056E00EBE6FFE66A68DE42E98A
:10159000046A060E045C1CE200EBE6FF0550060D33
:1015A000F3CF4AF0F4CF4BF04E0E00014A27280E3D
:1015B00000014B2304500001F76A4A25F66E4B5197
:1015C000F7220800F5CFE6FF4ADE42E9042AE1D718
:1015D00000EBE6FFE66A43DE42E90FD0200E026E22
:1015E00002500BE0046A080E045C07E200EBE6FF21
:1015F000E66A35DE42E9042AF6D743E9E7CFD9FFA8
:021600001200D6
:0E160200D9CFE6FFE1CFD9FF83E941E800EB45
:10161000E9FF01EBEAFF340EE926000EEA22EF6A49
:1016200000EBE9FF01EBEAFF350EE926000EEA22A6
:10163000EF6A036A040E035C17E200EBE9FF01EBBB
:10164000EAFFE9CF4AF0EACF4BF003500D0D00015D
:1016500000014A51F324E96E000100014B51F420CE
:10166000EA6EEF6A032AE6D742E9E7CFD9FF120014
:10167000D9CFE6FFE1CFD9FF87E945E803500A6EED
:101680000B6A04EBE9FF05EBEAFF340EE926000ED6
:10169000EA22EF50076E04EBE9FF05EBEAFFE9CF22
:1016A0004AF0EACF4BF007500D0D0001F3504A25E8
:1016B000086EF4504B21096E08EBE9FF09EBEAFFD5
:1016C000EF5002E0FF0E4AD008EBE9FF09EBEAFF1A
:1016D000EE5203EBEFFF08EBE9FF09EBEAFF020E26
:1016E000E926000EEA2202EBEFFF0AEBE6FF0BEB26
:1016F000E6FF00EBE6FF01EBE6FF08EBE9FF09EB95
:10170000EAFF030EE926000EEA22E9CF4AF0EACF0B
:101710004BF04AC0E6FF4BC0E6FF75EC14F046E91B
:1017200004EBE9FF05EBEAFF340EE926000EEA229E
:10173000EF28030BE66E04EBE9FF05EBEAFF340E3E
:10174000E926000EEA22E552E750EF6E08EBE9FFCA
:1017500009EBEAFF010EEF6E010E00D046E9E7CF7C
:10176000D9FF1200D9CFE6FFE1CFD9FF88E945E8DC
:1017700005EBE9FF06EBEAFF350EE926000EEA224B
:10178000EF50086E05EBE9FF06EBEAFFE9CF4AF000
:10179000EACF4BF008500D0D0001F3504A25096EB9
:1017A000F4504B210A6E09EBE9FF0AEBEAFFEF0464
:1017B0005CE109EBE9FF0AEBEAFFEE52EF50045C53
:1017C00002E2FD0E54D009EBE9FF0AEBEAFFEE520C
:1017D000EF500B6E0C6A0BEBE6FF0CEBE6FF09EB30
:1017E000E9FF0AEBEAFF030EE926000EEA22E9CF41
:1017F0004AF0EACF4BF04AC0E6FF4BC0E6FF00EBF1
:10180000E6FF01EBE6FF75EC14F046E905EBE9FFB6
:1018100006EBEAFF350EE926000EEA22EF28030B5D
:10182000E66E05EBE9FF06EBEAFF350EE926000E52
:10183000EA22E552E750EF6E09EBE9FF0AEBEAFF17
:10184000020EE926000EEA22EF50E66E02EBE9FFF7
:1018500003EBEAFFE552E750EF6E09EBE9FF0AEB15
:10186000EAFFEF6A0B5003D002D0FC0E00D046E92D
:10187000E7CFD9FF1200D9CFE6FFE1CFD9FF85E945
:1018800000EBE6FF01EBE6FF02EBE6FF03EBE6FF12
:10189000360EE66E0E0EE66EEBDE46E900D041E94E
:1018A000E7CFD9FF1200D9CFE6FFE1CFD9FF86E914
:1018B00000EBE6FF01EBE6FF02EBE6FF03EBE6FFE2
:1018C00004EBE6FF360EE66E0E0EE66E4BDF47E9E2
:1018D00000D041E9E7CFD9FF1200D9CFE6FFE1CF31
:1018E000D9FF85E900EBE6FF01EBE6FF02EBE6FF3F
:1018F00003EBE6FF000EE66E0E0EE66EB9DE46E97D
:1019000000D041E9E7CFD9FF1200D9CFE6FFE1CF00
:10191000D9FF86E900EBE6FF01EBE6FF02EBE6FF0D
:1019200003EBE6FF04EBE6FF000EE66E0E0EE66E3E
:1019300019DF47E900D041E9E7CFD9FF1200D9CF3D
:10194000E6FFE1CFD9FF85E900EBE6FF01EBE6FF1B
:1019500002EBE6FF03EBE6FF970EE66E000EE66E87
:1019600087DE46E900D041E9E7CFD9FF1200D9CFA1
:10197000E6FFE1CFD9FF86E900EBE6FF01EBE6FFEA
:1019800002EBE6FF03EBE6FF04EBE6FF970EE66EE5
:10199000000EE66EE7DE47E900D041E9E7CFD9FF68
:1019A0001200D9CFE6FFE1CFD9FF85E900EBE6FFD2
:1019B00001EBE6FF02EBE6FF03EBE6FF600EE66EEF
:1019C000000EE66E55DE46E900D041E9E7CFD9FFCB
:1019D0001200D9CFE6FFE1CFD9FF86E900EBE6FFA1
:1019E00001EBE6FF02EBE6FF03EBE6FF04EBE6FFAD
:1019F000600EE66E000EE66EB5DE47E900D041E906
:101A0000E7CFD9FF12000001966B360EE66E0E0E80
:101A1000E66EF7DD42E9000EE66E0E0EE66EF1DDD3
:101A200042E9970EE66E000EE66EEBDD42E9600ECF
:101A3000E66E000EE66EE5DD42E91200D38E03008D
:101A40001200D9CFE6FFE1CFD9FF83E900EBE9FF30
:101A500001EBEAFFE9CF4AF0EACF4BF000EBE9FFF8
:101A600001EBEAFF350EE926000EEA22EF500D0DDC
:101A7000000100014A51F324E96E000100014B51BD
:101A8000F420EA6EEF5000D041E9E7CFD9FF120011
:101A90000001965101E129D0D9EC11F0F3CF4AF0C1
:101AA000F4CF4BF000014A514B1101E01ED0B7ECCE
:101AB00011F0F3CF4AF0F4CF4BF000014A514B1133
:101AC00001E113D0000EE66E0E0EE66EBADF42E9BB
:101AD000000901E00AD0360EE66E0E0EE66EB1DFAA
:101AE00042E9000901E001D0A9DF1200F3EC11F096
:101AF000F3CF4AF0F4CF4BF000014A514B1101E112
:101B00001FD00001010E966F000EE66E0E0EE66EFF
:101B100098DF42E9000903E00001966B11D0360E10
:101B2000E66E0E0EE66E8DDF42E9000903E000016D
:101B3000966B06D00A0EE66E16EC18F041E9E4D773
:021B4000120091
:0E1B4200D9CFE6FFE1CFD9FF81E966E8016A5D
:101B5000026A036A046A030E936E926A100E946E10
:101B60008A8A000EE66E000EE66E12EBE9FF13EBBA
:101B7000EAFFE9CF4AF0EACF4BF04AC0E6FF4BC09C
:101B8000E6FFA0EC14F044E9100EE66E000EE66EDF
:101B900012EBE9FF13EBEAFFE9CF4AF0EACF4BF093
:101BA000100E00014A27000E00014B234AC0E6FF39
:101BB0004BC0E6FFA0EC14F044E9200EE66E000EE8
:101BC000E66E12EBE9FF13EBEAFFE9CF4AF0EACF4A
:101BD0004BF0200E00014A27000E00014B234AC0A3
:101BE000E6FF4BC0E6FFA0EC14F044E9300EE66ED1
:101BF000000EE66E12EBE9FF13EBEAFFE9CF4AF0C5
:101C0000EACF4BF0300E00014A27000E00014B23B3
:101C10004AC0E6FF4BC0E6FFA0EC14F044E935EC07
:101C200008F0CCEC12F012EBE6FF13EBE6FFFCEC55
:101C300012F042E96C0ED36E9B8CD950220FE66EE7
:101C4000DACFE6FF5EEC17F042E903EC0DF0910EFF
:101C5000E66E43EC17F041E9B3EC11F076EC0DF0D1
:101C6000D950140FE66EDACFE6FFD950080FE66EB2
:101C7000DACFE6FF0A0EE66E85EC0CF045E9066E5B
:101C8000063416E3FC0E065C12E006EB4AF0000197
:101C90004B6B4ABF4B694AC0E6FF4BC0E6FF710E73
:101CA000E66E2A0EE66EE66A7BEC16F045E992D007
:101CB0000850370A01E17DD0050A01E179D0040A14
:101CC00071E0030A69E0010A61E0070A59E0190AB4
:101CD0004CE0020A20E0010A1EE0230A01E06ED077
:101CE000D950140FE66EDACFE6FF06EB4AF000019A
:101CF0004B6B4ABF4B694AC0E6FF4BC0E6FF08503A
:101D0000E66EE66AD950240FE66EDACFE6FFDCEC29
:101D100016F048E95FD00850E66EE66A550EE66EAA
:101D20002A0EE66EE66A7BEC16F045E91F6A06505D
:101D30001F5C1AE20001D950140F4A6FDACF4BF042
:101D40001F500001EA6A4A25E96E4B51EA22EF5022
:101D5000E66EE66A510EE66E2A0EE66EE66A7BECE9
:101D600016F045E91F2AE3D735D0410EE66E2A0E5C
:101D7000E66EE66A7BEC16F043E9020E066E2AD0A8
:101D8000040EE66E95EC13F041E924D0030EE66EE6
:101D900095EC13F041E91ED0020EE66E95EC13F0BF
:101DA00041E918D0010EE66E95EC13F041E912D02E
:101DB00011D0E66A95EC13F041E90CD00850E66EBC
:101DC000E66A150EE66E2A0EE66EE66A7BEC16F003
:101DD00045E900D0D950140FE66EDACFE6FFD950AE
:101DE000080FE66EDACFE6FF0A0EE66E53EC0CF053
:101DF00045E9066E063416E3FC0E065C12E006EBBF
:101E00004AF000014B6B4ABF4B694AC0E6FF4BC02A
:101E1000E6FFE80EE66E290EE66EE66A7BEC16F04B
:101E200045E94AD008501E0A20E0010A1EE0140AC3
:101E300001E036D0D950140FE66EDACFE6FF06EB9C
:101E40004AF000014B6B4ABF4B694AC0E6FF4BC0EA
:101E5000E6FF0850E66EE66AD950220FE66EDACF4A
:101E6000E6FF6DEC17F048E927D0D950140FE66E65
:101E7000DACFE6FF06EB4AF000014B6B4ABF4B6935
:101E80004AC0E6FF4BC0E6FF0850E66EE66AD9504E
:101E9000200FE66EDACFE6FFADEC16F048E90CD085
:101EA0000850E66EE66A150EE66E2A0EE66EE66AE3
:101EB0007BEC16F045E900D0D1D667E9E7CFD9FF32
:021EC00012000E
:0E1EC2001200D9CFE6FFE1CFD9FF83E97DEC16
:101ED00018F007EC00F0000901E0FBD75DEC18F00A
:101EE000F3CF4AF0F4CF4BF000EBE9FF01EBEAFF50
:101EF0004AC0EEFF4BC0EDFF010EE66E16EC18F087
:101F000041E941E9E7CFD9FF1200D9CFE6FFE1CFA0
:101F1000D9FF84E9FC0EE66EE6683F0EE66E7F0EA2
:101F20000014FC0BE66ED10EE66E03EC16F045E9EC
:101F300000EBE6FFBEEC17F041E97DEC18F007EC92
:101F400000F0000901E0FBD75DEC18F0F3CF4AF098
:101F5000F4CF4BF001EBE9FF02EBEAFF4AC0EEFFE2
:101F60004BC0EDFF010EE66E16EC18F041E941E9B9
:101F7000E7CFD9FF1200D9CFE6FFE1CFD9FF83E940
:101F8000D70EE66E00EBE6FF01EBE6FFBEDF43E9AE
:101F900041E9E7CFD9FF1200D9CFE6FFE1CFD9FF62
:101FA00081E948E800015E3504E25D510008000E59
:101FB0005E554DE261EC15F0040A2EE0070A1FE0C1
:101FC000010A10E0030A01E034D0D950030FE66E95
:101FD000DACFE6FF330EE66E020EE66E6DEC0CF025
:101FE00044E934D0D950030FE66EDACFE6FF340E61
:101FF000E66E020EE66E6DEC0CF044E927D0D95087
:10200000030FE66EDACFE6FF350EE66E020EE66EE1
:102010006DEC0CF044E91AD0D950030FE66EDACF1C
:10202000E6FF360EE66E020EE66E6DEC0CF044E94D
:102030000DD0D950030FE66EDACFE6FF320EE66E12
:10204000020EE66E6DEC0CF044E900D00CD0D950D5
:10205000010FE66EDACFE6FF370EE66E020EE66E91
:102060006DEC0CF044E98FEC15F0000905E0010E71
:1020700000015D6F5E6B03D000015D6B5E6B000E57
:10208000E66EE66AA6EC17F042E9D950010FE66E5B
:10209000DACFE6FFD950070FE66EDACFE6FF020E81
:1020A000E66EE9EC0CF045E9056E066AE8BE0668E6
:1020B000020E051801E106500CE1D950010FE66E41
:1020C000DACFE6FF0A0EE66E020EE66E6DEC0CF05D
:1020D00044E949E9E7CFD9FF1200D9CFE6FFE1CFC4
:1020E000D9FF81E944E88EEC17F0F350016EF4500B
:1020F000026E000EE66EE66A0B0EE66EE66A3BECDA
:102100000CF044E9000EE66EE66A76EC17F042E960
:0821100045E9E7CFD9FF1200F9
:0821180043E8D9CFE6FFDACF5E
:10212000E6FFE1CFD9FFE2CFDAFF89E9066A1200C4
:10213000F3DF068001D0F0DF01AEA5EF10F0006CF8
:10214000011EE86A012206B0067E03AEADEF10F074
:10215000026C031EE86A0322067EE5EC10F003BE63
:10216000CFEF10F006AE08D0026C031EE86A03221F
:10217000046C051EE86A052206B006D084EB00F068
:1021800085EB01F006A004D082EB00F083EB01F0B8
:10219000E552E5CFDAFFE7CFD9FF45E9000C06BEEF
:1021A000B4EF10F0E9DFFF0C43E8D9CFE6FFDACF58
:1021B000E6FFE1CFD9FFE2CFDAFF89E9066A120034
:1021C000F3DF068003D0F0DF01D00682056A046ADF
:1021D000100EE76ED89002360336043605360050EE
:1021E000045C0150055805E30050045E0150055A97
:1021F000022AE72EF0D706B2120006B006D084EB12
:1022000000F085EB01F006A004D082EB00F083EB38
:1022100001F0E552E5CFDAFFE7CFD9FF45E912003B
:1022200045E8D9CFE6FFDACFE6FFE1CFD9FFE2CF2D
:10223000DAFF8FE90C6A1200F3DF0C8003D0F0DFC5
:1022400001D00C820B6A0A6A096A086A200EE76EDE
:10225000D8900436053606360736083609360A366B
:102260000B360050085C0150095802500A580350C0
:102270000B5809E30050085E0150095A02500A5AEF
:1022800003500B5A042AE72EE4D70CB212000CB00C
:102290000AD088EB00F089EB01F08AEB02F08BEBBF
:1022A00003F00CA008D084EB00F085EB01F086EB86
:1022B00002F087EB03F0E552E5CFDAFFE7CFD9FF75
:1022C00049E9120044E8D9CFE6FFDACFE6FFE1CFD3
:1022D000D9FFE2CFDAFF8EE980EB08F081EB09F05D
:1022E00082EB0AF083EB0BF004500802F350006E0F
:1022F000F450016E04500902F3500126000EF42040
:10230000026E04500A02F3500226000EF420036EFF
:1023100004500B02F350032605500802F350012627
:10232000F4500222000E032205500902F350022647
:10233000F450032205500A02F35003260650080207
:10234000F3500226F450032206500902F3500326EC
:1023500007500802F3500326E552E5CFDAFFE7CF36
:06236000D9FF48E9000C62
:0A236600D08EF28EF28C1200F250BD
:10237000800B800A01E0010E00014A6F4B6B800B5D
:1023800001E04B694AC0F3FF4BC0F4FF00D01200DC
:10239000F250400B400A01E0010E00014A6F4B6B06
:1023A000800B01E04B694AC0F3FF4BC0F4FF00D043
:1023B0001200F2AC05D0000EF36EF46A13D012D006
:1023C000D6DFF3CF4AF0F4CF4BF000014A514B1166
:1023D00005E0000EF36EF46A05D004D0010EF36E32
:1023E000F46A00D01200E5DFF3CF4AF0F4CF4BF0EF
:1023F00000014A514B110EE1BADFF3CF4CF0F4CF9C
:102400004DF000014C514D1105E1010EF36EF46ADF
:1024100005D004D0000EF36EF46A00D01200DACFBB
:10242000E4FFE2CFDAFFE9CFE4FFEACFE4FFD9CF60
:10243000E4FFDACFE4FF56C0E4FF57C0E4FF58C022
:10244000E4FF59C0E4FFF6CFE4FFF7CFE4FFF5CF98
:10245000E4FFF3CFE4FFF4CFE4FFFACFE4FF00EEB4
:102460004AF0070EE80403E3EECFE4FFFBD7E652A1
:10247000F2A403D0F294CCEC0FF048EC0DF0E5524E
:1024800000EE50F0070EE80403E3E5CFEDFFFBD7C5
:10249000E5CFFAFFE5CFF4FFE5CFF3FFE5CFF5FF9A
:1024A000E5CFF7FFE5CFF6FFE5CF59F0E5CF58F0E0
:1024B000E5CF57F0E5CF56F0E5CFDAFFE5CFD9FF0E
:1024C000E5CFEAFFE5CFE9FFE5CFDAFF1100D8CF8E
:1024D000E4FFE0CFE4FFE46EDACFE4FFE2CFDAFF1F
:1024E000E9CFE4FFEACFE4FFD9CFE4FFDACFE4FF9E
:1024F00056C0E4FF57C0E4FF58C0E4FF59C0E4FFF2
:10250000F6CFE4FFF7CFE4FFF5CFE4FFF3CFE4FF2E
:10251000F4CFE4FFFACFE4FF00EE4AF0070EE80440
:1025200003E3EECFE4FFFBD7E6529EA003D09E90DC
:102530006DEC10F09EAA03D09E9AEDEC17F0E552D8
:1025400000EE50F0070EE80403E3E5CFEDFFFBD704
:10255000E5CFFAFFE5CFF4FFE5CFF3FFE5CFF5FFD9
:10256000E5CFF7FFE5CFF6FFE5CF59F0E5CF58F01F
:10257000E5CF57F0E5CF56F0E5CFDAFFE5CFD9FF4D
:10258000E5CFEAFFE5CFE9FFE5CFDAFFE550E5CF9C
:08259000E0FFE5CFD8FF1000C9
:08259800D9CFE6FFE1CFD9FF26
:1025A00081E94EE8490E016E6E0E026E690E036EF1
:1025B000740E046E690E056E610E066E6C0E076E6B
:1025C000690E086E7A0E096E690E0A6E6E0E0B6E3B
:1025D000670E0C6E0D6A0E6A0001D76B010EE66E77
:1025E000D950010FE66EDACFE6FF08EC0AF043E9B6
:1025F0004FE9E7CFD9FF1200D9CFE6FFE1CFD9FFEE
:1026000083E950E800EB5AF001EB5BF000EBE9FFE7
:1026100001EBEAFFE9CF4AF0EACF4BF04AC0E6FF10
:102620004BC0E6FFD950030FE66EDACFE6FFA0EC11
:1026300014F044E9010EE66ED950030FE66EDACFCE
:10264000E6FF08EC0AF043E900EBE9FF01EBEAFFE3
:10265000E9CF4AF0EACF4BF0100E00014A27000EF6
:1026600000014B234AC0E6FF4BC0E6FFD950030FE1
:10267000E66EDACFE6FFA0EC14F044E9020EE66E57
:10268000D950030FE66EDACFE6FF08EC0AF043E913
:1026900000EBE9FF01EBEAFFE9CF4AF0EACF4BF0AC
:1026A000200E00014A27000E00014B234AC0E6FF1E
:1026B0004BC0E6FFD950030FE66EDACFE6FFA0EC81
:1026C00014F044E9030EE66ED950030FE66EDACF3C
:1026D000E6FF08EC0AF043E900EBE9FF01EBEAFF53
:1026E000E9CF4AF0EACF4BF0300E00014A27000E46
:1026F00000014B234AC0E6FF4BC0E6FFD950030F51
:10270000E66EDACFE6FFA0EC14F044E9040EE66EC4
:10271000D950030FE66EDACFE6FF08EC0AF043E982
:1027200051E9E7CFD9FF12001200D9CFE6FFE1CF80
:10273000D9FF82E950E8005036E000015C51005CAE
:1027400032E00001010ED76F5AC0E9FF5BC0EAFF1B
:10275000E9CF4CF0EACF4DF00004100D000100016C
:102760004C51F32400014A6F000100014D51F42047
:1027700000014B6F4AC0E6FF4BC0E6FFD950020F85
:10278000E66EDACFE6FFA0EC14F044E900EBE6FFDA
:10279000D950020FE66EDACFE6FF08EC0AF043E903
:1027A0000001D76B00D000EB5CF051E9E7CFD9FF17
:0227B000120015
:0E27B2007C1211127C007F49494936003E41DD
:1027C000414122007F4141413E007F49494941004A
:1027D0007F09090901003E41415173007F08080843
:1027E0007F0000417F4100002040413F01007F0801
:1027F000142241007F40404040007F021C027F00C5
:102800007F0408107F003E4141413E007F090909D5
:1028100006003E4151215E007F09192946002649E4
:102820004949320003017F0103003F4040403F001F
:102830001F2040201F003F4038403F006314081411
:1028400063000304780403006159494D4300205498
:10285000547840007F2844443800384444442800D9
:10286000384444287F0038545454180000087E0926
:10287000020018A4A49C78007F0804047800004497
:102880007D4000002040403D00007F1028440000B3
:1028900000417F4000007C04780478007C08040438
:1028A0007800384444443800FC18242418001824C4
:1028B0002418FC007C0804040800485454542400E4
:1028C00004043F4424003C4040207C001C20402065
:1028D0001C003C4030403C004428102844004C90F0
:0A28E00090907C004464544C4400C6
:0628EA00D9CFE6FFDACFB2
:1028F000E6FFFA0EE3CFD9FFFB0EE3CFDAFFFC0EC3
:10290000E3CFE9FFFD0EE3CFEAFFE9CFF3FFEACF24
:10291000F4FFF80EE35003E1F90EE35008E0F80E7F
:10292000E30602E2F90EE306DECFEEFFF2D7FF0E7A
:10293000E3CFDAFFE552FF0EE3CFD9FFE5521200F5
:10294000D9CFE6FFDACFE6FFFA0EE3CFD9FFFB0ED1
:10295000E3CFDAFFFC0EE3CFE9FFFD0EE3CFEAFFA2
:10296000E9CFF3FFEACFF4FFDECFEFFFEE66FCD74F
:10297000FF0EE3CFDAFFE552FF0EE3CFD9FFE552BA
:102980001200FE0EE3CFE9FFFF0EE3CFEAFFF36A8A
:10299000F46AEE5203E0F34AF42AFBD71200FF0E6A
:1029A000E3CFF8FFE552FF0EE3CFF7FFE552FF0E4E
:1029B000E3CFF6FFE552E66AE66AE66A0900F552F9
:1029C00009E0FD0EE32A05E1FE0EE32A02E1FF0E17
:1029D000E32AF4D7FD0EE3CF56F0FE0EE3CF57F017
:0829E000FF0EE3CF58F01200D6
:0829E8004572726F723A204241
:1029F0006164206C6F77207072696F7269747920DE
:102A0000726563656976652C20636F6465203D207F
:102A100025780D0A004572726F723A20556E6578FE
:102A2000706563746564206D736720696E207175CD
:102A30006575652C2074797065203D2025780D0A18
:102A40000049324320536C617665205265710D0A4E
:102A5000002025780049324320496E7465727275F2
:102A600070742072656365697665642025783A2004
:102A7000004572726F723A2042616420686967682B
:102A8000207072696F726974792072656365697606
:102A9000652C20636F6465203D2025780D0A004D6C
:102AA00053473A2025642025642025730D0A0054DD
:102AB000494D4552313A2025642025642025640D76
:022AC0000A000A
:0E2AC200D9CFE6FFE1CFD9FF81E943E8016AF1
:102AD000026A036A8A848A96D70EE66ED950020F7C
:102AE000E66EDACFE6FF85EC0FF043E9FF0EE66E07
:102AF000E66A02EBE6FF03EBE6FF98EC10F0E55226
:102B0000E5CF4BF0E7CF4AF000014A2B000E4B23F4
:102B100000014A5100D044E9E7CFD9FF1200D9CFD4
:102B2000E6FFE1CFD9FF81E942E8016A026A8A84BF
:102B30008A86899AD70EE66ED950010FE66EDACFF3
:102B4000E6FF85EC0FF043E9023404E2015000088F
:102B5000030E025403E2010E03D002D0000E00D097
:082B600043E9E7CFD9FF1200A1
:082B68001E0EF66E000EF76E62
:102B7000000EF86E00010900F550456F0900F55090
:102B8000466F03E1456701D03DD00900F550406F25
:102B90000900F550416F0900F550426F0900090026
:102BA000F550E96E0900F550EA6E090009000900C8
:102BB000F550436F0900F550446F09000900F6CF46
:102BC00047F0F7CF48F0F8CF49F040C0F6FF41C0DA
:102BD000F7FF42C0F8FF0001435302E1445307E00E
:102BE0000900F550EE6E4307F8E24407F9D747C0F5
:102BF000F6FF48C0F7FF49C0F8FF00014507000E87
:062C0000465BBFD7120085
:0A2C0600D9CFE6FFDACFE6FFE1CFF9
:102C1000D9FFE2CFDAFF87E9C26AC16A0350400DEB
:102C2000F350C00B00014A6F03407F0B3C0B4A116D
:102C3000C26E0450040DF350380B4B6F04380F0B69
:102C4000070B4A6F800E04144A114B11C16E01EB41
:102C50004AF04B6B4AC048FF00EB49FF060E4A6F33
:102C6000C00E02144AC0E7FFE75204E0E8427F0BBF
:102C7000E706FCE10E01B86F03AE03D09E9C9D8C6D
:102C8000F28CC28041E9E5CFDAFFE7CFD9FF12002D
:102C9000D9CFE6FFDACFE6FFE1CFD9FFE2CFDAFF07
:102CA00085E9013415E200EBE9FF01EBEAFFEECF25
:102CB000F3FFEDCFF4FFEE2A000EEF22F3CFE9FF92
:102CC000F4CFEAFF02EBEFFFEF50F36EF46A0DD0A2
:102CD000FE0E005C05E102EBE6FF36EC18F004D0D6
:102CE00002EBE6FF03EC00F041E941E9E5CFDAFF52
:062CF000E7CFD9FF12003E
:0A2CF600D9CFE6FFDACFE6FFE1CF09
:102D0000D9FFE2CFDAFF85E944E8D9CFE6FFDACF91
:102D1000E6FFE552E550066EE750056E05EBE6FF6F
:102D200006EBE6FF00EBE6FF01EBE6FF02EBE6FF5A
:102D3000D5C0E6FFD6C0E6FF3BEC00F047E9F35014
:102D4000076EF450086E07EBF3FF08EBF4FF45E95C
:0A2D5000E5CFDAFFE7CFD9FF12004C
:062D5A00D9CFE6FFE1CF36
:102D6000D9FF89E91E0E041801E1055001E120D0C8
:102D70001F0E041801E105501BE100500224E96E0A
:102D800001500320EA6EEF6A00EBE6FF01EBE6FF7D
:102D900002EBE6FF03EBE6FF04EBE6FF05EBE6FFE5
:102DA0009F0EE66E2A0EE66EE66A7BEC16F049E9A7
:082DB00041E9E7CFD9FF120051
:082DB800D9CFE6FFE1CFD9FFFE
:102DC00089E942E880EB09F081EB0AF009EBE9FFC1
:102DD0000AEBEAFFEECFE6FFEECFE6FF02EBE6FFFF
:102DE00003EBE6FF04EBE6FF05EBE6FFAF0EE66E56
:102DF0002A0EE66EE66A7BEC16F049E943E9E7CF76
:042E0000D9FF1200E4
:0C2E0400D9CFE6FFDACFE6FFE1CFD9FF1F
:102E1000E2CFDAFF85E93F0EC716C66A0250C61236
:102E20000050C7120150030A09E0010A04E0020A37
:102E300006E1C78C04D0C78CC68801D0C688C68A74
:0C2E400041E9E5CFDAFFE7CFD9FF12002F
:042E4C00D9CFE6FFF5
:102E5000DACFE6FFE1CFD9FFE2CFDAFF83E941E83D
:102E6000C950036E9E96C69E00EBC9FFC6AE02D047
:102E7000FF0E03D09EA6FED7000E42E9E5CFDAFF93
:062E8000E7CFD9FF1200AC
:0A2E8600D9CFE6FFDACFE6FFE1CF77
:102E9000D9FFE2CFDAFF83E97F0E0014D56ED76A3F
:102EA000D66AF29400AE02D0F28A01D0F29AD58EA0
:0C2EB00041E9E5CFDAFFE7CFD9FF1200BF
:042EBC00D9CFE6FF85
:102EC000E1CFD9FF83E900EBE9FF01EBEAFFEE6A0E
:102ED000ED6A41E9E7CFD9FF1200D9CFE6FFE1CF94
:0C2EE000D9FF89E941E9E7CFD9FF1200D2
:042EEC00D9CFE6FF55
:102EF000DACFE6FFE1CFD9FFE2CFDAFF84E942E89B
:102F000080EB04F081EB05F005EBCFFF04EBCEFF87
:0C2F100043E9E5CFDAFFE7CFD9FF12005C
:042F1C00D9CFE6FF24
:102F2000DACFE6FFE1CFD9FFE2CFDAFF82E942E86C
:102F3000CE50026ECF50036E02EBF3FF03EBF4FFB3
:0C2F400043E9E5CFDAFFE7CFD9FF12002C
:042F4C00D9CFE6FFF4
:102F5000DACFE6FFE1CFD9FFE2CFDAFF84E942E83A
:102F600080EB04F081EB05F005EBD7FF04EBD6FF17
:0C2F700043E9E5CFDAFFE7CFD9FF1200FC
:042F7C00D9CFE6FFC4
:102F8000DACFE6FFE1CFD9FFE2CFDAFF83E9C30E64
:102F9000C21400014A6F00407F0B3C0B4A11C26E05
:0C2FA00041E9E5CFDAFFE7CFD9FF1200CE
:042FAC00D9CFE6FF94
:102FB000DACFE6FFE1CFD9FFE2CFDAFF82E941E8DD
:102FC000C950026E9E96C96A9EA6FED7C95042E9B4
:0A2FD000E5CFDAFFE7CFD9FF1200CA
:062FDA001200D9CFE6FF52
:102FE000E1CFD9FF83E900EBCDF001EBCEF0CDC00E
:102FF000E9FFCEC0EAFF040EE926000EEA22EF6ADE
:0830000041E9E7CFD9FF1200FE
:08300800F36AF46AFF0EE124F3
:10301000E96EFF0EE220EA6EED6607D02F0EEF6438
:0C30200004D03A0EEF6001D0F32A120039
:04302C00FF0EE35060
:1030300000015F6F480E01D04C0EE76EE72EFED701
:0C304000E76AE72EFED75F2FF7D71200DB
:04304C00B00EF36E61
:1030500000EE00F00E0E01D81200EA6002D0EE6A17
:0C306000FCD7F350E9601200EE6AFCD7C8
:04306C00FF0EE35020
:10307000ADBA04D0B06AAC8EAD8A949CADA2FED736
:08308000AE6EF36EF46A12005B
:083088001DEE00F02DEE00F03A
:10309000F86AB4EC15F07FEC18F0A1EC0DF0FBD75A
:0230A00012001C
:0E30A200100E946E8B9E8B8EE66AE66A010E0F
:0A30B000E66E02EC17F043E912008F
:0630BA00C4CF4CF04CC035
:1030C0004DF000014C6BC3504C11F36E4DC0F4FF3A
:0230D0001200EC
:0E30D200FF0EE350E84E1200000000D000D0C8
:0830E00000D0E82EFAD712001F
:0830E800303132333435363744
:0930F00038396162636465660011
:0130F90000D6
:0430FA00C28212007C
:0230FE001200BE
:02310000FEFFD0
:0E310200546F756368204D6520486572650046
:1031100000004F7220486572650001010101010144
:103120000101000404040404040404040404040469
:1031300004044F7220646F776E206865726500002A
:0231400000008D
:00000001FF
