:020000040000FA
:06000000F6EF14F01200FF
:020006001200E6
:0600080076EF10F012007B
:02000E00C250DE
:08001000020B01E0010E1200D9
:06001800D3EF10F012000E
:02001E000100DF
:0C002000642A00005800000002000000EC
:04002C0090DB86E9F6
:100030000150010600090CE002EBE6FF03EBE6FFCE
:1000400000EBE6FF69DBF4E1421DF2E1010E01D0B5
:10005000000E41E9E5CFDAFFE7CFD9FF120077DBE9
:1000600089E97BE80A6A0B6A02EBF6FF03EBF7FF0C
:1000700004EBF8FF0800F550096E095001E12DD39B
:10008000250E095C01E01BD30C6A0D6A0E6A0F6A2B
:10009000106A2DDB2D0E095C0CE02B0E095C09E0CB
:1000A000200E095C06E0230E095C03E0300E095CBB
:1000B00015E10950300A10E0130A0CE0030A08E0C9
:1000C0000B0A04E0060AE5E10C80E3D70C82E1D7D5
:1000D0000C84DFD70C86DDD70C88DBD72A0E095CB1
:1000E00013E1A5DB0DE30C801CEB41F01DEB42F0AE
:1000F0000001416D421F000E422341510D6E02D09E
:100100009CEB0DF0F4DA07D0126A3FDB02E06BDB08
:10011000FCD792EB0DF00CB00C982E0E095C15E19B
:10012000E6DA2A0E095C08E182DB04E29CEB0EF0C1
:10013000010E0F6EDCDA09D0126A27DB02E053DB16
:10014000FCD792EB0EF0010E0F6E680E095C07E112
:10015000CEDA680E095C1DE1030E106E19D0740E24
:10016000095C16E07A0E095C13E0480E095C06E0B3
:10017000540E095C03E05A0E095C02E1020E07D03E
:100180006C0E095C03E06A0E095C03E1010E106E5F
:10019000AEDA09506E0A01E16ED21E0A01E128D1E1
:1001A000200A01E125D13F0A01E1FDD01A0A01E14F
:1001B000FAD00D0A01E1F7D0200A01E1F4D03A0AA1
:1001C00001E1F1D0200A01E1EED0260A01E1EAD0F6
:1001D0000D0A01E1E7D01A0A01E19ED0200A3BE0B6
:1001E000300A1AE0460A0EE0250A01E072D2D95020
:1001F000020FE96E000EDA20EA6E010EEE5E000ECE
:10020000EE5AEE5A0FDB250EE66E86DA03E1421D4A
:1002100001E159D20A2A5BD2116A0D50010803E2AA
:100220000D04116EF5DA115007E0010E0C1404E113
:100230006DDA01E048D2116AD3DAEF50096ECBDAF9
:1002400003E1421D01E13FD20A2A000E0B225EDAD1
:1002500001E13FD238D2020E105C08E1030E4EDA03
:10026000EE50176EEE50186EEF5007D0E7DA436B82
:100270004151176E4251186E4351196E17EBE6FF4C
:1002800018EBE6FF19EBE6FFDEEC11F043E948C09E
:1002900041F049C042F04AC043F0000141511C6E98
:1002A00042511D6E0F5006E01C500E5C03E20E50D2
:1002B0001C6E1D6A1C500D5C02E29CEB0DF050DAC6
:1002C00005E00D500E5C02E28EEB0DF00CB004D098
:1002D0001DDA01E0F8D1116A126A17EBF6FF18EB8C
:1002E000F7FF19EBF8FF0800F550096E095010E010
:1002F0000D50125C0DE26FDA03E1421D01E1E3D122
:100300000A2A000E0B22122AD950170F55DAEBD702
:10031000FDD901E1DED1D7D163DAEE501A6EED508E
:100320001B6E1AEBE6FF1BEBE6FFD0EC11F042E987
:10033000F3501C6EF4501D6E0F5006E01C500E5C06
:1003400003E20E501C6E1D6A1C500D5C02E29CEB19
:100350000DF006DA05E00D500E5C02E28EEB0DF0BA
:100360000CB004D0D3D901E0AED1116A126A1AEBF5
:10037000E9FF1BEBEAFFEF50096E09500FE00D504B
:10038000125C0CE228DA03E1421D01E19CD10A2A49
:10039000000E0B22122A1A2A1B22E9D7B7D901E133
:1003A00098D191D10C8E10040AE1040EA7D9EE5019
:1003B000136EEE50146EEE50156EEF5032D0030EE9
:1003C000105C16E10CAE0CD00BDAEFCF41F000015F
:1003D000426B436B446B41AF23D0426943691FD0EA
:1003E000FFD9EFCF41F000014151136E146A20D0C4
:1003F000020E105C0CE10CAE06D0030E7FD9B6D90C
:1004000043AF0ED00CD0030E79D9B0D909D00CAEC1
:100410000AD014DA436B446B42AF02D0436944699B
:10042000BCD9166E07D00ADA4151136E4251146ED0
:10043000156A166A0F5002E1010E0E6E1E6A1F6ADF
:10044000D950400FE66E000EDA20E66EE552E55018
:10045000436EE750426E416A116A0A0E106E0950EF
:10046000780A12E0200A10E0280A0CE0200A0AE0CC
:100470003F0A06E00D0A02E0200A08E1020E05D05C
:10048000080E03D0080E0926100E106E0CBE02D006
:100490000C920C94800E0C1417E0163415E3E668E9
:1004A000E668E668E66842D9C9EC0FF0E552E5CFA8
:1004B00044F0E5CF43F0E5CF42F0E7CF41F0000153
:1004C0006CD9166E2D0E07D00CA202D02B0E03D0C5
:1004D0000CA404D0200E206E1E2A01D0206A0E50DB
:1004E00005E1135014101510161061E000014C0EB8
:1004F000416F2A0E426F000E436F83D986EC0FF0D6
:10050000E552E5CF47F0E5CF46F0E5CF45F0E7CF40
:1005100044F0000141514425F36E42514521F46EEF
:1005200043514621F86EF4CFF7FFF3CFF6FF0800F2
:10053000F550126E580E095C05E1610E125C02E383
:10054000200E125E5ED983EC0FF0E552E550166E78
:10055000E550156EE550146EE750136E42EBE9FF5F
:1005600043EBEAFF4206000E435A12EBEFFF1E2A4E
:100570001350141015101610B9E10CA619D06F0EF7
:10058000095C06E10E501E5C13E31E280E6E10D0AF
:10059000780E095C09E0580E095C06E0620E095C01
:1005A00003E0420E095C04E1020E1F6E01D01E6AD8
:1005B000100E0C1407E00D500E5C04E20F5002E127
:1005C0008DEB0EF00E501E5C03E21E500E5E01D04D
:1005D0000E6A0E501E241F24D8800D5407E20E50C0
:1005E0000D5CD8801E54D8801F54116E010E0C145F
:1005F00006E1115004E08AD866E10AD9116A205058
:1006000007E010D920EBE6FF87D802E1421D5BE04E
:100610001F500BE007D9300EE66E7ED802E1421D76
:1006200052E0D9D802E1421D4EE00E501F5C02E2BA
:100630001F500E5E300EE66E0EEBE6FFDCD843E197
:10064000422A000E432242EBE9FF43EBEAFFEF5060
:10065000126E125008E0E6D812EBE6FF5DD8F0E12A
:10066000421DEEE130D052D82EE10E501E2411244E
:100670001F240A262CD01050030A1CE0010A14E0A3
:10068000030A07E0ADD8C9D80AEBEEFF0BEBEDFF8C
:1006900020D08BD8446B42AF02D043694469A0D8C4
:1006A0004ED844C0EEFF15D080D842BF436998D8D9
:1006B00046D80FD095D8B1D80AEBEFFF0AD08BD827
:1006C00005E1421D03E1F368F4680BD00A2A000E2D
:1006D0000B22D950020F70D8CDD40AEBF3FF0BEBED
:1006E000F4FF7CE9E5CFDAFFE7CFD9FF1200D9505C
:1006F000020F62D80800F550096E1200005E000E6D
:10070000015A00EBE9FF01EBEAFF1200200EE66E52
:1007100011EBE6FFFBEF03F0EAEC12F043E9F3CF55
:1007200041F0F4CF42F00001F31C120013EBE6FF9E
:1007300014EBE6FF15EBE6FF16EBE6FF12006DD8B3
:1007400041C0EEFF42C0EEFF43C0EEFF1200D9CF22
:10075000E6FFDACFE6FFE1CFD9FFE2CFDAFF120002
:100760001C500D5C116E54D80F501200EECF41F0AA
:10077000EECF42F0EFCF43F00001446B1200EECF1A
:1007800041F0EFCF42F0000112000950E66EE66A38
:10079000A6EC14F042E9F35012004151136E42519D
:1007A000146E4351156E445112000AEB41F00BEBED
:1007B00042F00001436B1200E96E000EDA20EA6E8F
:1007C000EF2AEECFF6FF000EEF22EECFF7FFEF227B
:1007D000EECFF8FF120026D809EBE6FF8CEF03F00E
:1007E000020E7EEF03F00A0E1202F3500924D00F1E
:1007F000126E77EF03F016D816EC00F044E900090A
:10080000120010EBE6FFE66AE66AE66A96EF03F08E
:1008100011500A26000E0B221200EE50EFCFEAFF15
:10082000E96E120005EBE6FF06EBE6FF1200D8DFEB
:10083000EE501C6EED501D6E1D341200D1DFBFEF67
:0208400003F0C3
:0E084200D9CFE6FFE1CFD9FF82E941E9E7CF48
:10085000D9FF1200D9CFE6FFE1CFD9FF84E941E902
:10086000E7CFD9FF1200D9CFE6FFE1CFD9FF82E968
:1008700041E9E7CFD9FF1200D9CFE6FFE1CFD9FF99
:1008800084E952C0E9FF53C0EAFF190EE926000EC1
:10089000EA22EF6A52C0E9FF53C0EAFF190EEB509B
:1008A000D880025432E252C0E9FF53C0EAFF190E69
:1008B000EB500024E96E000E0120EA6EEF50E66E68
:1008C00052C0E9FF53C0EAFF0F0EE926000EEA22EC
:1008D000E9CF41F0EACF42F052C0E9FF53C0EAFF4E
:1008E000190EEB500001EA6A4125E96E4251EA22F5
:1008F000E552E750EF6E52C0E9FF53C0EAFF190E10
:10090000E926000EEA22EF2AC5D752C0E9FF53C0FC
:10091000EAFF190EE926000EEA2202EBEFFF52C0B1
:10092000E9FF53C0EAFF1A0EE926000EEA22010E83
:10093000EF6E52C0E9FF53C0EAFF0F0EEB50C96ED5
:10094000C68841E9E7CFD9FF1200D9CFE6FFE1CF52
:10095000D9FF82E952C0E9FF53C0EAFF0B0EE92636
:10096000000EEA22010EEF6E52C0E9FF53C0EAFF0B
:100970000A0EE926000EEA22EF6A005038E0C7AA04
:100980001ED052C0E9FF53C0EAFF0C0EE926000E4C
:10099000EA22050EEF6E52C0E9FF53C0EAFF0E0EC9
:1009A000E926000EEA22EF2A52C0E9FF53C0EAFF0F
:1009B0000D0EE926000EEA22050EEF6E17D0C7A431
:1009C0000BD052C0E9FF53C0EAFF0C0EE926000E1F
:1009D000EA22080EEF6E0AD052C0E9FF53C0EAFFC8
:1009E0000C0EE926000EEA22070EEF6E0AD052C066
:1009F000E9FF53C0EAFF0C0EE926000EEA22060EBC
:100A0000EF6E41E9E7CFD9FF1200D9CFE6FFE1CF82
:100A1000D9FF81E949E8026A036A046A056A066A3D
:100A2000C6AC20D0C69C52C0E9FF53C0EAFF0C0EF2
:100A3000E926000EEA22050EEF6E010E066E52C088
:100A4000E9FF53C0EAFF0E0EE926000EEA22EF2A64
:100A500052C0E9FF53C0EAFF0D0EE926000EEA225C
:100A6000040EEF6EC7A004D0C950016E010E026ED5
:100A7000065001E094D152C0E9FF53C0EAFF0C0ECA
:100A8000EB50070A01E1D2D00F0A01E18DD00E0A26
:100A900015E0030A01E083D1C7A60FD002EBE6FF01
:100AA00054DF41E952C0E9FF53C0EAFF0C0EEB509E
:100AB000080803E1026A010E056E71D1C7A82ED0A5
:100AC00052C0E9FF53C0EAFF0B0EE926000EEA22EE
:100AD000EF2A025018E0C7BA03D0010E046E13D0FB
:100AE00052C0E9FF53C0EAFF0E0EE926000EEA22CB
:100AF000EF2A52C0E9FF53C0EAFF0D0EE926000EAF
:100B0000EA22060EEF6E52C0E9FF53C0EAFF0C0E58
:100B1000E926000EEA22050EEF6E45D0025043E0B2
:100B200052C0E9FF53C0EAFF0B0EE926000EEA228D
:100B3000EF2AC7BA1BD0C7B40BD052C0E9FF53C0CD
:100B4000EAFF0C0EE926000EEA22070EEF6E0DD02A
:100B500052C0E9FF53C0EAFF0C0EE926000EEA225C
:100B6000080EEF6E010E056E026A1DD052C0E9FF3D
:100B700053C0EAFF0E0EE926000EEA22EF2A52C009
:100B8000E9FF53C0EAFF0C0EE926000EEA22050E2B
:100B9000EF6E52C0E9FF53C0EAFF0D0EE926000ECA
:100BA000EA22060EEF6EFBD052C0E9FF53C0EAFF07
:100BB0001A0EEB500001416F52C0E9FF53C0EAFF2B
:100BC000190EEB500001415D26E252C0E9FF53C00F
:100BD000EAFF0F0EE926000EEA22E9CF41F0EACF44
:100BE00042F052C0E9FF53C0EAFF1A0EEB50000179
:100BF000EA6A4125E96E4251EA22EF50C96E52C0BD
:100C0000E9FF53C0EAFF1A0EE926000EEA22EF2A96
:100C1000010E036E0AD052C0E9FF53C0EAFF0C0E6A
:100C2000E926000EEA22050EEF6EB9D0C7A85AD009
:100C300052C0E9FF53C0EAFF0B0EE926000EEA227C
:100C4000EF2A025042E0C7AA22D052C0E9FF53C0A7
:100C5000EAFFE9CF41F0EACF42F052C0E9FF53C0CA
:100C6000EAFF0A0EEB500001EA6A4125E96E4251A3
:100C7000EA2201EBEFFF52C0E9FF53C0EAFF0A0E80
:100C8000E926000EEA22EF2A010E046E1DD052C0A2
:100C9000E9FF53C0EAFF0E0EE926000EEA22EF2A12
:100CA00052C0E9FF53C0EAFF0D0EE926000EEA220A
:100CB000060EEF6E52C0E9FF53C0EAFF0C0EE926A4
:100CC000000EEA22050EEF6E02D0010E046E52C035
:100CD000E9FF53C0EAFF0C0EE926000EEA22050EDA
:100CE000EF6E5CD002505AE052C0E9FF53C0EAFFF9
:100CF0000B0EE926000EEA22EF2AC7AA20D052C026
:100D0000E9FF53C0EAFFE9CF41F0EACF42F052C019
:100D1000E9FF53C0EAFF0A0EEB500001EA6A4125E1
:100D2000E96E4251EA2201EBEFFF52C0E9FF53C0E6
:100D3000EAFF0A0EE926000EEA22EF2A2FD0C7A406
:100D400010D052C0E9FF53C0EAFF0C0EE926000E96
:100D5000EA22080EEF6E010E046E010E056E026AA5
:100D60001DD052C0E9FF53C0EAFF0E0EE926000E67
:100D7000EA22EF2A52C0E9FF53C0EAFF0D0EE9262E
:100D8000000EEA22060EEF6E52C0E9FF53C0EAFFE2
:100D90000C0EE926000EEA22050EEF6E00D002507E
:100DA00002E1035002E0C6A8C68852C0E9FF53C062
:100DB000EAFF0A0EEB5008081FE204501DE152C082
:100DC000E9FF53C0EAFF0C0EE926000EEA22050EE9
:100DD000EF6E52C0E9FF53C0EAFF0E0EE926000E87
:100DE000EA22EF2A52C0E9FF53C0EAFF0D0EE926BE
:100DF000000EEA22070EEF6E045041E052C0E9FFF8
:100E000053C0EAFF0B0EEB50E66E52C0E9FF53C031
:100E1000EAFFE9CF41F0EACF42F052C0E9FF53C008
:100E2000EAFF0A0EEB500001EA6A4125E96E4251E1
:100E3000EA22E552E750EF6E52C0E9FF53C0EAFFE5
:100E4000E9CF41F0EACF42F041C0E6FF42C0E6FF01
:100E5000280EE66E52C0E9FF53C0EAFF0A0EEB50BF
:100E6000010FE66E41EC09F044E952C0E9FF53C0BE
:100E7000EAFF0A0EE926000EEA22EF6A36D052C0D7
:100E8000E9FF53C0EAFF0E0EEB500001416F010E67
:100E90000001415D2AE352C0E9FF53C0EAFF0E0E94
:100EA000EB50076E52C0E9FF53C0EAFF0D0EEB5046
:100EB000086E52C0E9FF53C0EAFF0B0EEB50096EFB
:100EC000D950070FE66EDACFE6FF290EE66E030E65
:100ED000E66E41EC09F044E952C0E9FF53C0EAFF75
:100EE0000E0EE926000EEA22EF6A055013E052C00A
:100EF000E9FF53C0EAFFE9CF41F0EACF42F041C039
:100F0000E6FF42C0E6FF2A0EE66EE66A41EC09F013
:100F100044E9056A4AE9E7CFD9FF1200D9CFE6FFD5
:100F2000E1CFD9FF83E900EB52F001EB53F052C05F
:100F3000E9FF53C0EAFF0A0EE926000EEA22EF6A33
:100F400052C0E9FF53C0EAFF0B0EE926000EEA2269
:100F5000EF6A52C0E9FF53C0EAFF0C0EE926000E0B
:100F6000EA22050EEF6E52C0E9FF53C0EAFF0E0EF3
:100F7000E926000EEA22EF6A41E9E7CFD9FF120025
:100F8000D9CFE6FFE1CFD9FF82E99486948800EBC0
:100F9000C8FFC76AC66AC56A0E0EC612C78EC5806C
:0A0FA000C68A41E9E7CFD9FF12002D
:060FAA00D9CFE6FFE1CF04
:100FB000D9FF83E941E800EBE9FF01EBEAFF340EDA
:100FC000E926000EEA22EF6A00EBE9FF01EBEAFFF7
:100FD000350EE926000EEA22EF6A036A040E035C6E
:100FE00017E200EBE9FF01EBEAFFE9CF41F0EACFBE
:100FF00042F003500D0D000100014151F324E96E50
:10100000000100014251F420EA6EEF6A032AE6D79C
:1010100042E9E7CFD9FF1200D9CFE6FFE1CFD9FFF0
:1010200087E945E803500A6E0B6A04EBE9FF05EB1C
:10103000EAFF340EE926000EEA22EF50076E04EBB9
:10104000E9FF05EBEAFFE9CF41F0EACF42F00750B4
:101050000D0D0001F3504125086EF4504221096E38
:1010600008EBE9FF09EBEAFFEF5002E0FF0E4AD080
:1010700008EBE9FF09EBEAFFEE5203EBEFFF08EBA9
:10108000E9FF09EBEAFF020EE926000EEA2202EB75
:10109000EFFF0AEBE6FF0BEBE6FF00EBE6FF01EBF1
:1010A000E6FF08EBE9FF09EBEAFF030EE926000E75
:1010B000EA22E9CF41F0EACF42F041C0E6FF42C068
:1010C000E6FFA5EC11F046E904EBE9FF05EBEAFFCA
:1010D000340EE926000EEA22EF28030BE66E04EB3D
:1010E000E9FF05EBEAFF340EE926000EEA22E5529D
:1010F000E750EF6E08EBE9FF09EBEAFF010EEF6E38
:10110000010E00D046E9E7CFD9FF1200D9CFE6FFA4
:10111000E1CFD9FF88E945E805EBE9FF06EBEAFFF7
:10112000350EE926000EEA22EF50086E05EBE9FFC6
:1011300006EBEAFFE9CF41F0EACF42F008500D0D8F
:101140000001F3504125096EF45042210A6E09EB6B
:10115000E9FF0AEBEAFFEF045CE109EBE9FF0AEBC8
:10116000EAFFEE52EF50045C02E2FD0E54D009EBB0
:10117000E9FF0AEBEAFFEE52EF500B6E0C6A0BEB45
:10118000E6FF0CEBE6FF09EBE9FF0AEBEAFF030ED3
:10119000E926000EEA22E9CF41F0EACF42F041C051
:1011A000E6FF42C0E6FF00EBE6FF01EBE6FFA5EC41
:1011B00011F046E905EBE9FF06EBEAFF350EE926FB
:1011C000000EEA22EF28030BE66E05EBE9FF06EBC3
:1011D000EAFF350EE926000EEA22E552E750EF6EEF
:1011E00009EBE9FF0AEBEAFF020EE926000EEA220C
:1011F000EF50E66E02EBE9FF03EBEAFFE552E75042
:10120000EF6E09EBE9FF0AEBEAFFEF6A0B5003D040
:1012100002D0FC0E00D046E9E7CFD9FF1200D9CFAB
:10122000E6FFE1CFD9FF85E900EBE6FF01EBE6FF42
:1012300002EBE6FF03EBE6FF000EE66E0E0EE66E37
:10124000EBDE46E900D041E9E7CFD9FF1200D9CF64
:10125000E6FFE1CFD9FF86E900EBE6FF01EBE6FF11
:1012600002EBE6FF03EBE6FF04EBE6FF000EE66EA3
:101270000E0EE66E4BDF47E900D041E9E7CFD9FF1C
:101280001200D9CFE6FFE1CFD9FF85E900EBE6FFF9
:1012900001EBE6FF02EBE6FF03EBE6FF960EE66EE0
:1012A000000EE66EB9DE46E900D041E9E7CFD9FF8E
:1012B0001200D9CFE6FFE1CFD9FF86E900EBE6FFC8
:1012C00001EBE6FF02EBE6FF03EBE6FF04EBE6FFD4
:1012D000960EE66E000EE66E19DF47E900D041E992
:1012E000E7CFD9FF1200D9CFE6FFE1CFD9FF85E9DB
:1012F00000EBE6FF01EBE6FF02EBE6FF03EBE6FFA8
:10130000600EE66E000EE66E87DE46E900D041E92B
:10131000E7CFD9FF1200D9CFE6FFE1CFD9FF86E9A9
:1013200000EBE6FF01EBE6FF02EBE6FF03EBE6FF77
:1013300004EBE6FF600EE66E000EE66EE7DE47E9C0
:1013400000D041E9E7CFD9FF1200D9CFE6FFE1CFC6
:10135000D9FF85E900EBE6FF01EBE6FF02EBE6FFD4
:1013600003EBE6FF000EE66E000EE66E55DE46E984
:1013700000D041E9E7CFD9FF1200D9CFE6FFE1CF96
:10138000D9FF86E900EBE6FF01EBE6FF02EBE6FFA3
:1013900003EBE6FF04EBE6FF000EE66E000EE66EE2
:1013A000B5DE47E900D041E9E7CFD9FF12000001DF
:1013B000366B000EE66E0E0EE66EF7DD42E9960E17
:1013C000E66E000EE66EF1DD42E9600EE66E000E9E
:1013D000E66EEBDD42E9000EE66E000EE66EE5DD40
:1013E00042E91200D38E03001200D9CFE6FFE1CF0D
:1013F000D9FF83E900EBE9FF01EBEAFFE9CF41F018
:10140000EACF42F000EBE9FF01EBEAFF350EE926F7
:10141000000EEA22EF500D0D000100014151F324AE
:10142000E96E000100014251F420EA6EEF5000D055
:1014300041E9E7CFD9FF12000001365101E129D07F
:1014400040EC10F0F3CF41F0F4CF42F000014151F5
:10145000421101E01ED01EEC10F0F3CF41F0F4CFAA
:1014600042F000014151421101E113D0960EE66EA7
:10147000000EE66EBADF42E9000901E00AD0000E74
:10148000E66E0E0EE66EB1DF42E9000901E001D022
:10149000A9DF12005AEC10F0F3CF41F0F4CF42F084
:1014A00000014151421101E11FD00001010E366FD0
:1014B000960EE66E000EE66E98DF42E9000903E044
:1014C0000001366B11D0000EE66E0E0EE66E8DDF5B
:1014D00042E9000903E00001366B06D00A0EE66E11
:0A14E000B8EC14F041E9E4D7120063
:0614EA008B9E320EE66E3F
:1014F0001BEC15F041E98B8E03EC15F08A98420E37
:10150000E66EC8EC13F041E90A0EE66EC8EC13F083
:1015100041E9280EE66EC8EC13F041E98A888A9802
:10152000400EE66EC8EC13F041E9010EE66EC8EC21
:1015300013F041E9E66AC8EC13F041E98A888A9819
:10154000400EE66EC8EC13F041E9E66AC8EC13F011
:1015500041E9E66AC8EC13F041E98A881200D9CF64
:10156000E6FFE1CFD9FF83E98A98400EE66EC8EC2A
:1015700013F041E901EBE6FFC8EC13F041E900EBA1
:10158000E6FFC8EC13F041E98A8841E9E7CFD9FFCB
:101590001200D9CFE6FFE1CFD9FF83E941E8030E7E
:1015A0000014036E200E0010E66E120EE66ED7DFFA
:1015B00042E9180EE66E1BEC15F041E9400E0110F1
:1015C000E66E130EE66ECBDF42E9180EE66E1BECFC
:1015D00015F041E900EBE6FF29D841E942E9E7CF00
:1015E000D9FF1200D9CFE6FFE1CFD9FF82E9200E63
:1015F000E66E120EE66EB3DF42E9180EE66E1BECE5
:1016000015F041E9B80E0010E66E130EE66EA7DF86
:1016100042E9180EE66E1BEC15F041E9030EE66E8A
:1016200005D841E941E9E7CFD9FF1200D9CFE6FF5C
:10163000E1CFD9FF82E9300E0010E66E120EE66EA1
:101640008EDF42E9050EE66E1BEC15F041E9200E37
:101650000010E66E120EE66E82DF42E941E9E7CF46
:10166000D9FF1200D9CFE6FFE1CFD9FF81E942E8E7
:10167000016A026A3ADF0000030EE66E120EE66EA1
:101680006EDF42E9030EE66ED1DF41E9230EE66E1E
:10169000120EE66E64DF42E9E66AB7D841E93F0E12
:1016A000E66E130EE66E5BDF42E9030EE66EBEDF0A
:1016B00041E9E668130EE66E52DF42E936D843E9A7
:1016C000E7CFD9FF1200D9CFE6FFE1CFD9FF83E9F9
:1016D00041E8036A00EBE6FF85DF41E903503F087C
:1016E00010E28B50800B01E0010E036E8B50800BDB
:1016F00001E0010EE66E400E015CE66E4ADF42E953
:101700000ED08B50400B01E0010E036E8B50400B4E
:1017100001E0010EE66E01EBE6FF3BDF42E903501C
:1017200000D042E9E7CFD9FF1200D9CFE6FFE1CFE1
:10173000D9FF81E944E8016A026A046A080E045C80
:1017400033E2036A03500001416F426B800E0001D7
:10175000D89042BF03D0415D000E425923E204EB12
:10176000E6FF03EBE6FFAFDF42E9640EE66EC8EC8E
:1017700014F041E9400E035C0AE28B50400B01E09B
:10178000010EE66E0F0EE66E17D842E909D08B50B7
:10179000800B01E0010EE66E0F0EE66E0DD842E9F9
:1017A000032AD0D7042ACAD7E66AE66A8CDF42E960
:1017B00045E9E7CFD9FF1200D9CFE6FFE1CFD9FF46
:1017C00083E941E8030E0014036E240E0310E66E55
:1017D000120EE66EC4DE42E9050EE66E1BEC15F055
:1017E00041E901EBE6FF130EE66EB9DE42E900EBDC
:1017F000E6FF1CDF41E9200EE66E120EE66EAFDE5C
:1018000042E942E9E7CFD9FF1200D9CFE6FFE1CFA5
:10181000D9FF82E9230EE66E120EE66EA0DE42E9E3
:10182000C00E0010E66E130EE66E99DE42E9030E5E
:10183000E66EFCDE41E941E9E7CFD9FF1200D9CFDE
:10184000E6FFE1CFD9FF81E941E8016A8A98400EBD
:10185000E66EC8EC13F041E9010EE66EC8EC13F039
:1018600041E9E668C8EC13F041E98A888B50400BE7
:1018700001E0010E2809E66E120EE66E70DE42E906
:10188000010EE66ED3DE41E90A0EE66E1BEC15F0A2
:1018900041E98A98410EE66EC8EC13F041E9130E57
:1018A000E66EC8EC13F041E9C7A0FED778EC14F05F
:1018B000016E8A8801BEEDD7015000D042E9E7CF22
:0418C000D9FF12003A
:0C18C400D9CFE6FFE1CFD9FF81E97FE832
:1018D00041E8016A026A036A046A030E936E926A1F
:1018E000100E946E8A8A32EC0BF06C0ED36E9B8CC9
:1018F000D9503C0FE66EDACFE6FF00EC14F042E977
:10190000D7EC09F0910EE66EE5EC13F041E91AEC24
:1019100010F09F909F9A9F869D864AEC0AF0D950BE
:101920002E0FE66EDACFE6FFD950080FE66EDACF5B
:10193000E6FF0A0EE66E59EC09F045E9066E06343C
:1019400016E3FC0E065C12E006EB41F00001426B70
:1019500041BF426941C0E6FF42C0E6FFF90EE66EB4
:10196000220EE66EE66A1DEC13F045E999D00850A8
:10197000370A01E185D0050A01E17ED0040A01E1C0
:1019800077D0030A71E0010A6BE0070A65E0190AE3
:101990004EE0020A20E0010A1EE0230A01E074D0B2
:1019A000D9502E0FE66EDACFE6FF06EB41F00001CC
:1019B000426B41BF426941C0E6FF42C0E6FF0850AA
:1019C000E66EE66AD9503E0FE66EDACFE6FF7EECB1
:1019D00013F048E965D00850E66EE66ADD0EE66E63
:1019E000220EE66EE66A1DEC13F045E9396A0650F0
:1019F000395C1AE20001D9502E0F416FDACF42F064
:101A000039500001EA6A4125E96E4251EA22EF505D
:101A1000E66EE66AD90EE66E220EE66EE66A1DEC0A
:101A200013F045E9392AE3D730EB8AFF39D0C90EE4
:101A3000E66E220EE66EE66A1DEC13F043E9020E36
:101A4000066ED9502E0FE66EDACFE6FF06EBE6FF04
:101A50003CEC04F043E924D08B808B928B9420D013
:101A60008B908B828B941CD08B808B828B9418D024
:101A70008B908B928B8414D08B908B928B9410D004
:101A80008B908B928B940CD00850E66EE66A9D0E7C
:101A9000E66E220EE66EE66A1DEC13F045E900D014
:101AA000D9502E0FE66EDACFE6FFD950080FE66E5A
:101AB000DACFE6FF0A0EE66E27EC09F045E9066E7E
:101AC000063416E3FC0E065C12E006EB41F0000162
:101AD000426B41BF426941C0E6FF42C0E6FF700E63
:101AE000E66E220EE66EE66A1DEC13F045E94AD07A
:101AF00008501E0A20E0010A1EE0140A01E036D058
:101B0000D9502E0FE66EDACFE6FF06EB41F000016A
:101B1000426B41BF426941C0E6FF42C0E6FF085048
:101B2000E66EE66AD9503C0FE66EDACFE6FF0FECC0
:101B300014F048E927D0D9502E0FE66EDACFE6FF31
:101B400006EB41F00001426B41BF426941C0E6FF34
:101B500042C0E6FF0850E66EE66AD9503A0FE66EDC
:101B6000DACFE6FF4FEC13F048E90CD00850E66EF0
:101B7000E66A9D0EE66E220EE66EE66A1DEC13F036
:101B800045E900D0CAD67FE942E9E7CFD9FF120084
:101B90001200D9CFE6FFE1CFD9FF83E92FEC15F092
:101BA00007EC00F0000901E0FBD70FEC15F0F3CFD4
:101BB00041F0F4CF42F000EBE9FF01EBEAFF41C056
:101BC000EEFF42C0EDFF010EE66EB8EC14F041E905
:101BD00041E9E7CFD9FF1200D9CFE6FFE1CFD9FF26
:101BE00084E9FC0EE66EE6683F0EE66E7F0E00149A
:101BF000FC0BE66ED10EE66EA5EC12F045E900EBAB
:101C0000E6FF60EC14F041E92FEC15F007EC00F072
:101C1000000901E0FBD70FEC15F0F3CF41F0F4CF52
:101C200042F001EBE9FF02EBEAFF41C0EEFF42C0E8
:101C3000EDFF010EE66EB8EC14F041E941E9E7CFA3
:101C4000D9FF1200D9CFE6FFE1CFD9FF83E9D70E44
:101C5000E66E00EBE6FF01EBE6FFBEDF43E941E99C
:101C6000E7CFD9FF1200D9CFE6FFE1CFD9FF81E955
:101C700046E800014D3504E24C510008000E4D5578
:101C80004DE203EC12F0040A2EE0070A1FE0010AFD
:101C900010E0030A01E034D0D950010FE66EDACF2C
:101CA000E6FF330EE66E020EE66E41EC09F044E903
:101CB00034D0D950010FE66EDACFE6FF340EE66E6F
:101CC000020EE66E41EC09F044E927D0D950010F2D
:101CD000E66EDACFE6FF350EE66E020EE66E41ECFA
:101CE00009F044E91AD0D950010FE66EDACFE6FFC9
:101CF000360EE66E020EE66E41EC09F044E90DD0B8
:101D0000D950010FE66EDACFE6FF320EE66E020E14
:101D1000E66E41EC09F044E900D00CD0D950010F37
:101D2000E66EDACFE6FF370EE66E020EE66E41ECA7
:101D300009F044E931EC12F0000905E0010E000160
:101D40004C6F4D6B03D000014C6B4D6B000EE66E7B
:101D5000E66A48EC14F042E9D950010FE66EDACF9A
:101D6000E6FFD950050FE66EDACFE6FF020EE66E0B
:101D7000BDEC09F045E9036E046AE8BE0468020E92
:101D8000031801E104500CE1D950010FE66EDACFDF
:101D9000E6FF0A0EE66E020EE66E41EC09F044E93B
:101DA00047E9E7CFD9FF1200D9CFE6FFE1CFD9FF4E
:101DB00081E944E830EC14F0F350016EF450026E07
:101DC000000EE66EE66A0B0EE66EE66A0FEC09F0B0
:101DD00044E9000EE66EE66A18EC14F042E945E9C3
:061DE000E7CFD9FF12005D
:0A1DE60043E8D9CFE6FFDACFE6FFAD
:101DF000E1CFD9FFE2CFDAFF89E9066A1200F3DF0B
:101E0000068001D0F0DF01AE0CEF0FF0006C011E78
:101E1000E86A012206B0067E03AE14EF0FF0026CF2
:101E2000031EE86A0322067E4CEC0FF003BE36EF79
:101E30000FF006AE08D0026C031EE86A0322046CA1
:101E4000051EE86A052206B006D084EB00F085EB9B
:101E500001F006A004D082EB00F083EB01F0E55224
:101E6000E5CFDAFFE7CFD9FF45E9000C06BE1BEF4F
:101E70000FF0E9DFFF0C43E8D9CFE6FFDACFE6FF4A
:101E8000E1CFD9FFE2CFDAFF89E9066A1200F3DF7A
:101E9000068003D0F0DF01D00682056A046A100EC6
:101EA000E76ED89002360336043605360050045CDF
:101EB0000150055805E30050045E0150055A022AFE
:101EC000E72EF0D706B2120006B006D084EB00F081
:101ED00085EB01F006A004D082EB00F083EB01F06B
:101EE000E552E5CFDAFFE7CFD9FF45E9120045E833
:101EF000D9CFE6FFDACFE6FFE1CFD9FFE2CFDAFFB5
:101F00008FE90C6A1200F3DF0C8003D0F0DF01D000
:101F10000C820B6A0A6A096A086A200EE76ED8907A
:101F20000436053606360736083609360A360B36C5
:101F30000050085C0150095802500A5803500B58D1
:101F400009E30050085E0150095A02500A5A035032
:101F50000B5A042AE72EE4D70CB212000CB00AD0B8
:101F600088EB00F089EB01F08AEB02F08BEB03F0D9
:101F70000CA008D084EB00F085EB01F086EB02F0BA
:101F800087EB03F0E552E5CFDAFFE7CFD9FF49E968
:101F9000120044E8D9CFE6FFDACFE6FFE1CFD9FF60
:101FA000E2CFDAFF8EE980EB08F081EB09F082EBFB
:101FB0000AF083EB0BF004500802F350006EF4506B
:101FC000016E04500902F3500126000EF420026E47
:101FD00004500A02F3500226000EF420036E04504F
:101FE0000B02F350032605500802F3500126F4506B
:101FF0000222000E032205500902F3500226F4507B
:10200000032205500A02F350032606500802F3503B
:102010000226F450032206500902F350032607500B
:102020000802F3500326E552E5CFDAFFE7CFD9FFE8
:0420300048E9000C6F
:0C203400D08EF28EF28C1200F250800B65
:10204000800A01E0010E0001416F426B800B01E04C
:10205000426941C0F3FF42C0F4FF00D01200F250C9
:10206000400B400A01E0010E0001416F426B800B02
:1020700001E0426941C0F3FF42C0F4FF00D012000A
:10208000F2AC05D0000EF36EF46A13D012D0D6DF96
:10209000F3CF41F0F4CF42F000014151421105E08D
:1020A000000EF36EF46A05D004D0010EF36EF46AEC
:1020B00000D01200E5DFF3CF41F0F4CF42F0000191
:1020C000415142110EE1BADFF3CF43F0F4CF44F0B7
:1020D00000014351441105E1010EF36EF46A05D08D
:1020E00004D0000EF36EF46A00D01200DACFE4FFE1
:1020F000E2CFDAFFE9CFE4FFEACFE4FFD9CFE4FF94
:10210000DACFE4FF48C0E4FF49C0E4FF4AC0E4FF7F
:102110004BC0E4FFF6CFE4FFF7CFE4FFF5CFE4FFD9
:10212000F3CFE4FFF4CFE4FFFACFE4FF00EE41F099
:10213000070EE80403E3EECFE4FFFBD7E6529EA6CA
:1021400003D09E9605EC05F0F2A403D0F29433EC94
:102150000EF01CEC0AF0E55200EE47F0070EE80422
:1021600003E3E5CFEDFFFBD7E5CFFAFFE5CFF4FFC3
:10217000E5CFF3FFE5CFF5FFE5CFF7FFE5CFF6FFBE
:10218000E5CF4BF0E5CF4AF0E5CF49F0E5CF48F099
:10219000E5CFDAFFE5CFD9FFE5CFEAFFE5CFE9FFED
:1021A000E5CFDAFF1100D8CFE4FFE0CFE4FFE46E23
:1021B000DACFE4FFE2CFDAFFE9CFE4FFEACFE4FFD2
:1021C000D9CFE4FFDACFE4FF48C0E4FF49C0E4FF21
:1021D0004AC0E4FF4BC0E4FFF6CFE4FFF7CFE4FFD3
:1021E000F5CFE4FFF3CFE4FFF4CFE4FFFACFE4FF51
:1021F00000EE41F0070EE80403E3EECFE4FFFBD767
:10220000E6529EA003D09E90D4EC0EF09EAA03D07E
:102210009E9A8FEC14F0E55200EE47F0070EE804AA
:1022200003E3E5CFEDFFFBD7E5CFFAFFE5CFF4FF02
:10223000E5CFF3FFE5CFF5FFE5CFF7FFE5CFF6FFFD
:10224000E5CF4BF0E5CF4AF0E5CF49F0E5CF48F0D8
:10225000E5CFDAFFE5CFD9FFE5CFEAFFE5CFE9FF2C
:10226000E5CFDAFFE550E5CFE0FFE5CFD8FF10007E
:102270004572726F723A20426164206C6F772070F1
:1022800072696F7269747920726563656976652C0D
:1022900020636F6465203D2025780D0A0045727229
:1022A0006F723A20556E6578706563746564206D51
:1022B000736720696E2071756575652C207479705F
:1022C00065203D2025780D0A0049324320536C617A
:1022D0007665205265710D0A002025780049324349
:1022E00020496E74657272757074207265636569D9
:1022F0007665642025783A20004572726F723A2024
:102300004261642068696768207072696F726974DD
:102310007920726563656976652C20636F6465203A
:102320003D2025780D0A004D53473A20256420258D
:10233000642025730D0A0054494D4552313A202539
:0A234000642025642025640D0A00C6
:06234A00D9CFE6FFDACF57
:10235000E6FFFA0EE3CFD9FFFB0EE3CFDAFFFC0E68
:10236000E3CFE9FFFD0EE3CFEAFFE9CFF3FFEACFCA
:10237000F4FFF80EE35003E1F90EE35008E0F80E25
:10238000E30602E2F90EE306DECFEEFFF2D7FF0E20
:10239000E3CFDAFFE552FF0EE3CFD9FFE55212009B
:1023A000FE0EE3CFE9FFFF0EE3CFEAFFF36AF46A24
:1023B000EE5203E0F34AF42AFBD71200FF0EE3CFFC
:1023C000F8FFE552FF0EE3CFF7FFE552FF0EE3CF34
:1023D000F6FFE552E66AE66AE66A0900F55209E0A8
:1023E000FD0EE32A05E1FE0EE32A02E1FF0EE32AD9
:1023F000F4D7FD0EE3CF48F0FE0EE3CF49F0FF0E19
:06240000E3CF4AF01200D8
:0A240600D9CFE6FFE1CFD9FF81E94D
:1024100043E8016A026A036A8A848A96D70EE66EE6
:10242000D950020FE66EDACFE6FFECEC0DF043E98F
:10243000F00EE66EE66A02EBE6FF03EBE6FFFFEC6A
:102440000EF0E552E5CF42F0E7CF41F00001412B1D
:10245000000E42230001415100D044E9E7CFD9FFEB
:102460001200D9CFE6FFE1CFD9FF81E942E8016A46
:10247000026A8A848A868A90D70EE66ED950010F46
:10248000E66EDACFE6FFECEC0DF043E9023404E24D
:1024900001500008030E025403E2010E03D002D0E3
:0C24A000000E00D043E9E7CFD9FF120086
:0424AC001E0EF66E9C
:1024B000000EF76E000EF86E00010900F5503C6F3B
:1024C0000900F5503D6F03E13C6701D03DD00900A4
:1024D000F550376F0900F550386F0900F550396F26
:1024E00009000900F550E96E0900F550EA6E09008F
:1024F00009000900F5503A6F0900F5503B6F0900DB
:102500000900F6CF3EF0F7CF3FF0F8CF40F037C0EC
:10251000F6FF38C0F7FF39C0F8FF00013A5302E177
:102520003B5307E00900F550EE6E3A07F8E23B072F
:10253000F9D73EC0F6FF3FC0F7FF40C0F8FF0001EB
:0A2540003C07000E3D5BBFD7120000
:06254A00D9CFE6FFDACF55
:10255000E6FFE1CFD9FFE2CFDAFF87E9C26AC16ABD
:102560000350400DF350C00B0001416F03407F0B3F
:102570003C0B4111C26E0450040DF350380B426FF6
:1025800004380F0B070B416F800E041441114211E8
:10259000C16E01EB41F0426B41C048FF00EB49FFC7
:1025A000060E416FC00E021441C0E7FFE75204E07F
:1025B000E8427F0BE706FCE10E01B86F03AE03D0E3
:1025C0009E9C9D8CF28CC28041E9E5CFDAFFE7CF7B
:0425D000D9FF12001D
:0C25D400D9CFE6FFDACFE6FFE1CFD9FF58
:1025E000E2CFDAFF85E9013415E200EBE9FF01EB08
:1025F000EAFFEECFF3FFEDCFF4FFEE2A000EEF225D
:10260000F3CFE9FFF4CFEAFF02EBEFFFEF50F36EF9
:10261000F46A0DD0FE0E005C05E102EBE6FFE8EC8B
:1026200014F004D002EBE6FF03EC00F041E941E9CD
:0A263000E5CFDAFFE7CFD9FF120073
:06263A00D9CFE6FFDACF64
:10264000E6FFE1CFD9FFE2CFDAFF85E944E8D9CF51
:10265000E6FFDACFE6FFE552E550066EE750056E7D
:1026600005EBE6FF06EBE6FF00EBE6FF01EBE6FF1E
:1026700002EBE6FF58C0E6FF59C0E6FF2FEC00F082
:1026800047E9F350076EF450086E07EBF3FF08EBD1
:0E269000F4FF45E9E5CFDAFFE7CFD9FF1200EE
:02269E00D9CF92
:1026A000E6FFE1CFD9FF89E91E0E041801E10550CC
:1026B00001E120D01F0E041801E105501BE100507C
:1026C0000224E96E01500320EA6EEF6A00EBE6FF98
:1026D00001EBE6FF02EBE6FF03EBE6FF04EBE6FFB0
:1026E00005EBE6FF270EE66E230EE66EE66A1DECAE
:0C26F00013F049E941E9E7CFD9FF1200DF
:0426FC00D9CFE6FF4D
:10270000E1CFD9FF89E942E880EB09F081EB0AF0DB
:1027100009EBE9FF0AEBEAFFEECFE6FFEECFE6FFBB
:1027200002EBE6FF03EBE6FF04EBE6FF05EBE6FF5B
:10273000370EE66E230EE66EE66A1DEC13F049E9ED
:0827400043E9E7CFD9FF1200C5
:08274800D9CFE6FFDACFE6FF6E
:10275000E1CFD9FFE2CFDAFF85E93F0EC716C66A9F
:102760000250C6120050C7120150030A09E0010AC4
:1027700004E0020A06E1C78C04D0C78CC68801D0E9
:10278000C688C68A41E9E5CFDAFFE7CFD9FF120054
:10279000D9CFE6FFDACFE6FFE1CFD9FFE2CFDAFF0C
:1027A00083E941E8C950036E9E96C69E00EBC9FFBF
:1027B000C6AE02D0FF0E03D09EA6FED7000E42E9A1
:0A27C000E5CFDAFFE7CFD9FF1200E2
:0627CA00D9CFE6FFDACFD3
:1027D000E6FFE1CFD9FFE2CFDAFF83E97F0E0014F5
:1027E000D56ED76AD66AF29400AE02D0F28A01D0D2
:1027F000F29AD58E41E9E5CFDAFFE7CFD9FF120093
:10280000D9CFE6FFE1CFD9FF83E900EBE9FF01EB88
:10281000EAFFEE6AED6A41E9E7CFD9FF1200D9CFAE
:10282000E6FFE1CFD9FF89E941E9E7CFD9FF1200FF
:10283000D9CFE6FFDACFE6FFE1CFD9FFE2CFDAFF6B
:1028400084E942E880EB04F081EB05F005EBCFFF73
:1028500004EBCEFF43E9E5CFDAFFE7CFD9FF120063
:10286000D9CFE6FFDACFE6FFE1CFD9FFE2CFDAFF3B
:1028700082E942E8CE50026ECF50036E02EBF3FFC6
:1028800003EBF4FF43E9E5CFDAFFE7CFD9FF12000E
:10289000D9CFE6FFDACFE6FFE1CFD9FFE2CFDAFF0B
:1028A00084E942E880EB04F081EB05F005EBD7FF0B
:1028B00004EBD6FF43E9E5CFDAFFE7CFD9FF1200FB
:1028C000D9CFE6FFDACFE6FFE1CFD9FFE2CFDAFFDB
:1028D00083E9C30EC2140001416F00407F0B3C0B23
:1028E0004111C26E41E9E5CFDAFFE7CFD9FF12000F
:1028F000D9CFE6FFDACFE6FFE1CFD9FFE2CFDAFFAB
:1029000082E941E8C950026E9E96C96A9EA6FED72A
:0E291000C95042E9E5CFDAFFE7CFD9FF120048
:02291E001200A5
:10292000D9CFE6FFE1CFD9FF83E900EB4EF001EB11
:102930004FF04EC0E9FF4FC0EAFF040EE926000E3B
:0C294000EA22EF6A41E9E7CFD9FF12005C
:04294C00F36AF46ACC
:10295000FF0EE124E96EFF0EE220EA6EED6607D07D
:102960002F0EEF6404D03A0EEF6001D0F32A12006C
:10297000FF0EE35000015A6F480E01D04C0EE76E77
:10298000E72EFED7E76AE72EFED75A2FF7D71200B9
:10299000FF0EE35000015A6F1A0E00D000D001D094
:1029A000200EE76EE72EFED75A2FFAD700D012007E
:1029B000B00EF36E00EE00F00E0E01D81200EA60C9
:1029C00002D0EE6AFCD7F350E9601200EE6AFCD741
:1029D000FF0EE350ADBA04D0B06AAC8EAD8A949CC1
:0C29E000ADA2FED7AE6EF36EF46A1200DA
:0429EC001DEE00F0EC
:1029F0002DEE00F0F86A56EC12F031EC15F062ECB6
:062A00000CF0FBD71200F0
:0A2A0600100E946E8B9E8B8EE66A14
:0E2A1000E66A010EE66EA4EC13F043E9120034
:022A1E00C4CF23
:102A200043F043C044F00001436BC3504311F36EC5
:062A300044C0F4FF120097
:0A2A3600FF0EE350E84E120000000E
:0C2A400000D000D000D0E82EFAD7120021
:042A4C0030313233C0
:0D2A500034353637383961626364656600DD
:022A5E00C28232
:022A6000120062
:022A6200120060
:022A6400FEFF73
:00000001FF
