:020000040000FA
:060000003AEF13F01200BC
:020006001200E6
:06000800B2EF0CF0120043
:02000E00C250DE
:08001000020B01E0010E1200D9
:060018000FEF0DF01200D5
:02001E000100DF
:0C002000D4260000F800000002000000E0
:04002C0090DB86E9F6
:100030000150010600090CE002EBE6FF03EBE6FFCE
:1000400000EBE6FF69DBF4E1EA1DF2E1010E01D00D
:10005000000E41E9E5CFDAFFE7CFD9FF120077DBE9
:1000600089E97BE80A6A0B6A02EBF6FF03EBF7FF0C
:1000700004EBF8FF0800F550096E095001E12DD39B
:10008000250E095C01E01BD30C6A0D6A0E6A0F6A2B
:10009000106A2DDB2D0E095C0CE02B0E095C09E0CB
:1000A000200E095C06E0230E095C03E0300E095CBB
:1000B00015E10950300A10E0130A0CE0030A08E0C9
:1000C0000B0A04E0060AE5E10C80E3D70C82E1D7D5
:1000D0000C84DFD70C86DDD70C88DBD72A0E095CB1
:1000E00013E1A5DB0DE30C801CEBE9F01DEBEAF05E
:1000F0000001E96DEA1F000EEA23E9510D6E02D0FE
:100100009CEB0DF0F4DA07D0126A3FDB02E06BDB08
:10011000FCD792EB0DF00CB00C982E0E095C15E19B
:10012000E6DA2A0E095C08E182DB04E29CEB0EF0C1
:10013000010E0F6EDCDA09D0126A27DB02E053DB16
:10014000FCD792EB0EF0010E0F6E680E095C07E112
:10015000CEDA680E095C1DE1030E106E19D0740E24
:10016000095C16E07A0E095C13E0480E095C06E0B3
:10017000540E095C03E05A0E095C02E1020E07D03E
:100180006C0E095C03E06A0E095C03E1010E106E5F
:10019000AEDA09506E0A01E16ED21E0A01E128D1E1
:1001A000200A01E125D13F0A01E1FDD01A0A01E14F
:1001B000FAD00D0A01E1F7D0200A01E1F4D03A0AA1
:1001C00001E1F1D0200A01E1EED0260A01E1EAD0F6
:1001D0000D0A01E1E7D01A0A01E19ED0200A3BE0B6
:1001E000300A1AE0460A0EE0250A01E072D2D95020
:1001F000020FE96E000EDA20EA6E010EEE5E000ECE
:10020000EE5AEE5A0FDB250EE66E86DA03E1EA1DA2
:1002100001E159D20A2A5BD2116A0D50010803E2AA
:100220000D04116EF5DA115007E0010E0C1404E113
:100230006DDA01E048D2116AD3DAEF50096ECBDAF9
:1002400003E1EA1D01E13FD20A2A000E0B225EDA29
:1002500001E13FD238D2020E105C08E1030E4EDA03
:10026000EE50176EEE50186EEF5007D0E7DAEB6BDA
:10027000E951176EEA51186EEB51196E17EBE6FF54
:1002800018EBE6FF19EBE6FFB7EC0FF043E9F0C01F
:10029000E9F0F1C0EAF0F2C0EBF00001E9511C6EA8
:1002A000EA511D6E0F5006E01C500E5C03E20E502A
:1002B0001C6E1D6A1C500D5C02E29CEB0DF050DAC6
:1002C00005E00D500E5C02E28EEB0DF00CB004D098
:1002D0001DDA01E0F8D1116A126A17EBF6FF18EB8C
:1002E000F7FF19EBF8FF0800F550096E095010E010
:1002F0000D50125C0DE26FDA03E1EA1D01E1E3D17A
:100300000A2A000E0B22122AD950170F55DAEBD702
:10031000FDD901E1DED1D7D163DAEE501A6EED508E
:100320001B6E1AEBE6FF1BEBE6FFA9EC0FF042E9B0
:10033000F3501C6EF4501D6E0F5006E01C500E5C06
:1003400003E20E501C6E1D6A1C500D5C02E29CEB19
:100350000DF006DA05E00D500E5C02E28EEB0DF0BA
:100360000CB004D0D3D901E0AED1116A126A1AEBF5
:10037000E9FF1BEBEAFFEF50096E09500FE00D504B
:10038000125C0CE228DA03E1EA1D01E19CD10A2AA1
:10039000000E0B22122A1A2A1B22E9D7B7D901E133
:1003A00098D191D10C8E10040AE1040EA7D9EE5019
:1003B000136EEE50146EEE50156EEF5032D0030EE9
:1003C000105C16E10CAE0CD00BDAEFCFE9F00001B7
:1003D000EA6BEB6BEC6BE9AF23D0EA69EB691FD0FA
:1003E000FFD9EFCFE9F00001E951136E146A20D074
:1003F000020E105C0CE10CAE06D0030E7FD9B6D90C
:10040000EBAF0ED00CD0030E79D9B0D909D00CAE19
:100410000AD014DAEB6BEC6BEAAF02D0EB69EC6953
:10042000BCD9166E07D00ADAE951136EEA51146E80
:10043000156A166A0F5002E1010E0E6E1E6A1F6ADF
:10044000D950400FE66E000EDA20E66EE552E55018
:10045000436EE750426E416A116A0A0E106E0950EF
:10046000780A12E0200A10E0280A0CE0200A0AE0CC
:100470003F0A06E00D0A02E0200A08E1020E05D05C
:10048000080E03D0080E0926100E106E0CBE02D006
:100490000C920C94800E0C1417E0163415E3E668E9
:1004A000E668E668E66842D9C6EC0DF0E552E5CFAD
:1004B000ECF0E5CFEBF0E5CFEAF0E7CFE9F00001B3
:1004C0006CD9166E2D0E07D00CA202D02B0E03D0C5
:1004D0000CA404D0200E206E1E2A01D0206A0E50DB
:1004E00005E1135014101510161061E00001BC0E48
:1004F000E96F260EEA6F000EEB6F83D983EC0DF0E7
:10050000E552E5CFEFF0E5CFEEF0E5CFEDF0E7CF48
:10051000ECF00001E951EC25F36EEA51ED21F46EA7
:10052000EB51EE21F86EF4CFF7FFF3CFF6FF0800A2
:10053000F550126E580E095C05E1610E125C02E383
:10054000200E125E5ED980EC0DF0E552E550166E7D
:10055000E550156EE550146EE750136E42EBE9FF5F
:1005600043EBEAFF4206000E435A12EBEFFF1E2A4E
:100570001350141015101610B9E10CA619D06F0EF7
:10058000095C06E10E501E5C13E31E280E6E10D0AF
:10059000780E095C09E0580E095C06E0620E095C01
:1005A00003E0420E095C04E1020E1F6E01D01E6AD8
:1005B000100E0C1407E00D500E5C04E20F5002E127
:1005C0008DEB0EF00E501E5C03E21E500E5E01D04D
:1005D0000E6A0E501E241F24D8800D5407E20E50C0
:1005E0000D5CD8801E54D8801F54116E010E0C145F
:1005F00006E1115004E08AD866E10AD9116A205058
:1006000007E010D920EBE6FF87D802E1EA1D5BE0A6
:100610001F500BE007D9300EE66E7ED802E1EA1DCE
:1006200052E0D9D802E1EA1D4EE00E501F5C02E212
:100630001F500E5E300EE66E0EEBE6FFDCD843E197
:10064000422A000E432242EBE9FF43EBEAFFEF5060
:10065000126E125008E0E6D812EBE6FF5DD8F0E12A
:10066000EA1DEEE130D052D82EE10E501E241124A6
:100670001F240A262CD01050030A1CE0010A14E0A3
:10068000030A07E0ADD8C9D80AEBEEFF0BEBEDFF8C
:1006900020D08BD8EC6BEAAF02D0EB69EC69A0D824
:1006A0004ED8ECC0EEFF15D080D8EABFEB6998D8E1
:1006B00046D80FD095D8B1D80AEBEFFF0AD08BD827
:1006C00005E1EA1D03E1F368F4680BD00A2A000E85
:1006D0000B22D950020F70D8CDD40AEBF3FF0BEBED
:1006E000F4FF7CE9E5CFDAFFE7CFD9FF1200D9505C
:1006F000020F62D80800F550096E1200005E000E6D
:10070000015A00EBE9FF01EBEAFF1200200EE66E52
:1007100011EBE6FFFBEF03F00BEC11F043E9F3CF35
:10072000E9F0F4CFEAF00001F31C120013EBE6FF4E
:1007300014EBE6FF15EBE6FF16EBE6FF12006DD8B3
:10074000E9C0EEFFEAC0EEFFEBC0EEFF1200D9CF2A
:10075000E6FFDACFE6FFE1CFD9FFE2CFDAFF120002
:100760001C500D5C116E54D80F501200EECFE9F002
:10077000EECFEAF0EFCFEBF00001EC6B1200EECF22
:10078000E9F0EFCFEAF0000112000950E66EE66AE8
:10079000FAEC12F042E9F3501200E951136EEA51FB
:1007A000146EEB51156EEC5112000AEBE9F00BEBF5
:1007B000EAF00001EB6B1200E96E000EDA20EA6E3F
:1007C000EF2AEECFF6FF000EEF22EECFF7FFEF227B
:1007D000EECFF8FF120026D809EBE6FF8CEF03F00E
:1007E000020E7EEF03F00A0E1202F3500924D00F1E
:1007F000126E77EF03F016D816EC00F044E900090A
:10080000120010EBE6FFE66AE66AE66A96EF03F08E
:1008100011500A26000E0B221200EE50EFCFEAFF15
:10082000E96E120005EBE6FF06EBE6FF1200D8DFEB
:10083000EE501C6EED501D6E1D341200D1DFBFEF67
:0208400003F0C3
:0E084200D9CFE6FFE1CFD9FF82E941E9E7CF48
:10085000D9FF1200D9CFE6FFE1CFD9FF84E941E902
:10086000E7CFD9FF1200D9CFE6FFE1CFD9FF82E968
:1008700041E9E7CFD9FF1200D9CFE6FFE1CFD9FF99
:1008800084E9F6C0E9FFF7C0EAFF230EE926000E6F
:10089000EA22EF6AF6C0E9FFF7C0EAFF230EEB5049
:1008A000D880025432E2F6C0E9FFF7C0EAFF230E17
:1008B000EB500024E96E000E0120EA6EEF50E66E68
:1008C000F6C0E9FFF7C0EAFF140EE926000EEA229F
:1008D000E9CFE9F0EACFEAF0F6C0E9FFF7C0EAFFB6
:1008E000230EEB500001EA6AE925E96EEA51EA229B
:1008F000E552E750EF6EF6C0E9FFF7C0EAFF230EBE
:10090000E926000EEA22EF2AC5D7F6C0E9FFF7C0B4
:10091000EAFF230EE926000EEA2202EBEFFFF6C003
:10092000E9FFF7C0EAFF240EE926000EEA22010ED5
:10093000EF6EF6C0E9FFF7C0EAFF140EEB50C96E88
:10094000C68841E9E7CFD9FF1200D9CFE6FFE1CF52
:10095000D9FF82E9F6C0E9FFF7C0EAFF100EE926E9
:10096000000EEA22010EEF6EF6C0E9FFF7C0EAFFC3
:100970000F0EE926000EEA22EF6A005035E0C7AA02
:100980001DD0F6C0E9FFF7C0EAFF110EE926000E00
:10099000EA22050EEF6EF6C0E9FFF7C0EAFF130E7C
:1009A000E926000EEA22EF2AF6C0E9FFF7C0EAFFC7
:1009B000120EE926000EEA22050E1FD0C7A40AD0A7
:1009C000F6C0E9FFF7C0EAFF110EE926000EEA22A1
:1009D000080E13D0F6C0E9FFF7C0EAFF110EE926B2
:1009E000000EEA22070E09D0F6C0E9FFF7C0EAFFC1
:1009F000110EE926000EEA22060EEF6E41E9E7CF5E
:100A0000D9FF1200D9CFE6FFE1CFD9FF81E949E84C
:100A1000026A036A046A056A066AC6AC20D0C69CEC
:100A2000F6C0E9FFF7C0EAFF110EE926000EEA2240
:100A3000050EEF6E010E066EF6C0E9FFF7C0EAFF85
:100A4000130EE926000EEA22EF2AF6C0E9FFF7C0EE
:100A5000EAFF120EE926000EEA22040EEF6EC7A08E
:100A600004D0C950016E010E026E065001E05FD144
:100A7000F6C0E9FFF7C0EAFF110EEB50070A01E1EB
:100A8000B4D00F0A01E17FD00E0A16E0030A01E09C
:100A90004ED1C7A64CD102EBE6FF57DF41E9F6C0C5
:100AA000E9FFF7C0EAFF110EEB50080801E03FD163
:100AB000026A010E056E3BD1C7A822D0F6C0E9FF3D
:100AC000F7C0EAFF100EE926000EEA22EF2A0250D4
:100AD00001E123D1C7AAD1D0F6C0E9FFF7C0EAFFF0
:100AE000130EE926000EEA22EF2AF6C0E9FFF7C04E
:100AF000EAFF120EE926000EEA22060EEF6E0DD175
:100B0000025001E114D1F6C0E9FFF7C0EAFF100E70
:100B1000E926000EEA22EF2AC7BA18D0C7B40AD0D5
:100B2000F6C0E9FFF7C0EAFF110EE926000EEA223F
:100B3000070EFCD0F6C0E9FFF7C0EAFF110EE92668
:100B4000000EEA22080EEF6E010ED1D0F6C0E9FFCA
:100B5000F7C0EAFF130EE926000EEA22EF2AF6C0DC
:100B6000E9FFF7C0EAFF110EE926000EEA22050EA2
:100B7000EF6EF6C0E9FFF7C0EAFF120EE926000E9D
:100B8000EA22060ED3D0F6C0E9FFF7C0EAFF240E32
:100B9000EB500001E96F230EEB50E95D01E3BDD09E
:100BA000F6C0E9FFF7C0EAFF140EE926000EEA22BC
:100BB000E9CFE9F0EACFEAF0F6C0E9FFF7C0EAFFD3
:100BC000240EEB50EA6AE925E96EEA51EA22EF5079
:100BD000C96EF6C0E9FFF7C0EAFF240EE926000E51
:100BE000EA22EF2A010E036EA2D0C7A849D0F6C0B0
:100BF000E9FFF7C0EAFF100EE926000EEA22EF2A0D
:100C000002503BE0C7AA1CD0F6C0E9FFF7C0EAFFDC
:100C1000F6C0E9F0F7C0EAF00F0EEB500001EA6A07
:100C2000E925E96EEA51EA2201EBEFFFF6C0E9FFA0
:100C3000F7C0EAFF0F0EE926000EEA22EF2A1DD0C8
:100C4000F6C0E9FFF7C0EAFF130EE926000EEA221C
:100C5000EF2AF6C0E9FFF7C0EAFF120EE926000E00
:100C6000EA22060EEF6EF6C0E9FFF7C0EAFF110EAA
:100C7000E926000EEA22050E4FD0010E046E4DD07B
:100C8000025055E0F6C0E9FFF7C0EAFF100EE92672
:100C9000000EEA22EF2AC7AA1CD0F6C0E9FFF7C06F
:100CA000EAFFF6C0E9F0F7C0EAF00F0EEB500001E2
:100CB000EA6AE925E96EEA51EA2201EBEFFFF6C0A4
:100CC000E9FFF7C0EAFF0F0EE926000EEA22EF2A3D
:100CD0002ED0C7A40FD0F6C0E9FFF7C0EAFF110E6F
:100CE000E926000EEA22080EEF6E010E046E056E74
:100CF000026A1DD0F6C0E9FFF7C0EAFF130EE9262D
:100D0000000EEA22EF2AF6C0E9FFF7C0EAFF120E52
:100D1000E926000EEA22060EEF6EF6C0E9FFF7C0E4
:100D2000EAFF110EE926000EEA22050EEF6E0250D0
:100D300002E1035002E0C6A8C688F6C0E9FFF7C08A
:100D4000EAFF0F0EEB500D081FE204501DE1F6C044
:100D5000E9FFF7C0EAFF110EE926000EEA22050EB0
:100D6000EF6EF6C0E9FFF7C0EAFF130EE926000EAA
:100D7000EA22EF2AF6C0E9FFF7C0EAFF120EE926E1
:100D8000000EEA22070EEF6E045031E0F6C0E9FFD4
:100D9000F7C0EAFF100EEB50E66EF6C0E9F0F7C0C0
:100DA000EAF00F0EEB500001EA6AE925E96EEA511C
:100DB000EA22E552E750EF6EF6C0E9FFF7C0EAFF1E
:100DC000F6C0E9F0F7C0EAF0F6C0E6FFF7C0E6FFCC
:100DD000280EE66E0F0EEB50010FE66EDCEC08F00D
:100DE00044E9F6C0E9FFF7C0EAFF0F0E29D0F6C0CC
:100DF000E9FFF7C0EAFF130EEB500001E96F010EA7
:100E0000E95D22E3F6C0E9FFF7C0EAFF130EEB50FD
:100E1000076E120EEB50086E100EEB50096ED95093
:100E2000070FE66EDACFE6FF290EE66E030EE66EDA
:100E3000DCEC08F044E9F6C0E9FFF7C0EAFF130E66
:100E4000E926000EEA22EF6A055013E0F6C0E9FF3A
:100E5000F7C0EAFFF6C0E9F0F7C0EAF0F6C0E6FF37
:100E6000F7C0E6FF2A0EE66EE66ADCEC08F044E91D
:100E7000056A4AE9E7CFD9FF1200D9CFE6FFE1CFF3
:100E8000D9FF83E900EBF6F001EBF7F0F6C0E9FFDC
:100E9000F7C0EAFF0F0EE926000EEA22EF6AF6C05D
:100EA000E9FFF7C0EAFF100EE926000EEA22EF6A1A
:100EB000F6C0E9FFF7C0EAFF110EE926000EEA22AC
:100EC000050EEF6EF6C0E9FFF7C0EAFF130EE92644
:100ED000000EEA22EF6A41E9E7CFD9FF1200D9CF2D
:100EE000E6FFE1CFD9FF82E99486948800EBC8FF42
:100EF000C76AC66AC56A0E0EC612C78E94869488E3
:0C0F0000C580C68A41E9E7CFD9FF120086
:040F0C00D9CFE6FF54
:100F1000E1CFD9FF83E941E800EBE9FF01EBEAFF0C
:100F2000480EE926000EEA22EF6A00EBE9FF01EB2A
:100F3000EAFF490EE926000EEA22EF6A036A040E70
:100F4000035C0FE200EBE9FF01EBEAFF0350120D37
:100F5000E950F324E96EEA50F420EA6EEF6A032ABE
:100F6000EED742E9E7CFD9FF1200D9CFE6FFE1CFB4
:100F7000D9FF87E945E803500A6E0B6A04EBE9FFE5
:100F800005EBEAFF480EE926000EEA22EF50076E55
:100F900004EBE9FF05EBEAFF0750120D0001F350E7
:100FA000E924086EF450EA20096E08EBE9FF09EB2A
:100FB000EAFFEF5002E0FF0E48D008EBE9FF09EB33
:100FC000EAFFEE5203EBEFFF08EBE9FF09EBEAFF64
:100FD000020EE926000EEA2202EBEFFF0AEBE6FF23
:100FE0000BEBE6FF00EBE6FF01EBE6FF08EBE9FFAA
:100FF00009EBEAFF030EE926000EEA22E9CFE9F049
:10100000EACFEAF0E9CFE6FFEACFE6FF7EEC0FF0A9
:1010100046E904EBE9FF05EBEAFF480EE926000E7E
:10102000EA22EF28030BE66E04EBE9FF05EBEAFF8B
:10103000480EE926000EEA22E552E750EF6E08EB73
:10104000E9FF09EBEAFF010EEF6E46E9E7CFD9FFB2
:101050001200D9CFE6FFE1CFD9FF88E945E805EBDB
:10106000E9FF06EBEAFF490EE926000EEA22EF50FF
:10107000086E05EBE9FF06EBEAFF0850120D0001D0
:10108000F350E924096EF450EA200A6E09EBE9FFF7
:101090000AEBEAFFEF045BE109EBE9FF0AEBEAFF89
:1010A000EE52EF50045C02E2FD0E52D009EBE9FF74
:1010B0000AEBEAFFEE52EF500B6E0C6A0BEBE6FF09
:1010C0000CEBE6FF09EBE9FF0AEBEAFF030EE9266A
:1010D000000EEA22E9CFE9F0EACFEAF0E9CFE6FF35
:1010E000EACFE6FF00EBE6FF01EBE6FF7EEC0FF058
:1010F00046E905EBE9FF06EBEAFF490EE926000E9B
:10110000EA22EF28030BE66E05EBE9FF06EBEAFFA8
:10111000490EE926000EEA22E552E750EF6E09EB90
:10112000E9FF0AEBEAFF020EE926000EEA22EF5081
:10113000E66E02EBE9FF03EBEAFFE552E750EF6EE4
:1011400009EBE9FF0AEBEAFFEF6A0B5001D0FC0E56
:1011500046E9E7CFD9FF1200D9CFE6FFE1CFD9FFAB
:1011600085E900EBE6FF01EBE6FF02EBE6FF03EBB0
:10117000E6FF4A0EE66E010EE66EF7DE46E941E94D
:10118000E7CFD9FF1200D9CFE6FFE1CFD9FF86E93B
:1011900000EBE6FF01EBE6FF02EBE6FF03EBE6FF09
:1011A00004EBE6FF4A0EE66E010EE66E52DF47E9FB
:1011B00041E9E7CFD9FF1200D9CFE6FFE1CFD9FF50
:1011C00085E900EBE6FF01EBE6FF02EBE6FF03EB50
:1011D000E6FF000EE66E010EE66EC7DE46E941E967
:1011E000E7CFD9FF1200D9CFE6FFE1CFD9FF86E9DB
:1011F00000EBE6FF01EBE6FF02EBE6FF03EBE6FFA9
:1012000004EBE6FF000EE66E010EE66E22DF47E914
:1012100041E9E7CFD9FF1200D9CFE6FFE1CFD9FFEF
:1012200085E900EBE6FF01EBE6FF02EBE6FF03EBEF
:10123000E6FF950EE66E000EE66E97DE46E941E9A2
:10124000E7CFD9FF1200D9CFE6FFE1CFD9FF86E97A
:1012500000EBE6FF01EBE6FF02EBE6FF03EBE6FF48
:1012600004EBE6FF950EE66E000EE66EF2DE47E951
:1012700041E9E7CFD9FF1200D9CFE6FFE1CFD9FF8F
:1012800085E900EBE6FF01EBE6FF02EBE6FF03EB8F
:10129000E6FF4B0EE66E000EE66E67DE46E941E9BC
:1012A000E7CFD9FF1200D9CFE6FFE1CFD9FF86E91A
:1012B00000EBE6FF01EBE6FF02EBE6FF03EBE6FFE8
:1012C00004EBE6FF4B0EE66E000EE66EC2DE47E96B
:1012D00041E9E7CFD9FF1200D9CFE6FFE1CFD9FF2F
:1012E00085E900EBE6FF01EBE6FF02EBE6FF03EB2F
:1012F000E6FF000EE66E000EE66E37DE46E941E9D7
:10130000E7CFD9FF1200D9CFE6FFE1CFD9FF86E9B9
:1013100000EBE6FF01EBE6FF02EBE6FF03EBE6FF87
:1013200004EBE6FF000EE66E000EE66E92DE47E985
:1013300041E9E7CFD9FF120000014A6B4A0EE66E81
:10134000010EE66EE3DD42E9000EE66E010EE66E8A
:10135000DDDD42E9950EE66E000EE66ED7DD42E970
:101360004B0EE66E000EE66ED1DD42E91200D38E22
:1013700003001200D9CFE6FFE1CFD9FF83E900EBEC
:10138000E9FF01EBEAFFE9CFE9F0EACFEAF000EB91
:10139000E9FF01EBEAFF490EE926000EEA22EF50D1
:1013A000120D0001E951F324E96EEA51F420EA6ECE
:1013B000EF5041E9E7CFD9FF120000014A5101E1A6
:1013C000120093EC0CF0F3CFE9F0F4CFEAF0000157
:1013D000F350F41001E0120073EC0CF0F3CFE9F0DD
:1013E000F4CFEAF00001F350F41001E11200000E16
:1013F000E66E010EE66EBEDF42E9000901E0120072
:101400004A0EE66E010EE66EB5DF42E9000901E024
:101410001200B7EF09F09FEC0CF0F3CFE9F0F4CF36
:10142000EAF0F350F41001E112000001010E4A6FDE
:10143000000EE66E010EE66E9DDF42E9000910E146
:101440004A0EE66E010EE66E95DF42E9000908E1FC
:10145000000EE66E000EE66E8DDF42E9000903E045
:1014600000014A6B12000A0EE66E0CEC13F041E923
:02147000DFD7C4
:0E147200D9CFE6FFE1CFD9FF81E97FE860E83E
:10148000046A056A5F6A80EC10F06C0ED36E9B8C68
:10149000D9500D0FE66EDACFE6FF6CEC0EF042E9A4
:1014A000D9501A0FE66EDACFE6FF3DEC07F042E9BD
:1014B000D9505B0FE66EDACFE6FF6BEC12F042E933
:1014C0009CEC09F0936A8A6A960EE66E50EC12F074
:1014D00041E9F50EE66EF6EC11F041E96FEC0CF027
:1014E0009F909F9A9F868A0EE66E6FEC07F041E907
:1014F0009D860C0EE66EE66A6C0EE66ECAEC10F087
:1015000043E9D950500FE66EDACFE6FF63D942E9DE
:10151000110EE66E1E0EE66EE66A3EEC11F043E931
:101520000BEC0AF0D950400FE66EDACFE6FFD95047
:10153000080FE66EDACFE6FF0F0EE66EF3EC08F06A
:1015400045E9066E063412E3FC0E065C01E1C9D0E3
:1015500006EBE9F00001EA6BE9BFEA69E9C0E6FFE2
:10156000EAC0E6FFE30EE66E1D0EB6D008502A0A6A
:101570006AE0030A40E0010A1EE0220A01E0A6D068
:10158000D950400FE66EDACFE6FF06EBE9F0000136
:10159000EA6BE9BFEA69E9C0E6FFEAC0E6FF085086
:1015A000E66EE66AD9505D0FE66EDACFE6FFD0EC64
:1015B00011F048E996D08A725F50F76ADC0FF66E38
:1015C0001E0EF7220800F550425C02E08A768A88F7
:1015D0005F2A200E5F5C01E15F6AC2EB57F0D950D1
:1015E000500FE66EDACFE6FF080EE66EE66A82EC92
:1015F0000EF044E976D00850E66EE66AC70EE66E55
:101600001D0EE66EE66A3EEC11F045E9586A06509A
:10161000585C67E20001D950400FE96FDACFEAF079
:101620005850EA6AE925E96EDA50EA22EF50E66E90
:10163000E66AC30EE66E1D0EE66EE66A3EEC11F03B
:1016400045E9582AE4D7B30EE66E1D0EE66EE66A4B
:101650003EEC11F043E9050E066E8A705F50F76AA2
:101660003C0FF66E1E0EF7220800F550406E5F50DC
:10167000F76A5C0FF66E1E0EF7220800F550416EF9
:101680005F50F76A7C0FF66E1E0EF7220800F550C9
:10169000426E5F50F76A9C0FF66E1E0EF72208002E
:1016A000F550436E5F50F76ABC0FF66E1E0EF722C0
:1016B0000800F550446ED950400FE66EDACFE6FFD1
:1016C00006EBE6FF3CEC04F043E90BD00850E66E75
:1016D000E66A870EE66E1D0EE66EE66A3EEC11F0D7
:1016E00045E9D950400FE66EDACFE6FFD950080F32
:1016F000E66EDACFE6FF0F0EE66EC3EC08F045E9C2
:10170000066E063412E3FC0E065C01E109D706EB17
:10171000E9F00001EA6BE9BFEA69E9C0E6FFEAC067
:10172000E6FF5A0EE66E1D0E4FD008501F0A1FE04E
:10173000010A1DE0150A42E1D950400FE66EDACFEA
:10174000E6FF06EBE9F00001EA6BE9BFEA69E9C0F0
:10175000E6FFEAC0E6FF0850E66EE66AD9505B0F86
:10176000E66EDACFE6FF7AEC12F048E9D9D64150BE
:10177000500A03E0010A01E0D3D64950190A09E0F2
:101780000A0A05E0020A01E0CBD68A8AC9D68A9AFB
:10179000C7D6020E406E680E416E8AAA02D0426819
:1017A00001D0426AD950400FE66EDACFE6FF030E51
:1017B000E66EE66A82EC0EF044E9B2D60850E66EB8
:1017C000E66A870EE66E1D0EE66EE66A3EEC11F0E6
:1017D00045E9A6D6D9CFE6FFE1CFD9FF83E900EBF3
:1017E000E9FF01EBEAFF020EEF6E0028E96E000E42
:1017F0000120EA6E640EEF6E020E0024E96E000E08
:101800000120EA6E010EEF6E030E0024E96E000E59
:101810000120EA6EEF6800EBE6FF01EBE6FF040E45
:10182000E66EE66A82EC0EF044E90028E96E000EEE
:101830000120EA6E660EEF6E020E0024E96E000EC5
:101840000120EA6E010EEF6E030E0024E96E000E19
:101850000120EA6E010EEF6E040E0024E96E000E08
:101860000120EA6EEF6800EBE6FF01EBE6FF050EF4
:10187000E66EE66A82EC0EF044E90028E96E000E9E
:101880000120EA6E620EEF6E020E0024E96E000E79
:101890000120EA6E120EEF6E030E0024E96E000EB8
:1018A0000120EA6E0A0EEF6E040E0024E96E000EAF
:1018B0000120EA6EC60EEF6E050E0024E96E000EE2
:1018C0000120EA6EEF6A060E0024E96E000E012088
:0E18D000EA6E110EEF6E41E9E7CFD9FF12006C
:0218DE00D08EAA
:1018E000F28EF28C1200F250800B800A01E0010EA1
:1018F0000001E96FEA6B800B01E0EA69E9C0F3FFE0
:10190000EAC0F4FF1200F250400B400A01E0010E61
:101910000001E96FEA6B800B01E0EA69E9C0F3FFBF
:10192000EAC0F4FF1200F2BC04D0DDDFF350F41083
:1019300002E0000E01D0010EF36EF46A1200F3DF34
:10194000F3CFE9F0F4CFEAF00001F350F41006E130
:10195000CADFF350F41002E1010E01D0000EF36E65
:10196000F46A1200DACFE4FFE2CFDAFFE9CFE4FF56
:10197000EACFE4FFD9CFE4FFDACFE4FFF0C0E4FF21
:10198000F1C0E4FFF2C0E4FFF3C0E4FFF6CFE4FFF0
:10199000F7CFE4FFF5CFE4FFF3CFE4FFF4CFE4FFAC
:1019A000FACFE4FF00EEE9F0070EE80403E3EECF20
:1019B000E4FFFBD7E6529EA603D09E9602EC05F00C
:1019C000F2A403D0F294DCEC0FF0DDEC09F0E55268
:1019D00000EEEFF0070EE80403E3E5CFEDFFFBD7E1
:1019E000E5CFFAFFE5CFF4FFE5CFF3FFE5CFF5FF55
:1019F000E5CFF7FFE5CFF6FFE5CFF3F0E5CFF2F067
:101A0000E5CFF1F0E5CFF0F0E5CFDAFFE5CFD9FF94
:101A1000E5CFEAFFE5CFE9FFE5CFDAFF1100D8CF48
:101A2000E4FFE0CFE4FFE46EDACFE4FFE2CFDAFFD9
:101A3000E9CFE4FFEACFE4FFD9CFE4FFDACFE4FF58
:101A4000F0C0E4FFF1C0E4FFF2C0E4FFF3C0E4FF44
:101A5000F6CFE4FFF7CFE4FFF5CFE4FFF3CFE4FFE9
:101A6000F4CFE4FFFACFE4FF00EEE9F0070EE8045C
:101A700003E3EECFE4FFFBD7E6529EA003D09E9097
:101A800012EC10F09EAA03D09E9A17EC0EF0E552CD
:101A900000EEEFF0070EE80403E3E5CFEDFFFBD720
:101AA000E5CFFAFFE5CFF4FFE5CFF3FFE5CFF5FF94
:101AB000E5CFF7FFE5CFF6FFE5CFF3F0E5CFF2F0A6
:101AC000E5CFF1F0E5CFF0F0E5CFDAFFE5CFD9FFD4
:101AD000E5CFEAFFE5CFE9FFE5CFDAFFE550E5CF57
:081AE000E0FFE5CFD8FF100084
:081AE80045E8D9CFE6FFDACF93
:101AF000E6FFE1CFD9FFE2CFDAFF8FE90C6A1200EF
:101B0000F3DF0C8003D0F0DF01D00C820B6A0A6A8D
:101B1000096A086A200EE76ED89004360536063644
:101B20000736083609360A360B360050085C015075
:101B3000095802500A5803500B5809E30050085E38
:101B40000150095A02500A5A03500B5A042AE72E30
:101B5000E4D70CB212000CB00AD088EB00F089EB8D
:101B600001F08AEB02F08BEB03F00CA008D084EBC1
:101B700000F085EB01F086EB02F087EB03F0E55215
:101B8000E5CFDAFFE7CFD9FF49E9120044E8D9CF22
:101B9000E6FFDACFE6FFE1CFD9FFE2CFDAFF8EE949
:101BA00080EB08F081EB09F082EB0AF083EB0BF09D
:101BB00004500802F350006EF450016E0450090204
:101BC000F3500126000EF420026E04500A02F35076
:101BD0000226000EF420036E04500B02F35003267D
:101BE00005500802F3500126F4500222000E032291
:101BF00005500902F3500226F450032205500A0250
:101C0000F350032606500802F3500226F450032234
:101C100006500902F350032607500802F35003262A
:0E1C2000E552E5CFDAFFE7CFD9FF48E9000C27
:021C2E009EAA6C
:101C300044D016EC12F0E66EF4C0E9FFF5C0EAFFFE
:101C4000F4C0E9F0F5C0EAF00C0EEB500001EA6ACE
:101C5000E925E96EEA51EA22E552E750EF6EF4C059
:101C6000E9FFF5C0EAFF0C0EE926000EEA22EF2A92
:101C7000F4C0E9FFF5C0EAFF0C0EEB500C081DE1C3
:101C8000F4C0E9FFF5C0EAFFF4C0E9F0F5C0EAF0FE
:101C9000F4C0E6FFF5C0E6FF1F0EE66E0C0EEB503B
:101CA000E66EACEC08F044E9F4C0E9FFF5C0EAFFE9
:101CB0000C0EE926000EEA22EF6A0001FCA70BD009
:101CC000AB98AB88000EE66EE66A1E0EE66EE66A1C
:101CD000ACEC08F044E91200D9CFE6FFE1CFD9FF20
:101CE00083E900EBF4F001EBF5F0F4C0E9FFF5C097
:101CF000EAFF0C0EE926000EEA22EF6A41E9E7CF7F
:101D0000D9FF1200D9CFE6FFE1CFD9FF85E942E83C
:101D1000056A066A056A066A03340650031804E673
:101D20000250055C0350065814E200500524E96E89
:101D300001500620EA6EEFCFE6FFE3EC12F041E936
:101D4000050EE66E35EC12F041E9052A000E06227A
:0A1D5000E3D743E9E7CFD9FF120003
:061D5A004572726F723A3F
:101D600020426164206C6F77207072696F726974B1
:101D70007920726563656976652C20636F646520E0
:101D80003D2025780D0A004572726F723A20556E1B
:101D90006578706563746564206D736720696E2073
:101DA00071756575652C2074797065203D202578E6
:101DB0000D0A0049324320536C61766520526571EB
:101DC0000D0A002025780049324320496E7465725F
:101DD0007275707420726563656976656420257814
:101DE0003A20004572726F723A204261642068693D
:101DF0006768207072696F726974792072656365B3
:101E00006976652C20636F6465203D2025780D0A76
:101E10000048656C6C6F0D0A004D53473A202564ED
:101E20002025642025730D0A0054494D4552313A4E
:0C1E30002025642025642025640D0A0094
:041E3C00000000039F
:101E4000000301010003030303030303030300036F
:101E5000010302020303030000000000000000FF72
:101E600000FFFFFF00FFFFFFFFFFFFFFFFFF00FF7F
:101E7000FF32CEF6142834000000000000000003FA
:101E8000030001010003030303030303030303002F
:101E9000010302020303030000000000000000FF32
:101EA000FF00FFFF00FFFFFFFFFFFFFFFFFFFF003F
:101EB000FF32CEF6142834000000000000000000BD
:101EC00000000000030303030303030303030303EE
:101ED000030303030303030303030303FFFFFFFFE2
:101EE000FFFFFFFFFFE1C3A587694B2D0F001E3CDD
:0C1EF0005A5A6E787D7F7F9DBBD9F7FFAA
:041EFC00D9CFE6FF55
:101F0000DACFE6FFFA0EE3CFD9FFFB0EE3CFDAFF1D
:101F1000FC0EE3CFE9FFFD0EE3CFEAFFE9CFF3FFCD
:101F2000EACFF4FFF80EE35003E1F90EE35008E0C6
:101F3000F80EE30602E2F90EE306DECFEEFFF2D77B
:101F4000FF0EE3CFDAFFE552FF0EE3CFD9FFE552F4
:101F50001200FE0EE3CFE9FFFF0EE3CFEAFFF36AC4
:101F6000F46AEE5203E0F34AF42AFBD71200FF0EA4
:101F7000E3CFF8FFE552FF0EE3CFF7FFE552FF0E88
:101F8000E3CFF6FFE552E66AE66AE66A0900F55233
:101F900009E0FD0EE32A05E1FE0EE32A02E1FF0E51
:101FA000E32AF4D7FD0EE3CFF0F0FE0EE3CFF1F01D
:081FB000FF0EE3CFF2F0120076
:081FB800D9CFE6FFE1CFD9FF0C
:101FC00081E946E8000EE66EE66AB3EC12F042E9FB
:101FD00094EC10F0D950010FE66EDACFE6FFD9503D
:101FE000050FE66EDACFE6FF020EE66E53EC09F05F
:101FF00045E9036E046AE8BE0468020E03180EE1A8
:1020000004500CE1D950010FE66EDACFE6FF0A0E5C
:10201000E66E020EE66EDCEC08F044E947E9E7CF35
:10202000D9FF1200D9CFE6FFE1CFD9FF81E942E81D
:102030009BEC12F0F350016EF450026E000EE66E4F
:10204000E66A0B0EE66EE66AACEC08F044E9000EB8
:10205000E66EE66A83EC12F042E943E9E7CFD9FF86
:0220600012006C
:0E2062001E0EF66E000EF76E000EF86E0001F8
:102070000900F550E46F0900F550E56F03E1E467EE
:1020800001D03DD00900F550DF6F0900F550E06F39
:102090000900F550E16F09000900F550E96E0900EB
:1020A000F550EA6E090009000900F550E26F0900D9
:1020B000F550E36F09000900F6CFE6F0F7CFE7F03F
:1020C000F8CFE8F0DFC0F6FFE0C0F7FFE1C0F8FFAF
:1020D0000001E25302E1E35307E00900F550EE6E20
:1020E000E207F8E2E307F9D7E6C0F6FFE7C0F7FF3B
:1020F000E8C0F8FF0001E407000EE55BBFD712005F
:102100000B0EE66E040EE66E910EE66E70EC11F0AC
:1021100043E98F0EE66ECBEC12F041E9320EE66E2B
:1021200053EC13F041E91200D9CFE6FFE1CFD9FF1C
:1021300081E945E8550E036E67EC13F007EC00F0FB
:102140000009FCE147EC13F0F350046EF450056E07
:10215000010EE66E0CEC13F041E9000105EBE9F02D
:10216000EA6BE951016EFF0E0414026ED950010FA3
:10217000E66EDACFE6FFD950030FE96FDACFEAF067
:10218000E66E020EE66E6CEC09F044E946E9E7CF34
:04219000D9FF120061
:0C219400D9CFE6FFDACFE6FFE1CFD9FF9C
:1021A000E2CFDAFF85E9AC6AAB6A02B0AC8802A282
:1021B00002D0AC8CAB8C02B4AC8E02A602D0AB8841
:1021C00001D0AB8A02B8AC849E9802BAAB8602AC4E
:1021D00002D09D8A01D09D9A9E9A02AE02D09D881F
:1021E00001D09D9800EBAFFF000101EBE9F0EA6B35
:1021F000E9C0B0FFAC8AAB8E949C948EAC50100BAF
:1022000004E0AC50800B01E1948C41E9E5CFDAFFAA
:06221000E7CFD9FF120028
:0A221600D9CFE6FFDACFE6FFE1CFF3
:10222000D9FFE2CFDAFF85E9013415E200EBE9FFDF
:1022300001EBEAFFEECFF3FFEDCFF4FFEE2A000E45
:10224000EF22F3CFE9FFF4CFEAFF02EBEFFFEF500D
:10225000F36EF46A0DD0FE0E005C05E102EBE6FFC2
:102260002CEC13F004D002EBE6FF03EC00F041E9A4
:0C22700041E9E5CFDAFFE7CFD9FF12000B
:04227C00D9CFE6FFD1
:10228000DACFE6FFE1CFD9FFE2CFDAFF85E944E814
:10229000D9CFE6FFDACFE6FFE552E550066EE7500C
:1022A000056E05EBE6FF06EBE6FF00EBE6FF01EB54
:1022B000E6FF02EBE6FFF8C0E6FFF9C0E6FF2FEC11
:1022C00000F047E9F350076EF450086E07EBF3FF98
:1022D00008EBF4FF45E9E5CFDAFFE7CFD9FF1200BD
:1022E000D9CFE6FFDACFE6FFE1CFD9FFE2CFDAFFC1
:1022F00085E9C26AC06A01407F0B3C0BC26E01389F
:10230000F00B300B0001E96F0F0E0014E911C16EE4
:102310000250040DF350380BEA6F02380F0B070B15
:10232000E96F800E0214E911EA11C06E01AE03D00C
:102330009E9C9D8CF28CC28041E9E5CFDAFFE7CF0D
:04234000D9FF1200AF
:0C234400D9CFE6FFE1CFD9FF89E91E0EDA
:10235000041802E1055020E01F0E04181DE105508D
:102360001BE100500224E96E01500320EA6EEF6A7F
:1023700000EBE6FF01EBE6FF02EBE6FF03EBE6FF17
:1023800004EBE6FF05EBE6FF190EE66E1E0EE66EA9
:10239000E66A3EEC11F049E941E9E7CFD9FF1200C6
:1023A000D9CFE6FFE1CFD9FF89E942E880EB09F018
:1023B00081EB0AF009EBE9FF0AEBEAFFEECFE6FF5B
:1023C000EECFE6FF02EBE6FF03EBE6FF04EBE6FFF2
:1023D00005EBE6FF290EE66E1E0EE66EE66A3EECA3
:0C23E00011F049E943E9E7CFD9FF1200F2
:0423EC00D9CFE6FF60
:1023F000DACFE6FFE1CFD9FFE2CFDAFF83E97E0E45
:102400000014CD6E00AC02D0CD8E01D0CD9ECF6A2F
:10241000CE6A9E9000AE02D09D8001D09D90CD806E
:0C24200041E9E5CFDAFFE7CFD9FF120059
:04242C00D9CFE6FF1F
:10243000DACFE6FFE1CFD9FFE2CFDAFF82E941E868
:10244000F20E0001FC17ABAC03D0FC91ABB0FC81E9
:10245000ABB4FC85ABB2FC87AE50026E025042E9D1
:0A246000E5CFDAFFE7CFD9FF120045
:06246A00FF0EE35000012B
:10247000FB6FEE0E02D0F20E0000E76EE72E3EEF8D
:1024800012F00C0E0001FA6FE76AE72E45EF12F02A
:10249000FA2F44EF12F00001FB2F3BEF12F0120075
:1024A000D9CFE6FFDACFE6FFE1CFD9FFE2CFDAFFFF
:1024B00083E97F0E0014D56ED76AD66AF29400AE17
:1024C00002D0F28A01D0F29AD58E41E9E5CFDAFF47
:0624D000E7CFD9FF120066
:0A24D600D9CFE6FFE1CFD9FF83E97B
:1024E00000EBE9FF01EBEAFFEE6AED6A41E9E7CFB5
:1024F000D9FF1200D9CFE6FFE1CFD9FF89E941E941
:06250000E7CFD9FF120035
:0A250600D9CFE6FFDACFE6FFE1CF00
:10251000D9FFE2CFDAFF84E942E880EB04F081EBF7
:1025200005F005EBCFFF04EBCEFF43E9E5CFDAFF83
:06253000E7CFD9FF120005
:0A253600D9CFE6FFDACFE6FFE1CFD0
:10254000D9FFE2CFDAFF82E942E8CE50026ECF50E7
:10255000036E02EBF3FF03EBF4FF43E9E5CFDAFF91
:06256000E7CFD9FF1200D5
:0A256600D9CFE6FFDACFE6FFE1CFA0
:10257000D9FFE2CFDAFF84E942E880EB04F081EB97
:1025800005F005EBD7FF04EBD6FF43E9E5CFDAFF13
:06259000E7CFD9FF1200A5
:0A259600D9CFE6FFDACFE6FFE1CF70
:1025A000D9FFE2CFDAFF83E9C30EC2140001E96F5D
:1025B00000407F0B3C0BE911C26E41E9E5CFDAFF29
:0625C000E7CFD9FF120075
:0A25C600D9CFE6FFDACFE6FFE1CF40
:1025D000D9FFE2CFDAFF83E9ACAC04D0AC900001C4
:1025E000FCB3AC8000EBADFF41E9E5CFDAFFE7CF0C
:0425F000D9FF1200FD
:0C25F400F36AF46AFF0EE124E96EFF0EAA
:10260000E220EA6EED6607D02F0EEF6404D03A0E9A
:08261000EF6001D0F32A120073
:08261800FF0EE3500001FB6F0F
:10262000480E01D04C0EE76EE72EFED7E76AE72E84
:08263000FED7FB2FF7D71200C3
:08263800000EF36E00EE00F04D
:102640000D0E01D81200EA6002D0EE6AFCD7F350FA
:08265000E9601200EE6AFCD7FC
:08265800FF0EE350ACBA04D000
:10266000AF6AAB8EAC8A949CACA2FED7AD6EF36E13
:04267000F46A1200F6
:0C2674001CEE00F02CEE00F0F86A31ECD7
:0E26800010F069EC13F039EC0AF0FBD71200F1
:02268E00C4CFB7
:10269000EBF0EBC0ECF00001EB6BC350EB11F36E11
:0626A000ECC0F4FF120083
:0A26A600FF0EE350E84E12000000A2
:0C26B00000D000D000D0E82EFAD71200B5
:0426BC003031323354
:0D26C0003435363738396162636465660071
:0226CE00C282C6
:0226D0001200F6
:0226D2001200F4
:0226D400FEFF07
:020000040030CA
:010003001EDE
:00000001FF
